:020000040800F2
:1000000000200020752F00088111000883110008CE
:1000100000000000000000000000000000000000E0
:100020000000000000000000000000008511000832
:10003000000000000000000087110008891100087E
:10004000C52F0008C52F0008C52F0008C52F0008C0
:10005000C52F0008C52F0008C52F0008C52F0008B0
:10006000C52F0008C52F000891110008C52F0008F2
:10007000C52F0008C52F000800000000A1110008CE
:1000800000000000C52F0008000000000000000074
:10009000C52F000800000000C52F0008C52F00086C
:1000A000C52F0008C52F0008C52F0008C52F000860
:1000B000C52F0008C52F000800000000C52F00084C
:1000C00010B5064C2378002B07D1054B002B02D02E
:1000D000044800E000BF0123237010BD98000020F9
:1000E00000000000FC5B0008044B10B5002B03D09F
:1000F0000349044800E000BF10BDC04600000000F6
:100100009C000020FC5B000802780B78002A03D0DA
:10011000013001319A42F7D0D01A704702B47146CB
:1001200049084900095C49008E4402BC7047C0463A
:1001300003B47146490840004900095E49008E44F5
:1001400003BC7047002243088B4274D303098B42DF
:100150005FD3030A8B4244D3030B8B4228D3030C97
:100160008B420DD3FF22090212BA030C8B4202D339
:100170001212090265D0030B8B4219D300E0090A61
:10018000C30B8B4201D3CB03C01A5241830B8B426A
:1001900001D38B03C01A5241430B8B4201D34B0353
:1001A000C01A5241030B8B4201D30B03C01A5241B8
:1001B000C30A8B4201D3CB02C01A5241830A8B423D
:1001C00001D38B02C01A5241430A8B4201D34B0226
:1001D000C01A5241030A8B4201D30B02C01A52418A
:1001E000CDD2C3098B4201D3CB01C01A524183093E
:1001F0008B4201D38B01C01A524143098B4201D378
:100200004B01C01A524103098B4201D30B01C01AA2
:100210005241C3088B4201D3CB00C01A524183081C
:100220008B4201D38B00C01A524143088B4201D349
:100230004B00C01A5241411A00D2014652411046A9
:100240007047FFE701B5002000F006F802BDC04688
:100250000029F7D076E770477047C046002B11D1D0
:10026000002A0FD1002900D1002802D00021C94363
:10027000080007B4024802A14018029003BDC0461E
:10028000D9FFFFFF03B4684601B5029800F034F8C7
:10029000019B9E4602B00CBC7047C046F0B5CE46EE
:1002A000474680B5070099463B0C9C4613041B0C3F
:1002B0001D000E0061460004140C000C45434B4326
:1002C00060436143C0182C0C20188C46834203D92C
:1002D00080235B029846C444494679437243030C29
:1002E00063442D042D0CC918000440198918C0BCA2
:1002F000B946B046F0BDC046F0B557464E464546F5
:10030000DE46E0B504000D009246994683B08B426C
:1003100030D82DD04946504600F0BAF829000600E2
:10032000200000F0B5F8331A9846203B9B4633D4A2
:100330005A465346934042461F00534693401E0080
:10034000AF423AD8AF4200D178E05B46A41BBD4132
:10035000002B00DA75E000220023009201930123B4
:100360005A4693400193012342469340009328E06C
:100370008242CFD900220023009201930C9B002BD4
:1003800001D01C605D600098019903B0F0BCBB46D1
:10039000B246A946A046F0BD424620239B1A5246CB
:1003A000DA40414613004A468A40170042461F433E
:1003B000534693401E00AF42C4D90022002300924E
:1003C00001934346002BD9D0FB0772081A434646D7
:1003D0007B080EE0AB4201D1A2420CD8A41A9D4189
:1003E000012024196D410021013E24184D41002EA9
:1003F00006D0AB42EED9013E24196D41002EF8D152
:10040000009801995B4600196941002B24DB2B0001
:100410005A464446D3402A00E2401C005B46150081
:10042000002B2ADB26009E40330026004746BE40B4
:100430003200801A9941009001919FE7A342BCD8F5
:1004400083E74246202300219B1A0022009101925B
:100450000122DA40019286E7424620239B1A2A00B5
:1004600046469A402300F340444613432A00E240A4
:100470001C005B461500002BD4DA42462F002023D7
:10048000260097409B1ADE403B003343CDE7C04631
:1004900010B5002903D100F007F8203002E0080071
:1004A00000F002F810BDC0461C2101231B04984235
:1004B00001D3000C10391B0A984201D3000A0839F5
:1004C0001B09984201D30009043902A2105C4018AC
:1004D0007047C04604030202010101010000000050
:1004E000000000000023F0B587B005AC0E000A2123
:1004F000150007002370FFF725FE0A2103013800CD
:100500000393FFF7A5FE039B3000591861700A2181
:10051000FFF718FE0A2107013000FFF799FE2800B7
:100520007F180A21A770FFF70DFE060130200A216F
:1005300006402800FFF78CFE64237618E670220040
:100540000093D021603B024803F070FC07B0F0BD7F
:10055000BC0400200023F0B587B0160002AA642571
:10056000D3730F22294C039102A902905218200044
:10057000D1210095013303F059FC029A0123D121C6
:100580002000009503F0E4FC01270F2202AB02A932
:10059000DF7352183B00D1212000009503F046FC88
:1005A0003B00039AD1212000009503F0D1FC0223E7
:1005B00002AAD3730F2202A93B0052182000D121B6
:1005C000009503F033FC3B003200D1212000009560
:1005D00003F0BEFC0A230F2130788206920F5A43A3
:1005E000084012183270039A107802095A430840E2
:1005F000121803980270029A1278100943430A40B5
:100600009B18029A137007B0F0BDC046BC040020CE
:100610000423F0B587B005AC0E000A2115000700D1
:100620002370FFF78FFD0A21030138000393FFF7C2
:100630000FFE039B3000591861700A21FFF782FDFD
:100640000A2107013000FFF703FE28007F180A2166
:10065000A770FFF777FD060130200A210640280029
:10066000FFF7F6FD64237618E67022000093D02190
:10067000603B024803F0DAFB07B0F0BDBC04002089
:100680000423F0B587B0039202AA6425D3730F2226
:100690000700284C0E0002A952182000D121009515
:1006A000033B03F0C3FB3A000123D1212000009556
:1006B00003F04EFC052302AAD3730F2202A952189D
:1006C0002000D1210095043B03F0B0FB3200012350
:1006D000D1212000009503F03BFC062302AAD3732E
:1006E0000F2202A952182000D1210095053B03F0EA
:1006F0009DFB039A0123D1212000009503F028FCE3
:100700000A230F21387802095A43084012183A7018
:100710003078C206D20F5A43084012183270039A3A
:100720001278100943430A409B18039A137007B0CC
:10073000F0BDC046BC04002030B50C256843034C16
:10074000225024186160A36030BDC046B400002070
:10075000104B0020190070B50F4A104C156801307D
:10076000AD002D591D605568AD002D595D6095682F
:100770000C32AD002D599D600C332428EED1D823C6
:1007800000225B00CA50B532FF32054804F0BAFAC5
:1007900070BDC04664020020B4000020345C000834
:1007A00008050020D82210B500210248520004F0AC
:1007B0009DFD10BDB4000020F0B50C26350045436A
:1007C0000B4C70432F5965196D68BA1A6D1A574250
:1007D0007A4169424D412418A168D2B25219994216
:1007E00001D10132D2B2033A53425A41D0B2F0BDE4
:1007F000B400002010B59CB0242200210FA804F002
:1008000075FD1422002101A804F070FD20220021B2
:1008100006A804F06BFD1B491B4A0B6801241A4013
:1008200080231B0113430B6002230E9318930023B4
:1008300019931A9380231022DB030EA811941292AD
:100840001B9303F04DFD002801D072B6FEE70F2385
:100850000390019304900C3B0590210001A80293A2
:1008600003F0C0FF002801D072B6FEE708230B900A
:1008700006A8069304F084F8002801D072B6FEE7BB
:100880001CB010BD00700040FFE7FFFFF0B501266F
:100890008BB002F0BDFBFFF7ADFF1422002105A8CD
:1008A00004F024FD0221A0207A4FC005FB6A002538
:1008B0003343FB62FB6A33400193019BFA6A0A43AC
:1008C000FA62FB6A00220B4002930631029B03F09E
:1008D00031F900223100704803F02CF9A0200423E4
:1008E00005A9C00505930695079603F05DF8A020BD
:1008F000082205A9C005059206960795089503F0FC
:1009000053F8654805A9059606960795089503F0DE
:100910004BF80822290005A804F0E8FC06235F4CE8
:10092000A363C223FF3363625D4B22002360042371
:100930002C3220002584E563A5621570256365636C
:100940006560A560E56026616361A561E56102F00F
:100950004FFCA84201D072B6FEE7802320005B0165
:1009600005A90596069302F0CFFD002801D072B6C6
:10097000FEE74C4B200005A9059302F0C5FD041EBF
:1009800001D072B6FEE73B6B010033433B633B6B28
:10099000020033400A200093009B02F009FE0A2067
:1009A00002F030FE404D414B28002B60404BAC60C4
:1009B0006B60EE602C616C61AC61EC612C6203F0E9
:1009C000DFF9011E01D072B6FEE7280003F0F6FB46
:1009D000011E01D072B6FEE7280003F015FC031ECD
:1009E00001D072B6FEE73348334A83600260822248
:1009F000C36003614361036243628362102407237F
:100A000052004260FC328261C461C36204F018F992
:100A1000051E01D072B6FEE72200010005A804F011
:100A200065FC0822290003A804F060FC8023234C05
:100A3000DB0523601F236360214B2000A560E3607A
:100A40002561656104F042FA002801D072B6FEE724
:100A5000802320005B0105A9059304F087FA002894
:100A600001D072B6FEE70390049003A9200004F0C1
:100A7000B7FB002801D072B6FEE700220F2011005C
:100A800002F096FD0F2002F0BDFD02F0D5F902F054
:100A9000F9F9FEE70010024000040050180400209D
:100AA0000024014002000004BC0400200054004067
:100AB000280C2000080500200030014060050020BF
:100AC000E703000072B6FEE7002110B5884200D0AF
:100AD000FF3180220248D20004F008FC10BDC0465D
:100AE000A605002030B504007F2812D83F2910D871
:100AF0000E4B0F4D1879CB0800280BD0002A0BD1D4
:100B0000D80107231940063B8B4000192A5C134388
:100B10002B5430BD012AF3D0D801072301221940FC
:100B20008A4000192B5C9343F2E7C046A0050020E1
:100B3000A6050020014B188059807047A0050020B1
:100B4000F7B507000C00002500926378AB4206D889
:100B5000154A2378118838005B181380FEBD3A00CF
:100B60000026203A534362685B195B009B5A01934D
:100B70000D4B22781888B24201D80135E5E7598833
:100B8000019B8022B34080194919120280B289B2B8
:100B9000134204D0009AFFF7A5FF0136E8E7009B57
:100BA0005A425A41D2B2F6E7A005002070B50400BF
:100BB0000D0016002078002800D170BD32002900F9
:100BC000FFF7BEFF030020788342F6D10134F1E73E
:100BD000F0B587B00CAC24780594041C7F2800D9AC
:100BE0007F24A4B2161C7F2A00D97F26B6B20D1C22
:100BF0003F2900D93F25ADB21F1C3F2B00D93F270D
:100C0000BFB2331BA64200D8A31B1BB20093BD4248
:100C100024D27B1B1BB20193012303930493A642AE
:100C200001D8023B0393009B019A934223DD009A73
:100C3000DB0F9B185B100293009B002B2BD1BD4256
:100C400002D92B003D001F00331CA64200D9231CF3
:100C50009CB22DB2BD4216DD07B0F0BDEB1B1BB23E
:100C600001930123A64203D90393023B0493DAE7DD
:100C70005B420393FAE7019B019ADB0F9B185B1021
:100C80005B421BB2D7E7ADB229002000059AFFF7FF
:100C900029FF0135DDE7019B002B15D12B1CBD423F
:100CA00000D93B1C9DB2A64202D2230034001E0094
:100CB00024B2B442D0DCA4B220002900059AFFF788
:100CC00011FF0134F4E7029329002000059AFFF791
:100CD00009FFA64201D1BD42BED0009B5A42029BF1
:100CE000934205DD019A9B1A039A1BB2A418A4B281
:100CF000029A01998A42E6DA009A9B18049A1BB27A
:100D0000AD18ADB2DFE7F0B585B01D000AAB1B78BA
:100D100007000E0003937F2831D83F292FD883186E
:100D20007F2B02DD8022121A92B273193F2B02DD53
:100D30004025AD1BADB2039BD21994B22200310005
:100D4000380000933300FFF743FFAD19039BADB2AA
:100D500022002900380000932B00FFF739FF039B86
:100D60003A003100380000932B00FFF731FF039B5E
:100D70002200009331002B002000FFF729FF05B06F
:100D8000F0BDF0B585B002930AAB1B7805000F00EB
:100D9000140003937F2814D83F2912D883187F2B7F
:100DA00002DD8024241AA4B2029BFB183F2B03DD32
:100DB0004023DB1B9BB202930026029BB1B29E42F2
:100DC00001D905B0F0BD039BC91989B2621900931E
:100DD00028000B0092B20136FFF7FAFEF6B2ECE7FC
:100DE00010B50020FFF770FE10BD000070B50024A4
:100DF000C2B0150002AA11709C4209D381B20A2028
:100E0000013300909BB2054803F010F842B070BD6A
:100E10002E5D111901344E70E4B2EDE7BC040020E0
:100E20001FB56B4619735A730A230100009303AA76
:100E3000083B024802F0FAFF05B000BDBC040020E8
:100E400070B5B02478250E4E220000212800FFF74F
:100E5000E7FF002228001100FFF7E2FF0134102213
:100E600000212800FFF7DCFFE4B23200802340219C
:100E70002800FFF7BBFF8036B82CE5D170BDC04617
:100E8000A605002010B501227821524B524803F0EC
:100E9000F1F80024A04200D09AE02100AE22782090
:100EA000FFF7BEFF210020227820FFF7B9FF2100C5
:100EB00010227820FFF7B4FF2100B0227820FFF73E
:100EC000AFFF2100C8227820FFF7AAFF22002100EF
:100ED0007820FFF7A5FF210010227820FFF7A0FF60
:100EE000210040227820FFF79BFF210081227820FB
:100EF000FFF796FF2100FF227820FFF791FF2100E6
:100F0000A1227820FFF78CFF2100A6227820FFF78E
:100F100087FF2100A8227820FFF782FF21003F22CF
:100F20007820FFF77DFF2100A4227820FFF778FFCB
:100F30002100D3227820FFF773FF220021007820C0
:100F4000FFF76EFF2100D5227820FFF769FF21000F
:100F5000F0227820FFF764FF2100D9227820FFF7E4
:100F60005FFF210022227820FFF75AFF2100DA22BA
:100F70007820FFF755FF210012227820FFF750FF5D
:100F80002100DB227820FFF74BFF21002022782070
:100F9000FFF746FF21008D227820FFF741FF210057
:100FA00014227820FFF73CFF2100AF227820FFF7C2
:100FB00037FF21002E227820FFF732FF2000FFF7B5
:100FC00083FDFFF73DFF054B1C805C8001345C71A5
:100FD000200010BD204E0000BC040020A005002011
:100FE00070B50D00040002F093FC044B2A00E118D8
:100FF000002002F0AFFC02F0A3FC70BD0000080866
:10100000024BC0180078C0B27047C0460000080804
:101010000122054B596B0A435A638022996B520592
:101020000A439A637047C0460010024010B504009E
:1010300086B01422002101A804F058F90D4B226853
:101040009A4215D180220C4B9200596BA0200A4382
:1010500001215A63DA6AC0050A43DA62DB6A0B408F
:101060000093009B032301A90193029302F09CFCCF
:1010700006B010BD002401400010024010B504006D
:1010800086B01422002101A804F030F90F4B226829
:101090009A4219D102210E4C0E48E26A0A43E262DA
:1010A000E36A0B400093009BC0230193AE3B029385
:1010B0000F3B049301A9023B059302F075FC8023CA
:1010C000A26B9B031343A36306B010BD0054004002
:1010D000001002400004005070B5050086B01422D4
:1010E000002101A804F002F91A4B2A689A422FD174
:1010F00080220126184B5201596BA0200A435A63E3
:10110000DA6AC0053243DA62DB6A01A93340009330
:10111000009BA02301939E3B02939B19049302F032
:1011200043FC0E4C0E4B802223601023A36000234F
:1011300020006660E36022616361A361E361236272
:1011400002F086FA002801D0FFF7BCFCAC64A5626F
:1011500006B070BD00300140001002407404002051
:101160003000024080230268DB059A4204D101234B
:10117000024A916B0B4393637047C04600100240D4
:10118000FEE7FEE77047704710B501F055FF10BD50
:1011900010B5024802F0E0FA10BDC0467404002009
:1011A00010B5024803F094FF10BDC0466005002052
:1011B0000B4A0C490300891A0B4A10B51068002825
:1011C00001D10A4810601068C3188B4206D904F098
:1011D0003DF80C2303600120404210BD1360FCE782
:1011E0000004000000200020A8090020701000204A
:1011F0007047000070B51D00062314005843C90055
:10120000FFF798FC2A0020000149FFF7CFFC70BDD2
:1012100000000020F0B585B01E000AAB1B780F005F
:10122000040015000393FFF7DBFD002101230800F4
:101230007F2200930633FFF7A4FD00233A00190034
:101240001800FFF7D7FF039B5F00E719BC4201D1ED
:1012500005B0F0BD61782078330004CDFFF7CAFFF8
:101260000234F3E710B5064C2200611CA01CFFF706
:1012700007FAE21C211D601DFFF76CF910BDC04686
:101280002900002010B5064C22786178A078FFF77D
:10129000BFF9E27821796079FFF724F910BDC046E3
:1012A0002900002010B501F0D3FE104A1368C31ABC
:1012B000962B10D9962110600D4A0E4B508849008C
:1012C000984209D903240C48047012888A4208D233
:1012D0000122094B1A7010BD8842F6D20424064838
:1012E000F2E79A42F7D90222034BF3E7C009002044
:1012F000AE090020AC0D0000CC09002010B5012B78
:1013000015D0022B20D0002B1DD1164C2378032B97
:1013100004D103788B4216D2013303702378042B57
:1013200011D1037893420ED9013B03700BE00D4CB1
:101330002378022B04D103788B4204D2013303704B
:101340002378012BEDD010BD064C2378042B04D15B
:1013500003788B42F7D2013303702378032BF2D149
:10136000DFE7C046CC090020A02010B50421C0054D
:1013700002F0DAFB0A4C23781843C0B2002802D1ED
:101380000130207010BDA0200421C00502F0CCFB6C
:101390000028F7D020780028F4D00020F1E7C046DC
:1013A000D609002084B010B5059309236B44DC7F77
:1013B00002900391049202AB987D0138032809D86A
:1013C000FEF7ACFE020C10140023012204212000C1
:1013D000FFF7B2F910BC08BC04B018470423002280
:1013E0000121F4E7042200231100F0E70423002187
:1013F0001A00ECE7F0B55E4B9FB01C78002C34D19E
:1014000001221A70FFF7CEF95A4BE2B20492610141
:10141000CA5A5918CE888B884D8936044F881E4386
:101420000B892D041D433F04CB8917438A891B0474
:1014300013431031102268460793013403F03AFF3A
:10144000380031002A00079BFFF7ACFF242CDBD1CA
:10145000FFF77EF9902100234748C900C25C002AAB
:1014600000D17CE00122454B1A70FFF7FBFE002300
:101470000221434F08AC23703B780125052202333B
:101480006370E17003234918E171E173FA213D4E65
:1014900062725219E2720532637122736373327899
:1014A0000A33A5702571A5712572A572A373C900B1
:1014B0005218B178737814A80091334904F03EF8BB
:1014C00071793379F27819A80091304904F036F82F
:1014D0002F4B14A90C932F4B12910D932E4B19A93E
:1014E0000E932E4B20000F932D4B0CAA10932D4BD7
:1014F0001391119308232C4900932B00FFF78AFEC8
:10150000FFF79EFCFFF7CEFE0223002204213800E5
:10151000FFF7F4FE0022254B1A70FFF725FF002885
:101520001BD03B78002B07D1FFF73CF9FFF710F9F0
:101530001F4A13785B19137000203A781D4B511C19
:1015400019700B49087082420FD00C4A12788242FF
:101550000BD11949013008701A701FB0F0BD20334B
:101560008B4200D07AE7054B7EE700233B70F4E71F
:101570000C000020D8090020EE090020B609002048
:101580003B100020290000203D6600084C66000842
:101590005B6600085D660008676600087066000804
:1015A000896800087A66000883660008CC09002074
:1015B0003C100020AC090020B4090020F0B5002741
:1015C00095B00A900B9101200B2103F035FE3C00F1
:1015D0003D00059003970122039B0CA89B18DBB2EA
:1015E000837006930223C370764B00261193764BCB
:1015F00042701293059B027113930323427106708C
:101600000A990093130011AAFFF704FE0B9BB34243
:101610000CD06E4B6E491A780EA8013203F08EFF83
:101620003300310011200EAAFFF7E4FD00230493DC
:10163000049B0026DB0020339BB207930B23049A04
:101640005343644AD2180892634AD31809930A2074
:1016500070430E30079980B2FFF76CFA099B002F98
:1016600000D0089B985DF3B20122AB4204D16B46D7
:101670001A7C121B531E9A415849D2B20136FFF709
:101680005FFA0A2EE3D1049B01330493042BCFD1DC
:1016900001230A2D02D123005A1E9341DBB20421FB
:1016A00013204F4AFFF7A6FD01230A2D02D1A31EE6
:1016B0005A1E9341062113204A4ADBB2FFF79AFDD6
:1016C0000A2D02D10023032C01D00123DB1B3E4A4B
:1016D000DBB207211320FFF78DFDFFF7B1FB2300DD
:1016E00002220A26934303D0E61E73425E41093666
:1016F000FFF7D8FD3C4A1378012B05D1002D01D00E
:10170000013DEEB2350011E0022B0BD0032B26D0A9
:10171000042B0BD10A2D30D1002C32D0022C32D028
:10172000002403E0B54245D20135EDB20023137029
:10173000FFF71AFE002800D14DE70A2D25D00B2314
:10174000254A6343002F00D0224AD3185B5D059AD7
:1017500003995354069B0A2B2ED003933BE70A2D83
:1017600006D1002C0FD0033C63425C416400DDE7EE
:10177000002C08D0013CE4B2D8E7032CD0D00134CF
:10178000F9E70224D2E70324D0E7002C0AD1039B17
:10179000002B02D0013BDBB203930023059A03998F
:1017A000535418E7022C07D0032C00D013E7012371
:1017B0005F4010E70025B9E700220C4B05981A702E
:1017C00015B0F0BD5B66000889660008D7090020E7
:1017D0008B660008EF6800081B6900080000002005
:1017E0009066000892660008CC0900200C000020DA
:1017F0004A234A211A00F0B54D4F49423C78050072
:101800006143601EC91843434A4EC91885B06243FC
:101810004948891903F057FD042C01D801343C7064
:1018200005246C43FFF71EFD4448454900194B78D9
:101830000A78039008790290C8780190897830007E
:101840000091404903F07AFE032D2CD828003E4E2B
:101850003E4CFEF763FC022A4B58052506243C4FFC
:101860003C497A783B78AA1A6243D218AA403A4B8C
:1018700030009A18937D013B6B43CB18374903F036
:101880005DFE7B78ED1A6C433D78334B641964013F
:101890001C19637F228B0133A17F2C4801310091F9
:1018A0002F4903F04BFE05B0F0BD05250624284F57
:1018B00028497A783B78AA1A6243D218AA40264B64
:1018C00030009A18937D013B6B43CB18234903F0FA
:1018D00035FE7B78234AED1A6C433D781E4B641924
:1018E00064011C19637F12780133D5E71E4B1F4931
:1018F0001A68300003F022FE1D4B1E491A782000A2
:1019000003F01CFECFE71C481C4A41785378013194
:1019100012780191017801330131013200913000D8
:10192000174903F00BFE174B17491A78E7E7C04633
:1019300041100020580E0020A20E00208B690008E4
:101940002900002094660008760E00208C0E0020EE
:101950003E10002053690008D8090020B066000836
:10196000B666000840100020BC090020C4660008CC
:10197000BA090020CC66000835100020371000207E
:10198000DB66000834100020ED66000870B5FEF735
:1019900009FF0024052C03D92300123B052B3BD85B
:1019A000002304211A002000FEF7C6FE0134E4B231
:1019B000242CEFD1FEF7CCFE0C3C21002B20FFF7AE
:1019C000B9F8204D002229001F48FFF7EFF8182131
:1019D0002720FFF7AFF80134012229001B48FFF749
:1019E000E5F8A4B2FFF72CFAC82001F037FB212C50
:1019F000E3D1FA20800001F031FBFEF7D3FEFEF7C1
:101A0000A7FEFFF7EDF9FFF71BFA0020FFF7F8FA42
:101A100043425841C0B270BDA31F052B02D9123BEF
:101A2000052B03D8002304221900BCE723000C3B3C
:101A3000052B02D9123B052BB8D800220423110034
:101A4000B1E7C04600000020FE66000805670008F8
:101A5000F0B58BB0FFF788FC041E07D0FFF712FC2F
:101A600001210020FFF7BCFA0BB0F0BDFFF71AFC14
:101A70003F4E2200012305213000FFF73FFC327862
:101A80003C4C002A04D1130063212000FFF736FCF0
:101A90003278012A04D100230C21601CFFF72EFCB0
:101AA0003378354F022B08D163780122FB18013BB4
:101AB0001978A01C0023FFF721FC3378032B05D1F4
:101AC000002317211A00E01CFFF718FC3378042BC1
:101AD00005D100233B211A00201DFFF70FFC3378AE
:101AE000052B05D100233B211A00601DFFF706FCE2
:101AF0006578A2787F19013F3B789A4200D9A3709C
:101B000000221E4B1E491A7002A8043203F0D2FBB9
:101B1000062133781B4A59435218002B17D1FA2358
:101B20002578DB00ED1805AC2B002000164903F0EA
:101B300005FD164B16490393022303AA009302A83E
:101B4000013B0494FFF766FBFFF77AF982E7012B6C
:101B5000E9D0022B01D1A578E5E7032B01D1E57887
:101B6000E1E7042B01D12579DDE76579DBE7C046A4
:101B70003B1000202900002047690008CC09002004
:101B8000145C0008676900080D6700081567000805
:101B900026670008F0B5574F89B03C787E78FFF78C
:101BA000E3FB051E04D00022534B1A7009B0F0BDB0
:101BB0007B783A7851490133013203A803F0BEFC27
:101BC0002B000621012003AAFFF714FBFFF738F9C9
:101BD000FEF7E8FD4A4B0193019B997D002900D156
:101BE00084E0002304211A002800FEF7A5FD019BD4
:101BF00001352033EDB20193242DEDD10523787802
:101C0000181A013358433B78C0180423C0B21A0095
:101C10001900FEF791FDFEF79BFD3A4B1A88962AB4
:101C20005BD900221A80384B384A5B88934211D91D
:101C30000136F5B20523581B013358430023201801
:101C40001A000421C0B2FEF7B7FD2E000135EDB237
:101C50000028EFD196222C4B52005B88934211D280
:101C6000013EF5B20523581B0133584300232018C9
:101C70001A000421C0B2FEF79FFD2E00013DEDB217
:101C80000028EFD19622204B52001B8893420FD29E
:101C9000052306259B1B5D43EDB20023013CE4B206
:101CA00060191A000421C0B2FEF786FD0028F4D1A5
:101CB000154B164A1B8893420FD9052306259B1BFB
:101CC0005D43EDB200230134E4B260191A0004212F
:101CD000C0B2FEF771FD0028F4D1052C00D93C7884
:101CE000052E00D97E783C707E7058E70B000422E8
:101CF0007AE7C0463E1000200C0000203067000844
:101D0000D8090020B8090020AE090020AC0D000061
:101D1000F0B5944DC8232878A9B0002806D0643BBC
:101D2000012803D0323B022800D0283B8E4C237080
:101D30008E4B1978002960D101228D4E1A703678A9
:101D400003AB02365E700626197099700231597124
:101D50008918D971891859728918D9724143DA7072
:101D60001A719A711A729A721A739A739219DA73B3
:101D7000804A0FAF52185E7338007F4903F0DEFBD4
:101D80007E4B1A681378002B00D17D4A7D4914A838
:101D900003F0D4FB7C4A237812787C4919A803F01D
:101DA000CDFB7B4B1A681378002B00D1744A1EAE12
:101DB0007849300003F0C2FB774A784953781278AB
:101DC0000133013223A803F0B9FB754B7549079322
:101DD000754B07AA089314AB0A9319AB0B9323AB6B
:101DE0000D93724B03A80E9308230093073B0997AA
:101DF0000C96FFF70FFAFFF723F8FFF753FA5C4E44
:101E00000022022305213000FFF778FA3278002AF9
:101E100004D1012303212800FFF770FA3378022B45
:101E200005D1013B1A0021785748FFF767FA604A4D
:101E30001378002B03D0002313704C4A1370FFF764
:101E400093FA002800D182E03378012B05D10021DC
:101E50005848FFF7B3FB494B18603378032B05D183
:101E600000215548FFF7AAFB494B18603378042B33
:101E700001D1FFF78FFE3078052868D13F4B1B68F2
:101E80001B78002B69D0424B434D1C686B78C31AFA
:101E9000013058432B78C0184001484B0B30C01814
:101EA0002378002B55D0210003F068FB200003F0BD
:101EB000F7F905236C7828781C1B01335C433F4BF2
:101EC00024182E4E6401E4183168200003F056FBFC
:101ED0002000244B3A4F1B7802220133A375224B7A
:101EE00029001B781D306383274B1B7823833B78A5
:101EF000237703F0DFF90020FFF77AFC306803F066
:101F0000CFF90023224A336013603B78012B0DD1B7
:101F1000062269780433591A51432B782948C91885
:101F2000264B490159181A3203F0C4F90123164A05
:101F3000137000230B4A13701D4A1370164A137056
:101F40005370214A13700A4A1370084A137029B05B
:101F5000F0BD1E4903F012FBABE702221C4B1A70C6
:101F6000F5E7C046B50900203D1000200C00002018
:101F70003B1000205369000848670008C40900208E
:101F800041670008506700082800002058670008D3
:101F9000C8090020656700083E100020306700086F
:101FA0005B6600088D670008716700088767000896
:101FB000CC090020936700089F670008D80900201B
:101FC0003C10002014100020AC090020AF6700086E
:101FD000B40900200F230022F0B58DB06B441A70B5
:101FE000FFF7C2F9041E17D00F236B44197805239D
:101FF0002A4A50781B1A062058431378284AC018DA
:1020000040011018002944D0038B59180183002087
:10201000FFF7EEFB0DB0F0BD0422224904A8891899
:1020200003F048F9052206210F261C4D1C486B7849
:102030006E44D31A4B432A7807AF9B185B01C31831
:102040005B8B32781849380003F078FA174B05A8F3
:10205000059302230200164904A80093013B06974A
:10206000FFF7D8F8FEF7ECFEFFF71CF90522062172
:102070006B783000D31A4B432A789B18084A5B01CF
:10208000D318997E22002300FFF738F9094B1C7002
:10209000A6E7202203F02AF9BCE7C0463E10002044
:1020A000D8090020145C0008B4670008BD67000868
:1020B000D0670008CC0900200122F0B50024654B50
:1020C00091B01A70644B1C70FEF76CFBE3B2049382
:1020D000624A624B6101CB5A51184F88CE883F0447
:1020E0001F438B884D8936041E430B892D041D43E5
:1020F000CB898A891B041343103110226846079349
:10210000013403F0D7F8380031002A00079BFFF7AD
:1021100049F9242CDAD10523514D6878181A013376
:1021200058432B78C0180423C0B21A001900FEF7D8
:1021300003FBFEF70DFB01214A48FFF73FFA052399
:102140000400494F210038606878181A0133584359
:102150002B78C0184001414B0B301818FDF7D4FF05
:10216000061E19D03C4B3C4A1B78200001331370EB
:1021700003F096F80023384A3B601278022ADAD935
:102180003A4A6B7013703A4A2B701370394A1370C5
:10219000394A137011B0F0BD200003F081F83E60A1
:1021A000FFF7E2F8041E18D00120FFF721FB0523FA
:1021B0002B494A789A1A013353430A789B18274AC5
:1021C0005B01D318234A11781A8B521A92B21A83E0
:1021D000002ADFD1FFF7FEFEDCE70422274908A82A
:1021E000891803F067F8052206211D4D1B486B78FE
:1021F000184ED31A4B432A780BAF9B185B01C318B8
:102200001B8B32781E49380003F098F91D4B09A842
:102210000993022302001C4908A80093013B0A9776
:10222000FEF7F8FFFEF70CFEFFF73CF8052206214B
:102230006B783000D31A4B432A789B18074A5B010E
:10224000D318197E01222300FFF758F8074B1C70A2
:10225000A6E7C04640100020D7090020D80900207A
:102260003E100020D8670008C8090020CC090020D3
:10227000AC0900203B1000200C000020145C00087A
:10228000E2670008EA670008F8670008F0B57D4BD0
:102290009FB01A78002A00D08FE07B4901321A7073
:1022A00007328918052409A803F004F806237749A2
:1022B0004A780978A21A53435B18A340744A7549B7
:1022C000D3189A7D002A00D173490627013A624348
:1022D000724B0FA89A1803F031F96C4D70496A7867
:1022E0002B78A21A7A43D218694B5201D21814A83B
:1022F00003F024F96B782A78E31A7B439B18644A2D
:102300005B01D31819AE1A8B3000664903F016F939
:10231000654B0E960B930FAB0C9314AB0D936B7830
:10232000E41A67432B78FF18594B7F01DF19BA7DF8
:102330000423002A00D1023B5C490BAA09A80093A0
:102340000123FEF767FF0024FEF77AFDFEF72AFA65
:10235000E3B204934E4A4E4B61015B5A51184F88C9
:10236000CE883F041F438B884D8936041E430B895A
:102370002D041D43CB898A891B041343103110227D
:1023800068460793013402F095FF380031002A00B7
:10239000079BFFF707F8242CDAD105203B4A537836
:1023A000C31A013058431378C0180423C0B21A006E
:1023B0001900FEF7C1F9FEF7CBF93D4B1A88962AB2
:1023C00028D900223B481A8042883B498A4242D998
:1023D0002E4C6378042B01D80133DBB26370038881
:1023E00096204000834240D228480178002901D03D
:1023F0000139C9B20170C8212D3AFF3A92B20901E0
:102400008A4204D82D3BFF3B9BB28B4202D900226B
:102410001C4B1A70FEF7A8FF00281AD005231B4C8E
:10242000627821789A1A01335343194A5B185B0189
:10243000D3189B7D002B20D0FFF73EFE00231F4AC0
:10244000637013701E4A237013701E4A13700D4A76
:1024500013701FB0F0BD96235B009A42BFD20B4CA5
:102460006378002BBAD0013BB7E78B42C3D907484A
:1024700001780429BED80131BBE70222124B1A7041
:10248000E7E7C0460C000020145C00083E10002066
:10249000D809002048670008FD6700085369000854
:1024A00050670008056800080E680008F867000813
:1024B000B8090020AE090020AC0D0000CC090020B6
:1024C000AC0900203B100020B40900200521F0B524
:1024D0009C4A8BB0537806AFCB1A0131594313781D
:1024E0000600C918984B4901C918FDF70DFE2424B0
:1024F0000021002801D10131C9B2013CE4B2002C15
:10250000F7D1202002F098FE904BB8601C70904BE1
:102510001B78A3421AD8FEF727FF8C4CF8600028DE
:1025200031D00220FFF764F92378002B0BD0894BC0
:1025300002221978BB68490159181D31814802F0FF
:10254000B9FEFFF7B9FDBD4605B0F0BD7E4D3100C7
:102550002800FDF7D9FD00280ED12B7F013BA342B7
:102560000AD17A4B29001878421C1A70BB684001C6
:102570002022181802F09EFE774B20359D42E6D1AE
:102580000134E4B2C3E72378002B66D0FEF78AFE5D
:10259000217802230139FA686E48C9B2FEF7AEFE0F
:1025A0006E4BFA681A70FEF7FDF8FC68664BE2B2F3
:1025B00004926101CA5A59184B884E891B0413436F
:1025C0007B60CB888A881B0413433B600B89CD89D1
:1025D00036041E438B892D0410221D43103168469A
:1025E00002F068FE013432002B0078683968FEF78B
:1025F000D9FE242CDAD1574B594A1978BB684901C6
:1026000059180523887F1288181A013358434B7FC5
:10261000C018FA23C0B25B009A4266D204904E887A
:102620000B88CD8836041E438B882D041D434B89AF
:102630000A891B04CC8913437B608B8924041022F4
:102640001C431031684602F035FE3000290023009B
:102650007A68FEF7A7FEFEF77BF86D463B4B142623
:102660001B7801215A000B32D208D200AA1A9546D3
:10267000002206AC2270A270364A734312780733E8
:102680000232E2706A46DB08DB00D31A9D4606ABD5
:1026900061707B602D4BFA681B789A422BD3694698
:1026A0009A000F32D208D2008A1A95462D4906AAFE
:1026B000002B00D12C4914201600584311602B49DF
:1026C0000836516079680818884238D10121002BFA
:1026D00001D00233D9B20091012320002449FEF732
:1026E00099FDFEF7ADFBAD4615E700231A00190072
:1026F000FEF722F8AFE70521FB68F8685A01BB68CE
:1027000070439A18937D013B4B431A49CB18796863
:102710000818917F01310191517F013100911649D3
:1027200002F00CFF0122FB685B00E3181A71FA68E3
:1027300002325A71FB68581CC3B2FB60AAE702C69A
:102740001431C1E73E100020D8090020BA0900204A
:102750003C1000203B100020580E0020CC09002027
:10276000CE0900201A6800082B6800085B66000884
:10277000446800085369000837680008F0B52F4E18
:102780008BB03378002B2BD12D490133103102222D
:1027900003A8337002F08EFD2A4B19680B78002BCA
:1027A00000D1294905AC200002F0C8FE04940124A0
:1027B0002649230004AA03A80094FEF72BFD6B46CC
:1027C000597B187B06235843C900033902385D2220
:1027D00089B280B2DB180094FEF795FAFEF730FB61
:1027E000FEF7C2FD002810D0194B164D1C78002CA6
:1027F0000DD121001748FEF7E1FE28602B683470E8
:102800001B785A1E9341124A13700BB0F0BD01237E
:102810000024114F28683B70FFF758FE28683C7071
:1028200002F03EFD0D4B2C601C700D4B1C705C705B
:102830000C4B1C700C4B1C70E0E7C0460C000020D9
:10284000145C0008BC090020516800086168000899
:102850003A10002067680008D0090020CC09002049
:102860003E100020AC0900203B100020F0B597B0CE
:102870000EAD20220021280002F038FD00235F4A1F
:102880005F4F13707B781C0003935E4B5B7804935F
:10289000A34214D2AB7D002B04D1202228005A4938
:1028A00002F008FD049B039A934229D2FEF75CFDD7
:1028B000002863D00320FEF79BFF17B0F0BD05236F
:1028C00006221B1B5A433E7804924E4B1B78B342A0
:1028D00002D20134E4B2D8E7049B4C49F3185B01FF
:1028E000C9188B7D002B03D02022280002F0E2FCC7
:1028F000424B424A1B78013601331370F6B2E4E7CB
:102900003F4B039A1C7805239B1A06225A430592D3
:102910003C4B1B78A34204D2039B0133DBB20393ED
:10292000C0E746224521059BE71804AB9B181B789E
:10293000413AD31A0132534304AA521812789B1811
:102940009F4210D0324B314D1E7820220136F6B214
:102950001E707B01ED1828000EA902F0ABFC039B52
:102960002E776C77AB77294B7F01DF19234B7A8B5E
:102970001B7801345343E4B27B83C9E7032204ABE1
:1029800018735A731D4B09AC1A782249200002F0C3
:10299000D5FD012308AA00931F4907A80894FEF754
:1029A00039FCFEF74DFAFDF7FDFEFA231B4A5B00EA
:1029B00012889A421FD2124F7C78124B5B78A34246
:1029C00002D2FDF7C5FE71E705231E1B01335E43EE
:1029D0003D78F6B20B4B1B78AB4202D20134E4B225
:1029E000EBE70023701904221900C0B20135FDF78E
:1029F000A3FEEDB2EEE7FDF7D5FEE2E734100020CE
:102A0000D4090020D209002014100020D809002089
:102A10003C1000207868000888680008CE09002073
:102A2000F0B5864B99B01B78002B00D07DE0834A2F
:102A30008349013313701231062209A802F03AFCCF
:102A4000804D81492B78002B00D08049804E0EAC00
:102A50007378327801330132200002F06FFD0523D4
:102A600006227178591A4A43317852189A407949A6
:102A70008918887D7849002800D178490138434376
:102A8000774813AEC31873488218508B0190108B8F
:102A90000090300002F052FD2A78724B002A00D0DC
:102AA000714B0B93032371490BAA09A80093023BB6
:102AB0000C940D960024FEF7ADFBFEF7C1F9FDF76F
:102AC00071FE644BE2B204926101CA5A5918CD8872
:102AD0008B884F892D044E881D430B893F041F436B
:102AE0003604CB8916438A891B0413431031102204
:102AF00068460793013402F0DDFB300029003A00FC
:102B0000079BFEF74FFC242CDBD10520504A53785D
:102B1000C31A013058431378C0180423C0B21A00F6
:102B20001900FDF709FEFDF713FE514B1A88962A8E
:102B300028D900224F481A8042884F498A4238D902
:102B4000434C6378042B01D80133DBB263700388F4
:102B500096204000834236D23D480178002901D0BA
:102B60000139C9B20170C8212D3AFF3A92B2090168
:102B70008A4204D82D3BFF3B9BB28B4202D90023F3
:102B80002E4A1370FEF7F0FB002810D02D4D304C6C
:102B90002E783A4F002E1ED102222100380002F07A
:102BA00089FB264B1E702B785A4253412B7019B06B
:102BB000F0BD96235B009A42C9D2254C6378002B66
:102BC000C4D0013BC1E78B42CDD92148017804290B
:102BD000C8D80131C5E72A4E21000222300002F098
:102BE00069FB38783178031C884200D90B1C254AD0
:102BF00013707A787378161C9A4200D91E1C214FE4
:102C00007E70214E071C884200D20F1C3770111CA9
:102C10009A4200D2191C012371701C4E3370FFF7C9
:102C200025FE00231A4A337013701A4A637013701A
:102C3000194A23701370014A1370B4E70C00002086
:102C4000145C00083910002093680008A16800088F
:102C50003E100020D8090020AD6800084167000838
:102C600053690008BA680008CD6800088868000841
:102C7000B8090020AE090020AC0D0000371000207C
:102C800035100020D4090020D2090020D0090020EE
:102C9000CC090020AC0900203B10002010B51249DF
:102CA00088B004000622183103A802F003FB4A2072
:102CB00060430E4B0E49C2180592020034301E329A
:102CC000D218C018032306920790009305AA023B6E
:102CD00003A8FEF79FFAFEF7B3F8FEF745FB0028BE
:102CE000FBD008B010BDC046145C0008580E002090
:102CF000DE680008F0B5424B424D1A78424EBDB036
:102D0000002A3DD101233E4904AC0B702978A37001
:102D1000023161700221E170C9186171C918E17155
:102D2000C9182371A37123726172A372C918237326
:102D3000364F06332270E1726373327003923B7830
:102D4000002B4BD1324B02AA08930FAB09935223AD
:102D50009B180A931EAB0B938E239B180C932DABE1
:102D60000D93CA239B180E93337820000133DBB2F6
:102D70002849009308AA0123FEF74CFAFEF760F8F1
:102D8000FEF790FA31780223013900222800C9B2F7
:102D9000FEF7B4FA204C2378002B0CD0012B06D17F
:102DA00000231E4A2B70137053701D4A13700023AA
:102DB000134A23701370FEF7D7FA00280CD0287836
:102DC000FFF76CFF0023154A237013705370144AE9
:102DD0002B7013700A4A13703DB0F0BD1E20039B88
:102DE000390058430FAB181802F0C8FB33784A3744
:102DF00001333370039B01330393062B9FD1A1E76B
:102E00000C0000203B100020D1090020580E0020AB
:102E10005B660008EA680008CC0900203E1000202C
:102E2000AC09002010B5034B1B789B001B5898473A
:102E300010BDC046AC09002010B5FEF723F80B48C2
:102E400002F068F8FEF7A2FD002801D0FEF700FEB0
:102E50000023074A1370074A13705370064A137011
:102E6000064A1370064A137010BDC0466005002064
:102E7000CC0900203E100020AC0900203B100020AF
:102E80000C00002010B50248FFF7CCFFFBE7C0465E
:102E9000100000208023026870B5DB059A424AD1F9
:102EA0002D4C200000F07EFA0A21200000F0C4FA28
:102EB000200000F025FB294D0A212880200000F089
:102EC000BBFA200000F01CFB6880200000F096FA9E
:102ED000234A244D1388013313802A78002A1CD0FA
:102EE000214C238801339BB22380012A09D1FA2186
:102EF00049008B4220D2ED39FF39A020C00500F0F7
:102F000019FE2B78022B08D12388182B19D80122FF
:102F1000A0200821C00500F00DFE144B144A1B78B8
:102F2000002B17D0FA20138800218000834201D2A1
:102F3000013399B2118070BD0022082122802A70CD
:102F4000DBE70022312BE3D94A2BE0D90022228093
:102F50002A70DDE71380EEE718040020AE09002098
:102F6000B8090020B4090020B2090020D0090020CF
:102F7000CE0900200D4885460D480E490E4A002313
:102F800002E0D458C4500433C4188C42F9D30B4A1D
:102F90000B4C002301E013600432A242FBD3FEF786
:102FA00027F902F059F9FDF771FCFEE70020002037
:102FB0000000002098000020E4690008980000202C
:102FC00070100020FEE7000070B50500FA200D4BE0
:102FD00080001978FDF7B6F80B4B01001868FDF773
:102FE000B1F800F01BFB04000120002C09D1032DD7
:102FF00007D802382200290000F0DAFA2000034B3B
:103000001D6070BD2F00002008000020300000204F
:103010004023084A10B5116803200B431360FFF7E3
:10302000D3FF041E03D1FDF7F3FF200010BD0124E0
:10303000FBE7C04600200240034A044B11681B789E
:103040005B1813607047C046441000202F0000201A
:10305000014B18687047C0464410002070B504004A
:10306000FFF7F6FF0500631C02D0044B1B78E41841
:10307000FFF7EEFF401BA042FAD370BD2F000020E7
:10308000084B13B5040008491868FDF75BF8444382
:103090000194019B002B00D113BD019B013B0193C7
:1030A000F7E7C0460800002040420F0003210368F4
:1030B00070B5040098680840012801D0002070BD58
:1030C0001A680242FAD005229D681540012D1DD1D3
:1030D0009868033A02439A601960FFF7B9FF060047
:1030E00023689B682B42E9D0FFF7B2FF801B0A28B8
:1030F000F6D923689B682B42F2D01023626D012021
:1031000013436365A36D1D43A565D8E71023626D66
:1031100013436365A36D0343A365D0E703210368ED
:1031200070B59A6804000A40012A04D11968114256
:1031300001D0002070BD9968154A114208D01023B3
:103140000120626D13436365A36D0343A365F1E73B
:1031500001259A6828002A439A60FFF791FFFFF73C
:1031600077FF060023681B682B42E2D1FFF770FF50
:10317000801B0A28F6D923681B682B42F2D1102342
:10318000626D012013436365A36D1D43A565D1E7FF
:10319000170000800422036870B59968040011428A
:1031A00001D1002070BD9968114206D09A6892073B
:1031B00003D4102299680A439A60FFF749FF042656
:1031C000050023689B683342EBD0FFF741FF401BAB
:1031D0000A28F6D923689B683342F2D010230120D5
:1031E000626D13436365A36D0343A365DAE70000D3
:1031F00070B504000120002C1BD0636D002B06D19C
:1032000022005032A36520001370FDF70FFF636D9D
:10321000DB0606D423680422996808001040114296
:1032200008D01023626D01201343636500235034DE
:10323000237070BD626D5549114002220A436265D8
:10324000032299681140524A012902D11D680D429A
:1032500019D180266168F6054D006D08B54203D08E
:1032600080252D06A94276D11D69AD00AD081D61EE
:103270001D69294319611825D968A943D960D968FE
:10328000A5682943D9601168424D29401160616BDE
:103290001568490629431160802299685205114238
:1032A00002D199680A439A60DA683B490A40216969
:1032B000DA60DD68E268022900D10420266B611C17
:1032C00032432A43A569C97FAD032A43E569ED036B
:1032D0002A434D032A4325002C352D786D002A43BF
:1032E0000243C220DA60626AFF30824204D0A56ADB
:1032F000D8682A430243DA60A21CD27F012A06D191
:10330000002934D18022D96852020A43DA60E16B85
:103310001A69012933D12148656C02401A61226C77
:1033200018692A43A56C2A4302431A611A6911439A
:10333000196107215A6900208A435A615A69A16BB1
:103340000A435A610322A065636D93431A00012367
:10335000134363656DE71D69114EAD00AD081D6136
:1033600015683540156015682943116083E72021F1
:10337000606D01436165A16D0A43A265C7E7012144
:103380000A42D6D01A698A431A61D2E7FDFEFFFFCE
:1033900008270140FFFFFFFD1902FEFF03FCFFFFAE
:1033A000FFFFC3FF036870B59B68040002205B0742
:1033B0001AD4250050352B78012B15D001232B7002
:1033C000E369012B11D1636D0B4A00201A40802361
:1033D0005B0013431C226365A065287023681A6094
:1033E0009968183A0A439A6070BD2000FFF796FE6C
:1033F0000028E8D0F8E7C046FEF0FFFF70B50600F1
:103400005036337804000220012B12D00125200011
:103410003570FFF7BFFE002809D12000FFF746FEF8
:10342000002804D1636D034A13401D4365650023E2
:10343000337070BDFEFEFFFFF8B5456904000E0055
:10344000082D0DD003680120DB680C25034207D04E
:103450002023626D50341343636000232370F8BD52
:10346000FFF7F6FD070023681A68154224D0802272
:10347000616D92000A436265C022D968120111424F
:1034800013D1621CD27F002A0FD11A6812070CD503
:103490009A68520728D40C215A688A435A60626D90
:1034A0001649114001220A4362650020A269824246
:1034B000D5D10C221A60D2E7721CD5D0002E0DD1C6
:1034C0002A0023681B681A401D42CCD10423616D79
:1034D00050340B43636003202270C0E7FFF7B8FD50
:1034E000C01BB042ECD8BEE72022616D0A43626582
:1034F0000122A16D0A43A265D7E7C046FEFEFFFF89
:103500000368186C70470000F8B504005034227846
:1035100003000D000220012A0BD0013820701A6828
:103520009168490706D52022596D0A435A65002340
:103530002370F8BD80232868194E6F684103DB02B1
:10354000490B0340B74219D0906A01439162002BA6
:1035500008D08023134A1B0411680A200B43136010
:10356000FFF78EFD2B689B0305D580230D4ADB03F7
:1035700011680B43136000202070DAE7956A8D43D1
:103580009562002B04D0074A074913680B4013606B
:103590008303F0D5034A054913680B40EAE7C046A8
:1035A0000110000008270140FFFF7FFFFFFFBFFF62
:1035B00030B5FF2503242A000440E400A24089011D
:1035C0002940D243A140C3B200280ADBC0240B4BE0
:1035D00080088000C018A40003591A40114301510B
:1035E00030BD0F200340083B05489B089B001B187B
:1035F000D86902401143D961F2E7C04600E100E01A
:1036000000ED00E0002805DB1F2318401E3B83402F
:10361000014A13607047C04600E100E08022431E6B
:103620005204012093420DD2C021074A074853603B
:10363000036A09061B021B0A0B43036200200723CF
:10364000906013607047C04610E000E000ED00E0BD
:10365000F8B504000120002C35D025681A4B142140
:10366000E818FCF76FFD194B800023640223A21DAC
:103670006064D3772E68164BA1681E40E368276903
:103680000B433B4367693B43A7693B43E7693B43C4
:10369000276A3B4333432B608023DB0199420CD0E4
:1036A0001C2528400D3D85400A490B68AB430B6043
:1036B00063680D6883402B430B6000200123E063A7
:1036C0000534D377E077F8BDF8FFFDBF0000024076
:1036D0000F80FFFFA8000240F7B5451D0193EB7F67
:1036E00004000220012B29D00123A71DEB77FB7FCB
:1036F00000269C466046DBB201282AD10130F877CB
:103700002068E663676C05681C363E409D43B34005
:103710000560256C6B60019B4360A368102B0ED184
:103720008260C160236B002B0CD00E230268134310
:10373000036001230268134303600020FEBD816023
:10374000C260EFE7042203689343036002680A2320
:10375000EDE70220EE77F1E7F8B51C220427466C6E
:10376000016C32403E0096400D6803681C6835428B
:103770000DD03C420BD01A68920602D41A68BA43A4
:103780001A60036B4E60002B19D0984717E0022790
:103790003E009640354213D03C4211D01A68920642
:1037A00006D40A241A68A2431A600122831DDA771C
:1037B0000022431D4E60DA77C36A9342E5D1F8BD1B
:1037C0000826370097403D42F9D03442F7D00E2505
:1037D0001C68AC431C6001231C009440821D4C609B
:1037E000C363D3770022431DDA77436BE5E700001C
:1037F000284A802190694900030030B50B400842F7
:1038000005D0022324484469234343610B008020F0
:1038100091698000014205D001211F4C0343656975
:103820002943616180209169C000014205D00821CF
:10383000194C034365692943616180209169000146
:10384000014205D00421144C034365692943616199
:10385000802091698001014205D010210E4C034364
:103860006569294361619169890305D520200A4C66
:103870000343616901436161802091694002014213
:1038800005D04021044C034365692943616193617C
:1038900030BDC046002002404810002070B5040032
:1038A000FFF7D6FB01260500184B9A69324221D159
:1038B00002229969114200D09A619A69D20515D401
:1038C0009A69920512D49A6952050FD49A69120521
:1038D0000CD49A69920409D4996980220800920252
:1038E0001040114202D19B69DB0308D5FFF780FF2E
:1038F000012004E0621CD8D0002C01D1032070BD4F
:10390000FFF7A6FB401BA042CED9F7E700200240FC
:103910000122084B0020596811420AD0EFF31081B0
:1039200072B60548D8600548D86081F31088586899
:103930001040704700200240EFCDAB890504030220
:103940000123034A002051680B4353607047C0466F
:1039500000200240F8B5124F06003B7C0D00140019
:103960000220012B0CD001230E483B74FFF796FF79
:10397000002803D17861022E03D12C6000233B7410
:10398000F8BD012E02D1A4B22C80F7E7002E03D09F
:103990000448FFF783FFF1E7E4B22C70EEE7C0467E
:1039A0004810002050C30000584AF0B58218541E39
:1039B000A241002387B0053203910592039A126851
:1039C0001400DC4001D107B0F0BD01210D0014004E
:1039D0009D402C408C4602942A4200D194E003245E
:1039E000039A5E00526801922240B440E143541EA3
:1039F000049164452AD887680F400399CC680199DF
:103A0000B4403C4384604468AC4325000C096146E3
:103A10000C409C402C434460C56804990D400399B8
:103A20008C68B4402C43C460022A11D107250F21B1
:103A30001D40AD00A940DC08A4000419276A8F438B
:103A400003990969A9400F43276201E0032AE3D1E2
:103A5000B2400468049921400A430260C0220199DF
:103A60009202114250D00127294C0326626B1D009F
:103A70003A436263274A9C08A400A418A268354010
:103A800094460F22AD00AA4061469143A022D20580
:103A90009446002260450DD01F4A94463A00604586
:103AA00008D01E4F9218B84204D01D4F3200B842C1
:103AB00000D0059AAA400A430299A2600D00194A53
:103AC000CC43166801993543C90301D4350025401C
:103AD00015605668029D01993543890301D435006C
:103AE000254055609668029D01993543C90201D46D
:103AF000350025409560D568029E01992E438902C4
:103B000001D425402E00D660013357E700E4FFAF13
:103B10000010024000000140000400500008005066
:103B2000000C00500004014000690840431E984109
:103B3000C0B27047002A01D0816170478162FCE702
:103B400003689A69920701D500229A620122996955
:103B5000114202D199690A439A61704730B5039CBA
:103B60001204006822431A43054B45688905640D19
:103B7000890D1C43A5430A432A43426030BDC04619
:103B8000FF63FF03F8B5036816009A6904000D008F
:103B90000020D20636D55A68920104D48022596892
:103BA000D2010A435A60202723689A693A4212D008
:103BB00010222000DA61DF61FFF7C2FF226812499C
:103BC00053680B4053600423626C13436364230007
:103BD00041331F700FE06A1CE7D0FFF739FA801BF2
:103BE000854201D3002DDFD12022636C134363642F
:103BF000230041331A702200002301204232403456
:103C000013702370F8BDC04600E800FEF8B504004C
:103C10000D001600022723689B693B4201D000205B
:103C2000F8BD320029002000FFF7ACFF002815D1B5
:103C30006B1CF0D0FFF70CFA801BA84201D8002DB6
:103C4000E9D12022636C13436364230041331A706B
:103C50002200002342324034137023700120DFE73A
:103C6000F8B504000D0016002027042223689B6984
:103C7000134211D1320029002000FFF783FF0028F2
:103C800019D123689A693A4217D004219A690A42E5
:103C900004D0228D002A01D00020F8BDDF615A68CF
:103CA0000E490A405A6022000023413263641770B3
:103CB0004034537023700120EFE7FFF7C9F9801BF0
:103CC000A84201D8002DD0D12022636C1343636435
:103CD000230041331A7040340023EBE700E800FE74
:103CE000F8B504000E0017001D00226893693340E8
:103CF0009B1B59424B41BB4201D0002017E06B1C7B
:103D0000F4D0FFF7A5F9069BC01AA84201D8002DF0
:103D1000EBD12022636C0120134363642300413301
:103D20001A70220000234232403413702370F8BD11
:103D3000F8B504000D001600202723689B693B425C
:103D400001D00020F8BD320029002000FFF71AFF43
:103D5000002813D1FFF77CF9801BA84201D8002D61
:103D6000EBD12022636C13436364230041331A7048
:103D70002200002342324034137023700120E1E717
:103D800070B504000120002C3FD0250041352B7870
:103D9000DAB2002B05D12300403320001A70FDF762
:103DA0006DF9242301212B7023681D481A68A66829
:103DB0008A431A6061681B4A0A401A619A68024085
:103DC0009A60E268012A21D1802109023143996079
:103DD0005A68154911435960DA6861690240DA602E
:103DE000226900200A43A16909020A43DA60216AB4
:103DF000E2690A431A60012219680A431A60202303
:103E000060642B7020634234207070BD84210902ED
:103E100031439960022ADBD1802212015A60D7E730
:103E2000FF7FFFFFFFFFFFF000800002F0B587B0CB
:103E3000059303004133049203931B7804000F00A1
:103E40000220202B14D1230040331A78012A0FD0EE
:103E500001261E70FFF7FCF8802105000090192351
:103E6000320020000902FFF73BFF002802D00120AA
:103E700007B0F0BD21232600039A42361370113B90
:103E80003370049B60646362059B60636385628D2D
:103E90002D4BFF2A20D9FF222285009380235B042B
:103EA00039002000FFF75AFE638D2A0020000C998C
:103EB000002B19D1FFF73CFF0028D8D1202123681F
:103EC000224DD9615A682A405A6023004034413358
:103ED000197030702070CBE7628D92B22285D2B219
:103EE000009380239B04DBE7FFF790FE0028BED100
:103EF000636A22681978013391626362638D228D4F
:103F0000013B9BB26385013A638D92B22285002BFF
:103F1000CAD0002AC8D1802120000C9B0095FFF751
:103F2000DFFE0028A3D1638DFF2B06D9FF23238555
:103F30008023FF2200905B04B2E7628D92B222855B
:103F4000D2B20090CDE7C0460020008000E800FE1D
:103F5000F0B587B0059303004133049203931B78B7
:103F600004000F000220202B14D1230040331A78C4
:103F7000012A0FD001261E70FFF76AF88021050084
:103F800000901923320020000902FFF7A9FE002843
:103F900002D0012007B0F0BD22232600039A42364A
:103FA0001370123B3370049B60646362059B606313
:103FB0006385628D2D4BFF2A20D9FF222285009335
:103FC00080235B0439002000FFF7C8FD638D2A00C1
:103FD00020000C99002B19D1FFF7AAFE0028D8D198
:103FE00020212368224DD9615A682A405A60230053
:103FF00040344133197030702070CBE7628D92B23B
:104000002285D2B2009380239B04DBE7FFF728FED2
:104010000028BED12368626A5B6A1370636A228DCE
:1040200001336362638D013A013B9BB26385638D0B
:1040300092B22285002BC9D0002AC7D1802120004E
:104040000C9B0095FFF74CFE0028A2D1638DFF2B3F
:1040500006D9FF2323858023FF2200905B04B1E76C
:10406000628D92B22285D2B20090CCE7002400800B
:1040700000E800FEF0B51E00002389B0079303009E
:10408000059241331A7804000225202A5BD1026888
:1040900097698022380012021040174253D1220043
:1040A00040321778012F4ED0013D1570242289052A
:1040B0001A708B0D60640493E368012B2BD13E4B87
:1040C000049A134322685360FEF7C2FF0390012253
:1040D00023689D699B696D091B09154013401D43A9
:1040E0001CD0236810279B691A003A403B422DD10F
:1040F000039B2021009320003300FFF7F1FD0028EF
:1041000021D1202322680500D361220040344132AE
:104110001370207017E0A0239B01D1E7731CD6D049
:10412000FEF796FF039BC01AB04201D8002ECED1F5
:104130002200202341321370626C01251343636413
:10414000002340342370280009B0F0BD039B0022F7
:104150000093202133002000FFF7C2FD021EF2D1A0
:1041600023680598DF612027DF61079981420FD11D
:1041700080215868C90101435960039B39000093AD
:1041800020003300FFF7ACFD0028DCD12368DF619D
:10419000079B059A01330793079B934200D28BE755
:1041A0002200202341321370626C40341343636059
:1041B00000232370C7E7C04600200002F0B50400CA
:1041C0004134227803000F000220D6B2202A18D1F1
:1041D0001D0040352A78012A13D0242222701B6842
:1041E000233A196807489143196019680140002073
:1041F000196019683943196019680A431A602670F2
:104200002870F0BDFFEFFFFF0200F0B541321478D7
:104210000300E5B20220202C17D11C004034267880
:10422000012E12D0223010701B6823381E68074FF1
:1042300086431E601E6809023E40314319601968BA
:1042400008431860002015702070F0BDFFF0FFFFDC
:104250000C221D4B70B5DC682240082A31D00C2A94
:1042600009D0042A25D11868184BC006C017184079
:10427000174BC01870BDA2021648120F805C802236
:104280002402D968A40F52020134114209D0124A03
:1042900000230021FCF702F822000023FBF7DEFFD9
:1042A000E8E71A6810231A4201D00C4AF0E7084ADE
:1042B000EEE780205B6800021B045B0F013398402F
:1042C000D8E70548D6E7C0460010024000E548FFA1
:1042D0000024F4003466000800127A0000093D0052
:1042E000F0B5050085B000285AD00C23BE4C0268FA
:1042F000E668E7681E4080235B0219001F40D20772
:1043000042D42B689B0700D58BE02B68DB0629D5B0
:10431000002E00D0DCE023689B0502D5EB69002B62
:104320003ED06268B1496B6A0A401A4362606168B4
:104330002A6A0902090A12060A43626080225B0B9C
:10434000013312029A401300E1680A06A849120FCD
:104350008A5CD340A74A1360A74B1868FEF734FE67
:10436000002834D12B681B0700D5E8E02B685B07D9
:1043700000D50AE12B689B0600D58EE1AB6A002BC5
:1043800000D0BDE1002022E0082E03D00C2E09D180
:10439000002F07D023689B03B3D56B68002BB0D1E7
:1043A000012014E06A688A4213D122681343236013
:1043B000FEF74EFE00908022236892021342A0D1A5
:1043C000FEF746FE009BC01A6428F4D9032005B00E
:1043D000F0BDA021C9028A4205D180222168D20203
:1043E0000A432260E1E72168844801402160216896
:1043F0000B400393039B824923680B402360002AF0
:10440000D6D1FEF725FE0090802223689202134247
:1044100000D176E7FEF71CFE009BC01A6428F3D992
:10442000D4E7EA68042E03D00C2E24D1002F22D129
:1044300023685B0701D5002AB2D061682B697148F7
:104440001B0201400B430921636023688B43134324
:104450002360FFF7FDFEE368654A1B061B0FD35C74
:10446000D840644B1860644B1868FEF7ADFD002817
:1044700000D14AE7ABE72368002A18D009218B4313
:1044800013432360FEF7E4FD070004222368134270
:1044900007D062682B695B491B020A4013436360C3
:1044A00033E7FEF7D5FDC01B0228EED98EE70122C7
:1044B00093432360FEF7CCFD0700042223681342D8
:1044C00000D122E7FEF7C4FDC01B0228F5D97DE725
:1044D000EB69002B20D0802322685B00134323600C
:1044E000FEF7B6FD070080222368920013420DD02C
:1044F00063683E4A13406A6A1343636062682B6ACA
:1045000012021B06120A134363602BE7FEF7A0FD9D
:10451000C01B0228E7D959E723683B4A13402360B0
:10452000FEF796FD0700802223689200134200D117
:1045300018E7FEF78DFDC01B0228F4D946E76A692B
:104540000123002A10D0226D13432365FEF780FD5E
:1045500007000222236D134200D007E7FEF778FD23
:10456000C01B0228F5D931E7226D9A432265FEF778
:104570006FFD07000222236D134200D1F6E6FEF71D
:1045800067FDC01B0228F5D920E780230021A26B1C
:104590005B0500911A4204D1A26B1343A36301236C
:1045A00000938022194F52003B68134208D08022AA
:1045B000AB68520093422BD1226D134323654CE02C
:1045C00080223B68520013433B60FEF741FD01909F
:1045D00080223B6852001342E9D1FEF739FD019B6E
:1045E000C01A6428F4D9F1E600100240FF1FFFFF53
:1045F000246600080800002030000020FFFFFEFFB6
:10460000FFFFFBFFFFE0FFFFFFFEFFFF007000402A
:10461000002B16D1236D6B4A13402365236D6A4A24
:1046200013402365FEF714FD07008022236D9200DE
:1046300013421AD0FEF70CFD644BC01B9842F4D90C
:10464000C4E6A021C9008B4218D18023216DDB0074
:104650000B432365236D1A432265FEF7F9FC07001F
:104660008022236D9200134210D0009B012B00D0BA
:1046700080E6A36B564A1340A3637BE6236D514A41
:1046800013402365236D504A134097E7FEF7E0FC83
:104690004E4BC01B9842E3D998E6A96901234D4AC5
:1046A000002918D0A1681943A160616B0B436363B3
:1046B0008023116A9B010B431362FEF7C9FC0700BC
:1046C0000222A368134200D058E6FEF7C1FCC01BCB
:1046D0000228F5D97AE6A1689943A160136A3E4998
:1046E0000B401362FEF7B4FC07000222A3681342DA
:1046F00000D143E6FEF7ACFCC01B0228F5D965E605
:104700000C2E43D0354A022B2ED12368802713402C
:104710002360FEF79DFC0600BF0423683B421DD1C9
:10472000296BEB6AE2680B432D4980260A4013434C
:104730006A6BB6041343E360802322685B0413436F
:104740002360FEF785FC05002368334200D019E69C
:10475000FEF77EFC401B0228F6D937E6FEF778FC10
:10476000801B0228D9D931E62368802613402360B4
:10477000FEF76EFC0500B6042368334200D101E663
:10478000FEF766FC401B0228F6D91FE61800012B35
:1047900000D11CE68022E368E96A52021A408A428C
:1047A00000D0FDE5F022296B92031A408A4200D026
:1047B000F6E5C022120413406A6B934200D1E1E592
:1047C000EEE5C046FFFEFFFFFFFBFFFF8813000082
:1047D000FFFFFFEF00000140FFDFFFFFFFFFFFFED5
:1047E000FFFF02FFF7B5041E019101D10120FEBDBC
:1047F00001255B4E019A33682B40934231D32268E6
:10480000930743D4D30749D401253368019A2B4039
:10481000934209D93368AB433360FEF719FC0700B4
:1048200033682B4200D08CE022684E4D530700D5F0
:104830008FE0130706D5E96823694B4ADB000A407D
:104840001343EB60FFF704FDEB68484A1B061B0FA0
:10485000D35CD840464B1860464B1868FEF7B4FB53
:10486000C5E73368019AAB4313433360FEF7F0FBAF
:1048700007003368019A2B409342C0D0FEF7E8FB53
:104880003D4BC01B9842F4D90320B0E7F0203549D6
:10489000CB688343A0680343CB60B3E7314D6268C4
:1048A0002B68022A18D19B03A0D50321EB688B4308
:1048B0001343EB60FEF7CCFB63680700022B18D1B3
:1048C0000C22EB681340082B9ED0FEF7C1FB2A4B4D
:1048D000C01B9842F4D9D7E7032A02D19B01E4D444
:1048E00084E7012A02D15B07DFD47FE79B05DCD494
:1048F0007CE7032B0BD10C22EB681340934283D04F
:10490000FEF7A6FB1C4BC01B9842F4D9BCE7012B59
:1049100011D00C22EB68134200D175E7FEF798FB2B
:10492000154BC01B9842F4D9AEE7FEF791FB124B32
:10493000C01B9842A8D80C22EB681340042BF4D17A
:1049400062E7FEF785FB0C4BC01B984200D867E777
:104950009AE7EB6809490B40E1680B43EB6068E7B5
:104960000020024000100240FFC7FFFF246600083D
:10497000080000203000002088130000FFF8FFFF2F
:104980000368F7B505009B063CD5802300215A4CEF
:104990005B05A26B00911A4204D1A26B1343A3637F
:1049A000012300938027554E7F0033683B4262D03D
:1049B0006A68C023C0201600216880039B021E4045
:1049C000024001408A4267D1226D110019401A420B
:1049D0006AD16968C0230A009B021A409A4207D133
:1049E000236847480340C020800301400B432360F5
:1049F000236D1A43009B2265012B03D1A36B414A0F
:104A00001340A3632B68DA0706D503203A49CA6C22
:104A10008243A8680243CA649A0706D50C20364927
:104A2000CA6C8243E8680243CA645A0706D5324911
:104A30003548CA6C024028690243CA641A0706D581
:104A40002D493248CA6C024068690243CA645A065A
:104A500006D529492E48CA6C0240E8690243CA6457
:104A600000201B0617D5244A2A49D36C0B40A9699C
:104A70000B43D3640FE033683B433360FEF7E8FA3F
:104A8000019033683B4293D1FEF7E2FA019BC01AD2
:104A90006428F6D90320FEBD9E4295D122680120EC
:104AA000920300D490E7F6E7B14200D191E72B687A
:104AB0009B0600D48DE78022216D206D12030243F6
:104AC0002265226D144B15480B4002402265236578
:104AD000CB0500D47DE7FEF7BBFA80270600BF00B8
:104AE000236D3B4200D074E7FEF7B2FA0C4B801BFB
:104AF0009842F5D9CEE7C046001002400070004051
:104B0000FFFFCFFFFFFFFFEFFFF3FFFFFFCFFFFF31
:104B1000FFFFFFFBFFFFF3FFFFFFFCFFFFFFF7FFC0
:104B200088130000F0B51D00170085B00E000400CA
:104B3000FEF78EFAED192D1AFEF78AFA254B019031
:104B40001B685B011B0D6B43226803939368334022
:104B50009E4201D0002032E07B1CF7D0FEF778FAAD
:104B6000019BC01AA8422CD3E02123685A688A43CB
:104B70005A6082226168520091420CD18021A26861
:104B800009028A4203D08021C9008A4203D1402110
:104B90001A688A431A608021A26A89018A4206D172
:104BA00019680D480140196019680A431A6023000A
:104BB000012251331A70002303205034237005B0B2
:104BC000F0BD039B5A1E93415B421D40039B013B7A
:104BD000BAE7C04608000020FFDFFFFF164B73B5A1
:104BE00004000D00186815491600FBF7ABFAFA230C
:104BF0009B00434301938223616880225B009942BA
:104C00000DD133002A0080212000FFF78BFF002800
:104C10000FD020230320626D1343636576BD019B93
:104C2000002B06D0019B013B019323689B68134234
:104C3000F5D10020F2E7C0460800002000366E01E2
:104C4000F8B504000120002C54D0636A002B52D127
:104C5000822261685200914200D0E3610023250066
:104C6000A36251352B78DAB2002B05D123005033E3
:104C700020001A70FCF730FA0220402228702168C8
:104C800066680B68A76893430B6082235B00334020
:104C9000842636023E4033438026E76836013E4094
:104CA00033432669A2693040012603436069E769FE
:104CB00030400343802080001040034338203840B8
:104CC00003438020276A120C384003438020A76AE0
:104CD0008001384003430B600423606A1A400C33A0
:104CE000034000201A434A60CB69054A1340CB6158
:104CF00060652E70F8BD002323616361AEE7C04696
:104D0000FFF7FFFFF8B506005036337804000225A0
:104D1000012B3ED001230700337051373B78DDB2C1
:104D2000012B4AD1002932D0002A30D002333B7007
:104D3000002343658363C286436403648387C38718
:104D4000802382860163026880681B02984208D132
:104D5000402013688343136080231068DB01034302
:104D60001360A06C164B0C320363164BC362164BD8
:104D7000436300238363E38E9BB2FEF7ADFC002800
:104D800009D01023626D1343636501233B70002338
:104D900033702800F8BD402223681968114202D1FF
:104DA00019680A431A602022596800250A435A608C
:104DB000022259680A435A60E9E70225E7E7C0463C
:104DC000D14D0008014E0008DD4D000870477047C6
:104DD00010B5806AFFF7FBFF10BD70470321806AA2
:104DE00010B5026853688B4353601023426D134320
:104DF00043650300012251331A70FFF7EEFF10BD27
:104E000037B50500846AFEF723F92B6820251B6857
:104E100002002B4227D1022023685968A943596018
:104E200059688143596020006421FFF7D7FE0028AC
:104E300002D0636D1D436565A368002B06D1019305
:104E40002368DA6801929B680193019B0023E38643
:104E50002300012251331A70636D002B03D0200010
:104E6000FFF7BBFF37BD2000FFF7B0FFFAE70000F8
:104E7000802210B50368D205904205D0104CA042A4
:104E800002D0104CA0420FD17024A3434C6823439E
:104E9000904205D00A4A904202D00A4A904203D179
:104EA000094A1340CA681343802293430A69134393
:104EB00003608B68C3620B6883620123436110BD8A
:104EC0000008014000140140FFFCFFFF70B5040022
:104ED0000120002C1DD0250039352B78DAB2002BAB
:104EE00005D12300383320001A70FCF73BF9022368
:104EF0002B702068211DFFF7BBFF2200012300203B
:104F00003E3213703D34043A137053709370237023
:104F10002B7070BD020003000120393211788142EC
:104F200019D1022111701B68DA680243DA6080220D
:104F3000D205934205D00B4A934202D00A4A9342CB
:104F40000AD107219A6800200A40062A03D00122CC
:104F500019680A431A6070471A68104318600020E5
:104F6000F9E7C0460008014000140140F0B5050013
:104F7000022238352C7803001000012C1DD01E00B1
:104F8000012439362C7032701B684C489A680240F4
:104F90009A600A68602A5FD032D8402A00D174E053
:104FA00014D8202A0CD009D810211000884307D02B
:104FB00020000123337000232B70F0BD302AF7D17D
:104FC0007020996881430A43072132E0502AEFD1CB
:104FD0001F6A1A6A4868A243F024C9681A629A696B
:104FE000A24314000A010A218F43390022430143DE
:104FF0009A61196270219A688A431100572218E059
:10500000802700207F01BA42D3D0802080018242D5
:1050100013D02000702ACCD19A6829484C681040DF
:105020008A68C968224309020A4302439A607722C8
:1050300099680A4300209A60BBE79A6820484C6848
:1050400010408A68C968224309020A4302439A60F1
:1050500080229968D201ECE74868CF6810211A6A6B
:10506000184C8A431A6299691A6A2140A024A24303
:1050700014003F03394399617021020122431A62EF
:105080009A688A4311006722D3E71F6A1A6A486840
:10509000A243F024C9681A629A69A24314000A0163
:1050A0000A218F433900224301439A61196270211A
:1050B0009A688A4311004722BBE7C0468800FFFF79
:1050C000FF00FFFFFF0FFFFF7047704770477047FB
:1050D0000222036810B51969040011420DD0D96885
:1050E00011420AD0053A1A61043202769B699B0785
:1050F0005ED0FFF7EAFF00232376042223681969B4
:10510000114210D0D96811420DD0093A1A61073204
:1051100022769A69C0239B0020001A424ED0FFF7E6
:10512000D4FF0023237608222368196911420ED088
:10513000D96811420BD0113A1A610D322276DB691F
:1051400020009B0740D0FFF7C0FF002323761022EA
:1051500023681969114210D0D96811420DD0213A43
:105160001A6119322276DA69C0239B0020001A42A4
:1051700030D0FFF7AAFF00232376012223681969A4
:10518000114207D0D968114204D0033A20001A61B5
:10519000FDF780FE402223681969114207D0D968C3
:1051A000114204D0813A20001A61FFF790FF10BD30
:1051B000FFF78AFF2000FFF789FF9CE7FFF784FFD6
:1051C0002000FFF783FFACE7FFF77EFF2000FFF72B
:1051D0007DFFBAE7FFF778FF2000FFF777FFCAE708
:1051E00070B5040002223834257803001000012D28
:1051F0001DD01D00702639352A701B6858689A68C2
:10520000B0430E68304358608020C005834205D00B
:105210000748834202D00748834204D1802049686E
:1052200082430A439A60012300202B70207070BDD6
:10523000000801400014014010B5034B0A000100B2
:10524000186800F05BF810BD34000020014B1868AE
:105250007047C0463400002070B500260C4D0D4C40
:10526000641BA410A64209D1002600F0C7FC0A4D19
:105270000A4C641BA410A64205D170BDB300EB58C4
:1052800098470136EEE7B300EB5898470136F2E74E
:10529000DC690008DC690008DC690008E0690008D6
:1052A00010B5034B0100186800F054F810BDC0465B
:1052B00034000020002310B59A4200D110BDCC5C10
:1052C000C4540133F8E710B5884202D98B189842CC
:1052D00003D3002307E08B5C8354013AFBD210BD5B
:1052E000CC5CC45401339A42FAD1F8E70300821827
:1052F000934200D1704719700133F9E770B5130C70
:105300000D0C1ED1002B0CD189B294B24C4321005C
:1053100000F08CF8051E1BD022000021FFF7E6FFED
:1053200016E01D1C0B1C92B289B29CB25143ABB269
:1053300063430C0C1C19220C07D1240489B20C43C2
:10534000E5E7002B01D1131CEDE70C2300250360DA
:10535000280070BD70B50500002910D00C1F23680F
:10536000002B00DAE418280000F010F91D4A136839
:10537000002B05D163601460280000F00FF970BDA8
:10538000A34208D9216860188342F3D118685B688A
:1053900041182160EEE71A005B68002B01D0A342A0
:1053A000F9D911685018A0420BD12068091850187B
:1053B00011608342E0D118685B6841181160536046
:1053C000DAE7A04202D90C232B60D5E721686018E8
:1053D000834203D118685B684118216063605460A0
:1053E000CAE7C0466010002070B50F4E0D0031684E
:1053F0000400002902D100F08FF83060290020005D
:1054000000F08AF8431C0AD00323C51C9D43A84220
:1054100007D0291A200000F07FF8431C01D1012594
:105420006D42280070BDC04664100020F7B503220D
:10543000CB1C9343083306001F000C2B32D20C27E1
:10544000B94231D8300000F0A1F8324D2B681C0071
:10545000002C2ED139003000FFF7C6FF0400431C9A
:105460001ED12C682500002D4AD123682900E3189D
:105470003000019300F050F8019B834243D1236830
:105480000337FF1A03239F4308370C2F00D20C2742
:1054900039003000FFF7A8FF431C34D02368DF1920
:1054A000276013E0002BCBDA0C23002533602800A3
:1054B000FEBD2268D11B20D40B2917D9E219276021
:1054C000A34211D12A606368116053603000250047
:1054D00000F064F807220B35231D9543EA1A9D421C
:1054E000E5D05B1BA350E2E75A60ECE76268A34299
:1054F00001D12A60EAE75A60E8E723006468A7E779
:105500002C006D68AFE70C233000336000F046F8E4
:10551000CDE7C04660100020002370B5064D0400A2
:1055200008002B60FBF744FE431C03D12B68002BC3
:1055300000D0236070BDC046681000200EB400B5D6
:105540000B499CB01DAB029006900791049109484D
:10555000094904CB0591006802A9019300F088F87D
:105560000023029A13701CB008BC03B01847C04651
:10557000FFFFFF7F340000200802FFFF03000A78CE
:1055800001311A700133002AF9D1704710B5024871
:1055900000F0F0FA10BDC0466C10002010B50248B3
:1055A00000F0E9FA10BDC0466C100020F0B58E681E
:1055B00085B007000C00039201939E423CD89023D3
:1055C0008A89DB001A4234D00969236860695B1A52
:1055D000029303234343DD0FED18019B029801332F
:1055E0001B186D10AB4200D91D00530532D52900A0
:1055F0003800FFF71BFF061E09D10C233B60402338
:105600000120A28940421343A38105B0F0BD029A54
:105610002169FFF74FFEA389144A1A4080231343E0
:10562000A381029B2661F61826606561019EED1A32
:10563000A560019B9E4200D9019E3200039920681B
:10564000FFF741FEA36800209B1BA36023689E19FF
:105650002660DAE72A00380000F099FA061EE0D149
:1056600038002169FFF776FEC7E7C0467FFBFFFFE2
:10567000F0B5A1B003901D008B890F0016001B062A
:1056800011D50B69002B0ED14021FFF7CFFE3860FA
:105690003861002805D10C23039A0138136021B02A
:1056A000F0BD40237B61002308AC63612033637647
:1056B0001033A376079535002B78002B01D0252BCE
:1056C00047D1AB1B0593B5420CD03200390003988B
:1056D000FFF76CFF431C00D1AEE06269059B944666
:1056E000634463612B78002B00D1A5E001220023E5
:1056F0005242626004A9543252186E1C2360E36067
:10570000A3601370A36505223178544800F034FA81
:10571000751C00281FD12268D30604D5532304A981
:105720005B1820211970130704D5532304A95B18B3
:105730002B21197033782A2B16D0350000210A202E
:10574000E3682A786E1C303A092A4ED9002911D113
:1057500017E00135B0E7414B2268C01A01238340AE
:1057600013432E002360CEE7079B191D1B6807918A
:10577000002B01DB0B9304E05B42E3600223134345
:1057800023602B782E2B0AD16B782A2B35D1079BDF
:1057900002351A1D1B680792002B2BDB0993304E34
:1057A00003223000297800F0E7F9002806D04023D2
:1057B000801B834022680135134323602978062229
:1057C00028486E1C217600F0D7F900283CD0264BE3
:1057D000002B25D10722079B0733934308330793F8
:1057E0006369049A9B18636165E7434335000121AF
:1057F0009B18A6E701235B42D0E700230A201A008A
:105800000135636029786E1C3039092903D9002BD2
:10581000C5D00992C3E74243350001235218F1E78E
:1058200007AB00933A002100104B039800E000BF43
:105830000490049B0133D3D1BB890D985B0600D43F
:105840002DE7012040422AE707AB00933A002100F0
:10585000064B039800F07CF8EAE7C0469F69000811
:10586000A5690008A969000800000000AD550008FE
:10587000F7B5150001938A680B690C0000909342FC
:1058800000DA130022002B6043321278002A01D084
:1058900001332B6023689B0602D52B6802332B60F3
:1058A0002268062317001F401A4227D023004333E3
:1058B0001B785A1E93412268920630D42200019927
:1058C0000098089E4332B047431C25D00623206829
:1058D0002A68E16800250340042B03D18D1AEB43AD
:1058E000DB171D40A3682269934201DD9B1AED1866
:1058F0000027BD4220D1002010E00137E3682A686C
:105900009B1ABB42D2DD2200012301990098089E18
:105910001932B047431CF0D101204042FEBD302077
:10592000E1184331087021005A1C45310978A2184A
:10593000433202331170C1E722000123019900981C
:10594000089E1A32B047431CE6D00137D1E7000069
:10595000F0B58BB006920A0043320793059004928B
:105960000A7E0C00109B782A07D8622A09D8002AE0
:1059700000D1C1E0582A00D18CE0260042363270B6
:1059800022E0100063381528F7D8FAF7D1FB16008B
:105990001F00F6FFF6FFF6FFF6FF1F00F6FFF6FF0B
:1059A000F6FFF6FFA80036009A00F6FFF6FFB900F2
:1059B000F6FF3600F6FFF6FF9E0026001A68423614
:1059C000111D1960136833700123A7E00868196876
:1059D0000A1D05060BD50D681A60002D03DA2D236C
:1059E000049A6D421370614B0A2703931BE00D6804
:1059F0001A604106F1D52DB2EFE70D681968081D50
:105A000018602E0601D50D6803E06D06FBD50D6804
:105A1000ADB2564B082703936F2A00D002372300FC
:105A2000002243331A706368A360002B03DB042257
:105A3000216891432160002D02D1049E002B0CD0DF
:105A4000049E28003900FAF703FC039B013E5B5CCF
:105A500033702B0005009F42F3D9082F09D123682A
:105A6000DB0706D563682269934202DC3023013EDE
:105A70003370049B9B1B2361079B210000930598B7
:105A8000069B09AAFFF7F4FE431C4CD101204042BB
:105A90000BB0F0BD45310A70344A03921A68216890
:105AA00020CA1A60080616D5CB0702D52023194351
:105AB00021601027002DB2D1202322689A43226052
:105AC000ADE7202209680A4322602200782145328E
:105AD0001170274AE1E74806E6D5ADB2E4E71A6857
