:020000040800F2
:10000000002000202D2B000881110008831100081A
:1000100000000000000000000000000000000000E0
:100020000000000000000000000000008511000832
:10003000000000000000000087110008891100087E
:100040007D2B00087D2B00087D2B00087D2B0008F0
:100050007D2B00087D2B00087D2B00087D2B0008E0
:100060007D2B00087D2B0008911100087D2B0008D6
:100070007D2B00087D2B000800000000A111000866
:10008000000000007D2B00080000000000000000C0
:100090007D2B0008000000007D2B00087D2B000850
:1000A0007D2B00087D2B00087D2B00087D2B000890
:1000B0007D2B00087D2B0008000000007D2B000830
:1000C00010B5064C2378002B07D1054B002B02D02E
:1000D000044800E000BF0123237010BD98000020F9
:1000E00000000000B4570008044B10B5002B03D0EB
:1000F0000349044800E000BF10BDC04600000000F6
:100100009C000020B457000802780B78002A03D026
:10011000013001319A42F7D0D01A704702B47146CB
:1001200049084900095C49008E4402BC7047C0463A
:1001300003B47146490840004900095E49008E44F5
:1001400003BC7047002243088B4274D303098B42DF
:100150005FD3030A8B4244D3030B8B4228D3030C97
:100160008B420DD3FF22090212BA030C8B4202D339
:100170001212090265D0030B8B4219D300E0090A61
:10018000C30B8B4201D3CB03C01A5241830B8B426A
:1001900001D38B03C01A5241430B8B4201D34B0353
:1001A000C01A5241030B8B4201D30B03C01A5241B8
:1001B000C30A8B4201D3CB02C01A5241830A8B423D
:1001C00001D38B02C01A5241430A8B4201D34B0226
:1001D000C01A5241030A8B4201D30B02C01A52418A
:1001E000CDD2C3098B4201D3CB01C01A524183093E
:1001F0008B4201D38B01C01A524143098B4201D378
:100200004B01C01A524103098B4201D30B01C01AA2
:100210005241C3088B4201D3CB00C01A524183081C
:100220008B4201D38B00C01A524143088B4201D349
:100230004B00C01A5241411A00D2014652411046A9
:100240007047FFE701B5002000F006F802BDC04688
:100250000029F7D076E770477047C046002B11D1D0
:10026000002A0FD1002900D1002802D00021C94363
:10027000080007B4024802A14018029003BDC0461E
:10028000D9FFFFFF03B4684601B5029800F034F8C7
:10029000019B9E4602B00CBC7047C046F0B5CE46EE
:1002A000474680B5070099463B0C9C4613041B0C3F
:1002B0001D000E0061460004140C000C45434B4326
:1002C00060436143C0182C0C20188C46834203D92C
:1002D00080235B029846C444494679437243030C29
:1002E00063442D042D0CC918000440198918C0BCA2
:1002F000B946B046F0BDC046F0B557464E464546F5
:10030000DE46E0B504000D009246994683B08B426C
:1003100030D82DD04946504600F0BAF829000600E2
:10032000200000F0B5F8331A9846203B9B4633D4A2
:100330005A465346934042461F00534693401E0080
:10034000AF423AD8AF4200D178E05B46A41BBD4132
:10035000002B00DA75E000220023009201930123B4
:100360005A4693400193012342469340009328E06C
:100370008242CFD900220023009201930C9B002BD4
:1003800001D01C605D600098019903B0F0BCBB46D1
:10039000B246A946A046F0BD424620239B1A5246CB
:1003A000DA40414613004A468A40170042461F433E
:1003B000534693401E00AF42C4D90022002300924E
:1003C00001934346002BD9D0FB0772081A434646D7
:1003D0007B080EE0AB4201D1A2420CD8A41A9D4189
:1003E000012024196D410021013E24184D41002EA9
:1003F00006D0AB42EED9013E24196D41002EF8D152
:10040000009801995B4600196941002B24DB2B0001
:100410005A464446D3402A00E2401C005B46150081
:10042000002B2ADB26009E40330026004746BE40B4
:100430003200801A9941009001919FE7A342BCD8F5
:1004400083E74246202300219B1A0022009101925B
:100450000122DA40019286E7424620239B1A2A00B5
:1004600046469A402300F340444613432A00E240A4
:100470001C005B461500002BD4DA42462F002023D7
:10048000260097409B1ADE403B003343CDE7C04631
:1004900010B5002903D100F007F8203002E0080071
:1004A00000F002F810BDC0461C2101231B04984235
:1004B00001D3000C10391B0A984201D3000A0839F5
:1004C0001B09984201D30009043902A2105C4018AC
:1004D0007047C04604030202010101010000000050
:1004E000000000000023F0B587B005AC0E000A2123
:1004F000150007002370FFF725FE0A2103013800CD
:100500000393FFF7A5FE039B3000591861700A2181
:10051000FFF718FE0A2107013000FFF799FE2800B7
:100520007F180A21A770FFF70DFE060130200A216F
:1005300006402800FFF78CFE64237618E670220040
:100540000093D021603B024803F04CFA07B0F0BDA5
:10055000BC0400200023F0B587B0160002AA642571
:10056000D3730F22294C039102A902905218200044
:10057000D1210095013303F035FA029A0123D121EC
:100580002000009503F0C0FA01270F2202AB02A958
:10059000DF7352183B00D1212000009503F022FAAE
:1005A0003B00039AD1212000009503F0ADFA02230D
:1005B00002AAD3730F2202A93B0052182000D121B6
:1005C000009503F00FFA3B003200D1212000009586
:1005D00003F09AFA0A230F2130788206920F5A43C9
:1005E000084012183270039A107802095A430840E2
:1005F000121803980270029A1278100943430A40B5
:100600009B18029A137007B0F0BDC046BC040020CE
:100610000423F0B587B005AC0E000A2115000700D1
:100620002370FFF78FFD0A21030138000393FFF7C2
:100630000FFE039B3000591861700A21FFF782FDFD
:100640000A2107013000FFF703FE28007F180A2166
:10065000A770FFF777FD060130200A210640280029
:10066000FFF7F6FD64237618E67022000093D02190
:10067000603B024803F0B6F907B0F0BDBC040020AF
:100680000423F0B587B0039202AA6425D3730F2226
:100690000700284C0E0002A952182000D121009515
:1006A000033B03F09FF93A000123D121200000957C
:1006B00003F02AFA052302AAD3730F2202A95218C3
:1006C0002000D1210095043B03F08CF93200012376
:1006D000D1212000009503F017FA062302AAD37354
:1006E0000F2202A952182000D1210095053B03F0EA
:1006F00079F9039A0123D1212000009503F004FA2F
:100700000A230F21387802095A43084012183A7018
:100710003078C206D20F5A43084012183270039A3A
:100720001278100943430A409B18039A137007B0CC
:10073000F0BDC046BC04002030B50C256843034C16
:10074000225024186160A36030BDC046B400002070
:10075000104B0020190070B50F4A104C156801307D
:10076000AD002D591D605568AD002D595D6095682F
:100770000C32AD002D599D600C332428EED1D823C6
:1007800000225B00CA50B532FF32054804F096F8EB
:1007900070BDC04664020020B4000020EC57000881
:1007A00008050020D82210B500210248520004F0AC
:1007B00079FB10BDB4000020F0B50C263500454390
:1007C0000B4C70432F5965196D68BA1A6D1A574250
:1007D0007A4169424D412418A168D2B25219994216
:1007E00001D10132D2B2033A53425A41D0B2F0BDE4
:1007F000B400002010B59CB0242200210FA804F002
:1008000051FB1422002101A804F04CFB20220021FE
:1008100006A804F047FB1B491B4A0B6801241A4039
:1008200080231B0113430B6002230E9318930023B4
:1008300019931A9380231022DB030EA811941292AD
:100840001B9303F029FB002801D072B6FEE70F23AB
:100850000390019304900C3B0590210001A80293A2
:1008600003F09CFD002801D072B6FEE708230B9030
:1008700006A8069303F060FE002801D072B6FEE7DA
:100880001CB010BD00700040FFE7FFFFF0B501266F
:100890008BB002F099F9FFF7ADFF1422002105A8F3
:1008A00004F000FB0221A0207A4FC005FB6A00255E
:1008B0003343FB62FB6A33400193019BFA6A0A43AC
:1008C000FA62FB6A00220B4002930631029B02F09F
:1008D0000DFF00223100704802F008FFA020042321
:1008E00005A9C00505930695079602F039FEA020DC
:1008F000082205A9C005059206960795089502F0FD
:100900002FFE654805A9059606960795089502F0FD
:1009100027FE0822290005A804F0C4FA06235F4C2C
:10092000A363C223FF3363625D4B22002360042371
:100930002C3220002584E563A5621570256365636C
:100940006560A560E56026616361A561E56102F00F
:100950002BFAA84201D072B6FEE7802320005B018B
:1009600005A90596069302F0ABFB002801D072B6EC
:10097000FEE74C4B200005A9059302F0A1FB041EE5
:1009800001D072B6FEE73B6B010033433B633B6B28
:10099000020033400A200093009B02F0E5FB0A208E
:1009A00002F00CFC404D414B28002B60404BAC60EA
:1009B0006B60EE602C616C61AC61EC612C6202F0EA
:1009C000BBFF011E01D072B6FEE7280003F0D2F98A
:1009D000011E01D072B6FEE7280003F0F1F9031EF4
:1009E00001D072B6FEE73348334A83600260822248
:1009F000C36003614361036243628362102407237F
:100A000052004260FC328261C461C36203F0F4FEB2
:100A1000051E01D072B6FEE72200010005A804F011
:100A200041FA0822290003A804F03CFA8023234C51
:100A3000DB0523601F236360214B2000A560E3607A
:100A40002561656104F01EF8002801D072B6FEE74A
:100A5000802320005B0105A9059304F063F80028BA
:100A600001D072B6FEE70390049003A9200004F0C1
:100A700093F9002801D072B6FEE700220F20110082
:100A800002F072FB0F2002F099FB01F0C1FF01F0B0
:100A9000D1FFFEE7001002400004005018040020BF
:100AA0000024014002000004BC0400200054004067
:100AB000280C2000080500200030014060050020BF
:100AC000E703000072B6FEE7002110B5884200D0AF
:100AD000FF3180220248D20004F0E4F910BDC04684
:100AE000A605002030B504007F2812D83F2910D871
:100AF0000E4B0F4D1879CB0800280BD0002A0BD1D4
:100B0000D80107231940063B8B4000192A5C134388
:100B10002B5430BD012AF3D0D801072301221940FC
:100B20008A4000192B5C9343F2E7C046A0050020E1
:100B3000A6050020014B188059807047A0050020B1
:100B4000F7B507000C00002500926378AB4206D889
:100B5000154A2378118838005B181380FEBD3A00CF
:100B60000026203A534362685B195B009B5A01934D
:100B70000D4B22781888B24201D80135E5E7598833
:100B8000019B8022B34080194919120280B289B2B8
:100B9000134204D0009AFFF7A5FF0136E8E7009B57
:100BA0005A425A41D2B2F6E7A005002070B50400BF
:100BB0000D0016002078002800D170BD32002900F9
:100BC000FFF7BEFF030020788342F6D10134F1E73E
:100BD000F0B587B00CAC24780594041C7F2800D9AC
:100BE0007F24A4B2161C7F2A00D97F26B6B20D1C22
:100BF0003F2900D93F25ADB21F1C3F2B00D93F270D
:100C0000BFB2331BA64200D8A31B1BB20093BD4248
:100C100024D27B1B1BB20193012303930493A642AE
:100C200001D8023B0393009B019A934223DD009A73
:100C3000DB0F9B185B100293009B002B2BD1BD4256
:100C400002D92B003D001F00331CA64200D9231CF3
:100C50009CB22DB2BD4216DD07B0F0BDEB1B1BB23E
:100C600001930123A64203D90393023B0493DAE7DD
:100C70005B420393FAE7019B019ADB0F9B185B1021
:100C80005B421BB2D7E7ADB229002000059AFFF7FF
:100C900029FF0135DDE7019B002B15D12B1CBD423F
:100CA00000D93B1C9DB2A64202D2230034001E0094
:100CB00024B2B442D0DCA4B220002900059AFFF788
:100CC00011FF0134F4E7029329002000059AFFF791
:100CD00009FFA64201D1BD42BED0009B5A42029BF1
:100CE000934205DD019A9B1A039A1BB2A418A4B281
:100CF000029A01998A42E6DA009A9B18049A1BB27A
:100D0000AD18ADB2DFE7F0B585B01D000AAB1B78BA
:100D100007000E0003937F2831D83F292FD883186E
:100D20007F2B02DD8022121A92B273193F2B02DD53
:100D30004025AD1BADB2039BD21994B22200310005
:100D4000380000933300FFF743FFAD19039BADB2AA
:100D500022002900380000932B00FFF739FF039B86
:100D60003A003100380000932B00FFF731FF039B5E
:100D70002200009331002B002000FFF729FF05B06F
:100D8000F0BDF0B585B002930AAB1B7805000F00EB
:100D9000140003937F2814D83F2912D883187F2B7F
:100DA00002DD8024241AA4B2029BFB183F2B03DD32
:100DB0004023DB1B9BB202930026029BB1B29E42F2
:100DC00001D905B0F0BD039BC91989B2621900931E
:100DD00028000B0092B20136FFF7FAFEF6B2ECE7FC
:100DE00010B50020FFF770FE10BD000070B50024A4
:100DF000C2B0150002AA11709C4209D381B20A2028
:100E0000013300909BB2054802F0ECFD42B070BD8A
:100E10002E5D111901344E70E4B2EDE7BC040020E0
:100E20001FB56B4619735A730A230100009303AA76
:100E3000083B024802F0D6FD05B000BDBC0400200E
:100E400070B5B02478250E4E220000212800FFF74F
:100E5000E7FF002228001100FFF7E2FF0134102213
:100E600000212800FFF7DCFFE4B23200802340219C
:100E70002800FFF7BBFF8036B82CE5D170BDC04617
:100E8000A605002010B501227821524B524802F0ED
:100E9000CDFE0024A04200D09AE02100AE227820AE
:100EA000FFF7BEFF210020227820FFF7B9FF2100C5
:100EB00010227820FFF7B4FF2100B0227820FFF73E
:100EC000AFFF2100C8227820FFF7AAFF22002100EF
:100ED0007820FFF7A5FF210010227820FFF7A0FF60
:100EE000210040227820FFF79BFF210081227820FB
:100EF000FFF796FF2100FF227820FFF791FF2100E6
:100F0000A1227820FFF78CFF2100A6227820FFF78E
:100F100087FF2100A8227820FFF782FF21003F22CF
:100F20007820FFF77DFF2100A4227820FFF778FFCB
:100F30002100D3227820FFF773FF220021007820C0
:100F4000FFF76EFF2100D5227820FFF769FF21000F
:100F5000F0227820FFF764FF2100D9227820FFF7E4
:100F60005FFF210022227820FFF75AFF2100DA22BA
:100F70007820FFF755FF210012227820FFF750FF5D
:100F80002100DB227820FFF74BFF21002022782070
:100F9000FFF746FF21008D227820FFF741FF210057
:100FA00014227820FFF73CFF2100AF227820FFF7C2
:100FB00037FF21002E227820FFF732FF2000FFF7B5
:100FC00083FDFFF73DFF054B1C805C8001345C71A5
:100FD000200010BD204E0000BC040020A005002011
:100FE00070B50D00040002F06FFA044B2A00E118FE
:100FF000002002F08BFA02F07FFA70BD00000808B2
:10100000024BC0180078C0B27047C0460000080804
:101010000122054B596B0A435A638022996B520592
:101020000A439A637047C0460010024010B504009E
:1010300086B01422002101A803F034FF0D4B226872
:101040009A4215D180220C4B9200596BA0200A4382
:1010500001215A63DA6AC0050A43DA62DB6A0B408F
:101060000093009B032301A90193029302F078FAF5
:1010700006B010BD002401400010024010B504006D
:1010800086B01422002101A803F00CFF0F4B226848
:101090009A4219D102210E4C0E48E26A0A43E262DA
:1010A000E36A0B400093009BC0230193AE3B029385
:1010B0000F3B049301A9023B059302F051FA8023F0
:1010C000A26B9B031343A36306B010BD0054004002
:1010D000001002400004005070B5050086B01422D4
:1010E000002101A803F0DEFE1A4B2A689A422FD194
:1010F00080220126184B5201596BA0200A435A63E3
:10110000DA6AC0053243DA62DB6A01A93340009330
:10111000009BA02301939E3B02939B19049302F032
:101120001FFA0E4C0E4B802223601023A360002375
:1011300020006660E36022616361A361E361236272
:1011400002F062F8002801D0FFF7BCFCAC64A56295
:1011500006B070BD00300140001002407404002051
:101160003000024080230268DB059A4204D101234B
:10117000024A916B0B4393637047C04600100240D4
:10118000FEE7FEE77047704710B501F031FD10BD76
:1011900010B5024802F0BCF810BDC046740400202F
:1011A00010B5024803F070FD10BDC0466005002078
:1011B0000B4A0C490300891A0B4A10B51068002825
:1011C00001D10A4810601068C3188B4206D903F099
:1011D00019FE0C2303600120404210BD1360FCE7A0
:1011E0000004000000200020A8090020200E00209C
:1011F000704700000520044A5378C31A0130584351
:101200001378C018C0B27047EA0D00200023064AC8
:101210001370064A13705370054A1370054A137011
:10122000054A13707047C046C8090020EA0D002027
:10123000AC090020E70D00200C00002010B5064C82
:101240002200611CA01CFFF71BFAE21C211D601D7F
:10125000FFF780F910BDC0462900002070B51D00C1
:10126000062314005843C900FFF764FC2A0020003D
:101270000149FFF79BFC70BD00000020F0B585B070
:101280001E000AAB1B780F00040015000393FFF744
:10129000A7FD0021012308007F2200930633FFF7FA
:1012A00070FD00233A0019001800FFF7D7FF039BD9
:1012B0005F00E719BC4201D105B0F0BD617820782C
:1012C000330004CDFFF7CAFF0234F3E710B501F095
:1012D0009BFC104A1368C31A962B10D996211060F4
:1012E0000D4A0E4B50884900984209D903240C48F6
:1012F000047012888A4208D20122094B1A7010BD6C
:101300008842F6D204240648F2E79A42F7D902222C
:10131000034BF3E7C0090020AE090020AC0D00002C
:10132000C809002010B5012B15D0022B20D0002BAE
:101330001DD1164C2378032B04D103788B4216D28F
:10134000013303702378042B11D1037893420ED913
:10135000013B03700BE00D4C2378022B04D1037882
:101360008B4204D2013303702378012BEDD010BDE2
:10137000064C2378042B04D103788B42F7D2013337
:1013800003702378032BF2D1DFE7C046C8090020A1
:10139000A02010B50421C00502F0A2F90A4C237860
:1013A0001843C0B2002802D10130207010BDA02027
:1013B0000421C00502F094F90028F7D02078002815
:1013C000F4D00020F1E7C046D209002010B5007922
:1013D0000C000138032809D8FEF7A0FE02090D1100
:1013E0000023012204212000FFF7A6F910BD0423E9
:1013F00000220121F7E7042200231100F3E7042370
:1014000000211A00EFE70000F0B5514B99B01C78AD
:10141000002C19D101221A70FFF7C4F94D4B20019D
:10142000E1B2C0180134FFF7D1FF242CF6D1FFF749
:101430008FF99021002348488900C25C002A00D11E
:101440007CE00122454B1A70FFF7F8FE00230221D1
:10145000434F02AC23703B780125052202336370B1
:10146000E17003234918E171E173FA213D4E627284
:101470005219E272053263712273637332780A3350
:10148000A5702571A5712572A572A373C9005218A4
:10149000B17873780EA80091334903F02BFE71796F
:1014A0003379F27813A80091304903F023FE304BD2
:1014B0000EA906932F4B0C9107932F4B13A908935A
:1014C0002E4B200009932E4B06AA0A932D4B0D910B
:1014D0000B9308232C4900932B00FFF7CFFEFFF757
:1014E000AFFCFFF7F3FE0223002204213800FFF7D0
:1014F00019FF0022254B1A70FFF74AFF00281BD066
:101500003B78002B07D1FFF74DF9FFF721F9204A6F
:1015100013785B19137000203B781E4A591C117018
:101520000B49087083420FD00C4B1B7883420BD1C0
:10153000194901300870137019B0F0BD10338B4297
:1015400000D07AE7054B7EE700233B70F4E7C04606
:101550000C000020D4090020D8090020B609002082
:10156000E70D002029000020F56100080462000852
:1015700013620008156200081F6200082862000854
:1015800011640008326200083B620008C8090020AC
:10159000E80D0020AC090020B4090020F0B50027B8
:1015A0008FB007900B21012003F022FC3C003D008E
:1015B00003900122BB1809A8DBB2837004930223B5
:1015C000C370594B00260B93584B42700C93039BEE
:1015D00002710D9303234271067007990093130063
:1015E0000BAAFFF74BFEF30020339BB205930B23AE
:1015F00073434F4AD3180693002302930A20029B99
:10160000059958430E3080B2FFF794FA069B029A70
:10161000985C6B461B7A01229D4203D1F2B2121BE9
:10162000531E9A414349D2B2FFF78AFA029B013313
:1016300002930A2BE2D10136042ED4D101230A2DC4
:1016400002D123005A1E9341DBB2042113203A4AEF
:10165000FFF704FE01230A2D02D1A31E5A1E934157
:1016600006211320354ADBB2FFF7F8FD0A26FFF703
:10167000E7FB002C03D0A61E73425E410936FFF73C
:1016800025FE2F4A1378012B05D1002D01D0013DF5
:10169000EEB235000FE0022B09D0032B20D0042B33
:1016A00009D10A2D1ED0032C27D0013421E0B542E8
:1016B00038D20135EDB200231370FFF769FE002820
:1016C00000D176E70A2D1AD00B226243184B9B18E3
:1016D0005B5D039AD355049B0A2B1DD01F0068E75E
:1016E0000A2D03D163425C416400E4E7002C02D080
:1016F000013CE4B2DFE71C00DDE70024DBE7002C5F
:1017000007D1002F01D0013FFFB20023039AD35528
:101710004FE7022C00D04CE700220A4B03981A70C6
:101720000FB0F0BD0025C6E7136200084162000853
:10173000776400080000002043620008456200084A
:10174000C80900200C0000204A234A211A00F0B5E5
:10175000454F49423C7805006143601EC918434328
:10176000424EC91885B062434148891903F087FB8E
:10177000042C01D801343C7005246C43FFF75EFD56
:101780003C483D4900194B780A780390087902904B
:10179000C8780190897830000091384903F0AAFC9C
:1017A000032D24D82800364E364DFEF7B7FC022212
:1017B0003B48FFF71FFD344C000123181A7905231D
:1017C000013A5A43314B32499B180259300003F019
:1017D00091FCFFF70FFD00012418E37AE288013342
:1017E000217B2800013100912A4903F083FC05B0D8
:1017F000F0BDFFF7FFFC244C000123181A790523E4
:10180000013A5A43214B22499B180259300003F0F8
:1018100071FCFFF7EFFC00012418E37A1E4A013344
:101820001278DDE71D4B1E491A68300003F062FC98
:101830001C4B1D491A78280003F05CFCD7E71B48B5
:101840001B4A4178537801311278019101780133B4
:101850000131013200913000164903F04BFC164B68
:1018600016491A78E7E7C046ED0D0020140C002059
:101870005E0C0020E7640008290000204762000891
:10188000320C0020480C0020D4090020AF6400086E
:101890006362000869620008EC0D0020BC090020AA
:1018A00077620008BA0900207F620008E10D00207D
:1018B000E30D00208E620008E00D0020A062000809
:1018C00070B5FEF76FFF0024052C03D92300123BEF
:1018D000052B3BD8002304211A002000FEF72CFF23
:1018E0000134E4B2242CEFD1FEF732FF0C3C21008E
:1018F0002B20FFF71FF9204D002229001F48FFF77A
:1019000055F918212720FFF715F901340122290084
:101910001B48FFF74BF9A4B2FFF792FAC82001F079
:1019200079F9212CE3D1FA20800001F073F9FEF758
:1019300039FFFEF70DFFFFF753FAFFF781FA00209A
:10194000FFF75EFB43425841C0B270BDA31F052B99
:1019500002D9123B052B03D8002304221900BCE74F
:1019600023000C3B052B02D9123B052BB8D80022D3
:1019700004231100B1E7C04600000020B162000856
:10198000B8620008F0B58BB0FFF702FD494C051EA8
:101990000FD022786178A078FEF73AFEE2782179BC
:1019A0006079FEF79FFD01210020FFF719FB0BB0C6
:1019B000F0BDFFF78BFC404E2A00012305213000CB
:1019C000FFF7B0FC3278002A04D113006321200015
:1019D000FFF7A8FC3278012A04D100230C21601CF7
:1019E000FFF7A0FC3378354F022B08D16378012232
:1019F000FB18013B1978A01C0023FFF793FC3378F8
:101A0000032B05D1002317211A00E01CFFF78AFCE5
:101A10003378042B05D100233B211A00201DFFF74A
:101A200081FC3378052B05D100233B211A00601D72
:101A3000FFF778FC6578A2787F19013F3B789A42DE
:101A400000D9A37000221E4B1E491A7002A804324E
:101A500003F00CFA062133781B4A59435218002B25
:101A600017D1FA232578DB00ED1805AC2B002000F8
:101A7000164903F03FFB164B16490393022303AAB2
:101A8000009302A8013B0494FFF7F8FBFFF7D8F995
:101A90007AE7012BE9D0022B01D1A578E5E7032BEA
:101AA00001D1E578E1E7042B01D12579DDE76579FE
:101AB000DBE7C04629000020E70D0020A3640008F2
:101AC000C8090020CC570008C3640008C0620008A1
:101AD000C8620008D9620008F0B5544F89B03C785C
:101AE0007E78FFF755FC051E04D00022504B1A707B
:101AF00009B0F0BD7B783A784E490133013203A832
:101B000003F0F8FA2B000621012003AAFFF7A6FB39
:101B1000FFF796F9FEF746FE474B0193019B1979B3
:101B2000002900D17EE0002304211A002800FEF7DE
:101B300003FE019B01351033EDB20193242DEDD14D
:101B4000FFF758FB04231A001900FEF7F5FDFEF716
:101B5000FFFD3A4B1A88962A5BD900221A80384B2F
:101B6000384A5B88934211D90136F5B20523581BD8
:101B700001335843002320181A000421C0B2FEF795
:101B80001BFE2E000135EDB20028EFD196222C4B22
:101B900052005B88934211D2013EF5B20523581BD7
:101BA00001335843002320181A000421C0B2FEF765
:101BB00003FE2E00013DEDB20028EFD19622204B0E
:101BC00052001B8893420FD2052306259B1B5D43C1
:101BD000EDB20023013CE4B260191A000421C0B246
:101BE000FEF7EAFD0028F4D1154B164A1B889342F4
:101BF0000FD9052306259B1B5D43EDB2002301345D
:101C0000E4B260191A000421C0B2FEF7D5FD002825
:101C1000F4D1052C00D93C78052E00D97E783C7093
:101C20007E705EE70B00042280E7C046EA0D0020CC
:101C30000C000020E3620008D4090020B80900204D
:101C4000AE090020AC0D0000F0B5754BA3B01878BC
:101C5000C823002806D0643B012803D0323B022869
:101C600000D0283B6F4A13706F4B1978002952D16E
:101C700001226E4C1A70247803AB03345C70062486
:101C800019709970033159718918D971891859726D
:101C90004143DA701A719A711A729A721A73121990
:101CA0005A73634A0EAE5218DC723000614903F079
:101CB00021FA614B1A681378002B00D15F4A13ADEB
:101CC0005F49280003F016FA564B5E4A18AC1B78A1
:101CD00012785D49200003F00DFA5C4A1DAF53787D
:101CE00012785B4901330132380003F003FA594B93
:101CF00059490793594B07AA0893594B03A80D93C9
:101D000007230093063B09960A950B940C97FFF75F
:101D1000B5FAFFF795F8FFF7D9FA444C00220223F1
:101D200004212000FFF7FEFA2278002A04D10123C3
:101D300003213B48FFF7F6FA2378022B06D1394BF3
:101D40004048197801231A00FFF7ECFA454A137846
:101D5000002B03D000231370334A1370FFF718FBD6
:101D6000002857D02378012B04D13F48FFF716FCF9
:101D7000314B18602378032B01D1FFF7ADFE237898
:101D8000042B47D12C4D2E683378002B44D0FFF71D
:101D900031FA364C224B000106511E78FFF72AFA21
:101DA0000001204B2018013606711E78FFF722FA39
:101DB000000120180681FFF71DFA224E0001377836
:101DC0002018C780FFF716FA294F00013B7820182A
:101DD0008372FFF70FFA0001201802221B490B3013
:101DE00003F044F80020FFF7AFFC3B78012B09D14A
:101DF000FFF700FA1F4B0001241807CC07C31A0095
:101E000023681360012333700023054A2B6013708D
:101E1000FFF7FCF923B0F0BD0222174B1A70F9E767
:101E2000B5090020E90D00200C000020E70D00207E
:101E3000AF640008FB620008C4090020F4620008D7
:101E400003630008280000200B630008EA0D00204F
:101E5000E362000813620008346300081863000896
:101E60002E630008C80900203A630008D409002046
:101E7000E80D0020D00D0020B40900200F2300221F
:101E8000F0B58DB06B441A70FFF782FA041E11D0C2
:101E90000F236B441C78FFF7ADF9244D0301002C90
:101EA00038D0EB18DA8800201419DC80FFF74CFCDE
:101EB0000DB0F0BD04221E4904A8891802F0D6FF17
:101EC000FFF798F90F26194D000128186E4407AF47
:101ED000038932781749380003F00CF9164B17497B
:101EE0000593022305AA04A80093013B0697FFF778
:101EF000C5F9FEF7A5FFFFF7E9F9FFF77BF9000148
:101F00002D18230022003000297AFFF70BFA0C4B22
:101F10001C70B9E7E85802F09FFFFFF76BF900016A
:101F200010222100281802F0BDFFC1E7D4090020CB
:101F3000CC570008466300084F630008626300083E
:101F4000C80900200122F0B5314B8BB01A70002473
:101F5000FEF728FC2F4B2001E1B2C0180134FFF737
:101F600035FA242CF6D1FFF745F904231A0019009D
:101F7000FEF7E2FBFEF7ECFBFFF70AFA041E17D0B0
:101F80000120FFF7E1FBFFF735F9224C204B000160
:101F900020181A78C3889B1AC380FFF72BF9000119
:101FA0002418E388002B01D1FFF768FF0BB0F0BDC8
:101FB0000422194902A8891802F058FFFFF71AF9FC
:101FC000144D134E0001281805AFC3883278134909
:101FD000380003F08FF8124B12490393022303AA2F
:101FE00002A80093013B0497FFF748F9FEF728FF8A
:101FF000FFF76CF9FFF7FEF800012D18230001220E
:102000003000A979FFF78EF9074B1C70B4E7C04682
:10201000EC0D0020D4090020CC5700086A630008AA
:102020007263000880630008C8090020F0B55C4CAA
:1020300099B02378002B5ED108225A4901338918C0
:1020400003A8237002F012FFFFF7D4F8564D0001E9
:10205000281802795549002A00D155490523013A2B
:102060005343544A09AFD218380003F043F8FFF73E
:10207000C1F800012B181B794F4A002B00D02A58B9
:102080000EAE4E49300003F035F8FFF7B3F8464D79
:1020900000012818C2884A4913A803F02BF8494BBD
:1020A0000697059313AB08930796FFF7A3F8000173
:1020B000281802790423002A00D1023B424905AACC
:1020C00003A800930123FFF7D9F80026FEF7B8FE16
:1020D000FEF768FB3001F1B228180136FFF776F9F8
:1020E000242EF7D1FFF786F804231A001900FEF713
:1020F00023FBFEF72DFB354B1A88962A27D90022A1
:1021000033481A80428833498A4232D9324D6B783B
:10211000042B01D80133DBB26B700388962040009A
:10212000834230D22C480178002901D00139C9B24C
:102130000170C8212D3AFF3A92B209018A4204D8AF
:102140002D3BFF3B9BB28B4201D900232370FFF74D
:102150001FF900280BD0FFF74DF803011248C018F3
:102160000379002B17D0FFF7EDFEFFF74FF819B0FA
:10217000F0BD96235B009A42CFD2174D6B78002BAF
:10218000CAD0013BC7E78B42D3D913480178042951
:10219000CED80131CBE70222104B1A70E7E7C046D8
:1021A0000C000020CC570008D4090020FB62000876
:1021B00085630008AF640008006500080363000839
:1021C0008D6300089663000880630008B80900204A
:1021D000AE090020AC0D0000EA0D0020B40900207B
:1021E000F0B585B002AF3860FFF704F87A4B000114
:1021F000C1583868FDF788FF24240021002801D148
:102200000131C9B2013CE4B2002CF7D1102002F038
:10221000EFFD724B78601C70714B1B78A34218D88D
:10222000FFF7B6F86D4D061E32D00220FFF78CFA8C
:102230002B78002B0BD06B4B022219787B6809019D
:1022400059180B31684802F011FEFFF77BFEBD46BE
:10225000F7BD614D39682868FDF756FF002810D199
:10226000AB7A013BA3420CD15C4B5C491B785A1CF6
:102270000A707A681B01D3182A0043CA43C3126844
:102280001A605A4B1035AB42E4D10134E4B2C3E7D3
:102290002B78002B30D0FFF719F829780223013969
:1022A00032005048C9B2FFF73DF8514B34001E7060
:1022B000FEF778FA484B2001E1B2C0180134FFF76D
:1022C00085F8242CF6D10521464B1A787B6812013B
:1022D0009A18137BD07ACB1A01314B431818FA2382
:1022E0004449C0B209885B0099424BD201001000FA
:1022F000FFF76CF8FEF72CFA2B786D465A000B327C
:10230000D208D200AA1A9546002202AC2270A2700E
:10231000344A0121127861700232E2701422534370
:102320006A460733DB08DB00D31A9D4602AB3B60ED
:102330002A4B1B789E422BD369469A000F32D20853
:10234000D2008A1A95462C4902AA002B00D12B49AB
:102350001420160058431160294908365160396825
:102360000818884234D10121002B01D00233D9B2A0
:102370000091012320002349FEF780FFFEF760FD56
:10238000AD464DE700231A001900FEF7D5F9B1E775
:10239000052114207B6832019A1813797043013BA0
:1023A0004B431949CB1839680818117B0131019149
:1023B000D17A013100911268144902F09BFE01228A
:1023C0007300E3181A71B21C01365A71F6B2AFE706
:1023D00002C61431C5E7C046D4090020BA0900205E
:1023E000E80D0020E70D0020EA0D0020140C00206D
:1023F000C8090020CA090020A2630008B3630008CE
:1024000013620008CC630008AF640008BF630008D3
:10241000F0B52A4C8BB02378002B2BD128490133FF
:102420001031022203A8237002F020FD254B196809
:102430000B78002B00D1244905AD280002F05AFE8C
:102440000495012521492B0004AA03A80095FEF755
:1024500015FF6B46597B187B06235843C900033987
:1024600002385D2289B280B2DB180095FEF74BFC82
:10247000FEF7E6FCFEF78CFF00280ED0144E114D3F
:102480003778002F0BD11348FFF788F827702860A2
:102490002B681B785A1E934133700BB0F0BD01239B
:1024A00000240D4F28683B70FFF79AFE28683C70A7
:1024B00002F0D2FC2C60FEF7A9FEE9E70C00002038
:1024C000CC570008BC090020D9630008E963000864
:1024D000E60D0020EF630008CC090020F0B593B0B2
:1024E00009AC10220021200002F0DCFC0023644A29
:1024F0001370644B5B7819000293634B5B78039312
:102500008B4216D22279002A05D121005F4A19CACE
:1025100019C113680B60039B029A93422DD2FEF7F8
:1025200037FF002800D16AE00320FFF70DF913B050
:10253000F0BD544B187805235F1A01335F43FBB29B
:102540000393514B1A78824202D20131C9B2D4E7C7
:10255000039BC218D2B24E4B12019A181379002B6A
:1025600004D02300E0CAE0C312681A60444B013073
:102570001A78C0B201321A70E3E705230299414A82
:10258000591A013359431278CBB2059309AC3E4B2B
:102590001978914204D2029B0133DBB20293BAE76D
:1025A000059B207BD1180523181A01335843E57A7F
:1025B000C9B24019C0B2884216D0364805780135F4
:1025C000EBB203700493324B080118182300E0CBE0
:1025D000E0C01B680E0103602D4B9C46049B6644C3
:1025E000B372029BF2720370294809014118244812
:1025F0000D89007801326843D2B20881C7E703220F
:1026000004AB18735A731E4B0DAC1A782249200084
:1026100002F070FD012308AA0093204907A808943E
:10262000FEF72CFEFEF70CFCFEF7BCF8FA231C4A62
:102630005B0012889A421FD2124F7C78124B5B7853
:10264000A34202D2FEF784F869E705231E1B01337B
:102650005E433D78F6B20C4B1B78AB4202D201349C
:10266000E4B2EBE70023A81904221900C0B2013537
:10267000FEF762F8EDB2EEE7FEF794F8E2E7C04647
:10268000E00D0020D0090020CE090020D00D002050
:10269000D4090020E80D0020006400081064000840
:1026A000CA090020F0B56D4C93B02378002B57D1A8
:1026B0006B4901331231062203A8237002F0D6FBC6
:1026C000684B69491B78002B00D06849684A08A804
:1026D000537812780133013202F00CFDFEF78AFDC7
:1026E000644B00011B181B796349002B00D163491F
:1026F0000522013B5A435F4E614B0DAD9B183218CA
:1027000017890197D28800923258280002F0F2FC13
:10271000544B1A785B4B002A00D05B4B059308ABF7
:1027200006930323594905AA03A80093023B079582
:10273000FEF7A4FD0025FEF783FBFEF733F8280122
:10274000E9B230180135FEF741FE242DF7D1FEF72E
:1027500051FD04231A001900FDF7EEFFFDF7F8FF05
:102760004B4B1A88962A27D900224A481A80428859
:1027700049498A4235D93E4D6B78042B01D8013343
:10278000DBB26B70038896204000834233D2384816
:102790000178002901D00139C9B20170C8212D3A50
:1027A000FF3A92B209018A4204D82D3BFF3B9BB20B
:1027B0008B4201D900232370FEF7EAFD00280ED0DA
:1027C000284D2B492F78354E002F1CD10222300086
:1027D00002F04CFB27702B785A4253412B7013B0F8
:1027E000F0BD96235B009A42CCD2214D6B78002B32
:1027F000C7D0013BC4E78B42D0D91D4801780429DA
:10280000CBD80131C8E7264C0222200002F02EFB73
:1028100030782178031C884200D90B1C214A1370A0
:1028200072786378141C9A4200D91C1C1D4E747077
:102830001D4C061C884200D20E1C2670111C9A42A8
:1028400000D2191C01236170184C2370FFF746FE5B
:1028500000232370FEF7DAFCBDE7C0460C00002021
:10286000CC570008E50D00201B640008296400080F
:10287000EA0D0020D409002035640008F462000845
:10288000AF64000842640008556400081064000842
:10289000B8090020AE090020AC0D0000E30D0020B7
:1028A000E10D0020D0090020CE090020CC09002035
:1028B00010B5124988B004000622183103A802F0AE
:1028C000D5FA4A2060430E4B0E49C2180592020009
:1028D00034301E32D218C01803230692079000939A
:1028E00005AA023B03A8FEF7C9FCFEF7A9FAFEF70A
:1028F0004FFD0028FBD008B010BDC046CC570008E3
:10290000140C002066640008F0B53A4B3A4E1D786E
:10291000BBB0002D3CD10123364A02AC1370374ABC
:10292000A37012782371023262700222E270D21810
:102930006271D218E271D218A37123726272A3720B
:10294000D21823732E4F06332570E27263733570ED
:102950003B78002B3ED12B4B200006930DAB079309
:1029600052236B4408931CAB09938E236B440A9348
:102970002BAB0B93CA236B440C933378224901335E
:10298000DBB2009306AA0123FEF778FCFEF758FAA3
:10299000FEF79CFC31780223013900221748C9B2A6
:1029A000FEF7C0FC194C2378002B07D0012B01D176
:1029B000FEF72CFC00230F4A23701370FEF7E8FC8F
:1029C000002805D00D4B1878FFF772FFFEF71EFCAC
:1029D0003BB0F0BD1E2068430DAB3900181802F063
:1029E000A9FB33780135013333704A37062DAFD157
:1029F000B1E7C0460C000020CD090020E70D002003
:102A0000140C00201362000872640008C80900203A
:102A100010B5FEF737FA064802F058F8FEF750FFF7
:102A2000002801D0FEF7AEFFFEF7F0FB10BDC04658
:102A30006005002010B5034B034A1B789B009B5890
:102A40009847F8E7AC0900201000002080230268B6
:102A500070B5DB059A424AD12D4C200000F07EFA79
:102A60000A21200000F0C4FA200000F025FB294DC7
:102A70000A212880200000F0BBFA200000F01CFB97
:102A80006880200000F096FA234A244D1388013311
:102A900013802A78002A1CD0214C238801339BB252
:102AA0002380012A09D1FA2149008B4220D2ED3935
:102AB000FF39A020C00500F019FE2B78022B08D1A9
:102AC0002388182B19D80122A0200821C00500F066
:102AD0000DFE144B144A1B78002B17D0FA201388D4
:102AE00000218000834201D2013399B2118070BD70
:102AF0000022082122802A70DBE70022312BE3D953
:102B00004A2BE0D9002222802A70DDE71380EEE70D
:102B100018040020AE090020B8090020B4090020E4
:102B2000B2090020CC090020CA0900200D488546C2
:102B30000D480E490E4A002302E0D458C450043315
:102B4000C4188C42F9D30B4A0B4C002301E01360EC
:102B50000432A242FBD3FEF74BFB02F059F9FDF71A
:102B600095FEFEE7002000200000002098000020D5
:102B700040650008980000201C0E0020FEE70000C1
:102B800070B50500FA200D4B80001978FDF7DAFAD0
:102B90000B4B01001868FDF7D5FA00F01BFB040091
:102BA0000120002C09D1032D07D80238220029006A
:102BB00000F0DAFA2000034B1D6070BD2F000020EA
:102BC00008000020300000204023084A10B511689A
:102BD00003200B431360FFF7D3FF041E03D1FEF75E
:102BE00017FA200010BD0124FBE7C0460020024078
:102BF000034A044B11681B785B1813607047C0468A
:102C0000F00D00202F000020014B18687047C046CF
:102C1000F00D002070B50400FFF7F6FF0500631CFF
:102C200002D0044B1B78E418FFF7EEFF401BA042D4
:102C3000FAD370BD2F000020084B13B504000849DB
:102C40001868FDF77FFA44430194019B002B00D1E3
:102C500013BD019B013B0193F7E7C046080000202C
:102C600040420F000321036870B5040098680840D3
:102C7000012801D0002070BD1A680242FAD0052256
:102C80009D681540012D1DD19868033A02439A6052
:102C90001960FFF7B9FF060023689B682B42E9D053
:102CA000FFF7B2FF801B0A28F6D923689B682B42E6
:102CB000F2D01023626D012013436365A36D1D43A1
:102CC000A565D8E71023626D13436365A36D0343C5
:102CD000A365D0E70321036870B59A6804000A4031
:102CE000012A04D11968114201D0002070BD9968F1
:102CF000154A114208D010230120626D1343636509
:102D0000A36D0343A365F1E701259A6828002A43D0
:102D10009A60FFF791FFFFF777FF060023681B68B3
:102D20002B42E2D1FFF770FF801B0A28F6D92368F7
:102D30001B682B42F2D11023626D0120134363659F
:102D4000A36D1D43A565D1E7170000800422036829
:102D500070B599680400114201D1002070BD9968D6
:102D6000114206D09A68920703D4102299680A4348
:102D70009A60FFF749FF0426050023689B683342E9
:102D8000EBD0FFF741FF401B0A28F6D923689B6868
:102D90003342F2D010230120626D13436365A36DAB
:102DA0000343A365DAE7000070B504000120002C9E
:102DB0001BD0636D002B06D122005032A36520008A
:102DC0001370FEF733F9636DDB0606D42368042223
:102DD000996808001040114208D01023626D01204C
:102DE0001343636500235034237070BD626D5549F1
:102DF000114002220A436265032299681140524A37
:102E0000012902D11D680D4219D180266168F6059D
:102E10004D006D08B54203D080252D06A94276D11C
:102E20001D69AD00AD081D611D6929431961182593
:102E3000D968A943D960D968A5682943D9601168C0
:102E4000424D29401160616B1568490629431160A4
:102E5000802299685205114202D199680A439A600A
:102E6000DA683B490A402169DA60DD68E2680229D4
:102E700000D10420266B611C32432A43A569C97F17
:102E8000AD032A43E569ED032A434D032A43250098
:102E90002C352D786D002A430243C220DA60626A25
:102EA000FF30824204D0A56AD8682A430243DA6020
:102EB000A21CD27F012A06D1002934D18022D968F0
:102EC00052020A43DA60E16B1A69012933D12148C1
:102ED000656C02401A61226C18692A43A56C2A436A
:102EE00002431A611A691143196107215A690020C6
:102EF0008A435A615A69A16B0A435A610322A06549
:102F0000636D93431A000123134363656DE71D69E5
:102F1000114EAD00AD081D6115683540156015688E
:102F20002943116083E72021606D01436165A16D34
:102F30000A43A265C7E701210A42D6D01A698A432B
:102F40001A61D2E7FDFEFFFF08270140FFFFFFFDEA
:102F50001902FEFF03FCFFFFFFFFC3FF036870B50C
:102F60009B68040002205B071AD4250050352B789B
:102F7000012B15D001232B70E369012B11D1636D57
:102F80000B4A00201A4080235B0013431C22636518
:102F9000A065287023681A609968183A0A439A60F5
:102FA00070BD2000FFF796FE0028E8D0F8E7C04685
:102FB000FEF0FFFF70B506005036337804000220A3
:102FC000012B12D0012520003570FFF7BFFE00282D
:102FD00009D12000FFF746FE002804D1636D034AA3
:102FE00013401D4365650023337070BDFEFEFFFF77
:102FF000F8B5456904000E00082D0DD003680120C6
:10300000DB680C25034207D02023626D5034134344
:10301000636000232370F8BDFFF7F6FD0700236807
:103020001A68154224D08022616D92000A436265BD
:10303000C022D9681201114213D1621CD27F002A2A
:103040000FD11A6812070CD59A68520728D40C21A0
:103050005A688A435A60626D1649114001220A4338
:1030600062650020A2698242D5D10C221A60D2E7A3
:10307000721CD5D0002E0DD12A0023681B681A407F
:103080001D42CCD10423616D50340B436360032097
:103090002270C0E7FFF7B8FDC01BB042ECD8BEE716
:1030A0002022616D0A4362650122A16D0A43A26577
:1030B000D7E7C046FEFEFFFF0368186C70470000AC
:1030C000F8B504005034227803000D000220012AD4
:1030D0000BD0013820701A689168490706D5202264
:1030E000596D0A435A6500232370F8BD8023286870
:1030F000194E6F684103DB02490B0340B74219D0F8
:10310000906A01439162002B08D08023134A1B046C
:1031100011680A200B431360FFF78EFD2B689B0399
:1031200005D580230D4ADB0311680B431360002093
:103130002070DAE7956A8D439562002B04D0074A28
:10314000074913680B4013608303F0D5034A054910
:1031500013680B40EAE7C046011000000827014051
:10316000FFFF7FFFFFFFBFFF30B5FF2503242A00CD
:103170000440E400A24089012940D243A140C3B2E7
:1031800000280ADBC0240B4B80088000C018A40074
:1031900003591A401143015130BD0F200340083B31
:1031A00005489B089B001B18D86902401143D96150
:1031B000F2E7C04600E100E000ED00E0002805DB9A
:1031C0001F2318401E3B8340014A13607047C046CE
:1031D00000E100E08022431E5204012093420DD200
:1031E000C021074A07485360036A09061B021B0AED
:1031F0000B43036200200723906013607047C046B2
:1032000010E000E000ED00E0F8B504000120002C23
:1032100035D025681A4B1421E818FCF793FF194B99
:10322000800023640223A21D6064D3772E68164BAE
:10323000A1681E40E36827690B433B4367693B4332
:10324000A7693B43E7693B43276A3B4333432B6012
:103250008023DB0199420CD01C2528400D3D854080
:103260000A490B68AB430B6063680D6883402B43CE
:103270000B6000200123E0630534D377E077F8BDCD
:10328000F8FFFDBF000002400F80FFFFA8000240D2
:10329000F7B5451D0193EB7F04000220012B29D0D7
:1032A0000123A71DEB77FB7F00269C466046DBB21F
:1032B00001282AD10130F8772068E663676C056839
:1032C0001C363E409D43B3400560256C6B60019BFE
:1032D0004360A368102B0ED18260C160236B002B6A
:1032E0000CD00E23026813430360012302681343CA
:1032F00003600020FEBD8160C260EFE70422036826
:103300009343036002680A23EDE70220EE77F1E7BA
:10331000F8B51C220427466C016C32403E009640F2
:103320000D6803681C6835420DD03C420BD01A680A
:10333000920602D41A68BA431A60036B4E60002BDF
:1033400019D0984717E002273E009640354213D027
:103350003C4211D01A68920606D40A241A68A24385
:103360001A600122831DDA770022431D4E60DA774E
:10337000C36A9342E5D1F8BD0826370097403D4225
:10338000F9D03442F7D00E251C68AC431C600123F1
:103390001C009440821D4C60C363D3770022431D00
:1033A000DA77436BE5E70000284A802190694900FD
:1033B000030030B50B40084205D00223244844697D
:1033C000234343610B00802091698000014205D0B6
:1033D00001211F4C03436569294361618020916984
:1033E000C000014205D00821194C034365692943F7
:1033F0006161802091690001014205D00421144CD3
:10340000034365692943616180209169800101421C
:1034100005D010210E4C0343656929436161916910
:10342000890305D520200A4C03436169014361618A
:10343000802091694002014205D04021044C0343A1
:10344000656929436161936130BDC0460020024037
:10345000F40D002070B50400FFF7D6FB012605002F
:10346000184B9A69324221D102229969114200D047
:103470009A619A69D20515D49A69920512D49A690B
:1034800052050FD49A6912050CD49A69920409D492
:1034900099698022080092021040114202D19B6972
:1034A000DB0308D5FFF780FF012004E0621CD8D0C1
:1034B000002C01D1032070BDFFF7A6FB401BA042EA
:1034C000CED9F7E7002002400122084B00205968BE
:1034D00011420AD0EFF3108172B60548D860054852
:1034E000D86081F31088586810407047002002406F
:1034F000EFCDAB89050403020123034A0020516884
:103500000B4353607047C04600200240F8B5124F8D
:1035100006003B7C0D0014000220012B0CD001237F
:103520000E483B74FFF796FF002803D17861022E06
:1035300003D12C6000233B74F8BD012E02D1A4B24C
:103540002C80F7E7002E03D00448FFF783FFF1E754
:10355000E4B22C70EEE7C046F40D002050C300002A
:10356000584AF0B58218541EA241002387B0053294
:1035700003910592039A12681400DC4001D107B050
:10358000F0BD01210D0014009D402C408C4602949A
:103590002A4200D194E00324039A5E00526801920B
:1035A0002240B440E143541E049164452AD8876800
:1035B0000F400399CC680199B4403C43846044684F
:1035C000AC4325000C0961460C409C402C434460F0
:1035D000C56804990D4003998C68B4402C43C460BD
:1035E000022A11D107250F211D40AD00A940DC089A
:1035F000A4000419276A8F4303990969A9400F435E
:10360000276201E0032AE3D1B24004680499214013
:103610000A430260C02201999202114250D0012750
:10362000294C0326626B1D003A436263274A9C08BB
:10363000A400A418A268354094460F22AD00AA4009
:1036400061469143A022D2059446002260450DD0E8
:103650001F4A94463A00604508D01E4F9218B8425F
:1036600004D01D4F3200B84200D0059AAA400A4348
:103670000299A2600D00194ACC431668019935439E
:10368000C90301D43500254015605668029D019993
:103690003543890301D43500254055609668029D65
:1036A00001993543C90201D4350025409560D5689C
:1036B000029E01992E43890201D425402E00D66036
:1036C000013357E700E4FFAF001002400000014063
:1036D0000004005000080050000C0050000401409D
:1036E00000690840431E9841C0B27047002A01D0CB
:1036F000816170478162FCE703689A69920701D58E
:1037000000229A6201229969114202D199690A4301
:103710009A61704730B5039C1204006822431A4333
:10372000054B45688905640D890D1C43A5430A4373
:103730002A43426030BDC046FF63FF03F8B503680B
:1037400016009A6904000D000020D20636D55A688A
:10375000920104D480225968D2010A435A6020277A
:1037600023689A693A4212D010222000DA61DF61A0
:10377000FFF7C2FF2268124953680B4053600423CD
:10378000626C13436364230041331F700FE06A1CB3
:10379000E7D0FFF739FA801B854201D3002DDFD136
:1037A0002022636C13436364230041331A702200A8
:1037B000002301204232403413702370F8BDC0460C
:1037C00000E800FEF8B504000D001600022723688B
:1037D0009B693B4201D00020F8BD32002900200047
:1037E000FFF7ACFF002815D16B1CF0D0FFF70CFAE7
:1037F000801BA84201D8002DE9D12022636C13431D
:103800006364230041331A702200002342324034A3
:10381000137023700120DFE7F8B504000D001600D7
:103820002027042223689B69134211D1320029000A
:103830002000FFF783FF002819D123689A693A42D4
:1038400017D004219A690A4204D0228D002A01D09F
:103850000020F8BDDF615A680E490A405A60220014
:103860000023413263641770403453702370012089
:10387000EFE7FFF7C9F9801BA84201D8002DD0D18E
:103880002022636C13436364230041331A70403475
:103890000023EBE700E800FEF8B504000E00170077
:1038A0001D002268936933409B1B59424B41BB4228
:1038B00001D0002017E06B1CF4D0FFF7A5F9069BA0
:1038C000C01AA84201D8002DEBD12022636C012040
:1038D00013436364230041331A70220000234232F1
:1038E000403413702370F8BDF8B504000D001600C5
:1038F000202723689B693B4201D00020F8BD32009D
:1039000029002000FFF71AFF002813D1FFF77CF9E8
:10391000801BA84201D8002DEBD12022636C1343F9
:103920006364230041331A70220000234232403482
:10393000137023700120E1E770B504000120002C12
:103940003FD0250041352B78DAB2002B05D123007A
:10395000403320001A70FDF791FB242301212B70C6
:1039600023681D481A68A6688A431A6061681B4A62
:103970000A401A619A6802409A60E268012A21D1DD
:1039800080210902314399605A68154911435960F1
:10399000DA6861690240DA60226900200A43A1699D
:1039A00009020A43DA60216AE2690A431A600122C5
:1039B00019680A431A60202360642B702063423424
:1039C000207070BD8421090231439960022ADBD145
:1039D000802212015A60D7E7FF7FFFFFFFFFFFF051
:1039E00000800002F0B587B00593030041330492D4
:1039F00003931B7804000F000220202B14D1230016
:103A000040331A78012A0FD001261E70FFF7FCF808
:103A10008021050000901923320020000902FFF7E1
:103A20003BFF002802D0012007B0F0BD2123260073
:103A3000039A42361370113B3370049B60646362D7
:103A4000059B60636385628D2D4BFF2A20D9FF2281
:103A50002285009380235B0439002000FFF75AFE83
:103A6000638D2A0020000C99002B19D1FFF73CFF31
:103A70000028D8D120212368224DD9615A682A40D4
:103A80005A60230040344133197030702070CBE706
:103A9000628D92B22285D2B2009380239B04DBE731
:103AA000FFF790FE0028BED1636A226819780133BF
:103AB00091626362638D228D013B9BB26385013A03
:103AC000638D92B22285002BCAD0002AC8D18021F2
:103AD00020000C9B0095FFF7DFFE0028A3D1638D2B
:103AE000FF2B06D9FF2323858023FF2200905B0450
:103AF000B2E7628D92B22285D2B20090CDE7C04685
:103B00000020008000E800FEF0B587B005930300B8
:103B10004133049203931B7804000F000220202BF2
:103B200014D1230040331A78012A0FD001261E70C9
:103B3000FFF76AF880210500009019233200200069
:103B40000902FFF7A9FE002802D0012007B0F0BD4E
:103B500022232600039A42361370123B3370049BD3
:103B600060646362059B60636385628D2D4BFF2AF1
:103B700020D9FF222285009380235B043900200096
:103B8000FFF7C8FD638D2A0020000C99002B19D186
:103B9000FFF7AAFE0028D8D120212368224DD96141
:103BA0005A682A405A6023004034413319703070FB
:103BB0002070CBE7628D92B22285D2B2009380232F
:103BC0009B04DBE7FFF728FE0028BED12368626A6A
:103BD0005B6A1370636A228D01336362638D013AFD
:103BE000013B9BB26385638D92B22285002BC9D0C5
:103BF000002AC7D1802120000C9B0095FFF74CFEC6
:103C00000028A2D1638DFF2B06D9FF2323858023B3
:103C1000FF2200905B04B1E7628D92B22285D2B29E
:103C20000090CCE70024008000E800FEF0B51E0004
:103C3000002389B007930300059241331A780400EA
:103C40000225202A5BD1026897698022380012027F
:103C50001040174253D1220040321778012F4ED026
:103C6000013D1570242289051A708B0D6064049340
:103C7000E368012B2BD13E4B049A13432268536017
:103C8000FEF7C2FF0390012223689D699B696D09BD
:103C90001B09154013401D431CD0236810279B6946
:103CA0001A003A403B422DD1039B20210093200073
:103CB0003300FFF7F1FD002821D120232268050001
:103CC000D3612200403441321370207017E0A023EA
:103CD0009B01D1E7731CD6D0FEF796FF039BC01A59
:103CE000B04201D8002ECED12200202341321370E1
:103CF000626C012513436364002340342370280061
:103D000009B0F0BD039B0022009320213300200066
:103D1000FFF7C2FD021EF2D123680598DF6120275C
:103D2000DF61079981420FD180215868C9010143A1
:103D30005960039B3900009320003300FFF7ACFD6E
:103D40000028DCD12368DF61079B059A01330793C4
:103D5000079B934200D28BE722002023413213704D
:103D6000626C40341343636000232370C7E7C0468E
:103D700000200002F0B504004134227803000F0057
:103D80000220D6B2202A18D11D0040352A78012AF7
:103D900013D0242222701B68233A196807489143E4
:103DA00019601968014000201960196839431960C9
:103DB00019680A431A6026702870F0BDFFEFFFFFF4
:103DC0000200F0B5413214780300E5B20220202C45
:103DD00017D11C0040342678012E12D022301070EA
:103DE0001B6823381E68074F86431E601E68090241
:103DF0003E4031431960196808431860002015706F
:103E00002070F0BDFFF0FFFF0C221D4B70B5DC6889
:103E10002240082A31D00C2A09D0042A25D118685A
:103E2000184BC006C0171840174BC01870BDA2022F
:103E30001648120F805C80222402D968A40F520217
:103E40000134114209D0124A00230021FCF726FA5E
:103E500022000023FCF702FAE8E71A6810231A424E
:103E600001D00C4AF0E7084AEEE780205B680002C8
:103E70001B045B0F01339840D8E70548D6E7C046DE
:103E80000010024000E548FF0024F400EC61000847
:103E900000127A0000093D00F0B5050085B0002849
:103EA0005AD00C23BE4C0268E668E7681E408023A7
:103EB0005B0219001F40D20742D42B689B0700D534
:103EC0008BE02B68DB0629D5002E00D0DCE02368D0
:103ED0009B0502D5EB69002B3ED06268B1496B6A45
:103EE0000A401A43626061682A6A0902090A1206D6
:103EF0000A43626080225B0B013312029A40130076
:103F0000E1680A06A849120F8A5CD340A74A1360E9
:103F1000A74B1868FEF734FE002834D12B681B0726
:103F200000D5E8E02B685B0700D50AE12B689B060B
:103F300000D58EE1AB6A002B00D0BDE1002022E06D
:103F4000082E03D00C2E09D1002F07D023689B0325
:103F5000B3D56B68002BB0D1012014E06A688A42A7
:103F600013D1226813432360FEF74EFE0090802297
:103F7000236892021342A0D1FEF746FE009BC01AAE
:103F80006428F4D9032005B0F0BDA021C9028A42FB
:103F900005D180222168D2020A432260E1E721682C
:103FA00084480140216021680B400393039B8249B0
:103FB00023680B402360002AD6D1FEF725FE00902F
:103FC000802223689202134200D176E7FEF71CFE9E
:103FD000009BC01A6428F3D9D4E7EA68042E03D002
:103FE0000C2E24D1002F22D123685B0701D5002A93
:103FF000B2D061682B6971481B0201400B43092153
:10400000636023688B4313432360FFF7FDFEE3687F
:10401000654A1B061B0FD35CD840644B1860644B89
:104020001868FEF7ADFD002800D14AE7ABE723682A
:10403000002A18D009218B4313432360FEF7E4FDC7
:10404000070004222368134207D062682B695B498A
:104050001B020A401343636033E7FEF7D5FDC01B24
:104060000228EED98EE7012293432360FEF7CCFDB0
:10407000070004222368134200D122E7FEF7C4FDA3
:10408000C01B0228F5D97DE7EB69002B20D08023E7
:1040900022685B0013432360FEF7B6FD0700802211
:1040A0002368920013420DD063683E4A13406A6A47
:1040B0001343636062682B6A12021B06120A1343E1
:1040C00063602BE7FEF7A0FDC01B0228E7D959E784
:1040D00023683B4A13402360FEF796FD07008022C9
:1040E00023689200134200D118E7FEF78DFDC01B34
:1040F0000228F4D946E76A690123002A10D0226D0C
:1041000013432365FEF780FD07000222236D13424F
:1041100000D007E7FEF778FDC01B0228F5D931E78C
:10412000226D9A432265FEF76FFD07000222236D80
:10413000134200D1F6E6FEF767FDC01B0228F5D951
:1041400020E780230021A26B5B0500911A4204D175
:10415000A26B1343A363012300938022194F5200E3
:104160003B68134208D08022AB68520093422BD1A7
:10417000226D134323654CE080223B6852001343B9
:104180003B60FEF741FD019080223B6852001342E4
:10419000E9D1FEF739FD019BC01A6428F4D9F1E694
:1041A00000100240FF1FFFFFDC6100080800002034
:1041B00030000020FFFFFEFFFFFFFBFFFFE0FFFFDF
:1041C000FFFEFFFF00700040002B16D1236D6B4AED
:1041D00013402365236D6A4A13402365FEF714FDDF
:1041E00007008022236D920013421AD0FEF70CFDC7
:1041F000644BC01B9842F4D9C4E6A021C9008B428D
:1042000018D18023216DDB000B432365236D1A43F6
:104210002265FEF7F9FC07008022236D920013420D
:1042200010D0009B012B00D080E6A36B564A1340B0
:10423000A3637BE6236D514A13402365236D504AE7
:10424000134097E7FEF7E0FC4E4BC01B9842E3D9C2
:1042500098E6A96901234D4A002918D0A16819439D
:10426000A160616B0B4363638023116A9B010B4365
:104270001362FEF7C9FC07000222A368134200D0B4
:1042800058E6FEF7C1FCC01B0228F5D97AE6A16802
:104290009943A160136A3E490B401362FEF7B4FCD8
:1042A00007000222A368134200D143E6FEF7ACFCEC
:1042B000C01B0228F5D965E60C2E43D0354A022BE7
:1042C0002ED12368802713402360FEF79DFC060053
:1042D000BF0423683B421DD1296BEB6AE2680B43A4
:1042E0002D4980260A4013436A6BB6041343E360EA
:1042F000802322685B0413432360FEF785FC0500DE
:104300002368334200D019E6FEF77EFC401B0228EA
:10431000F6D937E6FEF778FC801B0228D9D931E6BA
:104320002368802613402360FEF76EFC0500B60468
:104330002368334200D101E6FEF766FC401B0228E9
:10434000F6D91FE61800012B00D11CE68022E36895
:10435000E96A52021A408A4200D0FDE5F022296B38
:1043600092031A408A4200D0F6E5C022120413409C
:104370006A6B934200D1E1E5EEE5C046FFFEFFFF28
:10438000FFFBFFFF88130000FFFFFFEF000001406D
:10439000FFDFFFFFFFFFFFFEFFFF02FFF7B5041E79
:1043A000019101D10120FEBD01255B4E019A3368C8
:1043B0002B40934231D32268930743D4D30749D487
:1043C00001253368019A2B40934209D93368AB43E6
:1043D0003360FEF719FC070033682B4200D08CE0F5
:1043E00022684E4D530700D58FE0130706D5E968C4
:1043F00023694B4ADB000A401343EB60FFF704FDDF
:10440000EB68484A1B061B0FD35CD840464B18602C
:10441000464B1868FEF7B4FBC5E73368019AAB4317
:1044200013433360FEF7F0FB07003368019A2B401B
:104430009342C0D0FEF7E8FB3D4BC01B9842F4D935
:104440000320B0E7F0203549CB688343A0680343DD
:10445000CB60B3E7314D62682B68022A18D19B0309
:10446000A0D50321EB688B431343EB60FEF7CCFB35
:1044700063680700022B18D10C22EB681340082B4D
:104480009ED0FEF7C1FB2A4BC01B9842F4D9D7E758
:10449000032A02D19B01E4D484E7012A02D15B07FD
:1044A000DFD47FE79B05DCD47CE7032B0BD10C2208
:1044B000EB681340934283D0FEF7A6FB1C4BC01B56
:1044C0009842F4D9BCE7012B11D00C22EB681342BF
:1044D00000D175E7FEF798FB154BC01B9842F4D945
:1044E000AEE7FEF791FB124BC01B9842A8D80C22F6
:1044F000EB681340042BF4D162E7FEF785FB0C4B0D
:10450000C01B984200D867E79AE7EB6809490B405F
:10451000E1680B43EB6068E70020024000100240B6
:10452000FFC7FFFFDC61000808000020300000200A
:1045300088130000FFF8FFFF0368F7B505009B062E
:104540003CD5802300215A4C5B05A26B00911A4296
:1045500004D1A26B1343A363012300938027554E1C
:104560007F0033683B4262D06A68C023C0201600D7
:10457000216880039B021E40024001408A4267D1AD
:10458000226D110019401A426AD16968C0230A00DD
:104590009B021A409A4207D1236847480340C02033
:1045A000800301400B432360236D1A43009B226567
:1045B000012B03D1A36B414A1340A3632B68DA0795
:1045C00006D503203A49CA6C8243A8680243CA64EC
:1045D0009A0706D50C203649CA6C8243E868024324
:1045E000CA645A0706D532493548CA6C0240286960
:1045F0000243CA641A0706D52D493248CA6C0240E4
:1046000068690243CA645A0606D529492E48CA6C0D
:104610000240E8690243CA6400201B0617D5244AF9
:104620002A49D36C0B40A9690B43D3640FE033686C
:104630003B433360FEF7E8FA019033683B4293D185
:10464000FEF7E2FA019BC01A6428F6D90320FEBDEA
:104650009E4295D122680120920300D490E7F6E7AC
:10466000B14200D191E72B689B0600D48DE78022F0
:10467000216D206D120302432265226D144B1548F3
:104680000B40024022652365CB0500D47DE7FEF791
:10469000BBFA80270600BF00236D3B4200D074E7C1
:1046A000FEF7B2FA0C4B801B9842F5D9CEE7C04614
:1046B0000010024000700040FFFFCFFFFFFFFFEF40
:1046C000FFF3FFFFFFCFFFFFFFFFFFFBFFFFF3FF46
:1046D000FFFFFCFFFFFFF7FF88130000F0B51D0090
:1046E000170085B00E000400FEF78EFAED192D1AA2
:1046F000FEF78AFA254B01901B685B011B0D6B438B
:1047000022680393936833409E4201D0002032E038
:104710007B1CF7D0FEF778FA019BC01AA8422CD375
:10472000E02123685A688A435A60822261685200F5
:1047300091420CD18021A26809028A4203D08021D3
:10474000C9008A4203D140211A688A431A60802135
:10475000A26A89018A4206D119680D480140196090
:1047600019680A431A602300012251331A7000238A
:1047700003205034237005B0F0BD039B5A1E9341B3
:104780005B421D40039B013BBAE7C0460800002086
:10479000FFDFFFFF164B73B504000D0018681549C5
:1047A0001600FBF7CFFCFA239B00434301938223BF
:1047B000616880225B0099420DD133002A0080217C
:1047C0002000FFF78BFF00280FD020230320626D0D
:1047D0001343636576BD019B002B06D0019B013B13
:1047E000019323689B681342F5D10020F2E7C0468D
:1047F0000800002000366E01F8B504000120002CEE
:1048000054D0636A002B52D18222616852009142D7
:1048100000D0E36100232500A36251352B78DAB282
:10482000002B05D12300503320001A70FCF754FCF4
:10483000022040222870216866680B68A7689343AD
:104840000B6082235B003340842636023E403343B4
:104850008026E76836013E4033432669A26930402E
:10486000012603436069E7693040034380208000EC
:10487000104003433820384003438020276A120C3D
:10488000384003438020A76A8001384003430B600F
:104890000423606A1A400C33034000201A434A6024
:1048A000CB69054A1340CB6160652E70F8BD0023CB
:1048B00023616361AEE7C046FFF7FFFFF8B506006E
:1048C0005036337804000225012B3ED00123070027
:1048D000337051373B78DDB2012B4AD1002932D0F9
:1048E000002A30D002333B70002343658363C286C5
:1048F000436403648387C3878023828601630268DD
:1049000080681B02984208D14020136883431360DB
:1049100080231068DB0103431360A06C164B0C323C
:104920000363164BC362164B436300238363E38E1A
:104930009BB2FEF7ADFC002809D01023626D134333
:10494000636501233B70002333702800F8BD4022CB
:1049500023681968114202D119680A431A6020229B
:10496000596800250A435A60022259680A435A606E
:10497000E9E70225E7E7C04689490008B949000888
:10498000954900087047704710B5806AFFF7FBFF34
:1049900010BD70470321806A10B5026853688B43CD
:1049A00053601023426D13434365030001225133CA
:1049B0001A70FFF7EEFF10BD37B50500846AFEF7E9
:1049C00023F92B6820251B6802002B4227D10220E7
:1049D00023685968A9435960596881435960200088
:1049E0006421FFF7D7FE002802D0636D1D43656583
:1049F000A368002B06D101932368DA6801929B68B3
:104A00000193019B0023E3862300012251331A7096
:104A1000636D002B03D02000FFF7BBFF37BD2000E4
:104A2000FFF7B0FFFAE70000802210B50368D20557
:104A3000904205D0104CA04202D0104CA0420FD1A1
:104A40007024A3434C682343904205D00A4A904205
:104A500002D00A4A904203D1094A1340CA6813435C
:104A6000802293430A69134303608B68C3620B6817
:104A700083620123436110BD00080140001401401E
:104A8000FFFCFFFF70B504000120002C1DD02500A5
:104A900039352B78DAB2002B05D1230038332000CA
:104AA0001A70FCF75FFB02232B702068211DFFF7B3
:104AB000BBFF2200012300203E3213703D34043A34
:104AC00013705370937023702B7070BD020003003D
:104AD000012039321178814219D1022111701B68ED
:104AE000DA680243DA608022D205934205D00B4A8D
:104AF000934202D00A4A93420AD107219A680020C1
:104B00000A40062A03D0012219680A431A60704736
:104B10001A68104318600020F9E7C04600080140F9
:104B200000140140F0B50500022238352C7803004E
:104B30001000012C1DD01E00012439362C7032705B
:104B40001B684C489A6802409A600A68602A5FD0E5
:104B500032D8402A00D174E014D8202A0CD009D8C9
:104B600010211000884307D0200001233370002358
:104B70002B70F0BD302AF7D17020996881430A4329
:104B8000072132E0502AEFD11F6A1A6A4868A2430F
:104B9000F024C9681A629A69A24314000A010A2122
:104BA0008F433900224301439A61196270219A6848
:104BB0008A431100572218E0802700207F01BA4263
:104BC000D3D080208001824213D02000702ACCD123
:104BD0009A6829484C6810408A68C96822430902CB
:104BE0000A4302439A60772299680A4300209A6038
:104BF000BBE79A6820484C6810408A68C96822431D
:104C000009020A4302439A6080229968D201ECE7C4
:104C10004868CF6810211A6A184C8A431A62996949
:104C20001A6A2140A024A24314003F03394399612A
:104C30007021020122431A629A688A431100672296
:104C4000D3E71F6A1A6A4868A243F024C9681A6247
:104C50009A69A24314000A010A218F4339002243B2
:104C600001439A61196270219A688A4311004722B0
:104C7000BBE7C0468800FFFFFF00FFFFFF0FFFFFFD
:104C800070477047704770470222036810B5196972
:104C9000040011420DD0D96811420AD0053A1A61B8
:104CA000043202769B699B075ED0FFF7EAFF002380
:104CB0002376042223681969114210D0D968114261
:104CC0000DD0093A1A61073222769A69C0239B00F7
:104CD00020001A424ED0FFF7D4FF0023237608228B
:104CE0002368196911420ED0D96811420BD0113ACC
:104CF0001A610D322276DB6920009B0740D0FFF756
:104D0000C0FF00232376102223681969114210D0B6
:104D1000D96811420DD0213A1A6119322276DA6926
:104D2000C0239B0020001A4230D0FFF7AAFF0023C7
:104D30002376012223681969114207D0D9681142EC
:104D400004D0033A20001A61FDF780FE4022236858
:104D50001969114207D0D968114204D0813A200064
:104D60001A61FFF790FF10BDFFF78AFF2000FFF7E1
:104D700089FF9CE7FFF784FF2000FFF783FFACE784
:104D8000FFF77EFF2000FFF77DFFBAE7FFF778FF10
:104D90002000FFF777FFCAE770B50400022238341D
:104DA000257803001000012D1DD01D007026393517
:104DB0002A701B6858689A68B0430E683043586080
:104DC0008020C005834205D00748834202D00748AF
:104DD000834204D18020496882430A439A600123B8
:104DE00000202B70207070BD0008014000140140AD
:104DF00010B5034B0A000100186800F05BF810BD05
:104E000034000020014B18687047C0463400002071
:104E100070B500260C4D0D4C641BA410A64209D1A0
:104E2000002600F0C7FC0A4D0A4C641BA410A642E1
:104E300005D170BDB300EB5898470136EEE7B300DB
:104E4000EB5898470136F2E73865000838650008E6
:104E5000386500083C65000810B5034B0100186870
:104E600000F054F810BDC04634000020002310B5F7
:104E70009A4200D110BDCC5CC4540133F8E710B5A0
:104E8000884202D98B18984203D3002307E08B5C39
:104E90008354013AFBD210BDCC5CC45401339A4216
:104EA000FAD1F8E703008218934200D170471970D5
:104EB0000133F9E770B5130C0D0C1ED1002B0CD18A
:104EC00089B294B24C43210000F08CF8051E1BD02F
:104ED00022000021FFF7E6FF16E01D1C0B1C92B21A
:104EE00089B29CB25143ABB263430C0C1C19220C27
:104EF00007D1240489B20C43E5E7002B01D1131C30
:104F0000EDE70C2300250360280070BD70B5050097
:104F1000002910D00C1F2368002B00DAE4182800A9
:104F200000F010F91D4A1368002B05D1636014606E
:104F3000280000F00FF970BDA34208D9216860185D
:104F40008342F3D118685B6841182160EEE71A00CC
:104F50005B68002B01D0A342F9D911685018A04218
:104F60000BD120680918501811608342E0D11868ED
:104F70005B68411811605360DAE7A04202D90C2344
:104F80002B60D5E721686018834203D118685B68FD
:104F90004118216063605460CAE7C0460C0E0020CF
:104FA00070B50F4E0D0031680400002902D100F0E9
:104FB0008FF830602900200000F08AF8431C0AD0E6
:104FC0000323C51C9D43A84207D0291A200000F0E6
:104FD0007FF8431C01D101256D42280070BDC046F9
:104FE000100E0020F7B50322CB1C934308330600B4
:104FF0001F000C2B32D20C27B94231D8300000F000
:10500000A1F8324D2B681C00002C2ED13900300045
:10501000FFF7C6FF0400431C1ED12C682500002D9D
:105020004AD123682900E3183000019300F050F8BA
:10503000019B834243D123680337FF1A03239F4315
:1050400008370C2F00D20C2739003000FFF7A8FFDB
:10505000431C34D02368DF19276013E0002BCBDA20
:105060000C23002533602800FEBD2268D11B20D40C
:105070000B2917D9E2192760A34211D12A6063686E
:10508000116053603000250000F064F807220B35F2
:10509000231D9543EA1A9D42E5D05B1BA350E2E72E
:1050A0005A60ECE76268A34201D12A60EAE75A60DD
:1050B000E8E723006468A7E72C006D68AFE70C23DE
:1050C0003000336000F046F8CDE7C0460C0E0020FB
:1050D000002370B5064D040008002B60FCF768F84B
:1050E000431C03D12B68002B00D0236070BDC04649
:1050F000140E00200EB400B50B499CB01DAB0290FD
:105100000690079104910948094904CB059100686C
:1051100002A9019300F088F80023029A13701CB0D2
:1051200008BC03B01847C046FFFFFF7F34000020D3
:105130000802FFFF03000A7801311A700133002AC8
:10514000F9D1704710B5024800F0F0FA10BDC04622
:10515000180E002010B5024800F0E9FA10BDC04654
:10516000180E0020F0B58E6885B007000C00039281
:1051700001939E423CD890238A89DB001A4234D0A6
:105180000969236860695B1A029303234343DD0FB7
:10519000ED18019B029801331B186D10AB4200D92A
:1051A0001D00530532D529003800FFF71BFF061EEE
:1051B00009D10C233B6040230120A28940421343C4
:1051C000A38105B0F0BD029A2169FFF74FFEA389C4
:1051D000144A1A4080231343A381029B2661F618C8
:1051E00026606561019EED1AA560019B9E4200D973
:1051F000019E320003992068FFF741FEA36800205A
:105200009B1BA36023689E192660DAE72A003800FA
:1052100000F099FA061EE0D138002169FFF776FE0A
:10522000C7E7C0467FFBFFFFF0B5A1B003901D00AC
:105230008B890F0016001B0611D50B69002B0ED1B0
:105240004021FFF7CFFE38603861002805D10C23DC
:10525000039A0138136021B0F0BD40237B61002325
:1052600008AC6361203363761033A376079535006D
:105270002B78002B01D0252B47D1AB1B0593B542D2
:105280000CD0320039000398FFF76CFF431C00D1AB
:10529000AEE06269059B9446634463612B78002B02
:1052A00000D1A5E0012200235242626004A95432D9
:1052B00052186E1C2360E360A3601370A36505227F
:1052C0003178544800F034FA751C00281FD1226848
:1052D000D30604D5532304A95B18202119701307A2
:1052E00004D5532304A95B182B21197033782A2B7A
:1052F00016D0350000210A20E3682A786E1C303A67
:10530000092A4ED9002911D117E00135B0E7414BE8
:105310002268C01A0123834013432E002360CEE786
:10532000079B191D1B680791002B01DB0B9304E001
:105330005B42E3600223134323602B782E2B0AD1B8
:105340006B782A2B35D1079B02351A1D1B680792F3
:10535000002B2BDB0993304E03223000297800F01C
:10536000E7F9002806D04023801B834022680135DE
:10537000134323602978062228486E1C217600F00A
:10538000D7F900283CD0264B002B25D10722079BBC
:1053900007339343083307936369049A9B18636147
:1053A00065E74343350001219B18A6E701235B42D3
:1053B000D0E700230A201A000135636029786E1CAB
:1053C0003039092903D9002BC5D00992C3E74243DC
:1053D000350001235218F1E707AB00933A00210092
:1053E000104B039800E000BF0490049B0133D3D11D
:1053F000BB890D985B0600D42DE7012040422AE7C7
:1054000007AB00933A002100064B039800F07CF8AC
:10541000EAE7C046FB64000801650008056500086E
:105420000000000065510008F7B5150001938A6877
:105430000B690C000090934200DA130022002B60ED
:1054400043321278002A01D001332B6023689B0677
:1054500002D52B6802332B602268062317001F40F9
:105460001A4227D0230043331B785A1E93412268E7
:10547000920630D4220001990098089E4332B0472A
:10548000431C25D0062320682A68E16800250340D4
:10549000042B03D18D1AEB43DB171D40A36822694F
:1054A000934201DD9B1AED180027BD4220D1002058
:1054B00010E00137E3682A689B1ABB42D2DD220064
:1054C000012301990098089E1932B047431CF0D17E
:1054D00001204042FEBD3020E11843310870210018
:1054E0005A1C45310978A218433202331170C1E7C2
:1054F0002200012301990098089E1A32B047431CEC
:10550000E6D00137D1E70000F0B58BB006920A0073
:1055100043320793059004920A7E0C00109B782A70
:1055200007D8622A09D8002A00D1C1E0582A00D140
:105530008CE026004236327022E0100063381528D5
:10554000F7D8FAF7F5FD16001F00F6FFF6FFF6FF95
:10555000F6FF1F00F6FFF6FFF6FFF6FFA800360085
:105560009A00F6FFF6FFB900F6FF3600F6FFF6FFE9
:105570009E0026001A684236111D196013683370A8
:105580000123A7E0086819680A1D05060BD50D68F8
:105590001A60002D03DA2D23049A6D421370614BBB
:1055A0000A2703931BE00D681A604106F1D52DB25E
:1055B000EFE70D681968081D18602E0601D50D6803
:1055C00003E06D06FBD50D68ADB2564B082703937B
:1055D0006F2A00D002372300002243331A70636819
:1055E000A360002B03DB0422216891432160002D7E
:1055F00002D1049E002B0CD0049E28003900FAF73B
:1056000027FE039B013E5B5C33702B0005009F422D
:10561000F3D9082F09D12368DB0706D5636822690F
:10562000934202DC3023013E3370049B9B1B2361B9
:10563000079B210000930598069B09AAFFF7F4FE3B
:10564000431C4CD1012040420BB0F0BD45310A70E3
:10565000344A03921A68216820CA1A60080616D5CF
:10566000CB0702D52023194321601027002DB2D18A
:10567000202322689A432260ADE7202209680A436A
:1056800022602200782145321170274AE1E748065E
:10569000E6D5ADB2E4E71A680D68101D49691860D7
:1056A00013682E0601D5196002E06D06FBD519803E
:1056B0000023049E2361BBE71A68111D1960166858
:1056C00000213000626800F033F8002801D0801B10
:1056D0006060636823610023049A1370A8E723695C
:1056E000320006990598079DA847431CAAD0236855
:1056F0009B0715D4099BE0689842A5DA1800A3E738
:105700002200012306990598079E1932B047431CD1
:1057100098D00135E368099A9B1AAB42F0DCE9E7BF
:105720000025F7E70C6500081D6500087047704705
:10573000C9B28218904201D10020704703788B4291
:10574000FBD00130F6E7F7B507000E001400002982
:1057500005D11100FFF746FC05002800FEBD002A18
:1057600003D1FFF7D3FB2500F7E700F01BF801900A
:10577000844203D835004308A342EED32100380009
:10578000FFF730FC051EE8D0019B22009C4200D9A7
:105790001A0031002800FFF769FB31003800FFF7DD
:1057A000B5FBDAE70B1F1B68181F002B01DA0B583B
:1057B000C0187047F8B5C046F8BC08BC9E46704794
:0C57C000F8B5C046F8BC08BC9E46704717
:1057CC0000020004000100030001000300040005B6
:1057DC0003040001000300040002000400050000A3
:1057EC00888888888888888C888888C8888888CCA5
:1057FC0088888C8888888C8C88888CC888888CCC85
:10580C008888C8888888C88C8888C8C88888C8CC84
:10581C008888CC888888CC8C8888CCC88888CCCC64
:10582C00888C8888888C888C888C88C8888C88CC54
:10583C00888C8C88888C8C8C888C8CC8888C8CCC34
:10584C00888CC888888CC88C888CC8C8888CC8CC34
:10585C00888CCC88888CCC8C888CCCC8888CCCCC14
:10586C0088C8888888C8888C88C888C888C888CC24
:10587C0088C88C8888C88C8C88C88CC888C88CCC04
:10588C0088C8C88888C8C88C88C8C8C888C8C8CC04
:10589C0088C8CC8888C8CC8C88C8CCC888C8CCCCE4
:1058AC0088CC888888CC888C88CC88C888CC88CCD4
:1058BC0088CC8C8888CC8C8C88CC8CC888CC8CCCB4
:1058CC0088CCC88888CCC88C88CCC8C888CCC8CCB4
:1058DC0088CCCC8888CCCC8C88CCCCC888CCCCCC94
:1058EC008C8888888C88888C8C8888C88C8888CC94
:1058FC008C888C888C888C8C8C888CC88C888CCC74
:10590C008C88C8888C88C88C8C88C8C88C88C8CC73
:10591C008C88CC888C88CC8C8C88CCC88C88CCCC53
:10592C008C8C88888C8C888C8C8C88C88C8C88CC43
:10593C008C8C8C888C8C8C8C8C8C8CC88C8C8CCC23
:10594C008C8CC8888C8CC88C8C8CC8C88C8CC8CC23
:10595C008C8CCC888C8CCC8C8C8CCCC88C8CCCCC03
:10596C008CC888888CC8888C8CC888C88CC888CC13
:10597C008CC88C888CC88C8C8CC88CC88CC88CCCF3
:10598C008CC8C8888CC8C88C8CC8C8C88CC8C8CCF3
:10599C008CC8CC888CC8CC8C8CC8CCC88CC8CCCCD3
:1059AC008CCC88888CCC888C8CCC88C88CCC88CCC3
:1059BC008CCC8C888CCC8C8C8CCC8CC88CCC8CCCA3
:1059CC008CCCC8888CCCC88C8CCCC8C88CCCC8CCA3
:1059DC008CCCCC888CCCCC8C8CCCCCC88CCCCCCC83
:1059EC00C8888888C888888CC88888C8C88888CCA3
:1059FC00C8888C88C8888C8CC8888CC8C8888CCC83
:105A0C00C888C888C888C88CC888C8C8C888C8CC82
:105A1C00C888CC88C888CC8CC888CCC8C888CCCC62
:105A2C00C88C8888C88C888CC88C88C8C88C88CC52
:105A3C00C88C8C88C88C8C8CC88C8CC8C88C8CCC32
:105A4C00C88CC888C88CC88CC88CC8C8C88CC8CC32
:105A5C00C88CCC88C88CCC8CC88CCCC8C88CCCCC12
:105A6C00C8C88888C8C8888CC8C888C8C8C888CC22
:105A7C00C8C88C88C8C88C8CC8C88CC8C8C88CCC02
:105A8C00C8C8C888C8C8C88CC8C8C8C8C8C8C8CC02
:105A9C00C8C8CC88C8C8CC8CC8C8CCC8C8C8CCCCE2
:105AAC00C8CC8888C8CC888CC8CC88C8C8CC88CCD2
:105ABC00C8CC8C88C8CC8C8CC8CC8CC8C8CC8CCCB2
:105ACC00C8CCC888C8CCC88CC8CCC8C8C8CCC8CCB2
