:020000040800F2
:10000000002000205D2C00088511000887110008E1
:1000100000000000000000000000000000000000E0
:10002000000000000000000000000000891100082E
:1000300000000000000000008B1100088D11000876
:10004000AD2C0008AD2C0008AD2C0008AD2C00082C
:10005000AD2C0008AD2C0008AD2C0008AD2C00081C
:10006000AD2C0008AD2C000895110008AD2C00083F
:10007000AD2C0008AD2C000800000000A511000800
:1000800000000000AD2C000800000000000000008F
:10009000AD2C000800000000AD2C0008AD2C0008BD
:1000A000AD2C0008AD2C0008AD2C0008AD2C0008CC
:1000B000AD2C0008AD2C000800000000AD2C00089D
:1000C00010B5064C2378002B07D1054B002B02D02E
:1000D000044800E000BF0123237010BDF40000209D
:1000E00000000000E4580008044B10B5002B03D0BA
:1000F0000349044800E000BF10BDC04600000000F6
:10010000F8000020E458000802780B78002A03D099
:10011000013001319A42F7D0D01A704702B47146CB
:1001200049084900095C49008E4402BC7047C0463A
:1001300003B47146490840004900095E49008E44F5
:1001400003BC7047002243088B4274D303098B42DF
:100150005FD3030A8B4244D3030B8B4228D3030C97
:100160008B420DD3FF22090212BA030C8B4202D339
:100170001212090265D0030B8B4219D300E0090A61
:10018000C30B8B4201D3CB03C01A5241830B8B426A
:1001900001D38B03C01A5241430B8B4201D34B0353
:1001A000C01A5241030B8B4201D30B03C01A5241B8
:1001B000C30A8B4201D3CB02C01A5241830A8B423D
:1001C00001D38B02C01A5241430A8B4201D34B0226
:1001D000C01A5241030A8B4201D30B02C01A52418A
:1001E000CDD2C3098B4201D3CB01C01A524183093E
:1001F0008B4201D38B01C01A524143098B4201D378
:100200004B01C01A524103098B4201D30B01C01AA2
:100210005241C3088B4201D3CB00C01A524183081C
:100220008B4201D38B00C01A524143088B4201D349
:100230004B00C01A5241411A00D2014652411046A9
:100240007047FFE701B5002000F006F802BDC04688
:100250000029F7D076E770477047C046002B11D1D0
:10026000002A0FD1002900D1002802D00021C94363
:10027000080007B4024802A14018029003BDC0461E
:10028000D9FFFFFF03B4684601B5029800F034F8C7
:10029000019B9E4602B00CBC7047C046F0B5CE46EE
:1002A000474680B5070099463B0C9C4613041B0C3F
:1002B0001D000E0061460004140C000C45434B4326
:1002C00060436143C0182C0C20188C46834203D92C
:1002D00080235B029846C444494679437243030C29
:1002E00063442D042D0CC918000440198918C0BCA2
:1002F000B946B046F0BDC046F0B557464E464546F5
:10030000DE46E0B504000D009246994683B08B426C
:1003100030D82DD04946504600F0BAF829000600E2
:10032000200000F0B5F8331A9846203B9B4633D4A2
:100330005A465346934042461F00534693401E0080
:10034000AF423AD8AF4200D178E05B46A41BBD4132
:10035000002B00DA75E000220023009201930123B4
:100360005A4693400193012342469340009328E06C
:100370008242CFD900220023009201930C9B002BD4
:1003800001D01C605D600098019903B0F0BCBB46D1
:10039000B246A946A046F0BD424620239B1A5246CB
:1003A000DA40414613004A468A40170042461F433E
:1003B000534693401E00AF42C4D90022002300924E
:1003C00001934346002BD9D0FB0772081A434646D7
:1003D0007B080EE0AB4201D1A2420CD8A41A9D4189
:1003E000012024196D410021013E24184D41002EA9
:1003F00006D0AB42EED9013E24196D41002EF8D152
:10040000009801995B4600196941002B24DB2B0001
:100410005A464446D3402A00E2401C005B46150081
:10042000002B2ADB26009E40330026004746BE40B4
:100430003200801A9941009001919FE7A342BCD8F5
:1004400083E74246202300219B1A0022009101925B
:100450000122DA40019286E7424620239B1A2A00B5
:1004600046469A402300F340444613432A00E240A4
:100470001C005B461500002BD4DA42462F002023D7
:10048000260097409B1ADE403B003343CDE7C04631
:1004900010B5002903D100F007F8203002E0080071
:1004A00000F002F810BDC0461C2101231B04984235
:1004B00001D3000C10391B0A984201D3000A0839F5
:1004C0001B09984201D30009043902A2105C4018AC
:1004D0007047C04604030202010101010000000050
:1004E000000000000023F0B587B005AC0E000A2123
:1004F000150007002370FFF725FE0A2103013800CD
:100500000393FFF7A5FE039B3000591861700A2181
:10051000FFF718FE0A2107013000FFF799FE2800B7
:100520007F180A21A770FFF70DFE060130200A216F
:1005300006402800FFF78CFE64237618E670220040
:100540000093D021603B024803F0E4FA07B0F0BD0D
:10055000180500200023F0B587B0160002AA642514
:10056000D3730F22294C039102A902905218200044
:10057000D1210095013303F0CDFA029A0123D12154
:100580002000009503F058FB01270F2202AB02A9BF
:10059000DF7352183B00D1212000009503F0BAFA16
:1005A0003B00039AD1212000009503F045FB022374
:1005B00002AAD3730F2202A93B0052182000D121B6
:1005C000009503F0A7FA3B003200D12120000095EE
:1005D00003F032FB0A230F2130788206920F5A4330
:1005E000084012183270039A107802095A430840E2
:1005F000121803980270029A1278100943430A40B5
:100600009B18029A137007B0F0BDC0461805002071
:100610000423F0B587B005AC0E000A2115000700D1
:100620002370FFF78FFD0A21030138000393FFF7C2
:100630000FFE039B3000591861700A21FFF782FDFD
:100640000A2107013000FFF703FE28007F180A2166
:10065000A770FFF777FD060130200A210640280029
:10066000FFF7F6FD64237618E67022000093D02190
:10067000603B024803F04EFA07B0F0BD18050020B9
:100680000423F0B587B0039202AA6425D3730F2226
:100690000700284C0E0002A952182000D121009515
:1006A000033B03F037FA3A000123D12120000095E3
:1006B00003F0C2FA052302AAD3730F2202A952182B
:1006C0002000D1210095043B03F024FA32000123DD
:1006D000D1212000009503F0AFFA062302AAD373BC
:1006E0000F2202A952182000D1210095053B03F0EA
:1006F00011FA039A0123D1212000009503F09CFAFE
:100700000A230F21387802095A43084012183A7018
:100710003078C206D20F5A43084012183270039A3A
:100720001278100943430A409B18039A137007B0CC
:10073000F0BDC0461805002030B50C256843034CB9
:10074000225024186160A36030BDC0461001002013
:10075000104B0020190070B50F4A104C156801307D
:10076000AD002D591D605568AD002D595D6095682F
:100770000C32AD002D599D600C332428EED1D823C6
:1007800000225B00CA50B532FF32054804F02EF952
:1007900070BDC046C0020020100100201C59000896
:1007A00064050020D82210B500210248520004F050
:1007B00011FC10BD10010020F0B50C26350045439A
:1007C0000B4C70432F5965196D68BA1A6D1A574250
:1007D0007A4169424D412418A168D2B25219994216
:1007E00001D10132D2B2033A53425A41D0B2F0BDE4
:1007F0001001002010B59CB0242200210FA804F0A5
:10080000E9FB1422002101A804F0E4FB20220021CE
:1008100006A804F0DFFB1B491B4A0B6801241A40A1
:1008200080231B0113430B6002230E9318930023B4
:1008300019931A9380231022DB030EA811941292AD
:100840001B9303F0C1FB002801D072B6FEE70F2313
:100850000390019304900C3B0590210001A80293A2
:1008600003F034FE002801D072B6FEE708230B9097
:1008700006A8069303F0F8FE002801D072B6FEE742
:100880001CB010BD00700040FFE7FFFFF0B501266F
:100890008BB002F031FAFFF7ADFF1422002105A85A
:1008A00004F098FB0221A0207A4FC005FB6A0025C6
:1008B0003343FB62FB6A33400193019BFA6A0A43AC
:1008C000FA62FB6A00220B4002930631029B02F09F
:1008D000A5FF00223100704802F0A0FFA0200423F1
:1008E00005A9C00505930695079602F0D1FEA02044
:1008F000082205A9C005059206960795089502F0FD
:10090000C7FE654805A9059606960795089502F065
:10091000BFFE0822290005A804F05CFB06235F4CFB
:10092000A363C223FF3363625D4B22002360042371
:100930002C3220002584E563A5621570256365636C
:100940006560A560E56026616361A561E56102F00F
:10095000C3FAA84201D072B6FEE7802320005B01F3
:1009600005A90596069302F043FC002801D072B653
:10097000FEE74C4B200005A9059302F039FC041E4C
:1009800001D072B6FEE73B6B010033433B633B6B28
:10099000020033400A200093009B02F07DFC0A20F5
:1009A00002F0A4FC404D414B28002B60404BAC6052
:1009B0006B60EE602C616C61AC61EC612C6203F0E9
:1009C00053F8011E01D072B6FEE7280003F06AFA60
:1009D000011E01D072B6FEE7280003F089FA031E5B
:1009E00001D072B6FEE73348334A83600260822248
:1009F000C36003614361036243628362102407237F
:100A000052004260FC328261C461C36203F08CFF19
:100A1000051E01D072B6FEE72200010005A804F011
:100A2000D9FA0822290003A804F0D4FA8023234C21
:100A3000DB0523601F236360214B2000A560E3607A
:100A40002561656104F0B6F8002801D072B6FEE7B2
:100A5000802320005B0105A9059304F0FBF8002822
:100A600001D072B6FEE70390049003A9200004F0C1
:100A70002BFA002801D072B6FEE700220F201100E9
:100A800002F00AFC0F2002F031FC02F059F802F0EB
:100A900069F8FEE7001002400004005074040020D2
:100AA000002401400200000418050020005400400A
:100AB000280C20006405002000300140BC05002007
:100AC000E703000072B6FEE7002110B5884200D0AF
:100AD000FF3180220248D20004F07CFA10BDC046EB
:100AE0000206002030B504007F2812D83F2910D814
:100AF0000E4B0F4D1879CB0800280BD0002A0BD1D4
:100B0000D80107231940063B8B4000192A5C134388
:100B10002B5430BD012AF3D0D801072301221940FC
:100B20008A4000192B5C9343F2E7C046FC05002085
:100B300002060020014B188059807047FC050020F8
:100B4000F7B507000C00002500926378AB4206D889
:100B5000154A2378118838005B181380FEBD3A00CF
:100B60000026203A534362685B195B009B5A01934D
:100B70000D4B22781888B24201D80135E5E7598833
:100B8000019B8022B34080194919120280B289B2B8
:100B9000134204D0009AFFF7A5FF0136E8E7009B57
:100BA0005A425A41D2B2F6E7FC05002070B5040063
:100BB0000D0016002078002800D170BD32002900F9
:100BC000FFF7BEFF030020788342F6D10134F1E73E
:100BD000F0B587B00CAC24780594041C7F2800D9AC
:100BE0007F24A4B2161C7F2A00D97F26B6B20D1C22
:100BF0003F2900D93F25ADB21F1C3F2B00D93F270D
:100C0000BFB2331BA64200D8A31B1BB20093BD4248
:100C100024D27B1B1BB20193012303930493A642AE
:100C200001D8023B0393009B019A934223DD009A73
:100C3000DB0F9B185B100293009B002B2BD1BD4256
:100C400002D92B003D001F00331CA64200D9231CF3
:100C50009CB22DB2BD4216DD07B0F0BDEB1B1BB23E
:100C600001930123A64203D90393023B0493DAE7DD
:100C70005B420393FAE7019B019ADB0F9B185B1021
:100C80005B421BB2D7E7ADB229002000059AFFF7FF
:100C900029FF0135DDE7019B002B15D12B1CBD423F
:100CA00000D93B1C9DB2A64202D2230034001E0094
:100CB00024B2B442D0DCA4B220002900059AFFF788
:100CC00011FF0134F4E7029329002000059AFFF791
:100CD00009FFA64201D1BD42BED0009B5A42029BF1
:100CE000934205DD019A9B1A039A1BB2A418A4B281
:100CF000029A01998A42E6DA009A9B18049A1BB27A
:100D0000AD18ADB2DFE7F0B585B01D000AAB1B78BA
:100D100007000E0003937F2831D83F292FD883186E
:100D20007F2B02DD8022121A92B273193F2B02DD53
:100D30004025AD1BADB2039BD21994B22200310005
:100D4000380000933300FFF743FFAD19039BADB2AA
:100D500022002900380000932B00FFF739FF039B86
:100D60003A003100380000932B00FFF731FF039B5E
:100D70002200009331002B002000FFF729FF05B06F
:100D8000F0BDF0B585B002930AAB1B7805000F00EB
:100D9000140003937F2814D83F2912D883187F2B7F
:100DA00002DD8024241AA4B2029BFB183F2B03DD32
:100DB0004023DB1B9BB202930026029BB1B29E42F2
:100DC00001D905B0F0BD039BC91989B2621900931E
:100DD00028000B0092B20136FFF7FAFEF6B2ECE7FC
:100DE00070B50024C2B0150002AA11709C4209D34C
:100DF00081B20A20013300909BB2054802F08AFEBE
:100E000042B070BD2E5D111901344E70E4B2EDE7B1
:100E1000180500201FB56B4619735A730A23010089
:100E2000009303AA083B024802F074FE05B000BD1F
:100E30001805002070B5B02478250E4E2200002140
:100E40002800FFF7E7FF002228001100FFF7E2FF6C
:100E50000134102200212800FFF7DCFFE4B2320049
:100E6000802340212800FFF7BBFF8036B82CE5D156
:100E700070BDC0460206002010B50020FFF724FE1A
:100E8000FFF7D8FF10BD000010B501227821524BAA
:100E9000524802F063FF0024A04200D09AE02100F3
:100EA000AE227820FFF7B6FF210020227820FFF73E
:100EB000B1FF210010227820FFF7ACFF2100B02203
:100EC0007820FFF7A7FF2100C8227820FFF7A2FFB4
:100ED000220021007820FFF79DFF210010227820BA
:100EE000FFF798FF210040227820FFF793FF2100B1
:100EF00081227820FFF78EFF2100FF227820FFF764
:100F000089FF2100A1227820FFF784FF2100A6227B
:100F10007820FFF77FFF2100A8227820FFF77AFFD3
:100F200021003F227820FFF775FF2100A4227820BE
:100F3000FFF770FF2100D3227820FFF76BFF22001C
:100F400021007820FFF766FF2100D5227820FFF7E7
:100F500061FF2100F0227820FFF75CFF2100D922F9
:100F60007820FFF757FF210022227820FFF752FF59
:100F70002100DA227820FFF74DFF2100122278208D
:100F8000FFF748FF2100DB227820FFF743FF210015
:100F900020227820FFF73EFF21008D227820FFF7E6
:100FA00039FF210014227820FFF734FF2100AF22FF
:100FB0007820FFF72FFF21002E227820FFF72AFF4D
:100FC0002000FFF781FDFFF735FF054B1C805C809B
:100FD00001345C71200010BD204E00001805002077
:100FE000FC05002070B50D00040002F005FB044B69
:100FF0002A00E118002002F021FB02F015FB70BD71
:1010000000000808024BC0180078C0B27047C04604
:10101000000008080122054B596B0A435A638022DD
:10102000996B52050A439A637047C046001002400C
:1010300010B5040086B01422002101A803F0CAFFF5
:101040000D4B22689A4215D180220C4B9200596BAD
:10105000A0200A4301215A63DA6AC0050A43DA6212
:10106000DB6A0B400093009B032301A901930293C9
:1010700002F00EFB06B010BD00240140001002403B
:1010800010B5040086B01422002101A803F0A2FFCD
:101090000F4B22689A4219D102210E4C0E48E26A87
:1010A0000A43E262E36A0B400093009BC023019372
:1010B000AE3B02930F3B049301A9023B059302F060
:1010C000E7FA8023A26B9B031343A36306B010BD12
:1010D00000540040001002400004005070B50500AC
:1010E00086B01422002101A803F074FF1A4B2A686D
:1010F0009A422FD180220126184B5201596BA02011
:101100000A435A63DA6AC0053243DA62DB6A01A92C
:1011100033400093009BA02301939E3B02939B19B5
:10112000049302F0B5FA0E4C0E4B8022236010237C
:10113000A360002320006660E36022616361A36115
:10114000E361236202F0F8F8002801D0FFF7BAFC4F
:10115000AC64A56206B070BD0030014000100240D2
:10116000D00400203000024080230268DB059A4250
:1011700004D10123024A916B0B4393637047C0462D
:1011800000100240FEE7FEE77047704710B501F01F
:10119000C7FD10BD10B5024802F052F910BDC0469F
:1011A000D004002010B5024803F006FE10BDC04672
:1011B000BC0500200B4A0C490300891A0B4A10B5E4
:1011C0001068002801D10A4810601068C3188B42CB
:1011D00006D903F0AFFE0C2303600120404210BD8E
:1011E0001360FCE70004000000200020040A002037
:1011F000800E0020704700000520044A5378C31A6F
:10120000013058431378C018C0B270474A0E00200E
:101210000023064A13705370054A1370054A137071
:10122000054A1370054A13707047C0464A0E0020E5
:10123000280A0020080A0020470E00200C00002089
:1012400010B5064C2200611CA01CFFF719FAE21C25
:10125000211D601DFFF77EF910BDC04681000020F2
:1012600070B51D00062314005843C900FFF762FC47
:101270002A0020000149FFF799FC70BD0000002002
:10128000F0B585B01E000AAB1B78040000200F00EB
:1012900015000393FFF718FC0021012308007F22AB
:1012A00000930633FFF76DFD00233A001900180084
:1012B000FFF7D6FF039B5F00E719BC4201D105B0E1
:1012C000F0BD61782078330004CDFFF7C9FF023408
:1012D000F3E7000010B501F02FFD104A1368C31AA0
:1012E000962B10D9962110600D4A0E4B508849005C
:1012F000984209D903240C48047012888A4208D203
:101300000122094B1A7010BD8842F6D20424064807
:10131000F2E79A42F7D90222034BF3E71C0A0020B6
:101320000A0A0020AC0D0000280A002010B5012B8D
:1013300015D0022B20D0002B1DD1164C2378032B67
:1013400004D103788B4216D2013303702378042B27
:1013500011D1037893420ED9013B03700BE00D4C81
:101360002378022B04D103788B4204D2013303701B
:101370002378012BEDD010BD064C2378042B04D12B
:1013800003788B42F7D2013303702378032BF2D119
:10139000DFE7C046280A0020A02010B50421C005C0
:1013A00002F036FA0A4C23781843C0B2002802D162
:1013B0000130207010BDA0200421C00502F028FAE1
:1013C0000028F7D020780028F4D00020F1E7C046AC
:1013D000320A002010B5007A0C000138032809D821
:1013E000FEF79CFE02090D110023012204212000BA
:1013F000FFF7A2F910BD042300220121F7E7042220
:1014000000231100F3E7042300211A00EFE7000096
:10141000F0B5504B99B01C78002C19D101221A70EC
:10142000FFF7C0F94C4B2001E1B2C0180134FFF7BF
:10143000D1FF242CF6D1FFF78BF9902100234748E8
:101440008900C25C002A00D17CE00122444B1A7062
:10145000FFF7F6FE00230221424F02AC23703B78D7
:101460000125052202336370E17003234918E171FD
:10147000E173FA213C4E62725219E27205326371D5
:101480002273637332780A33A5702571A5712572B2
:10149000A572A373C9005218B17873780EA8009191
:1014A000324903F0BFFE71793379F27813A80091C5
:1014B0002F4903F0B7FE2F4B0EA906932E4B0C912C
:1014C00007932E4B13A908932D4B200009932D4B06
:1014D00006AA0A932C4B0D910B9308232B490093DA
:1014E0002B00FFF7CDFEFFF7A5FCFFF7F3FE02236D
:1014F000002204213800FFF719FF0022244B1A7044
:10150000FFF74AFF00281BD03B78002B07D1FFF7DD
:1015100049F9FFF71DF91F4A13785B1913703978E1
:101520001D484B1C037000230A4A13700C4A1278A2
:101530009A420DD199420BD00121184B02701970BB
:1015400019B0F0BD10338B4200D07AE7044B7EE730
:101550003B70F5E70C000020340A00203C0A002014
:10156000120A0020470E0020810000202563000899
:101570003463000843630008456300084F630008B4
:10158000586300086D650008626300086B6300081B
:10159000280A0020480E0020080A0020100A002017
:1015A000F0B5002693B00890099101200B2103F0BB
:1015B000B7FC34003700049002960122029B0AA86F
:1015C0009B18DBB2837005930223C370744B002514
:1015D0000F93744B42701093049B02711193032379
:1015E000427105700899009313000FAAFFF748FE97
:1015F000099BAB420CD06C4B6C491A780CA8013299
:1016000003F010FE2B00290011200CAAFFF728FE82
:10161000002303930025039BDB0020339BB2079339
:10162000039B9B0006930A2068430E30079980B203
:10163000FFF780FA5E4B002E00D05E4B069AD3581F
:101640000122585DEBB2BB4204D16B461A7B121BE0
:10165000531E9A415849D2B20135FFF771FA0A2D4B
:10166000E1D1039B01330393042BD3D101230A2F30
:1016700002D123005A1E9341DBB2042113204F4AAA
:10168000FFF7EEFD01230A2F02D1A31E5A1E93413C
:10169000062113204A4ADBB2FFF7E2FD0A2F02D1EE
:1016A0000023032C01D001239B1B3E4ADBB2072100
:1016B0001320FFF7D5FDFFF7BDFB230002220A250B
:1016C000934303D0E51E6B425D410935FFF702FEEF
:1016D0003C4A1378012B05D1002F01D0013FFDB208
:1016E0002F0011E0022B0BD0032B25D0042B0BD1A4
:1016F0000A2F2FD1002C31D0022C31D0002403E04E
:10170000AF4244D20137FFB200231370FFF744FE0B
:10171000002800D151E70A2F24D0254AA300002E2B
:1017200000D0244AD3580299DB5D049A5354059B98
:101730000A2B2ED0029340E70A2F06D1002C0FD09F
:10174000033C63425C416400DEE7002C08D0013CAE
:10175000E4B2D9E7032CD1D00134F9E70224D3E76E
:101760000324D1E7002C0AD1029B002B02D0013BBD
:10177000DBB202930023049A029953541DE7022C12
:1017800007D0032C00D018E701235E4015E700279F
:10179000BAE700220C4B04981A7013B0F0BDC04693
:1017A0004363000871630008330A00207363000874
:1017B00020000020100000200000002078630008B6
:1017C0007A630008280A00200C0000204A234A21DE
:1017D0001A00F0B5434F49423C7805006143601E52
:1017E000C9184343404EC91885B062433F48891920
:1017F00003F0DDFB042C01D801343C70FFF720FD21
:101800003B48AC003B4920584B780A780390087954
:101810000290C8780190897830000091364903F031
:1018200001FD032D23D82800344E354DFEF776FCFC
:1018300002213946FFF7E0FC324C000123181B7AE5
:10184000314A013B9B009B5830490259300003F05C
:10185000E9FCFFF7D1FC00012418A37B6289013366
:10186000E17B280001310091294903F0DBFC05B040
:10187000F0BDFFF7C1FC234C000123181B7A224A5C
:10188000013B9B009B5821490259300003F0CAFCE0
:10189000FFF7B2FC00012418A37B1E4A0133127823
:1018A000DEE71D4B1D491A68300003F0BBFC1C4BE2
:1018B0001C491A78280003F0B5FCD8E71A481B4ADF
:1018C0004178537801311278019101780133013167
:1018D000013200913000164903F0A4FC154B164963
:1018E0001A78E7E74C0E0020740C0020BE0C002094
:1018F00070000020810000207C630008920C002012
:10190000A80C0020340A002048000020986300083A
:101910009E63000887000020180A0020AC630008BE
:10192000160A0020B4630008410E0020430E002078
:10193000C3630008400E0020D563000870B5002482
:10194000052C03D92300123B052B39D80023042191
:101950001A002000FEF7F0FE0134E4B2242CEFD18F
:10196000FEF7F6FE0C3C21002B20FFF7E3F81F4D9D
:10197000002229001E48FFF719F918212720FFF738
:10198000D9F80134012229001A48FFF70FF9A4B24F
:10199000FFF750FAC82001F0D5F9212CE3D1FA2045
:1019A000800001F0CFF9FFF767FAFEF7FBFEFEF7C4
:1019B000CFFE0020FFF726FB43425841C0B270BD66
:1019C000A31F052B02D9123B052B03D800230422A9
:1019D0001900BEE723000C3B052B02D9123B052B57
:1019E000BAD8002204231100B3E7C046000000204B
:1019F000E6630008ED630008F0B58BB0FFF7CCFCA0
:101A0000484C051E0FD022786178A078FEF700FEC2
:101A1000E27821796079FEF765FD01210020FFF76A
:101A2000E1FA0BB0F0BDFFF755FC3F4E2A00012351
:101A300005213000FFF77AFC3278002A04D1130028
:101A400063212000FFF772FC3278012A04D10023C1
:101A50000C21601CFFF76AFC3378344F022B08D14D
:101A600063780122FB18013B1978A01C0023FFF7C3
:101A70005DFC3378032B05D1002317211A00E01CED
:101A8000FFF754FC3378042B05D100233B211A00C7
:101A9000201DFFF74BFC3378052B05D100233B219C
:101AA0001A00601DFFF742FC6578A2787F19013F9C
:101AB0003B789A4200D9A37000221D4B1D491A7031
:101AC00002A8043203F06AFA33781B4A99008A5854
:101AD000002B17D1FA232578DB00ED1805AC2B007D
:101AE0002000164903F09EFB154B16490393022371
:101AF00003AA009302A8013B0494FFF7C1FBFFF780
:101B000099F97BE7012BE9D0022B01D1A578E5E714
:101B1000032B01D1E578E1E7042B01D12579DDE73D
:101B20006579DBE781000020470E00206966000828
:101B3000280A0020FC58000858000020F56300081F
:101B4000FD6300080F640008F0B5544F89B03C787D
:101B50007E78FFF721FC051E04D00022504B1A703E
:101B600009B0F0BD7B783A784E490133013203A8C1
:101B700003F058FB2B000621012003AAFFF770FB9E
:101B8000FFF758F9FEF70EFE474B0193019B197AB8
:101B9000002900D17EE0002304211A002800FEF76E
:101BA000CBFD019B01351033EDB20193242DEDD116
:101BB000FFF722FB04231A001900FEF7BDFDFEF714
:101BC000C7FD3A4B1A88962A5BD900221A80384BF7
:101BD000384A5B88934211D90136F5B20523581B68
:101BE00001335843002320181A000421C0B2FEF725
:101BF000E3FD2E000135EDB20028EFD196222C4BEB
:101C000052005B88934211D2013EF5B20523581B66
:101C100001335843002320181A000421C0B2FEF7F4
:101C2000CBFD2E00013DEDB20028EFD19622204BD6
:101C300052001B8893420FD2052306259B1B5D4350
:101C4000EDB20023013CE4B260191A000421C0B2D5
:101C5000FEF7B2FD0028F4D1154B164A1B889342BB
:101C60000FD9052306259B1B5D43EDB200230134EC
:101C7000E4B260191A000421C0B2FEF79DFD0028ED
:101C8000F4D1052C00D93C78052E00D97E783C7023
:101C90007E705EE70B00042280E7C0464A0E0020FB
:101CA0000C00002019640008340A0020140A0020E7
:101CB0000A0A0020AC0D0000F0B58B4BABB01978D0
:101CC000C823002906D0643B012903D0323B0229F6
:101CD00000D0283B854D2B70854B1878002860D1AB
:101CE00001221A7005AB18709870824C023058713E
:101CF0008018D8712478801858728018DA701A7198
:101D00009A711A729A72D8721A7380189A7302347E
:101D100006325873DA735C70774B890011AECA587B
:101D20003000764903F07EFA754B1A681378002B61
:101D300000D1744A744916A803F074FA734A2B78D8
:101D4000127873491BA803F06DFA724B1A68137866
:101D5000002B00D16B4A20AC6F49200003F062FADF
:101D60006E4A25AF537812786D490133013238003D
:101D700003F058FA6B4B6C4909936C4B09AA0A9310
:101D800016AB0C931BAB0D93694B05A8109308235E
:101D90000093073B0B960E940F97FFF771FAFFF72E
:101DA00049F8FFF797FA534C00220223052120003F
:101DB000FFF7BCFA2278002A04D1012303214A4804
:101DC000FFF7B4FA2378022B05D1013B1A002978DA
:101DD0004E48FFF7ABFA574A1378002B03D0002385
:101DE0001370434A1370FFF7D7FA00286ED0237898
:101DF000012B05D100215048FFF7D2FB404B186062
:101E00002378032B05D100214C48FFF7C9FB414B38
:101E100018602378042B01D1FFF796FE217805295D
:101E200054D1374B1B6803931B78002B57D0394F85
:101E3000434C3E683378002B4AD0FFF7DDF90001B0
:101E400020184660FFF7D8F9039B00012350264B6A
:101E50001E78FFF7D1F90001201801360672FFF74E
:101E6000CBF92D78000120188581FFF7C5F9274EA1
:101E70000001357820184581FFF7BEF9314D00018A
:101E80002B7820184372FFF7B7F9000120180222BF
:101E900022490E3003F082F80020FFF797FC2B78E0
:101EA000012B09D1FFF7A8F9274B0001241807CC13
:101EB00007C31A00236813600023114A3B601360B4
:101EC000094A137001333370FFF7A2F92BB0F0BD4C
:101ED000012003F025F81D4B06000360ADE7022248
:101EE0001B4B1A70F2E7C046110A0020490E002071
:101EF0000C000020470E002048000020316400083C
:101F0000200A00202A6400083964000880000020AC
:101F100041640008240A00204E6400084A0E002094
:101F20001964000843630008766400085A640008D6
:101F300070640008280A00207C6400088864000897
:101F4000340A0020480E0020300E0020303030309F
:101F5000100A00200F230022F0B58DB06B441A70D8
:101F6000FFF71AFA041E11D00F236B441C78FFF7F9
:101F700043F9284D0301002C38D0EB185A89002072
:101F800014195C81FFF722FC0DB0F0BD0422224938
:101F900004A8891803F002F8FFF72EF90F261D4D4B
:101FA000000128186E4407AF838932781B49380036
:101FB00003F038F91A4B1B490593022305AA04A81C
:101FC0000093013B0697FFF75BF9FEF733FFFFF73E
:101FD00081F9FFF711F900012D18230022003000CC
:101FE000297BFFF7A3F9104B1C70B9E7E85802F002
:101FF000CBFFFFF701F900012818406802F0C4FF89
:10200000FFF7FAF8000110222100281802F0E2FF81
:10201000BAE7C046340A0020FC580008986400085B
:10202000A1640008B4640008280A0020F0B5012269
:102030000024444B444E8BB01A703470FEF7B2FB50
:10204000424B2001E1B2C0180134FFF7C3F9242C40
:10205000F6D1FFF7D1F804231A001900FEF76CFB44
:10206000FEF776FB01213A48FFF79AFA394F040050
:102070003860FFF7C1F8354B00011818210040689F
:10208000FEF742F8051E0ED033782000013333707E
:1020900002F07AFF00233B603378022BE2D9FFF78E
:1020A000B7F80BB0F0BD200002F06EFF3D60FFF707
:1020B00073F9041E16D00120FFF788FBFFF79CF888
:1020C000224C204B000120181A7843899B1A438127
:1020D000FFF792F8000124186389002BE1D1FFF784
:1020E00039FFDEE704221C4902A8891802F056FFD6
:1020F000FFF782F8154D134E0001281805AF4389EC
:1021000032781649380003F08DF8154B15490393C2
:10211000022303AA02A80093013B0497FFF7B0F83B
:10212000FEF788FEFFF7D6F8FFF766F800012D18D6
:10213000230001223000A97AFFF7F8F80A4B1C703F
:10214000B5E7C04687000020330A0020340A00208B
:10215000BC640008240A0020FC580008C66400087B
:10216000CE640008DC640008280A0020F0B55B4C4F
:1021700099B02378002B5DD1082259490133891881
:1021800003A8237002F00AFFFFF736F8554D00014F
:102190002818037A5449002B00D15449544A013B72
:1021A0009B0009AF9A58380003F03CF8FFF724F879
:1021B00000012B181B7A4F4A002B00D02A580EAE74
:1021C0004D49300003F02EF8FFF716F8454D000199
:1021D00028184289494913A803F024F8484B069768
:1021E000059313AB08930796FFF706F8000128182C
:1021F000027A0423002A00D1023B424905AA03A81F
:1022000000930123FFF73CF80026FEF713FEFEF7CC
:10221000C9FA3001F1B228180136FFF7DBF8242E95
:10222000F7D1FEF7E9FF04231A001900FEF784FA3C
:10223000FEF78EFA344B1A88962A27D900223348A3
:102240001A80428832498A4232D9324D6B78042B47
:1022500001D80133DBB26B700388962040008342C3
:1022600030D22C480178002901D00139C9B201705F
:10227000C8212D3AFF3A92B209018A4204D82D3B77
:10228000FF3B9BB28B4201D900232370FFF784F8F8
:1022900000280BD0FEF7B0FF03011248C018037AE4
:1022A000002B17D0FFF7C2FEFEF7B2FF19B0F0BD4A
:1022B00096235B009A42CFD2164D6B78002BCAD082
:1022C000013BC7E78B42D3D9124801780429CED805
:1022D0000131CBE70222104B1A70E7E70C00002017
:1022E000FC580008340A002031640008E16400084A
:1022F000480000207A66000839640008E964000894
:10230000F2640008DC640008140A00200A0A0020B5
:10231000AC0D00004A0E0020100A0020F0B5002489
:1023200085B002AF794D386039682868FDF7ECFE5A
:10233000002801D10134E4B2754B10359D42F3D130
:102340002100102002F0ECFD0024724B78601C701C
:10235000714B1B78A34218D8FFF71EF86D4D061E6F
:1023600032D00220FFF732FA2B78002B0BD06B4BC8
:10237000022219787B68090159180E31684802F069
:102380000DFEFFF753FEBD46F7BD604D3968286866
:10239000FDF7BAFE002810D16B7A013BA3420CD1A5
:1023A0005C4B5C491B785A1C0A707A681B01D31875
:1023B0002A0043CA43C312681A60554B10359D4228
:1023C000E4D10134E4B2C3E72B78002B30D0FEF720
:1023D00081FF29780223013932005048C9B2FEF743
:1023E000A5FF504B34001E70FEF7DCF9474B20016F
:1023F000E1B2C0180134FEF7EDFF242CF6D105211F
:10240000464B1A787B6812019A18D37B907BCB1AC3
:1024100001314B431818FA234349C0B209885B00C5
:1024200099424BD201001000FEF7D4FFFEF790F95D
:102430002B786D465A000B32D208D200AA1A954664
:102440001E2253436A460733DB08DB00D31A02AC73
:102450009D4602AB3B60002301222370A3702F4BEB
:1024600062701B780233E3702A4B1B789E422BD399
:1024700069469A000F32D208D2008A1A95462B4933
:1024800002AA002B00D12A491E20160058431160D1
:1024900028490836516039680818884233D101212B
:1024A000002B01D00233D9B2009101232000224930
:1024B000FEF7E6FEFEF7BEFCAD464DE700231A0030
:1024C0001900FEF739F9B1E71E2070437B683968BF
:1024D00032019A180818D17B137A01310191917B4E
:1024E000013B0131009115499B005B58126814496A
:1024F00002F098FE01227300E3181A71B21C013633
:102500005A71F6B2B0E702C61E31C6E7340A00209F
:10251000740C0020160A0020480E0020470E0020F0
:102520004A0E0020280A00202A0A0020FE64000823
:102530000F65000843630008286500084800002074
:102540001B650008F0B52B4C8BB02378002B2BD1EA
:10255000294901331031022203A8237002F01EFD25
:10256000264B19680B78002B00D1254905AD2800B2
:1025700002F058FE0495012522492B0004AA03A865
:102580000095FEF77DFE6B46597B187B062358436A
:10259000C900033902385D2289B280B2DB18009588
:1025A000FEF7B1FBFEF746FCFEF7F6FE00280FD063
:1025B000154E124D3778002F0CD139001348FEF715
:1025C000EFFF277028602B681B785A1E93413370E9
:1025D0000BB0F0BD012300240D4F28683B70FFF7BE
:1025E0009DFE28683C7002F0CFFC2C60FEF710FEC8
:1025F000E9E7C0460C000020FC580008180A00203B
:102600003565000845650008460E00204B6500084A
:102610002C0A0020F0B593B009AC10220021200054
:1026200002F0D8FC0023624A1370624B5B781900F9
:102630000393614B5B7804938B4215D2227A002A74
:1026400005D121005D4A19CA19C113680B60049BAA
:10265000039A93422CD2FEF79FFE002868D00320F5
:10266000FFF7B4F813B0F0BD524B187805235F1A8A
:1026700001335F43FBB204934F4B1A78824202D27C
:102680000131C9B2D5E7049BC218D2B24C4B12013A
:102690009A18137A002B04D02300E0CAE0C3126812
:1026A0001A60434B01301A78C0B201321A70E3E766
:1026B000052303993F4A591A013359431278CBB283
:1026C000059309A83C4B1978914204D2039B01332E
:1026D000DBB20393BBE7059BC47BD11805231C1B0E
:1026E00001335C43857BC9B26419E4B28C4214D0D7
:1026F000334B0C011D190300D0CBD0C51B680C0156
:102700002B60304B1D780135EDB21D702C4B9C4673
:10271000039B64446572A273E373294C0901611839
:10272000234C8D89247801326C43D2B28C81C9E765
:10273000032204AB18735A731D4B0DAC1A7822494F
:10274000200002F06FFD012308AA00931F4907A88B
:102750000894FEF795FDFEF76DFBFEF723F8FA23CC
:102760001B4A5B0012889A421FD2124F7C78124B90
:102770005B78A34202D2FDF7EBFF6CE705231E1B3B
:1027800001335E433D78F6B20B4B1B78AB4202D26D
:102790000134E4B2EBE70023A81904221900C0B207
:1027A0000135FDF7C9FFEDB2EEE7FDF7FBFFE2E70C
:1027B000400E0020300A00202E0A0020300E00209B
:1027C000340A0020480E00205C6500086C65000893
:1027D0002A0A0020F0B56D4C93B02378002B58D115
:1027E0006B4901331231062203A8237002F0D6FB95
:1027F000684B69491B78002B00D06849684A08A8D3
:10280000537812780133013202F00CFDFEF7F4FC2C
:10281000644A000113181B7A6349002B00D16349F5
:102820001718FE7B013B01360196BE7B9B000136EB
:1028300000965F4E0DAD12589B59280002F0F2FC35
:10284000544B1A785B4B002A00D05B4B059308ABC6
:1028500006930323594905AA03A80093023B079551
:10286000FEF70EFD0025FEF7E5FAFDF79BFF4D4B49
:102870002801E9B2C0180135FEF7ACFD242DF6D1D0
:10288000FEF7BAFC04231A001900FDF755FFFDF707
:102890005FFF4B4B1A88962A27D9002249481A8095
:1028A000428849498A4235D93D4D6B78042B01D87D
:1028B0000133DBB26B70038896204000834233D231
:1028C00037480178002901D00139C9B20170C82107
:1028D0002D3AFF3A92B209018A4204D82D3BFF3BC0
:1028E0009BB28B4201D900232370FEF755FD0028CF
:1028F0000ED0284D2A492F78344E002F1CD10222A9
:10290000300002F04BFB27702B785A4253412B705A
:1029100013B0F0BD96235B009A42CCD2204D6B7869
:10292000002BC7D0013BC4E78B42D0D91C480178AB
:102930000429CBD80131C8E7254C0222200002F03F
:102940002DFB30782178031C884200D90B1C214ACA
:10295000137072786378141C9A4200D91C1C1D4EA7
:1029600074701D4C061C884200D20E1C2670111C6F
:102970009A4200D2191C01236170184C2370FFF792
:1029800049FE00232370FEF743FCBDE70C00002046
:10299000FC580008450E0020776500088565000892
:1029A0004A0E0020340A0020916500082A640008BD
:1029B000480000209E650008B16500086C650008AD
:1029C000140A00200A0A0020AC0D0000430E00206B
:1029D000410E0020300A00202E0A00202C0A002080
:1029E00010B5124988B004000622183103A802F07D
:1029F000D5FA4A2060430E4B0E49C21805920200D8
:102A000034301E32D218C018032306920790009368
:102A100005AA023B03A8FEF733FCFEF70BFAFEF70C
:102A2000BBFC0028FBD008B010BDC046FC58000815
:102A3000740C0020C2650008F0B53A4B3A4E1D7880
:102A4000BBB0002D3CD10123364A02AC1370374A8B
:102A5000A37012782371023262700222E270D218DF
:102A60006271D218E271D218A37123726272A372DA
:102A7000D21823732E4F06332570E27263733570BC
:102A80003B78002B3ED12B4B200006930DAB0793D8
:102A900052236B4408931CAB09938E236B440A9317
:102AA0002BAB0B93CA236B440C933378224901332D
:102AB000DBB2009306AA0123FEF7E2FBFEF7BAF9A8
:102AC000FEF708FC31780223013900221748C9B209
:102AD000FEF72CFC194C2378002B07D0012B01D1D9
:102AE000FEF796FB00230F4A23701370FEF754FC89
:102AF000002805D00D4B1878FFF772FFFEF788FB12
:102B00003BB0F0BD1E2068430DAB3900181802F031
:102B1000A9FB33780135013333704A37062DAFD125
:102B2000B1E7C0460C0000202D0A0020470E00200F
:102B3000740C002043630008CE650008280A0020BA
:102B400010B5FEF7A1F9064802F058F8FEF7F6FEB8
:102B5000002801D0FEF750FFFEF75AFB10BDC0461B
:102B6000BC05002010B5034B034A1B789B009B5803
:102B70009847F8E7080A0020300000208023026808
:102B800070B5DB059A424AD12D4C200000F07EFA48
:102B90000A21200000F0C4FA200000F025FB294D96
:102BA0000A212880200000F0BBFA200000F01CFB66
:102BB0006880200000F096FA234A244D13880133E0
:102BC00013802A78002A1CD0214C238801339BB221
:102BD0002380012A09D1FA2149008B4220D2ED3904
:102BE000FF39A020C00500F019FE2B78022B08D178
:102BF0002388182B19D80122A0200821C00500F035
:102C00000DFE144B144A1B78002B17D0FA201388A2
:102C100000218000834201D2013399B2118070BD3E
:102C20000022082122802A70DBE70022312BE3D921
:102C30004A2BE0D9002222802A70DDE71380EEE7DC
:102C4000740400200A0A0020140A0020100A002040
:102C50000E0A00202C0A00202A0A00200D48854672
:102C60000D480E490E4A002302E0D458C4500433E4
:102C7000C4188C42F9D30B4A0B4C002301E01360BB
:102C80000432A242FBD3FEF7B5FA02F059F9FDF780
:102C9000FDFDFEE70020002000000020F4000020E1
:102CA000B8660008F40000207C0E0020FEE700005B
:102CB00070B50500FA200D4B80001978FDF742FA37
:102CC0000B4B01001868FDF73DFA00F01BFB0400F8
:102CD0000120002C09D1032D07D802382200290039
:102CE00000F0DAFA2000034B1D6070BD8800002060
:102CF000080000208C0000204023084A10B511680D
:102D000003200B431360FFF7D3FF041E03D1FEF72C
:102D100081F9200010BD0124FBE7C04600200240DD
:102D2000034A044B11681B785B1813607047C04658
:102D3000500E002088000020014B18687047C046E4
:102D4000500E002070B50400FFF7F6FF0500631C6D
:102D500002D0044B1B78E418FFF7EEFF401BA042A3
:102D6000FAD370BD88000020084B13B50400084951
:102D70001868FDF7E7F944430194019B002B00D14B
:102D800013BD019B013B0193F7E7C04608000020FB
:102D900040420F000321036870B5040098680840A2
:102DA000012801D0002070BD1A680242FAD0052225
:102DB0009D681540012D1DD19868033A02439A6021
:102DC0001960FFF7B9FF060023689B682B42E9D022
:102DD000FFF7B2FF801B0A28F6D923689B682B42B5
:102DE000F2D01023626D012013436365A36D1D4370
:102DF000A565D8E71023626D13436365A36D034394
:102E0000A365D0E70321036870B59A6804000A40FF
:102E1000012A04D11968114201D0002070BD9968BF
:102E2000154A114208D010230120626D13436365D7
:102E3000A36D0343A365F1E701259A6828002A439F
:102E40009A60FFF791FFFFF777FF060023681B6882
:102E50002B42E2D1FFF770FF801B0A28F6D92368C6
:102E60001B682B42F2D11023626D0120134363656E
:102E7000A36D1D43A565D1E71700008004220368F8
:102E800070B599680400114201D1002070BD9968A5
:102E9000114206D09A68920703D4102299680A4317
:102EA0009A60FFF749FF0426050023689B683342B8
:102EB000EBD0FFF741FF401B0A28F6D923689B6837
:102EC0003342F2D010230120626D13436365A36D7A
:102ED0000343A365DAE7000070B504000120002C6D
:102EE0001BD0636D002B06D122005032A365200059
:102EF0001370FEF79DF8636DDB0606D42368042289
:102F0000996808001040114208D01023626D01201A
:102F10001343636500235034237070BD626D5549BF
:102F2000114002220A436265032299681140524A05
:102F3000012902D11D680D4219D180266168F6056C
:102F40004D006D08B54203D080252D06A94276D1EB
:102F50001D69AD00AD081D611D6929431961182562
:102F6000D968A943D960D968A5682943D96011688F
:102F7000424D29401160616B156849062943116073
:102F8000802299685205114202D199680A439A60D9
:102F9000DA683B490A402169DA60DD68E2680229A3
:102FA00000D10420266B611C32432A43A569C97FE6
:102FB000AD032A43E569ED032A434D032A43250067
:102FC0002C352D786D002A430243C220DA60626AF4
:102FD000FF30824204D0A56AD8682A430243DA60EF
:102FE000A21CD27F012A06D1002934D18022D968BF
:102FF00052020A43DA60E16B1A69012933D1214890
:10300000656C02401A61226C18692A43A56C2A4338
:1030100002431A611A691143196107215A69002094
:103020008A435A615A69A16B0A435A610322A06517
:10303000636D93431A000123134363656DE71D69B4
:10304000114EAD00AD081D6115683540156015685D
:103050002943116083E72021606D01436165A16D03
:103060000A43A265C7E701210A42D6D01A698A43FA
:103070001A61D2E7FDFEFFFF08270140FFFFFFFDB9
:103080001902FEFF03FCFFFFFFFFC3FF036870B5DB
:103090009B68040002205B071AD4250050352B786A
:1030A000012B15D001232B70E369012B11D1636D26
:1030B0000B4A00201A4080235B0013431C226365E7
:1030C000A065287023681A609968183A0A439A60C4
:1030D00070BD2000FFF796FE0028E8D0F8E7C04654
:1030E000FEF0FFFF70B50600503633780400022072
:1030F000012B12D0012520003570FFF7BFFE0028FC
:1031000009D12000FFF746FE002804D1636D034A71
:1031100013401D4365650023337070BDFEFEFFFF45
:10312000F8B5456904000E00082D0DD00368012094
:10313000DB680C25034207D02023626D5034134313
:10314000636000232370F8BDFFF7F6FD07002368D6
:103150001A68154224D08022616D92000A4362658C
:10316000C022D9681201114213D1621CD27F002AF9
:103170000FD11A6812070CD59A68520728D40C216F
:103180005A688A435A60626D1649114001220A4307
:1031900062650020A2698242D5D10C221A60D2E772
:1031A000721CD5D0002E0DD12A0023681B681A404E
:1031B0001D42CCD10423616D50340B436360032066
:1031C0002270C0E7FFF7B8FDC01BB042ECD8BEE7E5
:1031D0002022616D0A4362650122A16D0A43A26546
:1031E000D7E7C046FEFEFFFF0368186C704700007B
:1031F000F8B504005034227803000D000220012AA3
:103200000BD0013820701A689168490706D5202232
:10321000596D0A435A6500232370F8BD802328683E
:10322000194E6F684103DB02490B0340B74219D0C6
:10323000906A01439162002B08D08023134A1B043B
:1032400011680A200B431360FFF78EFD2B689B0368
:1032500005D580230D4ADB0311680B431360002062
:103260002070DAE7956A8D439562002B04D0074AF7
:10327000074913680B4013608303F0D5034A0549DF
:1032800013680B40EAE7C046011000000827014020
:10329000FFFF7FFFFFFFBFFF30B5FF2503242A009C
:1032A0000440E400A24089012940D243A140C3B2B6
:1032B00000280ADBC0240B4B80088000C018A40043
:1032C00003591A401143015130BD0F200340083B00
:1032D00005489B089B001B18D86902401143D9611F
:1032E000F2E7C04600E100E000ED00E0002805DB69
:1032F0001F2318401E3B8340014A13607047C0469D
:1033000000E100E08022431E5204012093420DD2CE
:10331000C021074A07485360036A09061B021B0ABB
:103320000B43036200200723906013607047C04680
:1033300010E000E000ED00E0F8B504000120002CF2
:1033400035D025681A4B1421E818FCF7FBFE194B01
:10335000800023640223A21D6064D3772E68164B7D
:10336000A1681E40E36827690B433B4367693B4301
:10337000A7693B43E7693B43276A3B4333432B60E1
:103380008023DB0199420CD01C2528400D3D85404F
:103390000A490B68AB430B6063680D6883402B439D
:1033A0000B6000200123E0630534D377E077F8BD9C
:1033B000F8FFFDBF000002400F80FFFFA8000240A1
:1033C000F7B5451D0193EB7F04000220012B29D0A6
:1033D0000123A71DEB77FB7F00269C466046DBB2EE
:1033E00001282AD10130F8772068E663676C056808
:1033F0001C363E409D43B3400560256C6B60019BCD
:103400004360A368102B0ED18260C160236B002B38
:103410000CD00E2302681343036001230268134398
:1034200003600020FEBD8160C260EFE704220368F4
:103430009343036002680A23EDE70220EE77F1E789
:10344000F8B51C220427466C016C32403E009640C1
:103450000D6803681C6835420DD03C420BD01A68D9
:10346000920602D41A68BA431A60036B4E60002BAE
:1034700019D0984717E002273E009640354213D0F6
:103480003C4211D01A68920606D40A241A68A24354
:103490001A600122831DDA770022431D4E60DA771D
:1034A000C36A9342E5D1F8BD0826370097403D42F4
:1034B000F9D03442F7D00E251C68AC431C600123C0
:1034C0001C009440821D4C60C363D3770022431DCF
:1034D000DA77436BE5E70000284A802190694900CC
:1034E000030030B50B40084205D00223244844694C
:1034F000234343610B00802091698000014205D085
:1035000001211F4C03436569294361618020916952
:10351000C000014205D00821194C034365692943C5
:103520006161802091690001014205D00421144CA1
:1035300003436569294361618020916980010142EB
:1035400005D010210E4C03436569294361619169DF
:10355000890305D520200A4C034361690143616159
:10356000802091694002014205D04021044C034370
:10357000656929436161936130BDC0460020024006
:10358000540E002070B50400FFF7D6FB012605009D
:10359000184B9A69324221D102229969114200D016
:1035A0009A619A69D20515D49A69920512D49A69DA
:1035B00052050FD49A6912050CD49A69920409D461
:1035C00099698022080092021040114202D19B6941
:1035D000DB0308D5FFF780FF012004E0621CD8D090
:1035E000002C01D1032070BDFFF7A6FB401BA042B9
:1035F000CED9F7E7002002400122084B002059688D
:1036000011420AD0EFF3108172B60548D860054820
:10361000D86081F31088586810407047002002403D
:10362000EFCDAB89050403020123034A0020516852
:103630000B4353607047C04600200240F8B5124F5C
:1036400006003B7C0D0014000220012B0CD001234E
:103650000E483B74FFF796FF002803D17861022ED5
:1036600003D12C6000233B74F8BD012E02D1A4B21B
:103670002C80F7E7002E03D00448FFF783FFF1E723
:10368000E4B22C70EEE7C046540E002050C3000098
:10369000584AF0B58218541EA241002387B0053263
:1036A00003910592039A12681400DC4001D107B01F
:1036B000F0BD01210D0014009D402C408C46029469
:1036C0002A4200D194E00324039A5E0052680192DA
:1036D0002240B440E143541E049164452AD88768CF
:1036E0000F400399CC680199B4403C43846044681E
:1036F000AC4325000C0961460C409C402C434460BF
:10370000C56804990D4003998C68B4402C43C4608B
:10371000022A11D107250F211D40AD00A940DC0868
:10372000A4000419276A8F4303990969A9400F432C
:10373000276201E0032AE3D1B240046804992140E2
:103740000A430260C02201999202114250D001271F
:10375000294C0326626B1D003A436263274A9C088A
:10376000A400A418A268354094460F22AD00AA40D8
:1037700061469143A022D2059446002260450DD0B7
:103780001F4A94463A00604508D01E4F9218B8422E
:1037900004D01D4F3200B84200D0059AAA400A4317
:1037A0000299A2600D00194ACC431668019935436D
:1037B000C90301D43500254015605668029D019962
:1037C0003543890301D43500254055609668029D34
:1037D00001993543C90201D4350025409560D5686B
:1037E000029E01992E43890201D425402E00D66005
:1037F000013357E700E4FFAF001002400000014032
:103800000004005000080050000C0050000401406B
:1038100000690840431E9841C0B27047002A01D099
:10382000816170478162FCE703689A69920701D55C
:1038300000229A6201229969114202D199690A43D0
:103840009A61704730B5039C1204006822431A4302
:10385000054B45688905640D890D1C43A5430A4342
:103860002A43426030BDC046FF63FF03F8B50368DA
:1038700016009A6904000D000020D20636D55A6859
:10388000920104D480225968D2010A435A60202749
:1038900023689A693A4212D010222000DA61DF616F
:1038A000FFF7C2FF2268124953680B40536004239C
:1038B000626C13436364230041331F700FE06A1C82
:1038C000E7D0FFF739FA801B854201D3002DDFD105
:1038D0002022636C13436364230041331A70220077
:1038E000002301204232403413702370F8BDC046DB
:1038F00000E800FEF8B504000D001600022723685A
:103900009B693B4201D00020F8BD32002900200015
:10391000FFF7ACFF002815D16B1CF0D0FFF70CFAB5
:10392000801BA84201D8002DE9D12022636C1343EB
:103930006364230041331A70220000234232403472
:10394000137023700120DFE7F8B504000D001600A6
:103950002027042223689B69134211D132002900D9
:103960002000FFF783FF002819D123689A693A42A3
:1039700017D004219A690A4204D0228D002A01D06E
:103980000020F8BDDF615A680E490A405A602200E3
:103990000023413263641770403453702370012058
:1039A000EFE7FFF7C9F9801BA84201D8002DD0D15D
:1039B0002022636C13436364230041331A70403444
:1039C0000023EBE700E800FEF8B504000E00170046
:1039D0001D002268936933409B1B59424B41BB42F7
:1039E00001D0002017E06B1CF4D0FFF7A5F9069B6F
:1039F000C01AA84201D8002DEBD12022636C01200F
:103A000013436364230041331A70220000234232BF
:103A1000403413702370F8BDF8B504000D00160093
:103A2000202723689B693B4201D00020F8BD32006B
:103A300029002000FFF71AFF002813D1FFF77CF9B7
:103A4000801BA84201D8002DEBD12022636C1343C8
:103A50006364230041331A70220000234232403451
:103A6000137023700120E1E770B504000120002CE1
:103A70003FD0250041352B78DAB2002B05D1230049
:103A8000403320001A70FDF7FBFA242301212B702C
:103A900023681D481A68A6688A431A6061681B4A31
:103AA0000A401A619A6802409A60E268012A21D1AC
:103AB00080210902314399605A68154911435960C0
:103AC000DA6861690240DA60226900200A43A1696C
:103AD00009020A43DA60216AE2690A431A60012294
:103AE00019680A431A60202360642B7020634234F3
:103AF000207070BD8421090231439960022ADBD114
:103B0000802212015A60D7E7FF7FFFFFFFFFFFF01F
:103B100000800002F0B587B00593030041330492A2
:103B200003931B7804000F000220202B14D12300E4
:103B300040331A78012A0FD001261E70FFF7FCF8D7
:103B40008021050000901923320020000902FFF7B0
:103B50003BFF002802D0012007B0F0BD2123260042
:103B6000039A42361370113B3370049B60646362A6
:103B7000059B60636385628D2D4BFF2A20D9FF2250
:103B80002285009380235B0439002000FFF75AFE52
:103B9000638D2A0020000C99002B19D1FFF73CFF00
:103BA0000028D8D120212368224DD9615A682A40A3
:103BB0005A60230040344133197030702070CBE7D5
:103BC000628D92B22285D2B2009380239B04DBE700
:103BD000FFF790FE0028BED1636A2268197801338E
:103BE00091626362638D228D013B9BB26385013AD2
:103BF000638D92B22285002BCAD0002AC8D18021C1
:103C000020000C9B0095FFF7DFFE0028A3D1638DF9
:103C1000FF2B06D9FF2323858023FF2200905B041E
:103C2000B2E7628D92B22285D2B20090CDE7C04653
:103C30000020008000E800FEF0B587B00593030087
:103C40004133049203931B7804000F000220202BC1
:103C500014D1230040331A78012A0FD001261E7098
:103C6000FFF76AF880210500009019233200200038
:103C70000902FFF7A9FE002802D0012007B0F0BD1D
:103C800022232600039A42361370123B3370049BA2
:103C900060646362059B60636385628D2D4BFF2AC0
:103CA00020D9FF222285009380235B043900200065
:103CB000FFF7C8FD638D2A0020000C99002B19D155
:103CC000FFF7AAFE0028D8D120212368224DD96110
:103CD0005A682A405A6023004034413319703070CA
:103CE0002070CBE7628D92B22285D2B200938023FE
:103CF0009B04DBE7FFF728FE0028BED12368626A39
:103D00005B6A1370636A228D01336362638D013ACB
:103D1000013B9BB26385638D92B22285002BC9D093
:103D2000002AC7D1802120000C9B0095FFF74CFE94
:103D30000028A2D1638DFF2B06D9FF232385802382
:103D4000FF2200905B04B1E7628D92B22285D2B26D
:103D50000090CCE70024008000E800FEF0B51E00D3
:103D6000002389B007930300059241331A780400B9
:103D70000225202A5BD1026897698022380012024E
:103D80001040174253D1220040321778012F4ED0F5
:103D9000013D1570242289051A708B0D606404930F
:103DA000E368012B2BD13E4B049A134322685360E6
:103DB000FEF7C2FF0390012223689D699B696D098C
:103DC0001B09154013401D431CD0236810279B6915
:103DD0001A003A403B422DD1039B20210093200042
:103DE0003300FFF7F1FD002821D1202322680500D0
:103DF000D3612200403441321370207017E0A023B9
:103E00009B01D1E7731CD6D0FEF796FF039BC01A27
:103E1000B04201D8002ECED12200202341321370AF
:103E2000626C01251343636400234034237028002F
:103E300009B0F0BD039B0022009320213300200035
:103E4000FFF7C2FD021EF2D123680598DF6120272B
:103E5000DF61079981420FD180215868C901014370
:103E60005960039B3900009320003300FFF7ACFD3D
:103E70000028DCD12368DF61079B059A0133079393
:103E8000079B934200D28BE722002023413213701C
:103E9000626C40341343636000232370C7E7C0465D
:103EA00000200002F0B504004134227803000F0026
:103EB0000220D6B2202A18D11D0040352A78012AC6
:103EC00013D0242222701B68233A196807489143B3
:103ED0001960196801400020196019683943196098
:103EE00019680A431A6026702870F0BDFFEFFFFFC3
:103EF0000200F0B5413214780300E5B20220202C14
:103F000017D11C0040342678012E12D022301070B8
:103F10001B6823381E68074F86431E601E6809020F
:103F20003E4031431960196808431860002015703D
:103F30002070F0BDFFF0FFFF0C221D4B70B5DC6858
:103F40002240082A31D00C2A09D0042A25D1186829
:103F5000184BC006C0171840174BC01870BDA202FE
:103F60001648120F805C80222402D968A40F5202E6
:103F70000134114209D0124A00230021FCF78EF9C6
:103F800022000023FCF76AF9E8E71A6810231A42B6
:103F900001D00C4AF0E7084AEEE780205B68000297
:103FA0001B045B0F01339840D8E70548D6E7C046AD
:103FB0000010024000E548FF0024F4001C630008E4
:103FC00000127A0000093D00F0B5050085B0002818
:103FD0005AD00C23BE4C0268E668E7681E40802376
:103FE0005B0219001F40D20742D42B689B0700D503
:103FF0008BE02B68DB0629D5002E00D0DCE023689F
:104000009B0502D5EB69002B3ED06268B1496B6A13
:104010000A401A43626061682A6A0902090A1206A4
:104020000A43626080225B0B013312029A40130044
:10403000E1680A06A849120F8A5CD340A74A1360B8
:10404000A74B1868FEF734FE002834D12B681B07F5
:1040500000D5E8E02B685B0700D50AE12B689B06DA
:1040600000D58EE1AB6A002B00D0BDE1002022E03C
:10407000082E03D00C2E09D1002F07D023689B03F4
:10408000B3D56B68002BB0D1012014E06A688A4276
:1040900013D1226813432360FEF74EFE0090802266
:1040A000236892021342A0D1FEF746FE009BC01A7D
:1040B0006428F4D9032005B0F0BDA021C9028A42CA
:1040C00005D180222168D2020A432260E1E72168FB
:1040D00084480140216021680B400393039B82497F
:1040E00023680B402360002AD6D1FEF725FE0090FE
:1040F000802223689202134200D176E7FEF71CFE6D
:10410000009BC01A6428F3D9D4E7EA68042E03D0D0
:104110000C2E24D1002F22D123685B0701D5002A61
:10412000B2D061682B6971481B0201400B43092121
:10413000636023688B4313432360FFF7FDFEE3684E
:10414000654A1B061B0FD35CD840644B1860644B58
:104150001868FEF7ADFD002800D14AE7ABE72368F9
:10416000002A18D009218B4313432360FEF7E4FD96
:10417000070004222368134207D062682B695B4959
:104180001B020A401343636033E7FEF7D5FDC01BF3
:104190000228EED98EE7012293432360FEF7CCFD7F
:1041A000070004222368134200D122E7FEF7C4FD72
:1041B000C01B0228F5D97DE7EB69002B20D08023B6
:1041C00022685B0013432360FEF7B6FD07008022E0
:1041D0002368920013420DD063683E4A13406A6A16
:1041E0001343636062682B6A12021B06120A1343B0
:1041F00063602BE7FEF7A0FDC01B0228E7D959E753
:1042000023683B4A13402360FEF796FD0700802297
:1042100023689200134200D118E7FEF78DFDC01B02
:104220000228F4D946E76A690123002A10D0226DDA
:1042300013432365FEF780FD07000222236D13421E
:1042400000D007E7FEF778FDC01B0228F5D931E75B
:10425000226D9A432265FEF76FFD07000222236D4F
:10426000134200D1F6E6FEF767FDC01B0228F5D920
:1042700020E780230021A26B5B0500911A4204D144
:10428000A26B1343A363012300938022194F5200B2
:104290003B68134208D08022AB68520093422BD176
:1042A000226D134323654CE080223B685200134388
:1042B0003B60FEF741FD019080223B6852001342B3
:1042C000E9D1FEF739FD019BC01A6428F4D9F1E663
:1042D00000100240FF1FFFFF0C63000808000020D1
:1042E0008C000020FFFFFEFFFFFFFBFFFFE0FFFF52
:1042F000FFFEFFFF00700040002B16D1236D6B4ABC
:1043000013402365236D6A4A13402365FEF714FDAD
:1043100007008022236D920013421AD0FEF70CFD95
:10432000644BC01B9842F4D9C4E6A021C9008B425B
:1043300018D18023216DDB000B432365236D1A43C5
:104340002265FEF7F9FC07008022236D92001342DC
:1043500010D0009B012B00D080E6A36B564A13407F
:10436000A3637BE6236D514A13402365236D504AB6
:10437000134097E7FEF7E0FC4E4BC01B9842E3D991
:1043800098E6A96901234D4A002918D0A16819436C
:10439000A160616B0B4363638023116A9B010B4334
:1043A0001362FEF7C9FC07000222A368134200D083
:1043B00058E6FEF7C1FCC01B0228F5D97AE6A168D1
:1043C0009943A160136A3E490B401362FEF7B4FCA7
:1043D00007000222A368134200D143E6FEF7ACFCBB
:1043E000C01B0228F5D965E60C2E43D0354A022BB6
:1043F0002ED12368802713402360FEF79DFC060022
:10440000BF0423683B421DD1296BEB6AE2680B4372
:104410002D4980260A4013436A6BB6041343E360B8
:10442000802322685B0413432360FEF785FC0500AC
:104430002368334200D019E6FEF77EFC401B0228B9
:10444000F6D937E6FEF778FC801B0228D9D931E689
:104450002368802613402360FEF76EFC0500B60437
:104460002368334200D101E6FEF766FC401B0228B8
:10447000F6D91FE61800012B00D11CE68022E36864
:10448000E96A52021A408A4200D0FDE5F022296B07
:1044900092031A408A4200D0F6E5C022120413406B
:1044A0006A6B934200D1E1E5EEE5C046FFFEFFFFF7
:1044B000FFFBFFFF88130000FFFFFFEF000001403C
:1044C000FFDFFFFFFFFFFFFEFFFF02FFF7B5041E48
:1044D000019101D10120FEBD01255B4E019A336897
:1044E0002B40934231D32268930743D4D30749D456
:1044F00001253368019A2B40934209D93368AB43B5
:104500003360FEF719FC070033682B4200D08CE0C3
:1045100022684E4D530700D58FE0130706D5E96892
:1045200023694B4ADB000A401343EB60FFF704FDAD
:10453000EB68484A1B061B0FD35CD840464B1860FB
:10454000464B1868FEF7B4FBC5E73368019AAB43E6
:1045500013433360FEF7F0FB07003368019A2B40EA
:104560009342C0D0FEF7E8FB3D4BC01B9842F4D904
:104570000320B0E7F0203549CB688343A0680343AC
:10458000CB60B3E7314D62682B68022A18D19B03D8
:10459000A0D50321EB688B431343EB60FEF7CCFB04
:1045A00063680700022B18D10C22EB681340082B1C
:1045B0009ED0FEF7C1FB2A4BC01B9842F4D9D7E727
:1045C000032A02D19B01E4D484E7012A02D15B07CC
:1045D000DFD47FE79B05DCD47CE7032B0BD10C22D7
:1045E000EB681340934283D0FEF7A6FB1C4BC01B25
:1045F0009842F4D9BCE7012B11D00C22EB6813428E
:1046000000D175E7FEF798FB154BC01B9842F4D913
:10461000AEE7FEF791FB124BC01B9842A8D80C22C4
:10462000EB681340042BF4D162E7FEF785FB0C4BDB
:10463000C01B984200D867E79AE7EB6809490B402E
:10464000E1680B43EB6068E7002002400010024085
:10465000FFC7FFFF0C630008080000208C0000204B
:1046600088130000FFF8FFFF0368F7B505009B06FD
:104670003CD5802300215A4C5B05A26B00911A4265
:1046800004D1A26B1343A363012300938027554EEB
:104690007F0033683B4262D06A68C023C0201600A6
:1046A000216880039B021E40024001408A4267D17C
:1046B000226D110019401A426AD16968C0230A00AC
:1046C0009B021A409A4207D1236847480340C02002
:1046D000800301400B432360236D1A43009B226536
:1046E000012B03D1A36B414A1340A3632B68DA0764
:1046F00006D503203A49CA6C8243A8680243CA64BB
:104700009A0706D50C203649CA6C8243E8680243F2
:10471000CA645A0706D532493548CA6C024028692E
:104720000243CA641A0706D52D493248CA6C0240B2
:1047300068690243CA645A0606D529492E48CA6CDC
:104740000240E8690243CA6400201B0617D5244AC8
:104750002A49D36C0B40A9690B43D3640FE033683B
:104760003B433360FEF7E8FA019033683B4293D154
:10477000FEF7E2FA019BC01A6428F6D90320FEBDB9
:104780009E4295D122680120920300D490E7F6E77B
:10479000B14200D191E72B689B0600D48DE78022BF
:1047A000216D206D120302432265226D144B1548C2
:1047B0000B40024022652365CB0500D47DE7FEF760
:1047C000BBFA80270600BF00236D3B4200D074E790
:1047D000FEF7B2FA0C4B801B9842F5D9CEE7C046E3
:1047E0000010024000700040FFFFCFFFFFFFFFEF0F
:1047F000FFF3FFFFFFCFFFFFFFFFFFFBFFFFF3FF15
:10480000FFFFFCFFFFFFF7FF88130000F0B51D005E
:10481000170085B00E000400FEF78EFAED192D1A70
:10482000FEF78AFA254B01901B685B011B0D6B4359
:1048300022680393936833409E4201D0002032E007
:104840007B1CF7D0FEF778FA019BC01AA8422CD344
:10485000E02123685A688A435A60822261685200C4
:1048600091420CD18021A26809028A4203D08021A2
:10487000C9008A4203D140211A688A431A60802104
:10488000A26A89018A4206D119680D48014019605F
:1048900019680A431A602300012251331A70002359
:1048A00003205034237005B0F0BD039B5A1E934182
:1048B0005B421D40039B013BBAE7C0460800002055
:1048C000FFDFFFFF164B73B504000D001868154994
:1048D0001600FBF737FCFA239B0043430193822326
:1048E000616880225B0099420DD133002A0080214B
:1048F0002000FFF78BFF00280FD020230320626DDC
:104900001343636576BD019B002B06D0019B013BE1
:10491000019323689B681342F5D10020F2E7C0465B
:104920000800002000366E01F8B504000120002CBC
:1049300054D0636A002B52D18222616852009142A6
:1049400000D0E36100232500A36251352B78DAB251
:10495000002B05D12300503320001A70FCF7BEFB5A
:10496000022040222870216866680B68A76893437C
:104970000B6082235B003340842636023E40334383
:104980008026E76836013E4033432669A2693040FD
:10499000012603436069E7693040034380208000BB
:1049A000104003433820384003438020276A120C0C
:1049B000384003438020A76A8001384003430B60DE
:1049C0000423606A1A400C33034000201A434A60F3
:1049D000CB69054A1340CB6160652E70F8BD00239A
:1049E00023616361AEE7C046FFF7FFFFF8B506003D
:1049F0005036337804000225012B3ED001230700F6
:104A0000337051373B78DDB2012B4AD1002932D0C7
:104A1000002A30D002333B70002343658363C28693
:104A2000436403648387C3878023828601630268AB
:104A300080681B02984208D14020136883431360AA
:104A400080231068DB0103431360A06C164B0C320B
:104A50000363164BC362164B436300238363E38EE9
:104A60009BB2FEF7ADFC002809D01023626D134302
:104A7000636501233B70002333702800F8BD40229A
:104A800023681968114202D119680A431A6020226A
:104A9000596800250A435A60022259680A435A603D
:104AA000E9E70225E7E7C046B94A0008E94A0008F5
:104AB000C54A00087047704710B5806AFFF7FBFFD2
:104AC00010BD70470321806A10B5026853688B439C
:104AD00053601023426D1343436503000122513399
:104AE0001A70FFF7EEFF10BD37B50500846AFEF7B8
:104AF00023F92B6820251B6802002B4227D10220B6
:104B000023685968A9435960596881435960200056
:104B10006421FFF7D7FE002802D0636D1D43656551
:104B2000A368002B06D101932368DA6801929B6881
:104B30000193019B0023E3862300012251331A7065
:104B4000636D002B03D02000FFF7BBFF37BD2000B3
:104B5000FFF7B0FFFAE70000802210B50368D20526
:104B6000904205D0104CA04202D0104CA0420FD170
:104B70007024A3434C682343904205D00A4A9042D4
:104B800002D00A4A904203D1094A1340CA6813432B
:104B9000802293430A69134303608B68C3620B68E6
:104BA00083620123436110BD0008014000140140ED
:104BB000FFFCFFFF70B504000120002C1DD0250074
:104BC00039352B78DAB2002B05D123003833200099
:104BD0001A70FCF7C9FA02232B702068211DFFF719
:104BE000BBFF2200012300203E3213703D34043A03
:104BF00013705370937023702B7070BD020003000C
:104C0000012039321178814219D1022111701B68BB
:104C1000DA680243DA608022D205934205D00B4A5B
:104C2000934202D00A4A93420AD107219A6800208F
:104C30000A40062A03D0012219680A431A60704705
:104C40001A68104318600020F9E7C04600080140C8
:104C500000140140F0B50500022238352C7803001D
:104C60001000012C1DD01E00012439362C7032702A
:104C70001B684C489A6802409A600A68602A5FD0B4
:104C800032D8402A00D174E014D8202A0CD009D898
:104C900010211000884307D0200001233370002327
:104CA0002B70F0BD302AF7D17020996881430A43F8
:104CB000072132E0502AEFD11F6A1A6A4868A243DE
:104CC000F024C9681A629A69A24314000A010A21F1
:104CD0008F433900224301439A61196270219A6817
:104CE0008A431100572218E0802700207F01BA4232
:104CF000D3D080208001824213D02000702ACCD1F2
:104D00009A6829484C6810408A68C9682243090299
:104D10000A4302439A60772299680A4300209A6006
:104D2000BBE79A6820484C6810408A68C9682243EB
:104D300009020A4302439A6080229968D201ECE793
:104D40004868CF6810211A6A184C8A431A62996918
:104D50001A6A2140A024A24314003F0339439961F9
:104D60007021020122431A629A688A431100672265
:104D7000D3E71F6A1A6A4868A243F024C9681A6216
:104D80009A69A24314000A010A218F433900224381
:104D900001439A61196270219A688A43110047227F
:104DA000BBE7C0468800FFFFFF00FFFFFF0FFFFFCC
:104DB00070477047704770470222036810B5196941
:104DC000040011420DD0D96811420AD0053A1A6187
:104DD000043202769B699B075ED0FFF7EAFF00234F
:104DE0002376042223681969114210D0D968114230
:104DF0000DD0093A1A61073222769A69C0239B00C6
:104E000020001A424ED0FFF7D4FF00232376082259
:104E10002368196911420ED0D96811420BD0113A9A
:104E20001A610D322276DB6920009B0740D0FFF724
:104E3000C0FF00232376102223681969114210D085
:104E4000D96811420DD0213A1A6119322276DA69F5
:104E5000C0239B0020001A4230D0FFF7AAFF002396
:104E60002376012223681969114207D0D9681142BB
:104E700004D0033A20001A61FDF780FE4022236827
:104E80001969114207D0D968114204D0813A200033
:104E90001A61FFF790FF10BDFFF78AFF2000FFF7B0
:104EA00089FF9CE7FFF784FF2000FFF783FFACE753
:104EB000FFF77EFF2000FFF77DFFBAE7FFF778FFDF
:104EC0002000FFF777FFCAE770B5040002223834EC
:104ED000257803001000012D1DD01D0070263935E6
:104EE0002A701B6858689A68B0430E68304358604F
:104EF0008020C005834205D00748834202D007487E
:104F0000834204D18020496882430A439A60012386
:104F100000202B70207070BD00080140001401407B
:104F200010B5034B0A000100186800F05BF810BDD3
:104F300090000020014B18687047C0469000002088
:104F400070B500260C4D0D4C641BA410A64209D16F
:104F5000002600F0C7FC0A4D0A4C641BA410A642B0
:104F600005D170BDB300EB5898470136EEE7B300AA
:104F7000EB5898470136F2E7B0660008B0660008C3
:104F8000B0660008B466000810B5034B010018684D
:104F900000F054F810BDC04690000020002310B56A
:104FA0009A4200D110BDCC5CC4540133F8E710B56F
:104FB000884202D98B18984203D3002307E08B5C08
:104FC0008354013AFBD210BDCC5CC45401339A42E5
:104FD000FAD1F8E703008218934200D170471970A4
:104FE0000133F9E770B5130C0D0C1ED1002B0CD159
:104FF00089B294B24C43210000F08CF8051E1BD0FE
:1050000022000021FFF7E6FF16E01D1C0B1C92B2E8
:1050100089B29CB25143ABB263430C0C1C19220CF5
:1050200007D1240489B20C43E5E7002B01D1131CFE
:10503000EDE70C2300250360280070BD70B5050066
:10504000002910D00C1F2368002B00DAE418280078
:1050500000F010F91D4A1368002B05D1636014603D
:10506000280000F00FF970BDA34208D9216860182C
:105070008342F3D118685B6841182160EEE71A009B
:105080005B68002B01D0A342F9D911685018A042E7
:105090000BD120680918501811608342E0D11868BC
:1050A0005B68411811605360DAE7A04202D90C2313
:1050B0002B60D5E721686018834203D118685B68CC
:1050C0004118216063605460CAE7C0466C0E00203E
:1050D00070B50F4E0D0031680400002902D100F0B8
:1050E0008FF830602900200000F08AF8431C0AD0B5
:1050F0000323C51C9D43A84207D0291A200000F0B5
:105100007FF8431C01D101256D42280070BDC046C7
:10511000700E0020F7B50322CB1C93430833060022
:105120001F000C2B32D20C27B94231D8300000F0CE
:10513000A1F8324D2B681C00002C2ED13900300014
:10514000FFF7C6FF0400431C1ED12C682500002D6C
:105150004AD123682900E3183000019300F050F889
:10516000019B834243D123680337FF1A03239F43E4
:1051700008370C2F00D20C2739003000FFF7A8FFAA
:10518000431C34D02368DF19276013E0002BCBDAEF
:105190000C23002533602800FEBD2268D11B20D4DB
:1051A0000B2917D9E2192760A34211D12A6063683D
:1051B000116053603000250000F064F807220B35C1
:1051C000231D9543EA1A9D42E5D05B1BA350E2E7FD
:1051D0005A60ECE76268A34201D12A60EAE75A60AC
:1051E000E8E723006468A7E72C006D68AFE70C23AD
:1051F0003000336000F046F8CDE7C0466C0E00206A
:10520000002370B5064D040008002B60FBF7D2FFA9
:10521000431C03D12B68002B00D0236070BDC04617
:10522000740E00200EB400B50B499CB01DAB02906B
:105230000690079104910948094904CB059100683B
:1052400002A9019300F088F80023029A13701CB0A1
:1052500008BC03B01847C046FFFFFF7F9000002046
:105260000802FFFF03000A7801311A700133002A97
:10527000F9D1704710B5024800F0F0FA10BDC046F1
:10528000780E002010B5024800F0E9FA10BDC046C3
:10529000780E0020F0B58E6885B007000C000392F0
:1052A00001939E423CD890238A89DB001A4234D075
:1052B0000969236860695B1A029303234343DD0F86
:1052C000ED18019B029801331B186D10AB4200D9F9
:1052D0001D00530532D529003800FFF71BFF061EBD
:1052E00009D10C233B6040230120A2894042134393
:1052F000A38105B0F0BD029A2169FFF74FFEA38993
:10530000144A1A4080231343A381029B2661F61896
:1053100026606561019EED1AA560019B9E4200D941
:10532000019E320003992068FFF741FEA368002028
:105330009B1BA36023689E192660DAE72A003800C9
:1053400000F099FA061EE0D138002169FFF776FED9
:10535000C7E7C0467FFBFFFFF0B5A1B003901D007B
:105360008B890F0016001B0611D50B69002B0ED17F
:105370004021FFF7CFFE38603861002805D10C23AB
:10538000039A0138136021B0F0BD40237B610023F4
:1053900008AC6361203363761033A376079535003C
:1053A0002B78002B01D0252B47D1AB1B0593B542A1
:1053B0000CD0320039000398FFF76CFF431C00D17A
:1053C000AEE06269059B9446634463612B78002BD1
:1053D00000D1A5E0012200235242626004A95432A8
:1053E00052186E1C2360E360A3601370A36505224E
:1053F0003178544800F034FA751C00281FD1226817
:10540000D30604D5532304A95B1820211970130770
:1054100004D5532304A95B182B21197033782A2B48
:1054200016D0350000210A20E3682A786E1C303A35
:10543000092A4ED9002911D117E00135B0E7414BB7
:105440002268C01A0123834013432E002360CEE755
:10545000079B191D1B680791002B01DB0B9304E0D0
:105460005B42E3600223134323602B782E2B0AD187
:105470006B782A2B35D1079B02351A1D1B680792C2
:10548000002B2BDB0993304E03223000297800F0EB
:10549000E7F9002806D04023801B834022680135AD
:1054A000134323602978062228486E1C217600F0D9
:1054B000D7F900283CD0264B002B25D10722079B8B
:1054C00007339343083307936369049A9B18636116
:1054D00065E74343350001219B18A6E701235B42A2
:1054E000D0E700230A201A000135636029786E1C7A
:1054F0003039092903D9002BC5D00992C3E74243AB
:10550000350001235218F1E707AB00933A00210060
:10551000104B039800E000BF0490049B0133D3D1EB
:10552000BB890D985B0600D42DE7012040422AE795
:1055300007AB00933A002100064B039800F07CF87B
:10554000EAE7C046756600087B6600087F660008CB
:105550000000000095520008F7B5150001938A6815
:105560000B690C000090934200DA130022002B60BC
:1055700043321278002A01D001332B6023689B0646
:1055800002D52B6802332B602268062317001F40C8
:105590001A4227D0230043331B785A1E93412268B6
:1055A000920630D4220001990098089E4332B047F9
:1055B000431C25D0062320682A68E16800250340A3
:1055C000042B03D18D1AEB43DB171D40A36822691E
:1055D000934201DD9B1AED180027BD4220D1002027
:1055E00010E00137E3682A689B1ABB42D2DD220033
:1055F000012301990098089E1932B047431CF0D14D
:1056000001204042FEBD3020E118433108702100E6
:105610005A1C45310978A218433202331170C1E790
:105620002200012301990098089E1A32B047431CBA
:10563000E6D00137D1E70000F0B58BB006920A0042
:1056400043320793059004920A7E0C00109B782A3F
:1056500007D8622A09D8002A00D1C1E0582A00D10F
:105660008CE026004236327022E0100063381528A4
:10567000F7D8FAF75DFD16001F00F6FFF6FFF6FFFC
:10568000F6FF1F00F6FFF6FFF6FFF6FFA800360054
:105690009A00F6FFF6FFB900F6FF3600F6FFF6FFB8
:1056A0009E0026001A684236111D19601368337077
:1056B0000123A7E0086819680A1D05060BD50D68C7
:1056C0001A60002D03DA2D23049A6D421370614B8A
:1056D0000A2703931BE00D681A604106F1D52DB22D
:1056E000EFE70D681968081D18602E0601D50D68D2
:1056F00003E06D06FBD50D68ADB2564B082703934A
:105700006F2A00D002372300002243331A706368E7
:10571000A360002B03DB0422216891432160002D4C
:1057200002D1049E002B0CD0049E28003900FAF709
:105730008FFD039B013E5B5C33702B0005009F4295
:10574000F3D9082F09D12368DB0706D563682269DE
:10575000934202DC3023013E3370049B9B1B236188
:10576000079B210000930598069B09AAFFF7F4FE0A
:10577000431C4CD1012040420BB0F0BD45310A70B2
:10578000344A03921A68216820CA1A60080616D59E
:10579000CB0702D52023194321601027002DB2D159
:1057A000202322689A432260ADE7202209680A4339
:1057B00022602200782145321170274AE1E748062D
:1057C000E6D5ADB2E4E71A680D68101D49691860A6
:1057D00013682E0601D5196002E06D06FBD519800D
:1057E0000023049E2361BBE71A68111D1960166827
:1057F00000213000626800F033F8002801D0801BDF
:105800006060636823610023049A1370A8E723692A
:10581000320006990598079DA847431CAAD0236823
:105820009B0715D4099BE0689842A5DA1800A3E706
:105830002200012306990598079E1932B047431CA0
:1058400098D00135E368099A9B1AAB42F0DCE9E78E
:105850000025F7E7866600089766000870477047DE
:10586000C9B28218904201D10020704703788B4260
:10587000FBD00130F6E7F7B507000E001400002951
:1058800005D11100FFF746FC05002800FEBD002AE7
:1058900003D1FFF7D3FB2500F7E700F01BF80190D9
:1058A000844203D835004308A342EED321003800D8
:1058B000FFF730FC051EE8D0019B22009C4200D976
:1058C0001A0031002800FFF769FB31003800FFF7AC
:1058D000B5FBDAE70B1F1B68181F002B01DA0B580A
:1058E000C0187047F8B5C046F8BC08BC9E46704763
:0C58F000F8B5C046F8BC08BC9E467047E6
:1058FC000002000400010003000100030004000585
:10590C000304000100030004000200040005000071
:10591C00888888888888888C888888C8888888CC73
:10592C0088888C8888888C8C88888CC888888CCC53
:10593C008888C8888888C88C8888C8C88888C8CC53
:10594C008888CC888888CC8C8888CCC88888CCCC33
:10595C00888C8888888C888C888C88C8888C88CC23
:10596C00888C8C88888C8C8C888C8CC8888C8CCC03
:10597C00888CC888888CC88C888CC8C8888CC8CC03
:10598C00888CCC88888CCC8C888CCCC8888CCCCCE3
:10599C0088C8888888C8888C88C888C888C888CCF3
:1059AC0088C88C8888C88C8C88C88CC888C88CCCD3
:1059BC0088C8C88888C8C88C88C8C8C888C8C8CCD3
:1059CC0088C8CC8888C8CC8C88C8CCC888C8CCCCB3
:1059DC0088CC888888CC888C88CC88C888CC88CCA3
:1059EC0088CC8C8888CC8C8C88CC8CC888CC8CCC83
:1059FC0088CCC88888CCC88C88CCC8C888CCC8CC83
:105A0C0088CCCC8888CCCC8C88CCCCC888CCCCCC62
:105A1C008C8888888C88888C8C8888C88C8888CC62
:105A2C008C888C888C888C8C8C888CC88C888CCC42
:105A3C008C88C8888C88C88C8C88C8C88C88C8CC42
:105A4C008C88CC888C88CC8C8C88CCC88C88CCCC22
:105A5C008C8C88888C8C888C8C8C88C88C8C88CC12
:105A6C008C8C8C888C8C8C8C8C8C8CC88C8C8CCCF2
:105A7C008C8CC8888C8CC88C8C8CC8C88C8CC8CCF2
:105A8C008C8CCC888C8CCC8C8C8CCCC88C8CCCCCD2
:105A9C008CC888888CC8888C8CC888C88CC888CCE2
:105AAC008CC88C888CC88C8C8CC88CC88CC88CCCC2
:105ABC008CC8C8888CC8C88C8CC8C8C88CC8C8CCC2
:105ACC008CC8CC888CC8CC8C8CC8CCC88CC8CCCCA2
