:020000040800F2
:1000000000200020912C00088511000887110008AD
:1000100000000000000000000000000000000000E0
:10002000000000000000000000000000891100082E
:1000300000000000000000008B1100088D11000876
:10004000E12C0008E12C0008E12C0008E12C00085C
:10005000E12C0008E12C0008E12C0008E12C00084C
:10006000E12C0008E12C000895110008E12C0008A3
:10007000E12C0008E12C000800000000A511000898
:1000800000000000E12C000800000000000000005B
:10009000E12C000800000000E12C0008E12C000821
:1000A000E12C0008E12C0008E12C0008E12C0008FC
:1000B000E12C0008E12C000800000000E12C000801
:1000C00010B5064C2378002B07D1054B002B02D02E
:1000D000044800E000BF0123237010BD9C000020F5
:1000E0000000000018590008044B10B5002B03D085
:1000F0000349044800E000BF10BDC04600000000F6
:10010000A00000201859000802780B78002A03D0BC
:10011000013001319A42F7D0D01A704702B47146CB
:1001200049084900095C49008E4402BC7047C0463A
:1001300003B47146490840004900095E49008E44F5
:1001400003BC7047002243088B4274D303098B42DF
:100150005FD3030A8B4244D3030B8B4228D3030C97
:100160008B420DD3FF22090212BA030C8B4202D339
:100170001212090265D0030B8B4219D300E0090A61
:10018000C30B8B4201D3CB03C01A5241830B8B426A
:1001900001D38B03C01A5241430B8B4201D34B0353
:1001A000C01A5241030B8B4201D30B03C01A5241B8
:1001B000C30A8B4201D3CB02C01A5241830A8B423D
:1001C00001D38B02C01A5241430A8B4201D34B0226
:1001D000C01A5241030A8B4201D30B02C01A52418A
:1001E000CDD2C3098B4201D3CB01C01A524183093E
:1001F0008B4201D38B01C01A524143098B4201D378
:100200004B01C01A524103098B4201D30B01C01AA2
:100210005241C3088B4201D3CB00C01A524183081C
:100220008B4201D38B00C01A524143088B4201D349
:100230004B00C01A5241411A00D2014652411046A9
:100240007047FFE701B5002000F006F802BDC04688
:100250000029F7D076E770477047C046002B11D1D0
:10026000002A0FD1002900D1002802D00021C94363
:10027000080007B4024802A14018029003BDC0461E
:10028000D9FFFFFF03B4684601B5029800F034F8C7
:10029000019B9E4602B00CBC7047C046F0B5CE46EE
:1002A000474680B5070099463B0C9C4613041B0C3F
:1002B0001D000E0061460004140C000C45434B4326
:1002C00060436143C0182C0C20188C46834203D92C
:1002D00080235B029846C444494679437243030C29
:1002E00063442D042D0CC918000440198918C0BCA2
:1002F000B946B046F0BDC046F0B557464E464546F5
:10030000DE46E0B504000D009246994683B08B426C
:1003100030D82DD04946504600F0BAF829000600E2
:10032000200000F0B5F8331A9846203B9B4633D4A2
:100330005A465346934042461F00534693401E0080
:10034000AF423AD8AF4200D178E05B46A41BBD4132
:10035000002B00DA75E000220023009201930123B4
:100360005A4693400193012342469340009328E06C
:100370008242CFD900220023009201930C9B002BD4
:1003800001D01C605D600098019903B0F0BCBB46D1
:10039000B246A946A046F0BD424620239B1A5246CB
:1003A000DA40414613004A468A40170042461F433E
:1003B000534693401E00AF42C4D90022002300924E
:1003C00001934346002BD9D0FB0772081A434646D7
:1003D0007B080EE0AB4201D1A2420CD8A41A9D4189
:1003E000012024196D410021013E24184D41002EA9
:1003F00006D0AB42EED9013E24196D41002EF8D152
:10040000009801995B4600196941002B24DB2B0001
:100410005A464446D3402A00E2401C005B46150081
:10042000002B2ADB26009E40330026004746BE40B4
:100430003200801A9941009001919FE7A342BCD8F5
:1004400083E74246202300219B1A0022009101925B
:100450000122DA40019286E7424620239B1A2A00B5
:1004600046469A402300F340444613432A00E240A4
:100470001C005B461500002BD4DA42462F002023D7
:10048000260097409B1ADE403B003343CDE7C04631
:1004900010B5002903D100F007F8203002E0080071
:1004A00000F002F810BDC0461C2101231B04984235
:1004B00001D3000C10391B0A984201D3000A0839F5
:1004C0001B09984201D30009043902A2105C4018AC
:1004D0007047C04604030202010101010000000050
:1004E000000000000023F0B587B005AC0E000A2123
:1004F000150007002370FFF725FE0A2103013800CD
:100500000393FFF7A5FE039B3000591861700A2181
:10051000FFF718FE0A2107013000FFF799FE2800B7
:100520007F180A21A770FFF70DFE060130200A216F
:1005300006402800FFF78CFE64237618E670220040
:100540000093D021603B024803F0FEFA07B0F0BDF3
:10055000C00400200023F0B587B0160002AA64256D
:10056000D3730F22294C039102A902905218200044
:10057000D1210095013303F0E7FA029A0123D1213A
:100580002000009503F072FB01270F2202AB02A9A5
:10059000DF7352183B00D1212000009503F0D4FAFC
:1005A0003B00039AD1212000009503F05FFB02235A
:1005B00002AAD3730F2202A93B0052182000D121B6
:1005C000009503F0C1FA3B003200D12120000095D4
:1005D00003F04CFB0A230F2130788206920F5A4316
:1005E000084012183270039A107802095A430840E2
:1005F000121803980270029A1278100943430A40B5
:100600009B18029A137007B0F0BDC046C0040020CA
:100610000423F0B587B005AC0E000A2115000700D1
:100620002370FFF78FFD0A21030138000393FFF7C2
:100630000FFE039B3000591861700A21FFF782FDFD
:100640000A2107013000FFF703FE28007F180A2166
:10065000A770FFF777FD060130200A210640280029
:10066000FFF7F6FD64237618E67022000093D02190
:10067000603B024803F068FA07B0F0BDC0040020F8
:100680000423F0B587B0039202AA6425D3730F2226
:100690000700284C0E0002A952182000D121009515
:1006A000033B03F051FA3A000123D12120000095C9
:1006B00003F0DCFA052302AAD3730F2202A9521811
:1006C0002000D1210095043B03F03EFA32000123C3
:1006D000D1212000009503F0C9FA062302AAD373A2
:1006E0000F2202A952182000D1210095053B03F0EA
:1006F0002BFA039A0123D1212000009503F0B6FACA
:100700000A230F21387802095A43084012183A7018
:100710003078C206D20F5A43084012183270039A3A
:100720001278100943430A409B18039A137007B0CC
:10073000F0BDC046C004002030B50C256843034C12
:10074000225024186160A36030BDC046B80000206C
:10075000104B0020190070B50F4A104C156801307D
:10076000AD002D591D605568AD002D595D6095682F
:100770000C32AD002D599D600C332428EED1D823C6
:1007800000225B00CA50B532FF32054804F048F938
:1007900070BDC04668020020B80000205059000813
:1007A0000C050020D82210B500210248520004F0A8
:1007B0002BFC10BDB8000020F0B50C2635004543D9
:1007C0000B4C70432F5965196D68BA1A6D1A574250
:1007D0007A4169424D412418A168D2B25219994216
:1007E00001D10132D2B2033A53425A41D0B2F0BDE4
:1007F000B800002010B59CB0242200210FA804F0FE
:1008000003FC1422002101A804F0FEFB2022002199
:1008100006A804F0F9FB1B491B4A0B6801241A4087
:1008200080231B0113430B6002230E9318930023B4
:1008300019931A9380231022DB030EA811941292AD
:100840001B9303F0DBFB002801D072B6FEE70F23F9
:100850000390019304900C3B0590210001A80293A2
:1008600003F04EFE002801D072B6FEE708230B907D
:1008700006A8069303F012FF002801D072B6FEE727
:100880001CB010BD00700040FFE7FFFFF0B501266F
:100890008BB002F04BFAFFF7ADFF1422002105A840
:1008A00004F0B2FB0221A0207A4FC005FB6A0025AC
:1008B0003343FB62FB6A33400193019BFA6A0A43AC
:1008C000FA62FB6A00220B4002930631029B02F09F
:1008D000BFFF00223100704802F0BAFFA0200423BD
:1008E00005A9C00505930695079602F0EBFEA0202A
:1008F000082205A9C005059206960795089502F0FD
:10090000E1FE654805A9059606960795089502F04B
:10091000D9FE0822290005A804F076FB06235F4CC7
:10092000A363C223FF3363625D4B22002360042371
:100930002C3220002584E563A5621570256365636C
:100940006560A560E56026616361A561E56102F00F
:10095000DDFAA84201D072B6FEE7802320005B01D9
:1009600005A90596069302F05DFC002801D072B639
:10097000FEE74C4B200005A9059302F053FC041E32
:1009800001D072B6FEE73B6B010033433B633B6B28
:10099000020033400A200093009B02F097FC0A20DB
:1009A00002F0BEFC404D414B28002B60404BAC6038
:1009B0006B60EE602C616C61AC61EC612C6203F0E9
:1009C0006DF8011E01D072B6FEE7280003F084FA2C
:1009D000011E01D072B6FEE7280003F0A3FA031E41
:1009E00001D072B6FEE73348334A83600260822248
:1009F000C36003614361036243628362102407237F
:100A000052004260FC328261C461C36203F0A6FFFF
:100A1000051E01D072B6FEE72200010005A804F011
:100A2000F3FA0822290003A804F0EEFA8023234CED
:100A3000DB0523601F236360214B2000A560E3607A
:100A40002561656104F0D0F8002801D072B6FEE798
:100A5000802320005B0105A9059304F015F9002807
:100A600001D072B6FEE70390049003A9200004F0C1
:100A700045FA002801D072B6FEE700220F201100CF
:100A800002F024FC0F2002F04BFC02F05FF802F0B1
:100A900083F8FEE700100240000400501C04002010
:100AA0000024014002000004C00400200054004063
:100AB000280C20000C0500200030014064050020B7
:100AC000E703000072B6FEE7002110B5884200D0AF
:100AD000FF3180220248D20004F096FA10BDC046D1
:100AE000AA05002030B504007F2812D83F2910D86D
:100AF0000E4B0F4D1879CB0800280BD0002A0BD1D4
:100B0000D80107231940063B8B4000192A5C134388
:100B10002B5430BD012AF3D0D801072301221940FC
:100B20008A4000192B5C9343F2E7C046A4050020DD
:100B3000AA050020014B188059807047A4050020A9
:100B4000F7B507000C00002500926378AB4206D889
:100B5000154A2378118838005B181380FEBD3A00CF
:100B60000026203A534362685B195B009B5A01934D
:100B70000D4B22781888B24201D80135E5E7598833
:100B8000019B8022B34080194919120280B289B2B8
:100B9000134204D0009AFFF7A5FF0136E8E7009B57
:100BA0005A425A41D2B2F6E7A405002070B50400BB
:100BB0000D0016002078002800D170BD32002900F9
:100BC000FFF7BEFF030020788342F6D10134F1E73E
:100BD000F0B587B00CAC24780594041C7F2800D9AC
:100BE0007F24A4B2161C7F2A00D97F26B6B20D1C22
:100BF0003F2900D93F25ADB21F1C3F2B00D93F270D
:100C0000BFB2331BA64200D8A31B1BB20093BD4248
:100C100024D27B1B1BB20193012303930493A642AE
:100C200001D8023B0393009B019A934223DD009A73
:100C3000DB0F9B185B100293009B002B2BD1BD4256
:100C400002D92B003D001F00331CA64200D9231CF3
:100C50009CB22DB2BD4216DD07B0F0BDEB1B1BB23E
:100C600001930123A64203D90393023B0493DAE7DD
:100C70005B420393FAE7019B019ADB0F9B185B1021
:100C80005B421BB2D7E7ADB229002000059AFFF7FF
:100C900029FF0135DDE7019B002B15D12B1CBD423F
:100CA00000D93B1C9DB2A64202D2230034001E0094
:100CB00024B2B442D0DCA4B220002900059AFFF788
:100CC00011FF0134F4E7029329002000059AFFF791
:100CD00009FFA64201D1BD42BED0009B5A42029BF1
:100CE000934205DD019A9B1A039A1BB2A418A4B281
:100CF000029A01998A42E6DA009A9B18049A1BB27A
:100D0000AD18ADB2DFE7F0B585B01D000AAB1B78BA
:100D100007000E0003937F2831D83F292FD883186E
:100D20007F2B02DD8022121A92B273193F2B02DD53
:100D30004025AD1BADB2039BD21994B22200310005
:100D4000380000933300FFF743FFAD19039BADB2AA
:100D500022002900380000932B00FFF739FF039B86
:100D60003A003100380000932B00FFF731FF039B5E
:100D70002200009331002B002000FFF729FF05B06F
:100D8000F0BDF0B585B002930AAB1B7805000F00EB
:100D9000140003937F2814D83F2912D883187F2B7F
:100DA00002DD8024241AA4B2029BFB183F2B03DD32
:100DB0004023DB1B9BB202930026029BB1B29E42F2
:100DC00001D905B0F0BD039BC91989B2621900931E
:100DD00028000B0092B20136FFF7FAFEF6B2ECE7FC
:100DE00070B50024C2B0150002AA11709C4209D34C
:100DF00081B20A20013300909BB2054802F0A4FEA4
:100E000042B070BD2E5D111901344E70E4B2EDE7B1
:100E1000C00400201FB56B4619735A730A230100E2
:100E2000009303AA083B024802F08EFE05B000BD05
:100E3000C004002070B5B02478250E4E2200002199
:100E40002800FFF7E7FF002228001100FFF7E2FF6C
:100E50000134102200212800FFF7DCFFE4B2320049
:100E6000802340212800FFF7BBFF8036B82CE5D156
:100E700070BDC046AA05002010B50020FFF724FE73
:100E8000FFF7D8FF10BD000010B501227821524BAA
:100E9000524802F07DFF0024A04200D09AE02100D9
:100EA000AE227820FFF7B6FF210020227820FFF73E
:100EB000B1FF210010227820FFF7ACFF2100B02203
:100EC0007820FFF7A7FF2100C8227820FFF7A2FFB4
:100ED000220021007820FFF79DFF210010227820BA
:100EE000FFF798FF210040227820FFF793FF2100B1
:100EF00081227820FFF78EFF2100FF227820FFF764
:100F000089FF2100A1227820FFF784FF2100A6227B
:100F10007820FFF77FFF2100A8227820FFF77AFFD3
:100F200021003F227820FFF775FF2100A4227820BE
:100F3000FFF770FF2100D3227820FFF76BFF22001C
:100F400021007820FFF766FF2100D5227820FFF7E7
:100F500061FF2100F0227820FFF75CFF2100D922F9
:100F60007820FFF757FF210022227820FFF752FF59
:100F70002100DA227820FFF74DFF2100122278208D
:100F8000FFF748FF2100DB227820FFF743FF210015
:100F900020227820FFF73EFF21008D227820FFF7E6
:100FA00039FF210014227820FFF734FF2100AF22FF
:100FB0007820FFF72FFF21002E227820FFF72AFF4D
:100FC0002000FFF781FDFFF735FF054B1C805C809B
:100FD00001345C71200010BD204E0000C0040020D0
:100FE000A405002070B50D00040002F01FFB044BA7
:100FF0002A00E118002002F03BFB02F02FFB70BD3D
:1010000000000808024BC0180078C0B27047C04604
:10101000000008080122054B596B0A435A638022DD
:10102000996B52050A439A637047C046001002400C
:1010300010B5040086B01422002101A803F0E4FFDB
:101040000D4B22689A4215D180220C4B9200596BAD
:10105000A0200A4301215A63DA6AC0050A43DA6212
:10106000DB6A0B400093009B032301A901930293C9
:1010700002F028FB06B010BD002401400010024021
:1010800010B5040086B01422002101A803F0BCFFB3
:101090000F4B22689A4219D102210E4C0E48E26A87
:1010A0000A43E262E36A0B400093009BC023019372
:1010B000AE3B02930F3B049301A9023B059302F060
:1010C00001FB8023A26B9B031343A36306B010BDF7
:1010D00000540040001002400004005070B50500AC
:1010E00086B01422002101A803F08EFF1A4B2A6853
:1010F0009A422FD180220126184B5201596BA02011
:101100000A435A63DA6AC0053243DA62DB6A01A92C
:1011100033400093009BA02301939E3B02939B19B5
:10112000049302F0CFFA0E4C0E4B80222360102362
:10113000A360002320006660E36022616361A36115
:10114000E361236202F012F9002801D0FFF7BAFC34
:10115000AC64A56206B070BD0030014000100240D2
:10116000780400203000024080230268DB059A42A8
:1011700004D10123024A916B0B4393637047C0462D
:1011800000100240FEE7FEE77047704710B501F01F
:10119000E1FD10BD10B5024802F06CF910BDC0466B
:1011A0007804002010B5024803F020FE10BDC046B0
:1011B000640500200B4A0C490300891A0B4A10B53C
:1011C0001068002801D10A4810601068C3188B42CB
:1011D00006D903F0C9FE0C2303600120404210BD74
:1011E0001360FCE70004000000200020AC09002090
:1011F000B80E00207047000070B51D0006231400D3
:101200005843C900FFF796FC2A0020000149FFF768
:10121000CDFC70BD00000020F0B585B01E000AAB0B
:101220001B78040000200F0015000393FFF74CFC0F
:101230000021012308007F2200930633FFF7A1FD60
:1012400000233A0019001800FFF7D6FF039B5F0048
:10125000E719BC4201D105B0F0BD617820783300B8
:1012600004CDFFF7C9FF0234F3E7000010B5064CC8
:101270002200611CA01CFFF703FAE21C211D601D67
:10128000FFF768F910BDC0462900002010B5064CD4
:1012900022786178A078FFF7BBF9E278217960794C
:1012A000FFF720F910BDC0462900002010B501F05D
:1012B0005DFD104A1368C31A962B08D910600E4AB8
:1012C0000E4B5088984203D903220D4B1A7010BD63
:1012D00096214900884202D20422094BF6E712887F
:1012E0008A4202D20122064BF0E79A42EFD902224B
:1012F000034BEBE7C4090020B2090020AC0D00004D
:10130000CC09002010B5012B15D0022B20D0002BCA
:101310001DD1164C2378032B04D103788B4216D2AF
:10132000013303702378042B11D1037893420ED933
:10133000013B03700BE00D4C2378022B04D10378A2
:101340008B4204D2013303702378012BEDD010BD02
:10135000064C2378042B04D103788B42F7D2013357
:1013600003702378032BF2D1DFE7C046CC090020BD
:10137000A02010B50421C00502F064FA0A4C2378BD
:101380001843C0B2002802D10130207010BDA02047
:101390000421C00502F056FA0028F7D02078002872
:1013A000F4D00020F1E7C046D609002010B5C07A7D
:1013B0000C000138032816D8FEF7B0FE02090D1103
:1013C0000023012204212000FFF7B6F910BD0423F9
:1013D00000220121F7E7002304221100F3E7042390
:1013E00000211A00EFE700231A00F6E7F0B5524B90
:1013F00099B01C78002C1BD1012214251A70FFF71C
:10140000D1F9280060434D4BE1B2C0180134FFF719
:10141000CDFF242CF5D1FFF79BF9B42100234848D8
:101420008900C25C002A00D17CE00122454B1A7081
:10143000FFF71CFF00230221434F02AC23703B78CF
:101440000125052202336370E17003234918E1711D
:10145000E173FA213D4E62725219E27205326371F4
:101460002273637332780A33A5702571A5712572D2
:10147000A572A373C9005218B17873780EA80091B1
:10148000334903F0E9FE71793379F27813A80091BA
:10149000304903F0E1FE304B0EA906932F4B0C911F
:1014A00007932F4B13A908932E4B200009932E4B23
:1014B00006AA0A932D4B0D910B9308232C490093F8
:1014C0002B00FFF7A9FEFFF7B5FCFFF7EFFE0223A5
:1014D000002204213800FFF715FF0022254B1A7067
:1014E000FFF746FF00281BD03B78002B07D1FFF702
:1014F00059F9FFF72DF9204A13785B191370002072
:101500003B781E4A591C11700B49087083420FD05A
:101510000C4B1B7883420BD11949013008701370B2
:1015200019B0F0BD14338B4200D07AE7054B7EE74B
:1015300000233B70F4E7C0460C000020D8090020CF
:10154000E3090020BA0900207F0E002029000020B6
:10155000596300086863000877630008796300082E
:10156000836300088C6300087665000896630008B2
:101570009F630008CC090020800E0020B0090020E5
:10158000B8090020F0B500278FB007900B2101208B
:1015900003F0E0FC3C003D0003900122BB1809A8C9
:1015A000DBB2837004930223C370594B00260B9364
:1015B000584B42700C93039B02710D9303234271AD
:1015C00006700799009313000BAAFFF725FEF3009E
:1015D00020339BB205930B2373434F4AD3180693D2
:1015E000002302930A20029B059958430E3080B2D3
:1015F000FFF7A0FA069B029A985C6B461B7A0122C1
:101600009D4203D1F2B2121B531E9A414349D2B2FA
:10161000FFF796FA029B013302930A2BE2D10136BF
:10162000042ED4D101230A2D02D123005A1E934146
:10163000DBB2042113203A4AFFF7DEFD01230A2D15
:1016400002D1A31E5A1E934106211320354ADBB254
:10165000FFF7D2FD0A26FFF7EDFB002C03D0A61EF4
:1016600073425E410936FFF721FE2F4A1378012BA2
:1016700005D1002D01D0013DEEB235000FE0022B67
:1016800009D0032B20D0042B09D10A2D1ED0032C06
:1016900027D0013421E0B54238D20135EDB2002324
:1016A0001370FFF765FE002800D176E70A2D1AD0E7
:1016B0000B226243184B9B185B5D039AD355049B26
:1016C0000A2B1DD01F0068E70A2D03D163425C413D
:1016D0006400E4E7002C02D0013CE4B2DFE71C0028
:1016E000DDE70024DBE7002C07D1002F01D0013F0C
:1016F000FFB20023039AD3554FE7022C00D04CE7EA
:1017000000220A4B03981A700FB0F0BD0025C6E7FF
:1017100077630008A5630008DC650008000000206E
:10172000A7630008A9630008CC0900200C00002072
:101730004A234A211A00F0B54E4F49423C78050031
:101740006143601EC91843434B4EC91885B06243BC
:101750004A48891903F045FC042C01D801343C7037
:1017600005246C43FFF782FD4548464900194B7834
:101770000A78039008790290C8780190897830003F
:101780000091414903F068FD032D2DD828003F4CFE
:101790003F4DFEF7C3FC022B4D5A052506241426A7
:1017A0003C4F3D497A783B78AA1A6243D21872437B
:1017B0003A4B37489A18D37A013B6B43CB183849D8
:1017C00003F04AFD7B78ED1A6C433D78334B641986
:1017D00066439E19737CB2890133B17C2B48013179
:1017E0000091304903F038FD05B0F0BD0525062411
:1017F0001426284F28497A783B78AA1A6243D218CF
:101800007243264B22489A18D37A013B6B43CB187C
:10181000234903F021FD7B78234AED1A6C433D7880
:101820001E4B641966439E19737C12780133D4E70A
:101830001E4B1F491A68280003F00EFD1D4B1E4960
:101840001A78200003F008FDCEE71C481C4A4178B6
:10185000537801311278019101780133013101325D
:1018600000912800174903F0F7FC174B17491A7825
:10187000E7E7C046840E0020A80C0020F20C0020F0
:101880006466000829000020AB630008DC0C00201F
:10189000C60C0020820E002014660008D809002023
:1018A000C7630008CD6300082F000020C009002096
:1018B000DB630008BE090020E3630008790E002006
:1018C0007B0E0020F2630008780E002004640008FC
:1018D00070B5FEF767FF0024052C03D92300123BE7
:1018E000052B3BD8002304211A002000FEF724FF1B
:1018F0000134E4B2242CEFD1FEF72AFFFFF7BCFA43
:101900000C3C21002B20FFF715F91F4D0022290068
:101910001E48FFF74BF918212720FFF70BF9013478
:10192000012229001A48FFF741F9A4B2FFF782FA11
:10193000C82001F021FA212CE3D1FA20800001F027
:101940001BFAFFF799FAFEF72DFFFEF701FF0020C3
:10195000FFF758FB43425841C0B270BDA31F052B8F
:1019600002D9123B052B03D8002304221900BCE73F
:1019700023000C3B052B02D9123B052BB8D80022C3
:1019800004231100B1E7C0460000002015640008E0
:101990001C640008F0B58BB0FFF7EAFC041E07D00A
:1019A000FFF774FC01210020FFF71CFB0BB0F0BD1A
:1019B000FFF77CFC3F4E2200012305213000FFF79A
:1019C000A1FC32783C4C002A04D113006321200092
:1019D000FFF798FC3278012A04D100230C21601C07
:1019E000FFF790FC3378354F022B08D16378012242
:1019F000FB18013B1978A01C0023FFF783FC337808
:101A0000032B05D1002317211A00E01CFFF77AFCF5
:101A10003378042B05D100233B211A00201DFFF74A
:101A200071FC3378052B05D100233B211A00601D82
:101A3000FFF768FC6578A2787F19013F3B789A42EE
:101A400000D9A37000221E4B1E491A7002A804324E
:101A500003F0BEFA0A2133781B4A59435218002B6F
:101A600017D1FA232578DB00ED1805AC2B002000F8
:101A7000164903F0F1FB164B16490393022303AA00
:101A8000009302A8013B0494FFF7C6FBFFF7D2F9CD
:101A900082E7012BE9D0022B01D1A578E5E7032BE2
:101AA00001D1E578E1E7042B01D12579DDE76579FE
:101AB000DBE7C0467F0E00202900002008660008F2
:101AC000CC0900203059000828660008246400086A
:101AD0002C6400083E640008F0B5574F89B03C788C
:101AE0007E78FFF745FC051E04D00022534B1A7088
:101AF00009B0F0BD7B783A7851490133013203A82F
:101B000003F0AAFB2B000621012003AAFFF774FBB8
:101B1000FFF790F9FEF746FE4A4B0193019BD97AF5
:101B2000002900D184E0002304211A002800FEF7D8
:101B300003FE019B01351433EDB20193242DEDD149
:101B400005237878181A013358433B78C0180423CA
:101B5000C0B21A001900FEF7EFFDFEF7F9FD3A4B8F
:101B60001A88962A5BD900221A80384B384A5B883B
:101B7000934211D90136F5B20523581B013358435E
:101B8000002320181A000421C0B2FEF715FE2E0013
:101B90000135EDB20028EFD196222C4B52005B8824
:101BA000934211D2013EF5B20523581B013358432D
:101BB000002320181A000421C0B2FEF7FDFD2E00FC
:101BC000013DEDB20028EFD19622204B52001B8838
:101BD00093420FD2052306259B1B5D43EDB20023E4
:101BE000013CE4B260191A000421C0B2FEF7E4FD22
:101BF0000028F4D1154B164A1B8893420FD90523B0
:101C000006259B1B5D43EDB200230134E4B260194D
:101C10001A000421C0B2FEF7CFFD0028F4D1052C34
:101C200000D93C78052E00D97E783C707E7058E74C
:101C30000B0004227AE7C046820E00200C00002030
:101C400048640008D8090020BC090020B20900201F
:101C5000AC0D0000F0B5774BA5B01E78C823002E60
:101C600006D0643B012E03D0323B022E00D0283B2D
:101C7000714A1370714B1978002956D1012504ACB3
:101C8000102220001D7003F0BFF96D4B05221B7858
:101C90006272033363700323724363715B19694E8D
:101CA000E3710233E37210AF5B196373B21838004B
:101CB0006549E5702571A5712572A572257303F03C
:101CC000CBFA624B1A681378002B00D1604A15AE2C
:101CD0006049300003F0C0FA574B5F4A1AAD1B78D9
:101CE00012785E49280003F0B7FA5D4A1FAC5378BA
:101CF00012785C4901330132200003F0ADFA002371
:101D00000F93594B59490893594B08AA0993594BBA
:101D100004A80E9308230093073B0A970B960C9593
:101D20000D94FFF779FAFFF785F8FFF7BFFA444DF6
:101D30000022022304212800FFF7E4FA2A78002A6F
:101D400004D1012303213B48FFF7DCFA2B78022B57
:101D500006D1394B4048197801231A00FFF7D2FA0F
:101D6000454B1B78002B04D00023434A1370334AA1
:101D70001370FFF7FDFA002855D02B78012B04D102
:101D80003E48FFF7FFFB314B18602B78032B01D146
:101D9000FFF7A2FE2B78042B45D12C4F39680B7826
:101DA000002B42D005242E4E7378E31A01345C4395
:101DB0003378E41814235C43314BE418200003F01B
:101DC0006BFA20001B4B02221B7831000133E372B7
:101DD0002C4B11301B78039323741F4B1B78A3816A
:101DE000154B1B78E38103F0F3F8039B012B04D11F
:101DF00014222100244803F0EBF80020FFF798FCA0
:101E0000386803F0DBF80122002313493B600A70B5
:101E1000084A73701370184A337013701B4A2B7082
:101E20001370064A137025B0F0BD0222184B1A70C9
:101E3000F9E7C046B9090020810E00200C000020FF
:101E40007F0E00201466000860640008C8090020A6
:101E500059640008686400082800002070640008C5
:101E6000820E002048640008776300089964000827
:101E70007D64000893640008CC0900209F6400087A
:101E8000D8090020800E0020640E0020B009002038
:101E9000B80900200F230022F0B58DB06B441A70F2
:101EA000FFF766FA041E18D00F236B441978052338
:101EB0002C4A5078181A01334343107814221B1807
:101EC0002948002949D05A438018838959188181AB
:101ED0000020FFF72DFC0DB0F0BD0422234904A81B
:101EE000891803F075F80522062114201D4D1E4E99
:101EF0006B7807AFD31A4B432A781D499B1843438D
:101F0000F3180F266E443800DB89327803F0A4F909
:101F1000184B06970593022305AF3A0004AF38002B
:101F200015490093013BFFF777F9FEF783FFFFF7B1
:101F3000BDF90522062114206B78D31A4B432A7869
:101F40009B184343084A3000D318997B2200230092
:101F5000FFF7D8F9094B1C70A2E75343C01803F0F0
:101F600053F8B8E7820E0020D80900203059000845
:101F7000AB640008B4640008C7640008CC09002002
:101F80000122F0B53C4B8BB01A700024FEF70AFC1E
:101F9000142528006043394BE1B2C0180134FFF723
:101FA00005FA242CF5D105260627354B58781B78E1
:101FB000301A7843C0180423C0B21A001900FEF783
:101FC000BBFBFEF7C5FBFFF7D3F9041E1AD00120B7
:101FD000FFF7AEFB05232A494A789A1A0133534387
:101FE0000A789B1814225343244AD218224B19789A
:101FF00093895B1A9BB29381002B01D1FFF74AFFB3
:102000000BB0F0BD04221F4902A8891802F0E0FFBE
:102010001B4D1A496B782A78F31A7B439B181422BC
:102020005343CB1814499B890A7805A8164903F035
:1020300013F9164B03A9039305AB049302230A007B
:1020400002A813490093013BFFF7E6F8FEF7F2FE02
:10205000FFF72CF96B782A78F31A7B439B1814222C
:102060005343064A0448D318197B01222300FFF783
:1020700049F9084B1C70A6E72F000020D809002062
:10208000820E002030590008CF640008D764000891
:10209000E5640008CC090020F0B5704B99B01A78BF
:1020A000002A75D16E4901321A7007328918052548
:1020B00003A802F08DFF06236A494A780978AA1A14
:1020C000534314225B185A43674B68499B18DA7ACA
:1020D000002A00D16649013A6A43664B09A89A185A
:1020E00003F0BAF8062314275E4C5F4E627862490B
:1020F000AA1A5A4323780EA8D2187A43921903F0E9
:10210000ABF8062163782278EB1A4B439B187B438C
:10211000F3189A89594913A803F09EF8062109AAD1
:10212000574B06920EAA079213AA0892059363785A
:10213000ED1A4D432378ED187D437519EA7A04238F
:10214000002A00D1023B4F4905AA03A800930123AE
:10215000FFF762F80025FEF76DFE1427FEF722FB5D
:1021600038006843E9B230180135FFF71FF9242D14
:10217000F6D105206378C31A013058432378C0187C
:102180000423C0B21A001900FEF7D6FAFEF7E0FAEF
:102190003D4B1A88962A28D900223C481A8042884A
:1021A0003B498A4243D92F4C6378042B01D8013331
:1021B000DBB26370038896204000834241D22948F5
:1021C0000178002901D00139C9B20170C8212D3A26
:1021D000FF3A92B209018A4204D82D3BFF3B9BB2E1
:1021E0008B4202D900221D4B1A70FFF7C1F800285C
:1021F0001BD005231B4C627821789A1A0133534374
:1022000014225B185A43184B9B18DB7A002B20D002
:10221000FFF7B6FE00231F4A637013701E4A237037
:1022200013700E4A13701D4A137019B0F0BD962337
:102230005B009A42BED20B4C6378002BB9D0013BB5
:10224000B6E78B42C2D9074801780429BDD80131CD
:10225000BAE70222124B1A70E7E7C0460C000020D2
:1022600030590008820E0020D80900206064000860
:10227000EA6400081466000868640008F264000854
:10228000FB640008E5640008BC090020B2090020D6
:10229000AC0D0000CC090020B00900207F0E00200A
:1022A000B8090020F0B5002506002C0085B002AF6B
:1022B00014206843794B3100C018FDF725FF002832
:1022C00001D10134E4B20135242DF1D121001420D3
:1022D00002F040FE0024724B78601C70714B1B783A
:1022E000A34219D8FFF744F86D4D061E32D00220E4
:1022F000FFF71EFA2B78002B0CD014216A4B022218
:1023000018787B68414359181131684802F060FE23
:10231000FFF736FEBD46F7BD604D31002800FDF7E2
:10232000F3FE00280FD12B7C013BA3420BD15C4B69
:1023300029001878421C1A70142358437B68142211
:10234000181802F045FE5A4B14359D42E5D1013470
:10235000E4B2C3E72B78002B32D0FEF7A7FF297831
:102360000223013932005048C9B2FEF7CBFF514B6E
:1023700034001E70FEF716FA14206043474BE1B29A
:10238000C0180134FFF712F8242CF5D1464B4A4906
:102390001A7814235A437B6809889A180523907C7D
:1023A000181A01334343507C1818FA23C0B25B005B
:1023B00099424BD201001000FEF7F8FFFEF7C8F972
:1023C0002B786D465A000B32D208D200AA1A9546D5
:1023D000002202AC2270A270334A0121127861708F
:1023E0000232E270142253436A460733DB08DB00F3
:1023F000D31A9D4602AB3B60294B1B789E422BD3E0
:1024000069469A000F32D208D2008A1A95462B49A3
:1024100002AA002B00D12A4911602A4910005160FC
:10242000142159433E6808307118B14232D101215C
:10243000002B01D00233D9B20091012320002249A0
:10244000FEF7EAFEFEF7F6FCAD464BE700231A0066
:102450001900FEF771F9B1E71420052170437B687C
:102460001A18D37A013B4B431849CB18396808181E
:10247000917C01310191517C01310091144902F0AC
:10248000EBFE01227300E3181A71B21C01365A7177
:10249000F6B2B1E740C01436C7E7C046D8090020FD
:1024A000BE090020800E00207F0E0020820E00203A
:1024B000A80C0020CC090020CE09002007650008E8
:1024C0001865000877630008316500081466000885
:1024D00024650008F0B52F4E8BB03378002B2BD13C
:1024E0002D4901331031022203A8337002F070FD30
:1024F0002A4B19680B78002B00D1294905AC200024
:1025000002F0AAFE049401242649230004AA03A889
:102510000094FEF781FE6B46597B187B06235843D7
:10252000C900033902385D2289B280B2DB180094F9
:10253000FEF7E9FBFEF77EFCFEF71AFF00280FD03E
:10254000194B164D1C78002C0CD11848FFF71AF8BF
:10255000347028602B681B785A1E9341124A1370FE
:102560000BB0F0BD01230024114F28683B70FFF72A
:1025700099FE28683C7002F021FD0E4B2C601C7007
:102580000D4B34701C705C700C4B1C700C4B1C7031
:10259000E0E7C0460C00002030590008C0090020C8
:1025A0003E6500084E6500087E0E00205465000858
:1025B000D0090020CC090020820E0020B0090020A4
:1025C0007F0E0020F0B591B006AE1422002130003D
:1025D00002F01AFD00235E4A13705E4B5F783C00E8
:1025E0005D4B5B780293A34213D2F37A002B04D1A4
:1025F00014223000594902F0EBFC029BBB422AD264
:10260000FEF7B6FE002862D00320FFF791F811B064
:10261000F0BD504B06221D7805231B1B5A43029226
:102620004D4B1B78AB4202D20134E4B2D8E71422FE
:10263000029B4B49EB185343C918CB7A002B02D0AD
:10264000300002F0C5FC424B414A1B780135013392
:102650001370EDB2E4E73F4B06221C780523DB1B29
:102660005A4303923C4B1B78A34202D20137FFB27C
:10267000C3E722222121039BE61802AB9B181B789B
:102680001D3AD31A0132534302AA521812789B18EA
:102690009E4210D0142213007343314D06A9ED1849
:1026A000280002F095FC2F4A6C741378AF74013344
:1026B000DBB213702B7414237343294E0134F618C4
:1026C000234BF2891B78E4B25343F381CAE7032218
:1026D00002AB18725A721E4B0BAC1A7822492000BA
:1026E00002F0BAFD012305AA0093204904A805942D
:1026F000FEF792FDFEF79EFBFEF754F8FA231C4A04
:102700005B0012889A421FD2124F7C78124B5B7882
:10271000A34202D2FEF71CF872E705231E1B013309
:102720005E433D78F6B20C4B1B78AB4202D20134CB
:10273000E4B2EBE70023701904221900C0B201359E
:10274000FDF7FAFFEDB2EEE7FEF72CF8E2E7C04640
:10275000780E0020D4090020D2090020640E002049
:10276000D8090020800E0020656500087565000806
:10277000CE090020F0B57B4B93B01B78002B67D1BE
:10278000784A7949013313701231062203A802F006
:102790001FFC764E76493378002B00D07549764C75
:1027A00008A8637822780133013202F055FD052331
:1027B000062214206178591A4A432178521850434E
:1027C0006E490918C87A6E49002800D16D49013850
:1027D00043436D48694FC31814204243D219907C7B
:1027E0000DAD01300190507C01300090280002F0C6
:1027F00033FD3278654B002A00D0654B059308AB5A
:1028000006930323634905AA03A80093023B079597
:102810001426FEF701FD0025FEF70CFBFDF7C2FFB5
:1028200030006843E9B238180135FEF7BFFD242DAA
:10283000F6D105206378C31A013058432378C018B5
:102840000423C0B21A001900FDF776FFFDF780FFE0
:10285000514B1A88962A28D9002250481A8042885B
:102860004F498A4238D9444C6378042B01D801334C
:10287000DBB26370038896204000834236D23E4824
:102880000178002901D00139C9B20170C8212D3A5F
:10289000FF3A92B209018A4204D82D3BFF3B9BB21A
:1028A0008B4202D900232F4A1370FEF761FD0028E6
:1028B00010D02E4D304C2E783A4F002E1ED10222D1
:1028C0002100380002F084FB264B1E702B785A4200
:1028D00053412B7013B0F0BD96235B009A42C9D2CE
:1028E000254C6378002BC4D0013BC1E78B42CDD986
:1028F000214801780429C8D80131C5E72A4E2100B2
:102900000222300002F064FB38783178031C8842E0
:1029100000D90B1C254A13707A787378161C9A42DA
:1029200000D91E1C214F7E70214E071C884200D208
:102930000F1C3770111C9A4200D2191C01237170B0
:102940001C4E3370FFF73EFE00231B4A337013709A
:102950001A4A63701370034A23701370184A137075
:10296000B4E7C0460C000020305900087D0E00205E
:10297000806500088E650008820E0020D8090020BE
:102980009A6500085964000814660008A7650008E5
:10299000BA65000875650008BC090020B20900206E
:1029A000AC0D00007B0E0020790E0020D409002021
:1029B000D2090020D0090020CC090020B009002055
:1029C0007F0E002010B5124988B00400062218318D
:1029D00003A802F0FDFA4A2060430E4B0E49C218CC
:1029E0000592020034301E32D218C018032306921A
:1029F0000790009305AA023B03A8FEF70DFCFEF723
:102A000019FAFEF7B5FC0028FBD008B010BDC0468F
:102A100030590008A80C0020CB650008F0B5424BE7
:102A2000424D1A78424EBDB0002A3DD101233E49A5
:102A300004AC0B702978A370023161700221E1703F
:102A4000C9186171C918E171C9182371A371237282
:102A50006172A372C9182373364F06332270E17274
:102A60006373327003923B78002B4BD1324B02AA36
:102A700008930FAB099352239B180A931EAB0B9339
:102A80008E239B180C932DAB0D93CA239B180E938A
:102A9000337820000133DBB22849009308AA0123D0
:102AA000FEF7BAFBFEF7C6F9FEF700FC3178022309
:102AB000013900222800C9B2FEF724FC204C2378FB
:102AC000002B0CD0012B06D100231E4A2B70137053
:102AD00053701D4A13700023134A23701370FEF7BE
:102AE00047FC00280CD02878FFF76CFF0023154A1C
:102AF000237013705370144A2B7013700A4A1370AA
:102B00003DB0F0BD1E20039B390058430FAB181891
:102B100002F0C2FB33784A3701333370039B013331
:102B20000393062B9FD1A1E70C0000207F0E00200D
:102B3000D1090020A80C002077630008D7650008A1
:102B4000CC090020820E0020B009002010B5FEF74D
:102B50009BF90B4802F06CF8FEF7BAFE002801D092
:102B6000FEF718FF0023074A1370074A13705370CB
:102B7000064A1370064A1370064A137010BDC04609
:102B800064050020CC090020820E0020B00900203E
:102B90000C0000207F0E002010B5034B034A1B7869
:102BA0009B009B589847F8E7B009002010000020D0
:102BB0008023026870B5DB059A424AD12D4C200073
:102BC00000F07EFA0A21200000F0C4FA200000F094
:102BD00025FB294D0A212880200000F0BBFA2000A7
:102BE00000F01CFB6880200000F096FA234A244D78
:102BF0001388013313802A78002A1CD0214C2388A3
:102C000001339BB22380012A09D1FA2149008B426A
:102C100020D2ED39FF39A020C00500F019FE2B7835
:102C2000022B08D12388182B19D80122A0200821B3
:102C3000C00500F00DFE144B144A1B78002B17D072
:102C4000FA20138800218000834201D2013399B217
:102C5000118070BD0022082122802A70DBE700224B
:102C6000312BE3D94A2BE0D9002222802A70DDE7FC
:102C70001380EEE71C040020B2090020BC090020EC
:102C8000B8090020B6090020D0090020CE09002094
:102C90000D4885460D480E490E4A002302E0D458DF
:102CA000C4500433C4188C42F9D30B4A0B4C002394
:102CB00001E013600432A242FBD3FEF79BFA02F05C
:102CC00059F9FDF7E3FDFEE7002000200000002099
:102CD0009C000020BC6600089C000020B40E002070
:102CE000FEE7000070B50500FA200D4B8000197852
:102CF000FDF728FA0B4B01001868FDF723FA00F0E6
:102D00001BFB04000120002C09D1032D07D8023839
:102D10002200290000F0DAFA2000034B1D6070BD8C
:102D20003000002008000020340000204023084A22
:102D300010B5116803200B431360FFF7D3FF041E87
:102D400003D1FEF767F9200010BD0124FBE7C04660
:102D500000200240034A044B11681B785B18136083
:102D60007047C046880E002030000020014B1868D4
:102D70007047C046880E002070B50400FFF7F6FFCC
:102D80000500631C02D0044B1B78E418FFF7EEFF2C
:102D9000401BA042FAD370BD30000020084B13B591
:102DA000040008491868FDF7CDF944430194019BDC
:102DB000002B00D113BD019B013B0193F7E7C046F7
:102DC0000800002040420F000321036870B5040092
:102DD00098680840012801D0002070BD1A6802429E
:102DE000FAD005229D681540012D1DD19868033A3F
:102DF00002439A601960FFF7B9FF060023689B68D9
:102E00002B42E9D0FFF7B2FF801B0A28F6D92368CE
:102E10009B682B42F2D01023626D0120134363653F
:102E2000A36D1D43A565D8E71023626D1343636549
:102E3000A36D0343A365D0E70321036870B59A68C7
:102E400004000A40012A04D11968114201D000206F
:102E500070BD9968154A114208D010230120626D97
:102E600013436365A36D0343A365F1E701259A68E6
:102E700028002A439A60FFF791FFFFF777FF0600CB
:102E800023681B682B42E2D1FFF770FF801B0A28E2
:102E9000F6D923681B682B42F2D11023626D012002
:102EA00013436365A36D1D43A565D1E7170000803B
:102EB0000422036870B599680400114201D1002012
:102EC00070BD9968114206D09A68920703D4102207
:102ED00099680A439A60FFF749FF042605002368B2
:102EE0009B683342EBD0FFF741FF401B0A28F6D91D
:102EF00023689B683342F2D010230120626D134394
:102F00006365A36D0343A365DAE7000070B50400B1
:102F10000120002C1BD0636D002B06D12200503203
:102F2000A36520001370FEF783F8636DDB0606D4FB
:102F300023680422996808001040114208D0102329
:102F4000626D01201343636500235034237070BD0C
:102F5000626D5549114002220A4362650322996855
:102F60001140524A012902D11D680D4219D1802613
:102F70006168F6054D006D08B54203D080252D0629
:102F8000A94276D11D69AD00AD081D611D692943B7
:102F900019611825D968A943D960D968A56829435A
:102FA000D9601168424D29401160616B156849066E
:102FB00029431160802299685205114202D1996813
:102FC0000A439A60DA683B490A402169DA60DD68A1
:102FD000E268022900D10420266B611C32432A4397
:102FE000A569C97FAD032A43E569ED032A434D0373
:102FF0002A4325002C352D786D002A430243C22038
:10300000DA60626AFF30824204D0A56AD8682A4337
:103010000243DA60A21CD27F012A06D1002934D1F2
:103020008022D96852020A43DA60E16B1A690129E9
:1030300033D12148656C02401A61226C18692A4319
:10304000A56C2A4302431A611A69114319610721C9
:103050005A6900208A435A615A69A16B0A435A612E
:103060000322A065636D93431A0001231343636534
:103070006DE71D69114EAD00AD081D611568354045
:10308000156015682943116083E72021606D0143B5
:103090006165A16D0A43A265C7E701210A42D6D046
:1030A0001A698A431A61D2E7FDFEFFFF0827014033
:1030B000FFFFFFFD1902FEFF03FCFFFFFFFFC3FF41
:1030C000036870B59B68040002205B071AD42500D2
:1030D00050352B78012B15D001232B70E369012B80
:1030E00011D1636D0B4A00201A4080235B0013430B
:1030F0001C226365A065287023681A609968183AD5
:103100000A439A6070BD2000FFF796FE0028E8D0C1
:10311000F8E7C046FEF0FFFF70B506005036337882
:1031200004000220012B12D0012520003570FFF78A
:10313000BFFE002809D12000FFF746FE002804D179
:10314000636D034A13401D4365650023337070BDF2
:10315000FEFEFFFFF8B5456904000E00082D0DD0F6
:1031600003680120DB680C25034207D02023626D31
:1031700050341343636000232370F8BDFFF7F6FD5E
:10318000070023681A68154224D08022616D9200DE
:103190000A436265C022D9681201114213D1621C30
:1031A000D27F002A0FD11A6812070CD59A685207ED
:1031B00028D40C215A688A435A60626D164911401E
:1031C00001220A4362650020A2698242D5D10C2205
:1031D0001A60D2E7721CD5D0002E0DD12A002368C8
:1031E0001B681A401D42CCD10423616D50340B433F
:1031F000636003202270C0E7FFF7B8FDC01BB04238
:10320000ECD8BEE72022616D0A4362650122A16D00
:103210000A43A265D7E7C046FEFEFFFF0368186CAD
:1032200070470000F8B504005034227803000D0008
:103230000220012A0BD0013820701A6891684907D2
:1032400006D52022596D0A435A6500232370F8BD24
:1032500080232868194E6F684103DB02490B034045
:10326000B74219D0906A01439162002B08D08023A5
:10327000134A1B0411680A200B431360FFF78EFDED
:103280002B689B0305D580230D4ADB0311680B4394
:10329000136000202070DAE7956A8D439562002B59
:1032A00004D0074A074913680B4013608303F0D525
:1032B000034A054913680B40EAE7C04601100000C5
:1032C00008270140FFFF7FFFFFFFBFFF30B5FF254D
:1032D00003242A000440E400A24089012940D2438B
:1032E000A140C3B200280ADBC0240B4B8008800039
:1032F000C018A40003591A401143015130BD0F20DA
:103300000340083B05489B089B001B18D8690240F6
:103310001143D961F2E7C04600E100E000ED00E0B2
:10332000002805DB1F2318401E3B8340014A136021
:103330007047C04600E100E08022431E5204012095
:1033400093420DD2C021074A07485360036A090619
:103350001B021B0A0B4303620020072390601360CB
:103360007047C04610E000E000ED00E0F8B5040052
:103370000120002C35D025681A4B1421E818FCF7E1
:10338000E1FE194B800023640223A21D6064D37701
:103390002E68164BA1681E40E36827690B433B4328
:1033A00067693B43A7693B43E7693B43276A3B4364
:1033B00033432B608023DB0199420CD01C2528402D
:1033C0000D3D85400A490B68AB430B6063680D688F
:1033D00083402B430B6000200123E0630534D37747
:1033E000E077F8BDF8FFFDBF000002400F80FFFF4F
:1033F000A8000240F7B5451D0193EB7F04000220B1
:10340000012B29D00123A71DEB77FB7F00269C46CB
:103410006046DBB201282AD10130F8772068E663E4
:10342000676C05681C363E409D43B3400560256CC3
:103430006B60019B4360A368102B0ED18260C1605A
:10344000236B002B0CD00E2302681343036001236F
:103450000268134303600020FEBD8160C260EFE795
:10346000042203689343036002680A23EDE7022005
:10347000EE77F1E7F8B51C220427466C016C324068
:103480003E0096400D6803681C6835420DD03C42F2
:103490000BD01A68920602D41A68BA431A60036BFA
:1034A0004E60002B19D0984717E002273E00964047
:1034B000354213D03C4211D01A68920606D40A2431
:1034C0001A68A2431A600122831DDA770022431D85
:1034D0004E60DA77C36A9342E5D1F8BD082637001B
:1034E00097403D42F9D03442F7D00E251C68AC43DA
:1034F0001C6001231C009440821D4C60C363D37781
:103500000022431DDA77436BE5E70000284A80215B
:1035100090694900030030B50B40084205D00223F2
:1035200024484469234343610B0080209169800053
:10353000014205D001211F4C0343656929436161A4
:1035400080209169C000014205D00821194C034335
:10355000656929436161802091690001014205D0BC
:103560000421144C034365692943616180209169FA
:103570008001014205D010210E4C034365692943A7
:1035800061619169890305D520200A4C0343616973
:1035900001436161802091694002014205D04021D0
:1035A000044C0343656929436161936130BDC046A2
:1035B000002002408C0E002070B50400FFF7D6FBFF
:1035C00001260500184B9A69324221D102229969DD
:1035D000114200D09A619A69D20515D49A69920570
:1035E00012D49A6952050FD49A6912050CD49A69BB
:1035F000920409D499698022080092021040114275
:1036000002D19B69DB0308D5FFF780FF012004E0AE
:10361000621CD8D0002C01D1032070BDFFF7A6FB9F
:10362000401BA042CED9F7E7002002400122084B00
:103630000020596811420AD0EFF3108172B6054894
:10364000D8600548D86081F31088586810407047EA
:1036500000200240EFCDAB89050403020123034A99
:10366000002051680B4353607047C0460020024061
:10367000F8B5124F06003B7C0D0014000220012B10
:103680000CD001230E483B74FFF796FF002803D1AE
:103690007861022E03D12C6000233B74F8BD012E0B
:1036A00002D1A4B22C80F7E7002E03D00448FFF724
:1036B00083FFF1E7E4B22C70EEE7C0468C0E0020E9
:1036C00050C30000584AF0B58218541EA24100238E
:1036D00087B0053203910592039A12681400DC400A
:1036E00001D107B0F0BD01210D0014009D402C4018
:1036F0008C4602942A4200D194E00324039A5E008F
:10370000526801922240B440E143541E0491644542
:103710002AD887680F400399CC680199B4403C438C
:1037200084604468AC4325000C0961460C409C4011
:103730002C434460C56804990D4003998C68B440DB
:103740002C43C460022A11D107250F211D40AD0072
:10375000A940DC08A4000419276A8F43039909696A
:10376000A9400F43276201E0032AE3D1B240046875
:10377000049921400A430260C02201999202114239
:1037800050D00127294C0326626B1D003A43626327
:10379000274A9C08A400A418A268354094460F222A
:1037A000AD00AA4061469143A022D2059446002272
:1037B00060450DD01F4A94463A00604508D01E4F20
:1037C0009218B84204D01D4F3200B84200D0059A7A
:1037D000AA400A430299A2600D00194ACC43166818
:1037E00001993543C90301D4350025401560566859
:1037F000029D01993543890301D435002540556068
:103800009668029D01993543C90201D435002540CF
:103810009560D568029E01992E43890201D4254006
:103820002E00D660013357E700E4FFAF00100240DE
:10383000000001400004005000080050000C00503F
:103840000004014000690840431E9841C0B270471F
:10385000002A01D0816170478162FCE703689A69A0
:10386000920701D500229A6201229969114202D180
:1038700099690A439A61704730B5039C1204006845
:1038800022431A43054B45688905640D890D1C4385
:10389000A5430A432A43426030BDC046FF63FF038D
:1038A000F8B5036816009A6904000D000020D206DE
:1038B00036D55A68920104D480225968D2010A434D
:1038C0005A60202723689A693A4212D010222000B9
:1038D000DA61DF61FFF7C2FF2268124953680B40CB
:1038E00053600423626C13436364230041331F70ED
:1038F0000FE06A1CE7D0FFF739FA801B854201D33D
:10390000002DDFD12022636C134363642300413315
:103910001A702200002301204232403413702370B9
:10392000F8BDC04600E800FEF8B504000D00160022
:10393000022723689B693B4201D00020F8BD32007A
:1039400029002000FFF7ACFF002815D16B1CF0D038
:10395000FFF70CFA801BA84201D8002DE9D12022E4
:10396000636C13436364230041331A702200002305
:1039700042324034137023700120DFE7F8B50400B1
:103980000D0016002027042223689B69134211D1E1
:10399000320029002000FFF783FF002819D1236897
:1039A0009A693A4217D004219A690A4204D0228DBA
:1039B000002A01D00020F8BDDF615A680E490A4094
:1039C0005A60220000234132636417704034537000
:1039D00023700120EFE7FFF7C9F9801BA84201D847
:1039E000002DD0D12022636C134363642300413344
:1039F0001A7040340023EBE700E800FEF8B504003D
:103A00000E0017001D002268936933409B1B59422A
:103A10004B41BB4201D0002017E06B1CF4D0FFF7F4
:103A2000A5F9069BC01AA84201D8002DEBD120228F
:103A3000636C012013436364230041331A70220036
:103A400000234232403413702370F8BDF8B50400EF
:103A50000D001600202723689B693B4201D00020FF
:103A6000F8BD320029002000FFF71AFF002813D10B
:103A7000FFF77CF9801BA84201D8002DEBD1202252
:103A8000636C13436364230041331A7022000023E4
:103A900042324034137023700120E1E770B5040016
:103AA0000120002C3FD0250041352B78DAB2002BC5
:103AB00005D12300403320001A70FDF7E1FA2423DA
:103AC00001212B7023681D481A68A6688A431A6072
:103AD00061681B4A0A401A619A6802409A60E2686B
:103AE000012A21D180210902314399605A68154980
:103AF00011435960DA6861690240DA602269002086
:103B00000A43A16909020A43DA60216AE2690A43A9
:103B10001A60012219680A431A60202360642B701E
:103B200020634234207070BD8421090231439960C2
:103B3000022ADBD1802212015A60D7E7FF7FFFFF04
:103B4000FFFFFFF000800002F0B587B0059303008F
:103B50004133049203931B7804000F000220202BB2
:103B600014D1230040331A78012A0FD001261E7089
:103B7000FFF7FCF880210500009019233200200097
:103B80000902FFF73BFF002802D0012007B0F0BD7B
:103B900021232600039A42361370113B3370049B95
:103BA00060646362059B60636385628D2D4BFF2AB1
:103BB00020D9FF222285009380235B043900200056
:103BC000FFF75AFE638D2A0020000C99002B19D1B3
:103BD000FFF73CFF0028D8D120212368224DD9616E
:103BE0005A682A405A6023004034413319703070BB
:103BF0002070CBE7628D92B22285D2B200938023EF
:103C00009B04DBE7FFF790FE0028BED1636A2268C1
:103C10001978013391626362638D228D013B9BB2FF
:103C20006385013A638D92B22285002BCAD0002AA7
:103C3000C8D1802120000C9B0095FFF7DFFE0028F3
:103C4000A3D1638DFF2B06D9FF2323858023FF2279
:103C500000905B04B2E7628D92B22285D2B20090EE
:103C6000CDE7C0460020008000E800FEF0B587B038
:103C7000059303004133049203931B7804000F0063
:103C80000220202B14D1230040331A78012A0FD0B0
:103C900001261E70FFF76AF88021050000901923A5
:103CA000320020000902FFF7A9FE002802D00120FF
:103CB00007B0F0BD22232600039A42361370123B50
:103CC0003370049B60646362059B60636385628DEF
:103CD0002D4BFF2A20D9FF222285009380235B04ED
:103CE00039002000FFF7C8FD638D2A0020000C99E1
:103CF000002B19D1FFF7AAFE0028D8D12021236874
:103D0000224DD9615A682A405A6023004034413319
:103D1000197030702070CBE7628D92B22285D2B2DA
:103D2000009380239B04DBE7FFF728FE0028BED129
:103D30002368626A5B6A1370636A228D013363626F
:103D4000638D013A013B9BB26385638D92B22285FC
:103D5000002BC9D0002AC7D1802120000C9B0095E0
:103D6000FFF74CFE0028A2D1638DFF2B06D9FF235D
:103D700023858023FF2200905B04B1E7628D92B21D
:103D80002285D2B20090CCE70024008000E800FE3B
:103D9000F0B51E00002389B007930300059241335C
:103DA0001A7804000225202A5BD1026897698022D4
:103DB000380012021040174253D1220040321778C7
:103DC000012F4ED0013D1570242289051A708B0DEC
:103DD00060640493E368012B2BD13E4B049A134398
:103DE00022685360FEF7C2FF0390012223689D6999
:103DF0009B696D091B09154013401D431CD02368A6
:103E000010279B691A003A403B422DD1039B202189
:103E1000009320003300FFF7F1FD002821D120237B
:103E200022680500D36122004034413213702070B3
:103E300017E0A0239B01D1E7731CD6D0FEF796FFB5
:103E4000039BC01AB04201D8002ECED122002023FD
:103E500041321370626C01251343636400234034C4
:103E60002370280009B0F0BD039B0022009320219D
:103E700033002000FFF7C2FD021EF2D1236805982F
:103E8000DF612027DF61079981420FD180215868C7
:103E9000C90101435960039B39000093200033009E
:103EA000FFF7ACFD0028DCD12368DF61079B059A92
:103EB00001330793079B934200D28BE72200202314
:103EC00041321370626C40341343636000232370EB
:103ED000C7E7C04600200002F0B504004134227854
:103EE00003000F000220D6B2202A18D11D00403551
:103EF0002A78012A13D0242222701B68233A1968D9
:103F00000748914319601968014000201960196839
:103F10003943196019680A431A6026702870F0BD89
:103F2000FFEFFFFF0200F0B5413214780300E5B265
:103F30000220202C17D11C0040342678012E12D0EC
:103F4000223010701B6823381E68074F86431E609E
:103F50001E6809023E403143196019680843186021
:103F6000002015702070F0BDFFF0FFFF0C221D4BEC
:103F700070B5DC682240082A31D00C2A09D0042A06
:103F800025D11868184BC006C0171840174BC01829
:103F900070BDA2021648120F805C80222402D968EC
:103FA000A40F52020134114209D0124A0023002109
:103FB000FCF774F922000023FCF750F9E8E71A68CF
:103FC00010231A4201D00C4AF0E7084AEEE780209D
:103FD0005B6800021B045B0F01339840D8E705487B
:103FE000D6E7C0460010024000E548FF0024F40078
:103FF0005063000800127A0000093D00F0B505008A
:1040000085B000285AD00C23BE4C0268E668E768E9
:104010001E4080235B0219001F40D20742D42B6848
:104020009B0700D58BE02B68DB0629D5002E00D03E
:10403000DCE023689B0502D5EB69002B3ED062686B
:10404000B1496B6A0A401A43626061682A6A0902D0
:10405000090A12060A43626080225B0B01331202D6
:104060009A401300E1680A06A849120F8A5CD340FF
:10407000A74A1360A74B1868FEF734FE002834D116
:104080002B681B0700D5E8E02B685B0700D50AE129
:104090002B689B0600D58EE1AB6A002B00D0BDE1FA
:1040A000002022E0082E03D00C2E09D1002F07D0CB
:1040B00023689B03B3D56B68002BB0D1012014E0BB
:1040C0006A688A4213D1226813432360FEF74EFECA
:1040D00000908022236892021342A0D1FEF746FE90
:1040E000009BC01A6428F4D9032005B0F0BDA021BC
:1040F000C9028A4205D180222168D2020A43226085
:10410000E1E7216884480140216021680B40039366
:10411000039B824923680B402360002AD6D1FEF717
:1041200025FE0090802223689202134200D176E798
:10413000FEF71CFE009BC01A6428F3D9D4E7EA6896
:10414000042E03D00C2E24D1002F22D123685B072C
:1041500001D5002AB2D061682B6971481B02014069
:104160000B430921636023688B4313432360FFF7EC
:10417000FDFEE368654A1B061B0FD35CD840644B09
:104180001860644B1868FEF7ADFD002800D14AE7BF
:10419000ABE72368002A18D009218B43134323601F
:1041A000FEF7E4FD070004222368134207D062688B
:1041B0002B695B491B020A401343636033E7FEF738
:1041C000D5FDC01B0228EED98EE701229343236060
:1041D000FEF7CCFD070004222368134200D122E73A
:1041E000FEF7C4FDC01B0228F5D97DE7EB69002B63
:1041F00020D0802322685B0013432360FEF7B6FDC6
:10420000070080222368920013420DD063683E4A63
:1042100013406A6A1343636062682B6A12021B06CA
:10422000120A134363602BE7FEF7A0FDC01B0228B0
:10423000E7D959E723683B4A13402360FEF796FD10
:104240000700802223689200134200D118E7FEF78E
:104250008DFDC01B0228F4D946E76A690123002AB4
:1042600010D0226D13432365FEF780FD0700022264
:10427000236D134200D007E7FEF778FDC01B02282C
:10428000F5D931E7226D9A432265FEF76FFD0700ED
:104290000222236D134200D1F6E6FEF767FDC01B34
:1042A0000228F5D920E780230021A26B5B0500914D
:1042B0001A4204D1A26B1343A3630123009380220B
:1042C000194F52003B68134208D08022AB6852005D
:1042D00093422BD1226D134323654CE080223B682F
:1042E000520013433B60FEF741FD019080223B6882
:1042F00052001342E9D1FEF739FD019BC01A642830
:10430000F4D9F1E600100240FF1FFFFF40630008F0
:104310000800002034000020FFFFFEFFFFFFFBFF2E
:10432000FFE0FFFFFFFEFFFF00700040002B16D1F3
:10433000236D6B4A13402365236D6A4A134023653E
:10434000FEF714FD07008022236D920013421AD05D
:10435000FEF70CFD644BC01B9842F4D9C4E6A021C3
:10436000C9008B4218D18023216DDB000B432365EC
:10437000236D1A432265FEF7F9FC07008022236DA6
:104380009200134210D0009B012B00D080E6A36B5B
:10439000564A1340A3637BE6236D514A13402365BD
:1043A000236D504A134097E7FEF7E0FC4E4BC01BCD
:1043B0009842E3D998E6A96901234D4A002918D00B
:1043C000A1681943A160616B0B4363638023116A89
:1043D0009B010B431362FEF7C9FC07000222A3688E
:1043E000134200D058E6FEF7C1FCC01B0228F5D9E5
:1043F0007AE6A1689943A160136A3E490B401362B3
:10440000FEF7B4FC07000222A368134200D143E682
:10441000FEF7ACFCC01B0228F5D965E60C2E43D094
:10442000354A022B2ED12368802713402360FEF7E4
:104430009DFC0600BF0423683B421DD1296BEB6A3B
:10444000E2680B432D4980260A4013436A6BB60489
:104450001343E360802322685B0413432360FEF769
:1044600085FC05002368334200D019E6FEF77EFC88
:10447000401B0228F6D937E6FEF778FC801B02289D
:10448000D9D931E62368802613402360FEF76EFCFD
:104490000500B6042368334200D101E6FEF766FC4E
:1044A000401B0228F6D91FE61800012B00D11CE69C
:1044B0008022E368E96A52021A408A4200D0FDE590
:1044C000F022296B92031A408A4200D0F6E5C022FE
:1044D000120413406A6B934200D1E1E5EEE5C04659
:1044E000FFFEFFFFFFFBFFFF88130000FFFFFFEF52
:1044F00000000140FFDFFFFFFFFFFFFEFFFF02FFA5
:10450000F7B5041E019101D10120FEBD01255B4ECE
:10451000019A33682B40934231D32268930743D4E6
:10452000D30749D401253368019A2B40934209D916
:104530003368AB433360FEF719FC070033682B4246
:1045400000D08CE022684E4D530700D58FE0130752
:1045500006D5E96823694B4ADB000A401343EB6048
:10456000FFF704FDEB68484A1B061B0FD35CD840DD
:10457000464B1860464B1868FEF7B4FBC5E7336836
:10458000019AAB4313433360FEF7F0FB0700336837
:10459000019A2B409342C0D0FEF7E8FB3D4BC01B75
:1045A0009842F4D90320B0E7F0203549CB68834323
:1045B000A0680343CB60B3E7314D62682B68022AE1
:1045C00018D19B03A0D50321EB688B431343EB6009
:1045D000FEF7CCFB63680700022B18D10C22EB68B6
:1045E0001340082B9ED0FEF7C1FB2A4BC01B9842FC
:1045F000F4D9D7E7032A02D19B01E4D484E7012A46
:1046000002D15B07DFD47FE79B05DCD47CE7032B7B
:104610000BD10C22EB681340934283D0FEF7A6FB2C
:104620001C4BC01B9842F4D9BCE7012B11D00C22C3
:10463000EB68134200D175E7FEF798FB154BC01BE2
:104640009842F4D9AEE7FEF791FB124BC01B98429B
:10465000A8D80C22EB681340042BF4D162E7FEF7D4
:1046600085FB0C4BC01B984200D867E79AE7EB68C4
:1046700009490B40E1680B43EB6068E7002002400A
:1046800000100240FFC7FFFF406300080800002041
:104690003400002088130000FFF8FFFF0368F7B51F
:1046A00005009B063CD5802300215A4C5B05A26B7C
:1046B00000911A4204D1A26B1343A3630123009318
:1046C0008027554E7F0033683B4262D06A68C02322
:1046D000C0201600216880039B021E40024001405A
:1046E0008A4267D1226D110019401A426AD1696865
:1046F000C0230A009B021A409A4207D12368474808
:104700000340C020800301400B432360236D1A4304
:10471000009B2265012B03D1A36B414A1340A36385
:104720002B68DA0706D503203A49CA6C8243A86889
:104730000243CA649A0706D50C203649CA6C8243E4
:10474000E8680243CA645A0706D532493548CA6C3C
:10475000024028690243CA641A0706D52D49324827
:10476000CA6C024068690243CA645A0606D52949E0
:104770002E48CA6C0240E8690243CA6400201B0646
:1047800017D5244A2A49D36C0B40A9690B43D3643B
:104790000FE033683B433360FEF7E8FA019033687B
:1047A0003B4293D1FEF7E2FA019BC01A6428F6D986
:1047B0000320FEBD9E4295D122680120920300D4C1
:1047C00090E7F6E7B14200D191E72B689B0600D451
:1047D0008DE78022216D206D120302432265226D38
:1047E000144B15480B40024022652365CB0500D4CD
:1047F0007DE7FEF7BBFA80270600BF00236D3B4232
:1048000000D074E7FEF7B2FA0C4B801B9842F5D942
:10481000CEE7C0460010024000700040FFFFCFFF0F
:10482000FFFFFFEFFFF3FFFFFFCFFFFFFFFFFFFBE8
:10483000FFFFF3FFFFFFFCFFFFFFF7FF8813000000
:10484000F0B51D00170085B00E000400FEF78EFACB
:10485000ED192D1AFEF78AFA254B01901B685B01B2
:104860001B0D6B4322680393936833409E4201D033
:10487000002032E07B1CF7D0FEF778FA019BC01ACB
:10488000A8422CD3E02123685A688A435A608222C6
:104890006168520091420CD18021A26809028A42CB
:1048A00003D08021C9008A4203D140211A688A437B
:1048B0001A608021A26A89018A4206D119680D48CE
:1048C0000140196019680A431A602300012251331C
:1048D0001A70002303205034237005B0F0BD039BF1
:1048E0005A1E93415B421D40039B013BBAE7C04601
:1048F00008000020FFDFFFFF164B73B504000D001A
:10490000186815491600FBF71DFCFA239B0043436A
:1049100001938223616880225B0099420DD13300AC
:104920002A0080212000FFF78BFF00280FD02023D2
:104930000320626D1343636576BD019B002B06D097
:10494000019B013B019323689B681342F5D1002032
:10495000F2E7C0460800002000366E01F8B50400FA
:104960000120002C54D0636A002B52D1822261684E
:104970005200914200D0E36100232500A36251352B
:104980002B78DAB2002B05D12300503320001A70A7
:10499000FCF7A4FB022040222870216866680B689F
:1049A000A76893430B6082235B0033408426360262
:1049B0003E4033438026E76836013E403343266954
:1049C000A2693040012603436069E7693040034330
:1049D000802080001040034338203840034380206B
:1049E000276A120C384003438020A76A80013840B0
:1049F00003430B600423606A1A400C330340002019
:104A00001A434A60CB69054A1340CB6160652E703A
:104A1000F8BD002323616361AEE7C046FFF7FFFFE7
:104A2000F8B506005036337804000225012B3ED03D
:104A300001230700337051373B78DDB2012B4AD197
:104A4000002932D0002A30D002333B700023436566
:104A50008363C286436403648387C387802382861B
:104A60000163026880681B02984208D140201368E5
:104A70008343136080231068DB0103431360A06C41
:104A8000164B0C320363164BC362164B4363002371
:104A90008363E38E9BB2FEF7ADFC002809D01023A0
:104AA000626D1343636501233B700023337028005C
:104AB000F8BD402223681968114202D119680A43DF
:104AC0001A602022596800250A435A600222596858
:104AD0000A435A60E9E70225E7E7C046ED4A0008C5
:104AE0001D4B0008F94A00087047704710B5806AEE
:104AF000FFF7FBFF10BD70470321806A10B5026805
:104B000053688B4353601023426D13434365030086
:104B1000012251331A70FFF7EEFF10BD37B50500C3
:104B2000846AFEF723F92B6820251B6802002B42BC
:104B300027D1022023685968A943596059688143E5
:104B4000596020006421FFF7D7FE002802D0636D72
:104B50001D436565A368002B06D101932368DA68BD
:104B600001929B680193019B0023E38623000122AD
:104B700051331A70636D002B03D02000FFF7BBFF89
:104B800037BD2000FFF7B0FFFAE70000802210B524
:104B90000368D205904205D0104CA04202D0104CC0
:104BA000A0420FD17024A3434C682343904205D008
:104BB0000A4A904202D00A4A904203D1094A13405D
:104BC000CA681343802293430A69134303608B68C6
:104BD000C3620B6883620123436110BD000801407A
:104BE00000140140FFFCFFFF70B504000120002C01
:104BF0001DD0250039352B78DAB2002B05D12300E2
:104C0000383320001A70FCF7AFFA02232B702068AB
:104C1000211DFFF7BBFF2200012300203E3213704D
:104C20003D34043A13705370937023702B7070BD31
:104C300002000300012039321178814219D102218A
:104C400011701B68DA680243DA608022D205934251
:104C500005D00B4A934202D00A4A93420AD1072157
:104C60009A6800200A40062A03D0012219680A43E4
:104C70001A6070471A68104318600020F9E7C046B0
:104C80000008014000140140F0B50500022238354B
:104C90002C7803001000012C1DD01E000124393691
:104CA0002C7032701B684C489A6802409A600A68FF
:104CB000602A5FD032D8402A00D174E014D8202A6C
:104CC0000CD009D810211000884307D02000012300
:104CD000337000232B70F0BD302AF7D17020996813
:104CE00081430A43072132E0502AEFD11F6A1A6A32
:104CF0004868A243F024C9681A629A69A243140062
:104D00000A010A218F433900224301439A61196243
:104D100070219A688A431100572218E080270020EA
:104D20007F01BA42D3D080208001824213D020007C
:104D3000702ACCD19A6829484C6810408A68C968A2
:104D4000224309020A4302439A60772299680A4380
:104D500000209A60BBE79A6820484C6810408A6837
:104D6000C968224309020A4302439A608022996873
:104D7000D201ECE74868CF6810211A6A184C8A43C0
:104D80001A6299691A6A2140A024A24314003F03C1
:104D9000394399617021020122431A629A688A4359
:104DA00011006722D3E71F6A1A6A4868A243F024F9
:104DB000C9681A629A69A24314000A010A218F4342
:104DC0003900224301439A61196270219A688A432B
:104DD00011004722BBE7C0468800FFFFFF00FFFF2E
:104DE000FF0FFFFF7047704770477047022203684C
:104DF00010B51969040011420DD0D96811420AD0CA
:104E0000053A1A61043202769B699B075ED0FFF770
:104E1000EAFF00232376042223681969114210D087
:104E2000D96811420DD0093A1A61073222769A697F
:104E3000C0239B0020001A424ED0FFF7D4FF00236E
:104E4000237608222368196911420ED0D9681142CD
:104E50000BD0113A1A610D322276DB6920009B07D4
:104E600040D0FFF7C0FF0023237610222368196982
:104E7000114210D0D96811420DD0213A1A6119326D
:104E80002276DA69C0239B0020001A4230D0FFF757
:104E9000AAFF00232376012223681969114207D053
:104EA000D968114204D0033A20001A61FDF780FE50
:104EB000402223681969114207D0D968114204D0F1
:104EC000813A20001A61FFF790FF10BDFFF78AFFBB
:104ED0002000FFF789FF9CE7FFF784FF2000FFF722
:104EE00083FFACE7FFF77EFF2000FFF77DFFBAE707
:104EF000FFF778FF2000FFF777FFCAE770B50400DF
:104F000002223834257803001000012D1DD01D0029
:104F1000702639352A701B6858689A68B0430E6845
:104F2000304358608020C005834205D00748834243
:104F300002D00748834204D18020496882430A4353
:104F40009A60012300202B70207070BD0008014082
:104F50000014014010B5034B0A000100186800F06E
:104F60005BF810BD38000020014B18687047C04640
:104F70003800002070B500260C4D0D4C641BA410A9
:104F8000A64209D1002600F0C7FC0A4D0A4C641B5A
:104F9000A410A64205D170BDB300EB589847013666
:104FA000EEE7B300EB5898470136F2E7B466000825
:104FB000B4660008B4660008B866000810B5034B74
:104FC0000100186800F054F810BDC04638000020F9
:104FD000002310B59A4200D110BDCC5CC4540133FB
:104FE000F8E710B5884202D98B18984203D3002302
:104FF00007E08B5C8354013AFBD210BDCC5CC454F7
:1050000001339A42FAD1F8E703008218934200D1A3
:10501000704719700133F9E770B5130C0D0C1ED1F0
:10502000002B0CD189B294B24C43210000F08CF8D3
:10503000051E1BD022000021FFF7E6FF16E01D1C15
:105040000B1C92B289B29CB25143ABB263430C0CBD
:105050001C19220C07D1240489B20C43E5E7002B6C
:1050600001D1131CEDE70C2300250360280070BD5F
:1050700070B50500002910D00C1F2368002B00DA42
:10508000E418280000F010F91D4A1368002B05D120
:1050900063601460280000F00FF970BDA34208D9C6
:1050A000216860188342F3D118685B684118216059
:1050B000EEE71A005B68002B01D0A342F9D9116812
:1050C0005018A0420BD12068091850181160834273
:1050D000E0D118685B68411811605360DAE7A042BC
:1050E00002D90C232B60D5E721686018834203D1D5
:1050F00018685B684118216063605460CAE7C04665
:10510000A40E002070B50F4E0D0031680400002978
:1051100002D100F08FF830602900200000F08AF8FA
:10512000431C0AD00323C51C9D43A84207D0291A5B
:10513000200000F07FF8431C01D101256D422800BA
:1051400070BDC046A80E0020F7B50322CB1C9343C8
:10515000083306001F000C2B32D20C27B94231D87D
:10516000300000F0A1F8324D2B681C00002C2ED12D
:1051700039003000FFF7C6FF0400431C1ED12C6825
:105180002500002D4AD123682900E318300001933F
:1051900000F050F8019B834243D123680337FF1A84
:1051A00003239F4308370C2F00D20C27390030000F
:1051B000FFF7A8FF431C34D02368DF19276013E0F2
:1051C000002BCBDA0C23002533602800FEBD2268BB
:1051D000D11B20D40B2917D9E2192760A34211D182
:1051E0002A606368116053603000250000F064F8A5
:1051F00007220B35231D9543EA1A9D42E5D05B1B20
:10520000A350E2E75A60ECE76268A34201D12A604A
:10521000EAE75A60E8E723006468A7E72C006D68B6
:10522000AFE70C233000336000F046F8CDE7C0460E
:10523000A40E0020002370B5064D040008002B606A
:10524000FBF7B8FF431C03D12B68002B00D0236071
:1052500070BDC046AC0E00200EB400B50B499CB02A
:105260001DAB02900690079104910948094904CBAF
:105270000591006802A9019300F088F80023029AC2
:1052800013701CB008BC03B01847C046FFFFFF7F77
:10529000380000200802FFFF03000A7801311A706D
:1052A0000133002AF9D1704710B5024800F0F0FA36
:1052B00010BDC046B00E002010B5024800F0E9FA5B
:1052C00010BDC046B00E0020F0B58E6885B0070056
:1052D0000C00039201939E423CD890238A89DB0004
:1052E0001A4234D00969236860695B1A0293032368
:1052F0004343DD0FED18019B029801331B186D101D
:10530000AB4200D91D00530532D529003800FFF704
:105310001BFF061E09D10C233B6040230120A289FC
:1053200040421343A38105B0F0BD029A2169FFF703
:105330004FFEA389144A1A4080231343A381029B82
:105340002661F61826606561019EED1AA560019B35
:105350009E4200D9019E320003992068FFF741FE6A
:10536000A36800209B1BA36023689E192660DAE7D0
:105370002A00380000F099FA061EE0D138002169B1
:10538000FFF776FEC7E7C0467FFBFFFFF0B5A1B091
:1053900003901D008B890F0016001B0611D50B69A9
:1053A000002B0ED14021FFF7CFFE38603861002876
:1053B00005D10C23039A0138136021B0F0BD4023BE
:1053C0007B61002308AC6361203363761033A376DE
:1053D000079535002B78002B01D0252B47D1AB1B2F
:1053E0000593B5420CD0320039000398FFF76CFFEB
:1053F000431C00D1AEE06269059B9446634463613F
:105400002B78002B00D1A5E00122002352426260DC
:1054100004A9543252186E1C2360E360A360137019
:10542000A36505223178544800F034FA751C002831
:105430001FD12268D30604D5532304A95B18202169
:105440001970130704D5532304A95B182B21197075
:1054500033782A2B16D0350000210A20E3682A78F9
:105460006E1C303A092A4ED9002911D117E00135B6
:10547000B0E7414B2268C01A0123834013432E003A
:105480002360CEE7079B191D1B680791002B01DBEA
:105490000B9304E05B42E3600223134323602B7809
:1054A0002E2B0AD16B782A2B35D1079B02351A1D7A
:1054B0001B680792002B2BDB0993304E0322300030
:1054C000297800F0E7F9002806D04023801B8340AC
:1054D00022680135134323602978062228486E1C70
:1054E000217600F0D7F900283CD0264B002B25D19F
:1054F0000722079B07339343083307936369049A92
:105500009B18636165E74343350001219B18A6E7BB
:1055100001235B42D0E700230A201A0001356360B3
:1055200029786E1C3039092903D9002BC5D009927E
:10553000C3E74243350001235218F1E707AB00935C
:105540003A002100104B039800E000BF0490049B38
:105550000133D3D1BB890D985B0600D42DE7012020
:1055600040422AE707AB00933A002100064B03981C
:1055700000F07CF8EAE7C046786600087E6600081E
:105580008266000800000000C9520008F7B5150047
:1055900001938A680B690C000090934200DA1300B3
:1055A00022002B6043321278002A01D001332B6095
:1055B00023689B0602D52B6802332B6022680623E2
:1055C00017001F401A4227D0230043331B785A1E6E
:1055D00093412268920630D4220001990098089ED7
:1055E0004332B047431C25D0062320682A68E1686F
:1055F00000250340042B03D18D1AEB43DB171D401C
:10560000A3682269934201DD9B1AED180027BD4271
:1056100020D1002010E00137E3682A689B1ABB42C2
:10562000D2DD2200012301990098089E1932B0476B
:10563000431CF0D101204042FEBD3020E11843312F
:10564000087021005A1C45310978A21843320233F0
:105650001170C1E72200012301990098089E1A32B7
:10566000B047431CE6D00137D1E70000F0B58BB05E
:1056700006920A0043320793059004920A7E0C00BA
:10568000109B782A07D8622A09D8002A00D1C1E0E5
:10569000582A00D18CE026004236327022E01000F9
:1056A00063381528F7D8FAF743FD16001F00F6FFF8
:1056B000F6FFF6FFF6FF1F00F6FFF6FFF6FFF6FF18
:1056C000A80036009A00F6FFF6FFB900F6FF360094
:1056D000F6FFF6FF9E0026001A684236111D19607B
:1056E000136833700123A7E0086819680A1D0506CE
:1056F0000BD50D681A60002D03DA2D23049A6D4234
:105700001370614B0A2703931BE00D681A60410672
:10571000F1D52DB2EFE70D681968081D18602E0647
:1057200001D50D6803E06D06FBD50D68ADB2564B93
:10573000082703936F2A00D0023723000022433347
:105740001A706368A360002B03DB04222168914375
:105750002160002D02D1049E002B0CD0049E280055
:105760003900FAF775FD039B013E5B5C33702B003B
:1057700005009F42F3D9082F09D12368DB0706D51E
:1057800063682269934202DC3023013E3370049B3C
:105790009B1B2361079B210000930598069B09AA88
:1057A000FFF7F4FE431C4CD1012040420BB0F0BD8A
:1057B00045310A70344A03921A68216820CA1A6077
:1057C000080616D5CB0702D52023194321601027E0
:1057D000002DB2D1202322689A432260ADE7202217
:1057E00009680A4322602200782145321170274A55
:1057F000E1E74806E6D5ADB2E4E71A680D68101D8A
:105800004969186013682E0601D5196002E06D061B
:10581000FBD519800023049E2361BBE71A68111D84
:105820001960166800213000626800F033F8002823
:1058300001D0801B6060636823610023049A1370A9
:10584000A8E72369320006990598079DA847431CDD
:10585000AAD023689B0715D4099BE0689842A5DA73
:105860001800A3E72200012306990598079E193224
:10587000B047431C98D00135E368099A9B1AAB42A4
:10588000F0DCE9E70025F7E7896600089A6600087A
:1058900070477047C9B28218904201D1002070470A
:1058A00003788B42FBD00130F6E7F7B507000E0016
:1058B0001400002905D11100FFF746FC050028005F
:1058C000FEBD002A03D1FFF7D3FB2500F7E700F068
:1058D0001BF80190844203D835004308A342EED35D
:1058E00021003800FFF730FC051EE8D0019B2200A4
:1058F0009C4200D91A0031002800FFF769FB3100F3
:105900003800FFF7B5FBDAE70B1F1B68181F002BE9
:1059100001DA0B58C0187047F8B5C046F8BC08BC8F
:105920009E467047F8B5C046F8BC08BC9E46704716
:105930000002000400010003000100030004000550
:10594000030400010003000400020004000500003D
:10595000888888888888888C888888C8888888CC3F
:1059600088888C8888888C8C88888CC888888CCC1F
:105970008888C8888888C88C8888C8C88888C8CC1F
:105980008888CC888888CC8C8888CCC88888CCCCFF
:10599000888C8888888C888C888C88C8888C88CCEF
:1059A000888C8C88888C8C8C888C8CC8888C8CCCCF
:1059B000888CC888888CC88C888CC8C8888CC8CCCF
:1059C000888CCC88888CCC8C888CCCC8888CCCCCAF
:1059D00088C8888888C8888C88C888C888C888CCBF
:1059E00088C88C8888C88C8C88C88CC888C88CCC9F
:1059F00088C8C88888C8C88C88C8C8C888C8C8CC9F
:105A000088C8CC8888C8CC8C88C8CCC888C8CCCC7E
:105A100088CC888888CC888C88CC88C888CC88CC6E
:105A200088CC8C8888CC8C8C88CC8CC888CC8CCC4E
:105A300088CCC88888CCC88C88CCC8C888CCC8CC4E
:105A400088CCCC8888CCCC8C88CCCCC888CCCCCC2E
:105A50008C8888888C88888C8C8888C88C8888CC2E
:105A60008C888C888C888C8C8C888CC88C888CCC0E
:105A70008C88C8888C88C88C8C88C8C88C88C8CC0E
:105A80008C88CC888C88CC8C8C88CCC88C88CCCCEE
:105A90008C8C88888C8C888C8C8C88C88C8C88CCDE
:105AA0008C8C8C888C8C8C8C8C8C8CC88C8C8CCCBE
:105AB0008C8CC8888C8CC88C8C8CC8C88C8CC8CCBE
:105AC0008C8CCC888C8CCC8C8C8CCCC88C8CCCCC9E
:105AD0008CC888888CC8888C8CC888C88CC888CCAE
