:020000040800F2
:1000000000200020453600088111000883110008F7
:1000100000000000000000000000000000000000E0
:100020000000000000000000000000008511000832
:10003000000000000000000087110008891100087E
:100040009536000895360008953600089536000864
:100050009536000895360008953600089536000854
:10006000953600089536000891110008953600086D
:10007000953600089536000800000000A111000820
:10008000000000009536000800000000000000009D
:1000900095360008000000009536000895360008E7
:1000A0009536000895360008953600089536000804
:1000B00095360008953600080000000095360008C7
:1000C00010B5064C2378002B07D1054B002B02D02E
:1000D000044800E000BF0123237010BDA8000020E9
:1000E00000000000CC620008044B10B5002B03D0C8
:1000F0000349044800E000BF10BDC04600000000F6
:10010000AC000020CC62000802780B78002A03D0F3
:10011000013001319A42F7D0D01A704702B47146CB
:1001200049084900095C49008E4402BC7047C0463A
:1001300003B47146490840004900095E49008E44F5
:1001400003BC7047002243088B4274D303098B42DF
:100150005FD3030A8B4244D3030B8B4228D3030C97
:100160008B420DD3FF22090212BA030C8B4202D339
:100170001212090265D0030B8B4219D300E0090A61
:10018000C30B8B4201D3CB03C01A5241830B8B426A
:1001900001D38B03C01A5241430B8B4201D34B0353
:1001A000C01A5241030B8B4201D30B03C01A5241B8
:1001B000C30A8B4201D3CB02C01A5241830A8B423D
:1001C00001D38B02C01A5241430A8B4201D34B0226
:1001D000C01A5241030A8B4201D30B02C01A52418A
:1001E000CDD2C3098B4201D3CB01C01A524183093E
:1001F0008B4201D38B01C01A524143098B4201D378
:100200004B01C01A524103098B4201D30B01C01AA2
:100210005241C3088B4201D3CB00C01A524183081C
:100220008B4201D38B00C01A524143088B4201D349
:100230004B00C01A5241411A00D2014652411046A9
:100240007047FFE701B5002000F006F802BDC04688
:100250000029F7D076E770477047C046002B11D1D0
:10026000002A0FD1002900D1002802D00021C94363
:10027000080007B4024802A14018029003BDC0461E
:10028000D9FFFFFF03B4684601B5029800F034F8C7
:10029000019B9E4602B00CBC7047C046F0B5CE46EE
:1002A000474680B5070099463B0C9C4613041B0C3F
:1002B0001D000E0061460004140C000C45434B4326
:1002C00060436143C0182C0C20188C46834203D92C
:1002D00080235B029846C444494679437243030C29
:1002E00063442D042D0CC918000440198918C0BCA2
:1002F000B946B046F0BDC046F0B557464E464546F5
:10030000DE46E0B504000D009246994683B08B426C
:1003100030D82DD04946504600F0BAF829000600E2
:10032000200000F0B5F8331A9846203B9B4633D4A2
:100330005A465346934042461F00534693401E0080
:10034000AF423AD8AF4200D178E05B46A41BBD4132
:10035000002B00DA75E000220023009201930123B4
:100360005A4693400193012342469340009328E06C
:100370008242CFD900220023009201930C9B002BD4
:1003800001D01C605D600098019903B0F0BCBB46D1
:10039000B246A946A046F0BD424620239B1A5246CB
:1003A000DA40414613004A468A40170042461F433E
:1003B000534693401E00AF42C4D90022002300924E
:1003C00001934346002BD9D0FB0772081A434646D7
:1003D0007B080EE0AB4201D1A2420CD8A41A9D4189
:1003E000012024196D410021013E24184D41002EA9
:1003F00006D0AB42EED9013E24196D41002EF8D152
:10040000009801995B4600196941002B24DB2B0001
:100410005A464446D3402A00E2401C005B46150081
:10042000002B2ADB26009E40330026004746BE40B4
:100430003200801A9941009001919FE7A342BCD8F5
:1004400083E74246202300219B1A0022009101925B
:100450000122DA40019286E7424620239B1A2A00B5
:1004600046469A402300F340444613432A00E240A4
:100470001C005B461500002BD4DA42462F002023D7
:10048000260097409B1ADE403B003343CDE7C04631
:1004900010B5002903D100F007F8203002E0080071
:1004A00000F002F810BDC0461C2101231B04984235
:1004B00001D3000C10391B0A984201D3000A0839F5
:1004C0001B09984201D30009043902A2105C4018AC
:1004D0007047C04604030202010101010000000050
:1004E000000000000023F0B587B005AC0E000A2123
:1004F000150007002370FFF725FE0A2103013800CD
:100500000393FFF7A5FE039B3000591861700A2181
:10051000FFF718FE0A2107013000FFF799FE2800B7
:100520007F180A21A770FFF70DFE060130200A216F
:1005300006402800FFF78CFE64237618E670220040
:100540000093D021603B024803F0D8FF07B0F0BD14
:10055000CC0400200023F0B587B0160002AA642561
:10056000D3730F22294C039102A902905218200044
:10057000D1210095013303F0C1FF029A0123D1215B
:100580002000009504F04CF801270F2202AB02A9CD
:10059000DF7352183B00D1212000009503F0AEFF1D
:1005A0003B00039AD1212000009504F039F8022382
:1005B00002AAD3730F2202A93B0052182000D121B6
:1005C000009503F09BFF3B003200D12120000095F5
:1005D00004F026F80A230F2130788206920F5A433E
:1005E000084012183270039A107802095A430840E2
:1005F000121803980270029A1278100943430A40B5
:100600009B18029A137007B0F0BDC046CC040020BE
:100610000423F0B587B005AC0E000A2115000700D1
:100620002370FFF78FFD0A21030138000393FFF7C2
:100630000FFE039B3000591861700A21FFF782FDFD
:100640000A2107013000FFF703FE28007F180A2166
:10065000A770FFF777FD060130200A210640280029
:10066000FFF7F6FD64237618E67022000093D02190
:10067000603B024803F042FF07B0F0BDCC0400200D
:100680000423F0B587B0039202AA6425D3730F2226
:100690000700284C0E0002A952182000D121009515
:1006A000033B03F02BFF3A000123D12120000095EA
:1006B00003F0B6FF052302AAD3730F2202A9521832
:1006C0002000D1210095043B03F018FF32000123E4
:1006D000D1212000009503F0A3FF062302AAD373C3
:1006E0000F2202A952182000D1210095053B03F0EA
:1006F00005FF039A0123D1212000009503F090FF0C
:100700000A230F21387802095A43084012183A7018
:100710003078C206D20F5A43084012183270039A3A
:100720001278100943430A409B18039A137007B0CC
:10073000F0BDC046CC04002030B50C256843034C06
:10074000225024186160A36030BDC046C400002060
:10075000104B0020190070B50F4A104C156801307D
:10076000AD002D591D605568AD002D595D6095682F
:100770000C32AD002D599D600C332428EED1D823C6
:1007800000225B00CA50B532FF32054804F022FE59
:1007900070BDC04674020020C4000020046300083D
:1007A00018050020D82210B500210248520005F09B
:1007B00005F910BDC4000020F0B50C2635004543F6
:1007C0000B4C70432F5965196D68BA1A6D1A574250
:1007D0007A4169424D412418A168D2B25219994216
:1007E00001D10132D2B2033A53425A41D0B2F0BDE4
:1007F000C400002010B59CB0242200210FA805F0F1
:10080000DDF81422002101A805F0D8F820220021EB
:1008100006A805F0D3F81B491B4A0B6801241A40AF
:1008200080231B0113430B6002230E9318930023B4
:1008300019931A9380231022DB030EA811941292AD
:100840001B9304F0B5F8002801D072B6FEE70F2321
:100850000390019304900C3B0590210001A80293A2
:1008600004F028FB002801D072B6FEE708230B90A5
:1008700006A8069304F0ECFB002801D072B6FEE750
:100880001CB010BD00700040FFE7FFFFF0B501266F
:100890008BB002F025FFFFF7ADFF1422002105A861
:1008A00005F08CF80221A0207A4FC005FB6A0025D4
:1008B0003343FB62FB6A33400193019BFA6A0A43AC
:1008C000FA62FB6A00220B4002930631029B03F09E
:1008D00099FC00223100704803F094FCA02004230E
:1008E00005A9C00505930695079603F0C5FBA02052
:1008F000082205A9C005059206960795089503F0FC
:10090000BBFB654805A9059606960795089503F073
:10091000B3FB0822290005A805F050F806235F4C18
:10092000A363C223FF3363625D4B22002360042371
:100930002C3220002584E563A5621570256365636C
:100940006560A560E56026616361A561E56102F00F
:10095000B7FFA84201D072B6FEE7802320005B01FA
:1009600005A90596069303F037F9002801D072B661
:10097000FEE74C4B200005A9059303F02DF9041E5A
:1009800001D072B6FEE73B6B010033433B633B6B28
:10099000020033400A200093009B03F071F90A2003
:1009A00003F098F9404D414B28002B60404BAC6060
:1009B0006B60EE602C616C61AC61EC612C6203F0E9
:1009C00047FD011E01D072B6FEE7280003F05EFF6E
:1009D000011E01D072B6FEE7280003F07DFF031E62
:1009E00001D072B6FEE73348334A83600260822248
:1009F000C36003614361036243628362102407237F
:100A000052004260FC328261C461C36204F080FC27
:100A1000051E01D072B6FEE72200010005A804F011
:100A2000CDFF0822290003A804F0C8FF8023234C2F
:100A3000DB0523601F236360214B2000A560E3607A
:100A40002561656104F0AAFD002801D072B6FEE7B9
:100A5000802320005B0105A9059304F0EFFD002829
:100A600001D072B6FEE70390049003A9200004F0C1
:100A70001FFF002801D072B6FEE700220F201100F0
:100A800003F0FEF80F2003F025F902F0D5FC02F088
:100A900061FDFEE700100240000400502804002021
:100AA0000024014002000004CC0400200054004057
:100AB000280C20001805002000300140700500209F
:100AC000E703000072B6FEE7002110B5884200D0AF
:100AD000FF3180220248D20004F070FF10BDC046F2
:100AE000B605002030B504007F2812D83F2910D861
:100AF0000E4B0F4D1879CB0800280BD0002A0BD1D4
:100B0000D80107231940063B8B4000192A5C134388
:100B10002B5430BD012AF3D0D801072301221940FC
:100B20008A4000192B5C9343F2E7C046B0050020D1
:100B3000B6050020014B188059807047B005002091
:100B4000F7B507000C00002500926378AB4206D889
:100B5000154A2378118838005B181380FEBD3A00CF
:100B60000026203A534362685B195B009B5A01934D
:100B70000D4B22781888B24201D80135E5E7598833
:100B8000019B8022B34080194919120280B289B2B8
:100B9000134204D0009AFFF7A5FF0136E8E7009B57
:100BA0005A425A41D2B2F6E7B005002070B50400AF
:100BB0000D0016002078002800D170BD32002900F9
:100BC000FFF7BEFF030020788342F6D10134F1E73E
:100BD000F0B587B00CAC24780594041C7F2800D9AC
:100BE0007F24A4B2161C7F2A00D97F26B6B20D1C22
:100BF0003F2900D93F25ADB21F1C3F2B00D93F270D
:100C0000BFB2331BA64200D8A31B1BB20093BD4248
:100C100024D27B1B1BB20193012303930493A642AE
:100C200001D8023B0393009B019A934223DD009A73
:100C3000DB0F9B185B100293009B002B2BD1BD4256
:100C400002D92B003D001F00331CA64200D9231CF3
:100C50009CB22DB2BD4216DD07B0F0BDEB1B1BB23E
:100C600001930123A64203D90393023B0493DAE7DD
:100C70005B420393FAE7019B019ADB0F9B185B1021
:100C80005B421BB2D7E7ADB229002000059AFFF7FF
:100C900029FF0135DDE7019B002B15D12B1CBD423F
:100CA00000D93B1C9DB2A64202D2230034001E0094
:100CB00024B2B442D0DCA4B220002900059AFFF788
:100CC00011FF0134F4E7029329002000059AFFF791
:100CD00009FFA64201D1BD42BED0009B5A42029BF1
:100CE000934205DD019A9B1A039A1BB2A418A4B281
:100CF000029A01998A42E6DA009A9B18049A1BB27A
:100D0000AD18ADB2DFE7F0B585B01D000AAB1B78BA
:100D100007000E0003937F2831D83F292FD883186E
:100D20007F2B02DD8022121A92B273193F2B02DD53
:100D30004025AD1BADB2039BD21994B22200310005
:100D4000380000933300FFF743FFAD19039BADB2AA
:100D500022002900380000932B00FFF739FF039B86
:100D60003A003100380000932B00FFF731FF039B5E
:100D70002200009331002B002000FFF729FF05B06F
:100D8000F0BDF0B585B002930AAB1B7805000F00EB
:100D9000140003937F2814D83F2912D883187F2B7F
:100DA00002DD8024241AA4B2029BFB183F2B03DD32
:100DB0004023DB1B9BB202930026029BB1B29E42F2
:100DC00001D905B0F0BD039BC91989B2621900931E
:100DD00028000B0092B20136FFF7FAFEF6B2ECE7FC
:100DE00010B50020FFF770FE10BD000070B50024A4
:100DF000C2B0150002AA11709C4209D381B20A2028
:100E0000013300909BB2054803F078FB42B070BDFF
:100E10002E5D111901344E70E4B2EDE7CC040020D0
:100E20001FB56B4619735A730A230100009303AA76
:100E3000083B024803F062FB05B000BDCC04002073
:100E400070B5B02478250E4E220000212800FFF74F
:100E5000E7FF002228001100FFF7E2FF0134102213
:100E600000212800FFF7DCFFE4B23200802340219C
:100E70002800FFF7BBFF8036B82CE5D170BDC04617
:100E8000B605002010B501227821524B524803F0DC
:100E900059FC0024A04200D09AE02100AE22782024
:100EA000FFF7BEFF210020227820FFF7B9FF2100C5
:100EB00010227820FFF7B4FF2100B0227820FFF73E
:100EC000AFFF2100C8227820FFF7AAFF22002100EF
:100ED0007820FFF7A5FF210010227820FFF7A0FF60
:100EE000210040227820FFF79BFF210081227820FB
:100EF000FFF796FF2100FF227820FFF791FF2100E6
:100F0000A1227820FFF78CFF2100A6227820FFF78E
:100F100087FF2100A8227820FFF782FF21003F22CF
:100F20007820FFF77DFF2100A4227820FFF778FFCB
:100F30002100D3227820FFF773FF220021007820C0
:100F4000FFF76EFF2100D5227820FFF769FF21000F
:100F5000F0227820FFF764FF2100D9227820FFF7E4
:100F60005FFF210022227820FFF75AFF2100DA22BA
:100F70007820FFF755FF210012227820FFF750FF5D
:100F80002100DB227820FFF74BFF21002022782070
:100F9000FFF746FF21008D227820FFF741FF210057
:100FA00014227820FFF73CFF2100AF227820FFF7C2
:100FB00037FF21002E227820FFF732FF2000FFF7B5
:100FC00083FDFFF73DFF054B1C805C8001345C71A5
:100FD000200010BD204E0000CC040020B0050020F1
:100FE00070B50D00040002F0FBFF044B2A00E1186D
:100FF000002003F017F803F00BF870BD000008089C
:10100000024BC0180078C0B27047C0460000080804
:101010000122054B596B0A435A638022996B520592
:101020000A439A637047C0460010024010B504009E
:1010300086B01422002101A804F0C0FC0D4B2268E8
:101040009A4215D180220C4B9200596BA0200A4382
:1010500001215A63DA6AC0050A43DA62DB6A0B408F
:101060000093009B032301A90193029303F004F86A
:1010700006B010BD002401400010024010B504006D
:1010800086B01422002101A804F098FC0F4B2268BE
:101090009A4219D102210E4C0E48E26A0A43E262DA
:1010A000E36A0B400093009BC0230193AE3B029385
:1010B0000F3B049301A9023B059302F0DDFF80235F
:1010C000A26B9B031343A36306B010BD0054004002
:1010D000001002400004005070B5050086B01422D4
:1010E000002101A804F06AFC1A4B2A689A422FD109
:1010F00080220126184B5201596BA0200A435A63E3
:10110000DA6AC0053243DA62DB6A01A93340009330
:10111000009BA02301939E3B02939B19049302F032
:10112000ABFF0E4C0E4B802223601023A3600023E4
:1011300020006660E36022616361A361E361236272
:1011400002F0EEFD002801D0FFF7BCFCAC64A56204
:1011500006B070BD00300140001002408404002041
:101160003000024080230268DB059A4204D101234B
:10117000024A916B0B4393637047C04600100240D4
:10118000FEE7FEE77047704710B502F0BDFA10BDEC
:1011900010B5024802F048FE10BDC046840400208D
:1011A00010B5024804F0FCFA10BDC04670050020DE
:1011B0000B4A0C490300891A0B4A10B51068002825
:1011C00001D10A4810601068C3188B4206D904F098
:1011D000A5FB0C2303600120404210BD1360FCE717
:1011E0000004000000200020B8090020D80E0020D4
:1011F00070470000002310B50A4AC47AD0188079DD
:10120000A04208D10020C97A1418A4798C4205D1D3
:10121000C01A40B210BD0133DBB2EFE70130C0B2FB
:10122000F2E7C046970E00200A7B0549037B497808
:10123000D01AC0B2002901D0981AC0B240B270478B
:10124000970E002010B5FEF75FFF044B1B78002BB4
:1012500001D040B210BD4042FBE7C046970E0020CF
:1012600070B51D00062314005843C900FFF762FC47
:101270002A0020000149FFF799FC70BD0000002002
:10128000F0B585B01E000AAB1B780F0004001500F6
:101290000393FFF7A5FD0021012308007F2200939F
:1012A0000633FFF76EFD00233A0019001800FFF720
:1012B000D7FF039B5F00E719BC4201D105B0F0BD29
:1012C00061782078330004CDFFF7CAFF0234F3E7DA
:1012D00010B5064C2200611CA01CFFF7D1F9E21CDE
:1012E000211D601DFFF736F910BDC04639000020F2
:1012F00010B5064C22786178A078FFF789F9E2787A
:1013000021796079FFF7EEF810BDC0463900002062
:1013100010B502F005FA104A1368C31A962B10D9BB
:10132000962110600D4A0E4B50884900984209D909
:1013300003240C48047012888A4208D20122094B07
:101340001A7010BD8842F6D204240648F2E79A4289
:10135000F7D90222034BF3E7D4090020BE0900208D
:10136000AC0D0000DC09002010B5012B15D0022BBC
:1013700020D0002B1DD1164C2378032B04D10378E9
:101380008B4216D2013303702378042B11D10378DA
:1013900093420ED9013B03700BE00D4C2378022BD6
:1013A00004D103788B4204D2013303702378012BDC
:1013B000EDD010BD064C2378042B04D103788B426A
:1013C000F7D2013303702378032BF2D1DFE7C04655
:1013D000DC090020A02010B50421C00502F00CFF9C
:1013E0000A4C23781843C0B2002802D10130207083
:1013F00010BDA0200421C00502F0FEFE0028F7D099
:1014000020780028F4D00020F1E7C046E60900204B
:1014100084B010B50290100E0593013807AB1C780C
:1014200003910492032809D8FEF778FE020C1014E9
:101430000023012204212000FFF77EF910BC08BC24
:1014400004B01847042300220121F4E704220023FA
:101450001100F0E7042300211A00ECE7F0B5614B1E
:101460009DB01C78002C35D101221A70FFF79AF933
:10147000142161435C4BE2B20192CA5A5918CE88DA
:101480008B884D8936044F881E430B892D041D43DC
:101490003F04CB8917438A891B041343103104226C
:1014A00068460393013404F06DFA380031002A00D5
:1014B000039BFFF7ADFF242CDAD1FFF749F9B421E4
:1014C00000234A488900C25C002A00D181E0012241
:1014D000474B1A70FFF7FCFE0023464F04AC237005
:1014E00003223B7802210125023363700423E1705B
:1014F000891861724919E17249196173C918A17398
:10150000FA213D4E6271E2730A3222743278A5707C
:101510002571A571E3712572A57225736374C900E5
:101520005218B178737812A80091344904F06EFB18
:1015300071793379F27817A80091314904F066FB8C
:10154000304B12A90993304B10910A932F4B17A9D6
:101550000B932F4B20000C932E4B09AA0D932E4B6F
:1015600011910E932D4B2E490F93092300932B00BD
:10157000FFF786FEFFF764FCFFF7CAFE0223002296
:1015800005213800FFF7F0FE0022264B1A70FFF706
:1015900021FF00281BD03B78002B07D1FFF702F971
:1015A000FFF7D6F8204A13785B19137000203A78B9
:1015B0001E4B511C19700B49087082420FD00C4A07
:1015C000127882420BD11A49013008701A701DB08E
:1015D000F0BD14338B4200D075E7054B79E700234B
:1015E0003B70F4E718000020E8090020F309002010
:1015F000C80900208F0E0020390000200D6D000862
:101600001C6D00082B6D00082D6D0008376D00085B
:10161000406D00082C6F00084A6D0008536D0008EB
:101620005D6D0008DC090020A10E0020BC0900202F
:10163000C4090020F0B500278FB007900B210120CE
:1016400004F062F93C003D0003900122BB1809A898
:10165000DBB2837004930223C370594B00260B93B3
:10166000584B42700C93039B02710D9303234271FC
:1016700006700799009313000BAAFFF701FEF30011
:1016800020339BB205930B2373434F4AD318069321
:10169000002302930A20029B059958430E3080B222
:1016A000FFF748FA069B029A985C6B461B7A012268
:1016B0009D4203D1F2B2121B531E9A414349D2B24A
:1016C000FFF73EFA029B013302930A2BE2D1013667
:1016D000042ED4D101230A2D02D123005A1E934196
:1016E000DBB2042113203A4AFFF7BAFD01230A2D89
:1016F00002D1A31E5A1E934106211320354ADBB2A4
:10170000FFF7AEFD0A26FFF79BFB002C03D0A61EB9
:1017100073425E410936FFF7FBFD2F4A1378012B18
:1017200005D1002D01D0013DEEB235000FE0022BB6
:1017300009D0032B20D0042B09D10A2D1ED0032C55
:1017400027D0013421E0B54238D20135EDB2002373
:101750001370FFF73FFE002800D176E70A2D1AD05C
:101760000B226243184B9B185B5D039AD355049B75
:101770000A2B1DD01F0068E70A2D03D163425C418C
:101780006400E4E7002C02D0013CE4B2DFE71C0077
:10179000DDE70024DBE7002C07D1002F01D0013F5B
:1017A000FFB20023039AD3554FE7022C00D04CE739
:1017B00000220A4B03981A700FB0F0BD0025C6E74F
:1017C0002B6D0008636D0008067000080000002003
:1017D000656D0008676D0008DC0900201800002016
:1017E0004A234A211A00F0B54E4F49423C78050081
:1017F0006143601EC91843434B4EC91885B062430C
:101800004A48891904F0C7F8042C01D801343C7007
:1018100005246C43FFF75CFD4548464900194B78A9
:101820000A78039008790290C8780190897830008E
:101830000091414904F0EAF9032D2DD828003F4CCE
:101840003F4DFEF76BFC022B4D5A0525062414264E
:101850003C4F3D497A783B78AA1A6243D2187243CA
:101860003A4B37489A18D37A013B6B43CB18384927
:1018700004F0CCF97B78ED1A6C433D78334B641956
:1018800066439E19737CB2890133B17C2B480131C8
:101890000091304904F0BAF905B0F0BD05250624E1
:1018A0001426284F28497A783B78AA1A6243D2181E
:1018B0007243264B22489A18D37A013B6B43CB18CC
:1018C000234904F0A3F97B78234AED1A6C433D7851
:1018D0001E4B641966439E19737C12780133D4E75A
:1018E0001E4B1F491A68280004F090F91D4B1E4931
:1018F0001A78200004F08AF9CEE71C481C4A417887
:1019000053780131127801910178013301310132AC
:1019100000912800174904F079F9174B17491A78F4
:10192000E7E7C046A60E0020B80C0020020D0020FC
:10193000B070000839000020696D0008EC0C002030
:10194000D60C0020A30E002050700008E8090020EB
:10195000856D00088B6D0008A50E0020D0090020C1
:10196000996D0008CC090020A16D0008890E0020A7
:101970008B0E0020B06D0008880E0020C26D00089C
:1019800070B514260C00050086B03200010001A8D5
:1019900003F0F8FF32002100280003F0F3FF3200CB
:1019A000200001A903F0EEFF06B070BD70B5FEF790
:1019B000F9FE0024052C03D92300123B052B3BD84C
:1019C000002304211A002000FEF7B6FE0134E4B221
:1019D000242CEFD1FEF7BCFE0C3C21002B20FFF79E
:1019E000A9F8204D002229001F48FFF7DFF8182131
:1019F0002720FFF79FF80134012229001B48FFF739
:101A0000D5F8A4B2FFF71CFAC82001F08FFE212CF4
:101A1000E3D1FA20800001F089FEFEF7C3FEFEF755
:101A200097FEFFF7DDF9FFF70BFA0020FFF7E8FA62
:101A300043425841C0B270BDA31F052B02D9123BCF
:101A4000052B03D8002304221900BCE723000C3B1C
:101A5000052B02D9123B052BB8D800220423110014
:101A6000B1E7C04600000020D36D0008DA6D000821
:101A7000F0B58BB0FFF7AEFC041E07D0FFF738FCC3
:101A800001210020FFF7ACFA0BB0F0BDFFF740FCDE
:101A90003F4E2200012305213000FFF765FC32781C
:101AA0003C4C002A04D1130063212000FFF75CFCAA
:101AB0003278012A04D100230C21601CFFF754FC6A
:101AC0003378354F022B08D163780122FB18013B94
:101AD0001978A01C0023FFF747FC3378032B05D1AE
:101AE000002317211A00E01CFFF73EFC3378042B7B
:101AF00005D100233B211A00201DFFF735FC337868
:101B0000052B05D100233B211A00601DFFF72CFC9B
:101B10006578A2787F19013F3B789A4200D9A3707B
:101B200000221E4B1E491A7002A8043203F02AFF3D
:101B3000062133781B4A59435218002B17D1FA2338
:101B40002578DB00ED1805AC2B002000164904F0C9
:101B50005DF8164B16490393022303AA009302A8CB
:101B6000013B0494FFF78CFBFFF76AF982E7012B36
:101B7000E9D0022B01D1A578E5E7032B01D1E57867
:101B8000E1E7042B01D12579DDE76579DBE7C04684
:101B90008F0E00203900002032700008DC09002080
:101BA000E46200088C700008E26D0008EA6D00082D
:101BB000FB6D0008F0B5574F89B03C787E78FFF791
:101BC00009FC051E04D00022534B1A7009B0F0BD69
:101BD0007B783A7851490133013203A804F016F8B2
:101BE0002B000621012003AAFFF73AFBFFF728F993
:101BF000FEF7D8FD4A4B0193019BD97A002900D109
:101C000084E0002304211A002800FEF795FD019BC3
:101C100001351433EDB20193242DEDD105237878ED
:101C2000181A013358433B78C0180423C0B21A0075
:101C30001900FEF781FDFEF78BFD3A4B1A88962AB4
:101C40005BD900221A80384B384A5B88934211D9FD
:101C50000136F5B20523581B0133584300232018E1
:101C60001A000421C0B2FEF7A7FD2E000135EDB227
:101C70000028EFD196222C4B52005B88934211D260
:101C8000013EF5B20523581B0133584300232018A9
:101C90001A000421C0B2FEF78FFD2E00013DEDB207
:101CA0000028EFD19622204B52001B8893420FD27E
:101CB000052306259B1B5D43EDB20023013CE4B2E6
:101CC00060191A000421C0B2FEF776FD0028F4D195
:101CD000154B164A1B8893420FD9052306259B1BDB
:101CE0005D43EDB200230134E4B260191A0004210F
:101CF000C0B2FEF761FD0028F4D1052C00D93C7874
:101D0000052E00D97E783C707E7058E70B000422C7
:101D10007AE7C046A30E002018000020056E0008D8
:101D2000E8090020CA090020BE090020AC0D00000F
:101D3000F0B57A4CC8232078A3B0002806D0643BC5
:101D4000012803D0323B022800D0283B744A13708C
:101D5000744B1978002952D10122734D1A702D78D5
:101D600003AB03355D700625197099700331597105
:101D70008918D971891859724143DA701A719A71A8
:101D80001A729A721A7352195A73684A0EAF52181D
:101D9000DD723800664903F039FF664B1A68137824
:101DA000002B00D1644A13AE6449300003F02EFFCB
:101DB0005B4B634A18AD1B7812786249280003F028
:101DC00025FF614A614953781278013301321DA819
:101DD00003F01CFF5E4B5F4907935F4B07AA089314
:101DE0001DAB0C935D4B03A80D9307230093063B9B
:101DF00009970A960B95FFF743FAFFF721F8FFF7CB
:101E000087FA494D0022022304212800FFF7ACFA8B
:101E10002A78002A04D1012303212000FFF7A4FA25
:101E20002B78022B06D13E4B4548197801231A0026
:101E3000FFF79AFA4A4A1378002B03D00023137055
:101E4000384A1370FFF7C6FA002860D02B78012BB0
:101E500004D14448FFF7EEFB364B18602B78032B78
:101E600001D1FFF7A7FE2B78042B50D1314F3968F1
:101E70000B78002B4DD005231426334D6C78287831
:101E80001C1B01335C4324187443374BE4182000B7
:101E900003F0DCFE2000214B02221B7829000133D5
:101EA000E3721F4B11301B78E381254B1B78A38114
:101EB0002E4B1B78237403F065FD0020FFF790FC88
:101EC000386803F055FD00233B60284B1B78012B3D
:101ED0000DD1062269780433591A51432B78320008
:101EE000C9187143204B2248591803F04BFD0123B8
:101EF000134A13700023094A6B701370184A2B7031
:101F000013701C4A1370084A1370064A137023B0EA
:101F1000F0BD0222184B1A70F9E7C046C70900202D
:101F2000A20E0020180000208F0E00205070000824
:101F3000166E0008D8090020CC6F00081E6E00083D
:101F400038000020266E0008A30E0020056E000851
:101F50002B6D00084F6E0008336E0008496E0008B4
:101F6000DC090020556E0008E8090020A10E0020C1
:101F7000740E0020BC090020C40900200F23002299
:101F8000F0B58DB06B441A70FFF724FA041E18D018
:101F90000F236B44197805232C4A5078181A013303
:101FA0004343107814221B182948002949D05A436A
:101FB00080188389591881810020FFF711FC0DB02A
:101FC000F0BD0422234904A8891803F0DBFC052294
:101FD000062114201D4D1E4E6B7807AFD31A4B43BC
:101FE0002A781D499B184343F3180F266E44380086
:101FF000DB89327803F00AFE184B0697059302231B
:1020000005AF3A0004AF380015490093013BFFF7D4
:1020100037F9FEF715FFFFF77BF90522062114209B
:102020006B78D31A4B432A789B184343084A3000F5
:10203000D318997B22002300FFF796F9094B1C70F7
:10204000A2E75343C01803F0B9FCB8E7A30E002081
:10205000E8090020E4620008616E00086A6E00086A
:102060007D6E0008DC0900200122F0B5494B8DB0DF
:102070001A700024FEF796FB14216143464BE2B22E
:102080000192CA5A5918CE888B884D8936044F88D8
:102090001E430B892D041D433F04CB8917438A89B6
:1020A0001B0413431031042268460393013403F0E8
:1020B00069FC380031002A00039BFFF7A9F9242CA2
:1020C000DAD105260627354B58781B78301A784325
:1020D000C0180423C0B21A001900FEF72DFBFEF74A
:1020E00037FBFFF777F9041E1AD00120FFF778FBC2
:1020F00005232A494A789A1A013353430A789B18D0
:1021000014225343244AD218224B197893895B1A1C
:102110009BB29381002B01D1FFF730FF0DB0F0BDD2
:1021200004221F4904A8891803F02CFC1B4D1A49EE
:102130006B782A78F31A7B439B1814225343CB18ED
:1021400014499B890A7807A8164903F05FFD164BCE
:1021500005A9059307AB069302230A0004A81349B7
:102160000093013BFFF78CF8FEF76AFEFFF7D0F80B
:102170006B782A78F31A7B439B1814225343064A40
:102180000448D318197B01222300FFF7EDF8084B10
:102190001C70A6E7A50E0020E8090020A30E002071
:1021A000E4620008856E00088D6E00089B6E0008D2
:1021B000DC090020F0B57F4B9BB01A78002A00D0D4
:1021C00092E07D4901321A7007328918052405A86A
:1021D00003F0D8FB062379494A780978A21A5343B9
:1021E00014225B185A43764B76499B18DA7A002AF8
:1021F00000D1754906271426013A6243734B0BA898
:102200009A1803F003FD6D4D71496A782B78A21A74
:102210007A43D21872436A4B10A8D21803F0F6FC26
:102220006B782A78E31A7B439B187343644A6949A5
:10223000D3189A8915A803F0E9FC674B07930BABF9
:10224000089310AB099315AB0A936B78E41A6743B4
:102250002B78FF1877435A4BDF19FA7A0423002AA8
:1022600000D1023B5D4907AA05A800930123FFF7AF
:1022700007F80024FEF7E4FDFEF794FA1421614309
:10228000E3B201934E4A4E4B68465B5A51184F8851
:10229000CE883F041F438B884D8936041E430B892B
:1022A0002D041D43CB898A891B041343103104225A
:1022B0000393013403F066FB380031002A00039BCE
:1022C000FFF7A6F8242CD9D105203C4A5378C31A2D
:1022D000013058431378C0180423C0B21A00190003
:1022E000FEF72AFAFEF734FA3D4B1A88962A28D9C7
:1022F00000223C481A8042883B498A4243D92F4CED
:102300006378042B01D80133DBB263700388962015
:102310004000834241D229480178002901D0013987
:10232000C9B20170C8212D3AFF3A92B209018A421E
:1023300004D82D3BFF3B9BB28B4202D900221D4BA0
:102340001A70FFF747F800281BD005231B4C627852
:1023500021789A1A0133534314225B185A43184BBD
:102360009B18DB7A002B20D0FFF77EFE00231F4A4C
:10237000637013701E4A237013701E4A13700D4A47
:1023800013701BB0F0BD96235B009A42BED20B4C7B
:102390006378002BB9D0013BB6E78B42C2D907481E
:1023A00001780429BDD80131BAE70222124B1A7014
:1023B000E7E7C04618000020E4620008A30E0020F2
:1023C000E8090020166E0008A06E00085070000892
:1023D0001E6E0008A86E0008B16E00089B6E000813
:1023E000CA090020BE090020AC0D0000DC09002055
:1023F000BC0900208F0E0020C40900200523F0B581
:102400009D4A87B0517802AF5B1A06215943137871
:102410000600CB1814215943984B2424C918FDF702
:1024200073FE0021002801D10131C9B2013CE4B2A0
:10243000002CF7D1142003F067FA914BB8601C70A0
:10244000904B1B78A3421BD8FEF7C4FF8C4CF8605E
:10245000002833D00220FFF7C3F92378002B0CD0DB
:102460001421894B02221878BB6841435918113155
:10247000814803F087FAFFF7F7FDBD4605B0F0BDD0
:102480007E4D31002800FDF73FFE00280FD12B7C48
:10249000013BA3420BD17A4B29001878421C1A70D9
:1024A00014235843BB681422181803F06BFA774BB7
:1024B00014359D42E5D10134E4B2C1E72378002B05
:1024C00068D0FEF725FF217802230139FA686E48AB
:1024D000C9B2FEF749FF6E4BFA681A70FEF762F94F
:1024E000FC6814216143654BE2B20192CA5A591843
:1024F0004B884E891B0413437B60CB888A881B045E
:1025000013433B600B89CD8936041E438B892D0410
:1025100004221D431031684603F034FA01343200BE
:102520002B0078683968FEF773FF242CD9D1564BFD
:1025300005221978142306205943BB6859188B7C4F
:10254000D31A58434B7C534AC018FA231288C0B29E
:102550005B009A4264D201904E880B88CD88360485
:102560001E438B882D041D434B890A891B04CC898B
:1025700013437B608B89240404221C43103168467A
:1025800003F000FA3000290023007A68FEF740FFCC
:10259000FEF7DEF86D463A4B01211B785A000B32EC
:1025A000D208D200AA1A9546002202AC2270A2706C
:1025B000354A617012780232E270142253436A463F
:1025C0000733DB08DB00D31A9D4602AE2C4BFA68BA
:1025D0001B789A422AD369469A000F32D208D20059
:1025E0008A1A95462C4902AA002B00D12B4911606A
:1025F0002B49100051601421594308307118B14221
:1026000036D10121002B01D00233D9B20091012330
:1026100020002449FEF734FEFEF712FCAD4613E716
:1026200000231A001900FEF787F8B1E714200521EE
:10263000FB685843BB681A18D37A3018013B4B43E8
:102640001949CB18917C01310191517C01310091E4
:10265000164903F0DBFA0122FB685B00E3181A71EC
:10266000FA6802325A71FB68581CC3B2FB60ADE7CE
:1026700040C01436C3E7C046A30E0020E80900207E
:10268000CC090020A10E00208F0E0020B80C0020E5
:10269000DC090020DE090020BD6E0008CE6E0008B7
:1026A0002B6D0008E76E000850700008DA6E000815
:1026B000F0B52E4E8BB03378002B2BD12C49013343
:1026C0001031022203A8337003F05CF9294B19681A
:1026D0000B78002B00D1284905AC200003F096FAB6
:1026E000049401242549230004AA03A80094FEF7BA
:1026F000C7FD6B46597B187B06235843C900033935
:1027000002385D2289B280B2DB180094FEF7FBFA32
:10271000FEF796FBFEF75EFE00280FD0184B154D16
:102720001C78002C0CD11748FEF784FF28602B681A
:1027300034701B785A1E9341114A13700BB0F0BDD0
:1027400001230024104F28683B70FFF757FE2868CC
:102750003C7003F00DF90D4B2C601C700C4B1C7081
:102760005C700C4B1C700C4B1C70E0E718000020D8
:10277000E4620008D0090020F46E0008046F00082D
:102780008E0E00200A6F0008E0090020DC090020FE
:10279000A30E0020BC0900208F0E0020F0B593B0DE
:1027A00008AE14220021300003F008F90023614A2A
:1027B0001370614B5B781C000393604B5B78049350
:1027C000A34214D2F37A002B04D1142230005C49C6
:1027D00003F0D8F8049B039A93422BD2FEF7FAFD3C
:1027E000002867D00320FEF7FBFF13B0F0BD524B6B
:1027F00006221D78052314271B1B5A4304924F4BB6
:102800001B78AB4202D20134E4B2D6E7049B4D49B7
:10281000EB187B43C918CB7A002B03D03A00300069
:1028200003F0B0F8434B434A1B7801350133137072
:10283000EDB2E4E7404B039A1C7805239B1A06226D
:102840005A4305923D4B1B78A34204D2039B0133AC
:10285000DBB20393BEE722222121059BE71804ABDC
:102860009B181B781D3AD31A0132534304AA5218FD
:1028700012789B189F4211D01422334B314D1E7891
:1028800008A90136F6B21E7013007B43ED1828002C
:1028900003F078F8039B2E746C74AB7414237B43A1
:1028A000284F0134FF18234BFA891B78E4B25343B5
:1028B000FB81C7E7032204AB18725A721D4B0DACA3
:1028C0001A782249200003F0A1F9012307AA0093F6
:1028D0001F4906A80794FEF7D3FCFEF7B1FAFDF7EF
:1028E00061FFFA231B4A5B0012889A421FD2124FE3
:1028F0007C78124B5B78A34202D2FDF729FF6DE78B
:1029000005231E1B01335E433D78F6B20B4B1B784B
:10291000AB4202D20134E4B2EBE700237019042287
:102920001900C0B20135FDF707FFEDB2EEE7FDF784
:1029300039FFE2E7880E0020E4090020E2090020C8
:10294000740E0020E8090020A10E00201B6F000873
:102950002B6F0008DE090020F0B5884B95B01B787E
:10296000002B00D081E0854A854901331370123174
:10297000062205A803F006F8824E83493378002B1F
:1029800000D08249824C0AAD63782278013301324B
:10299000280003F03BF90523062214206178591A18
:1029A0004A432178521850437A490918C87A7A491B
:1029B000002800D179490138434379480FACC31846
:1029C0001420424373481218D089019090890090D6
:1029D000200003F01BF93278724B002A00D0724BB2
:1029E00007930323714907AA05A80093023B0994A2
:1029F00008950024FEF744FCFEF722FAFDF7D2FE0C
:102A000014216143634BE2B20192CA5A5918CD882E
:102A10008B884F892D044E881D430B893F041F432B
:102A20003604CB8916438A891B04134310310422D0
:102A300068460393013402F0A5FF300029003A00F4
:102A4000039BFEF7E5FC242CDAD10520504A53788D
:102A5000C31A013058431378C0180423C0B21A00B7
:102A60001900FDF769FEFDF773FE514B1A88962A8F
:102A700028D900224F481A8042884F498A4238D9C3
:102A8000434C6378042B01D80133DBB263700388B5
:102A900096204000834236D23D480178002901D07B
:102AA0000139C9B20170C8212D3AFF3A92B2090129
:102AB0008A4204D82D3BFF3B9BB28B4202D90023B4
:102AC0002E4A1370FEF786FC002810D02D4D304C96
:102AD0002E783A4F002E1ED102222100380002F03B
:102AE00051FF264B1E702B785A4253412B7015B064
:102AF000F0BD96235B009A42C9D2254C6378002B27
:102B0000C4D0013BC1E78B42CDD9214801780429CB
:102B1000C8D80131C5E72A4E21000222300002F058
:102B200031FF38783178031C884200D90B1C254AC4
:102B300013707A787378161C9A4200D91E1C214FA4
:102B40007E70214E071C884200D20F1C3770111C6A
:102B50009A4200D2191C012371701C4E3370FFF78A
:102B60001DFE00231A4A337013701A4A63701370E3
:102B7000194A23701370014A1370B4E7180000203B
:102B8000E46200088D0E0020366F0008446F0008D4
:102B9000A30E0020E8090020506F0008CC6F000849
:102BA000507000085D6F0008706F00082B6F000800
:102BB000CA090020BE090020AC0D00008B0E0020C9
:102BC000890E0020E4090020E2090020E00900202D
:102BD000DC090020BC0900208F0E002010B512492E
:102BE00088B004000622183103A802F0CBFE4A2068
:102BF00060430E4B0E49C2180592020034301E325B
:102C0000D218C018032306920790009305AA023B2E
:102C100003A8FEF735FBFEF713F9FEF7DBFB0028F0
:102C2000FBD008B010BDC046E4620008B80C00201C
:102C3000816F0008F0B5424B424D1A78424EBDB04C
:102C4000002A3DD101233E4904AC0B702978A370C2
:102C5000023161700221E170C9186171C918E17116
:102C6000C9182371A37123726172A372C9182373E7
:102C7000364F06332270E1726373327003923B78F1
:102C8000002B4BD1324B02AA08930FAB099352236E
:102C90009B180A931EAB0B938E239B180C932DABA2
:102CA0000D93CA239B180E93337820000133DBB2B7
:102CB0002849009308AA0123FEF7E2FAFEF7C0F8BC
:102CC000FEF726FB31780223013900222800C9B221
:102CD000FEF74AFB204C2378002B0CD0012B06D1A9
:102CE00000231E4A2B70137053701D4A137000236B
:102CF000134A23701370FEF76DFB00280CD0287860
:102D0000FFF76CFF0023154A237013705370144AA9
:102D10002B7013700A4A13703DB0F0BD1E20039B48
:102D2000390058430FAB181802F090FF33784A3738
:102D300001333370039B01330393062B9FD1A1E72B
:102D4000180000208F0E0020E1090020B80C0020A0
:102D50002B6D00088D6F0008DC090020A30E0020F9
:102D6000BC090020F0B50025404F032200218BB0A4
:102D7000380002F023FE3E4B03220021D81C02F053
:102D80001DFE2C000626002D43D132006243394B34
:102D90009A18374B1979384B002903D00139714300
:102DA000344B5B18022D43D1300060433149091880
:102DB000009102A8314902F029FF002302210120DD
:102DC00002AAFEF74DFAFEF73BF8012D0ED8FEF7EA
:102DD0009FFA2B4B1A78032A34D1012C30D80134B6
:102DE000E4B23A5D002AF8D100221A70FEF7F2FA36
:102DF0000028C8D001223A551D4A6B1C01345519D0
:102E0000DBB2EC700024022B2BD91E4B1C700BB0D4
:102E1000F0BD174B184ADB78002B03D0013B7343FE
:102E2000144AD218012DB4D1330063431149CB1891
:102E30000F49487910490028BAD001387043B5E7E6
:102E40000024CEE7042ACFD10221002C05D0013C7A
:102E5000E4B23A5D002AF8D1C6E70C00F9E7013484
:102E6000E4B23A5D002AFAD11D008CE7900E0020F2
:102E7000970E00203E700008C8700008926F00088E
:102E8000DC09002018000020F0B500274D4E042278
:102E900000218DB0300002F091FD4B48042200214A
:102EA000063002F08BFD3C000525474B9C46002F69
:102EB0001FD12A006243454B9A186346D979444B87
:102EC0000393002904D001396943404B5B180393F5
:102ED000022F1DD1290061433C4841186046407AC9
:102EE000844663463A48002B22D060460138684346
:102EF0001BE09B79364A002B03D0013B6B43334ADE
:102F0000D218012FD9D12B0063433049CB1803933A
:102F10006146087A2E49002803D0013868432B49BE
:102F20000918032FDAD128006043844627486044FB
:102F3000039B0190009104A8264902F067FE00233C
:102F40000321012004AAFEF78BF9FDF779FF022F78
:102F50000ED8FEF7DDF9204B1A78032A1DD1022C7A
:102F600019D80134E4B2325D002AF8D100221A7077
:102F7000FEF730FA002898D001223255124A7B1C05
:102F80000134D719DBB2BC710024032B14D9134BC5
:102F90001C700DB0F0BD0024E5E7042AE6D1032142
:102FA000002C05D0013CE4B2325D002AF8D1DDE707
:102FB0000C00F9E70134E4B2325D002AFAD11F00B7
:102FC00073E7C046930E0020970E00205070000853
:102FD000C8700008A46F0008DC0900201800002059
:102FE0000023F0B585B0002400937F4B7F4F1B7802
:102FF000009A7C70934215D82000062600233B706F
:103000003A78052A00D89DE07B780133DBB27B70EB
:10301000052BF3D900237B707C78052C00D8C0E009
:1030200005B0F0BD6B46DC736B46DB7B3B706F4BD2
:103030001D785B780193052D0AD9019B0133DAB223
:103040006A4B5A70052AEFD9009B0133DBB2CAE7FD
:103050000523019A981A0133584343190293142304
:10306000029A5343624AD318DB7A002B65D0019E43
:1030700006212800FDF7ECF8C9B2052901D1013677
:10308000F6B2052301359C1BEDB20133190028006F
:103090005C43FDF7DDF81423C9B264185C43544B5C
:1030A0001C19E37A002BE3D0232DC6D814230298F1
:1030B000504E58434E4AF3781018013B4E4A9B003D
:1030C00021009B589847002826D105220621474D0C
:1030D00068782B78101A4843C01814235843444A80
:1030E00033791018013B444A9B0021009B589847B4
:1030F000002811D10522062168782B78101A484340
:10310000C018142358433A4B3B4A181873792100CE
:10311000013B9B009B58984700280EDA0522334B51
:10312000210058781B78101A01325043C01814231C
:1031300058432F4BC018FEF723FC2C4A1378013359
:10314000137074E72B4B9B78002B27D005237D78D9
:103150005D1B75430F33AD185D43254B5D19EB7A4D
:10316000002B18D00523181A70433100009020005E
:10317000FDF76EF8009BC9B25918142359431C4B34
:103180000134C9182800E4B2FEF7FAFB3100200030
:10319000FCF7D8FFC0B23B78013330E77E703E7059
:1031A000F9E700233B7005331E1B013373431426DC
:1031B00000933D78052D02D901347C702CE7009BEB
:1031C0000B48EB187343C018C17A002907D00222BC
:1031D0003900113002F0D6FB01353D70E9E73200CD
:1031E00002F0ECFBF8E7C046A10E0020A30E002081
:1031F000E8090020970E00200C000020F0B5734B6A
:10320000B5B01978002900D084E001221A7002AB11
:10321000197099706E48023159718918D971007806
:10322000891859728918DA701A719A711A729A7219
:10323000D9721A7389189A7302300632597358700A
:10324000DA73644B64491B78002B00D06349062075
:10325000634C644D2379E2786679013B013A013E83
:103260004343424370432818EB180090AA180EA855
:1032700002F0CCFC5C4B5D491B78002B00D05C4914
:103280000526607A5B4D013870432818E379A279EE
:103290000190207A013B0138013A7343724346435F
:1032A0005627EB18AA18AD19009514256F4438005D
:1032B00002F0ACFC2278504B6A431DAE9A184F497D
:1032C000300002F0A3FC62784B4B6A437E356D44BC
:1032D0009A184B49280002F099FCA2782CAC494975
:1032E0000132200002F092FC474B48490693484BBC
:1032F00006AA07930EAB0893464B02A80D9308232A
:103300000093073B09970A960B950C94FDF7B8FFBD
:10331000FDF796FDFDF7FCFF2D4D02230022052150
:103320002800FEF721F82B78022B05D1013B002263
:1033300019002B48FEF718F82B78032B06D12848E4
:10334000023B00221900C018FEF70EF82B78042B60
:1033500006D12348033B002219000230FEF704F88F
:103360002D4E3378002B03D00023184A337013708E
:10337000FEF730F8002826D02B78002B04D1FFF779
:10338000F1FC0122134B1A702C78012C03D1FFF7AA
:103390007BFD154B1C702B78052B14D10024FFF7F7
:1033A0001FFE114B0A221C700A4B21000C481C7096
:1033B00002F004FB194B34701C705C70184B2C70BD
:1033C0001C70024B1C7035B0F0BDC04618000020C8
:1033D0008F0E0020C5090020BD6F0008926F000805
:1033E000970E00203E700008C6090020C76F000835
:1033F000A46F000850700008647000081E6E00087A
:10340000D36F0008DC6F00082B6D00080070000807
:10341000EB6F0008496E0008DC090020A30E0020B5
:10342000BC09002010B5034B1B789B001B58984724
:1034300010BDC046BC090020F7B5FDF723FD374895
:1034400002F0D0F8FEF7B2FA002801D0FEF710FB28
:10345000002296214120324B89001A70314B992469
:103460001A70314B42251A70304BA4001A70304B41
:10347000CE27585402212F487F0019541420185386
:103480002D4C2E4E1A552E4C1A55763C1D552D4C52
:10349000413D1955013418532B48BE3C1D542B484F
:1034A000FF3C1D5476381C549C203F3CFF301C547C
:1034B0009738FF38D853A227FF37D9550137D95548
:1034C0002B315F3FFF31FF3F5F5438272A39FF39E7
:1034D000FF37D9551F003278FE3701923A000A278C
:1034E00057873E27FF37D9550137D9551900F93F7E
:1034F000C8310F701900D3310D7019001835D4314F
:103500000D801900019ADA331C70114BD931121851
:1035100032700C7018705870F7BDC04670050020EE
:10352000DC090020BC0900208F0E002018000020BC
:10353000E80900206302000069020000A10E0020DB
:103540006A020000FF010000050200000602000000
:10355000A30E002010B50248FFF764FFFBE7C0464A
:103560001C0000208023026870B5DB059A424AD116
:103570002D4C200000F07EFA0A21200000F0C4FA51
:10358000200000F025FB294D0A212880200000F0B2
:10359000BBFA200000F01CFB6880200000F096FAC7
:1035A000234A244D1388013313802A78002A1CD023
:1035B000214C238801339BB22380012A09D1FA21AF
:1035C00049008B4220D2ED39FF39A020C00500F020
:1035D00019FE2B78022B08D12388182B19D8012229
:1035E000A0200821C00500F00DFE144B144A1B78E2
:1035F000002B17D0FA20138800218000834201D2CB
:10360000013399B2118070BD0022082122802A70F6
:10361000DBE70022312BE3D94A2BE0D900222280BC
:103620002A70DDE71380EEE728040020BE090020A1
:10363000CA090020C4090020C2090020E0090020B6
:10364000DE0900200D4885460D480E490E4A00232C
:1036500002E0D458C4500433C4188C42F9D30B4A46
:103660000B4C002301E013600432A242FBD3FDF7B0
:10367000BFFD02F059F9FDF709F9FEE7002000202F
:1036800000000020A800002008710008A800002009
:10369000D40E0020FEE7000070B50500FA200D4BA7
:1036A00080001978FCF74EFD0B4B01001868FCF701
:1036B00049FD00F01BFB04000120002C09D1032D63
:1036C00007D802382200290000F0DAFA2000034B64
:1036D0001D6070BD3F000020080000204000002059
:1036E0004023084A10B5116803200B431360FFF70D
:1036F000D3FF041E03D1FDF78BFC200010BD012475
:10370000FBE7C04600200240034A044B11681B78C7
:103710005B1813607047C046A80E00203F000020D1
:10372000014B18687047C046A80E002070B5040011
:10373000FFF7F6FF0500631C02D0044B1B78E4186A
:10374000FFF7EEFF401BA042FAD370BD3F00002000
:10375000084B13B5040008491868FCF7F3FC444310
:103760000194019B002B00D113BD019B013B0193F0
:10377000F7E7C0460800002040420F00032103681D
:1037800070B5040098680840012801D0002070BD81
:103790001A680242FAD005229D681540012D1DD1FC
:1037A0009868033A02439A601960FFF7B9FF060070
:1037B00023689B682B42E9D0FFF7B2FF801B0A28E1
:1037C000F6D923689B682B42F2D01023626D01204A
:1037D00013436365A36D1D43A565D8E71023626D90
:1037E00013436365A36D0343A365D0E70321036817
:1037F00070B59A6804000A40012A04D11968114280
:1038000001D0002070BD9968154A114208D01023DC
:103810000120626D13436365A36D0343A365F1E764
:1038200001259A6828002A439A60FFF791FFFFF765
:1038300077FF060023681B682B42E2D1FFF770FF79
:10384000801B0A28F6D923681B682B42F2D110236B
:10385000626D012013436365A36D1D43A565D1E728
:10386000170000800422036870B5996804001142B3
:1038700001D1002070BD9968114206D09A68920764
:1038800003D4102299680A439A60FFF749FF04267F
:10389000050023689B683342EBD0FFF741FF401BD4
:1038A0000A28F6D923689B683342F2D010230120FE
:1038B000626D13436365A36D0343A365DAE70000FC
:1038C00070B504000120002C1BD0636D002B06D1C5
:1038D00022005032A36520001370FDF7A7FB636D33
:1038E000DB0606D4236804229968080010401142C0
:1038F00008D01023626D0120134363650023503408
:10390000237070BD626D5549114002220A43626501
:10391000032299681140524A012902D11D680D42C3
:1039200019D180266168F6054D006D08B54203D0B7
:1039300080252D06A94276D11D69AD00AD081D6117
:103940001D69294319611825D968A943D960D96827
:10395000A5682943D9601168424D29401160616B07
:103960001568490629431160802299685205114261
:1039700002D199680A439A60DA683B490A40216992
:10398000DA60DD68E268022900D10420266B611C40
:1039900032432A43A569C97FAD032A43E569ED0394
:1039A0002A434D032A4325002C352D786D002A43E8
:1039B0000243C220DA60626AFF30824204D0A56A04
:1039C000D8682A430243DA60A21CD27F012A06D1BA
:1039D000002934D18022D96852020A43DA60E16BAF
:1039E0001A69012933D12148656C02401A61226CA1
:1039F00018692A43A56C2A4302431A611A691143C4
:103A0000196107215A6900208A435A615A69A16BDA
:103A10000A435A610322A065636D93431A00012390
:103A2000134363656DE71D69114EAD00AD081D615F
:103A300015683540156015682943116083E720211A
:103A4000606D01436165A16D0A43A265C7E701216D
:103A50000A42D6D01A698A431A61D2E7FDFEFFFFF7
:103A600008270140FFFFFFFD1902FEFF03FCFFFFD7
:103A7000FFFFC3FF036870B59B68040002205B076B
:103A80001AD4250050352B78012B15D001232B702B
:103A9000E369012B11D1636D0B4A00201A4080238A
:103AA0005B0013431C226365A065287023681A60BD
:103AB0009968183A0A439A6070BD2000FFF796FE95
:103AC0000028E8D0F8E7C046FEF0FFFF70B506001A
:103AD0005036337804000220012B12D0012520003B
:103AE0003570FFF7BFFE002809D12000FFF746FE22
:103AF000002804D1636D034A13401D43656500230C
:103B0000337070BDFEFEFFFFF8B5456904000E007E
:103B1000082D0DD003680120DB680C25034207D077
:103B20002023626D50341343636000232370F8BD7B
:103B3000FFF7F6FD070023681A68154224D080229B
:103B4000616D92000A436265C022D9681201114278
:103B500013D1621CD27F002A0FD11A6812070CD52C
:103B60009A68520728D40C215A688A435A60626DB9
:103B70001649114001220A4362650020A26982426F
:103B8000D5D10C221A60D2E7721CD5D0002E0DD1EF
:103B90002A0023681B681A401D42CCD10423616DA2
:103BA00050340B43636003202270C0E7FFF7B8FD79
:103BB000C01BB042ECD8BEE72022616D0A436265AB
:103BC0000122A16D0A43A265D7E7C046FEFEFFFFB2
:103BD0000368186C70470000F8B504005034227870
:103BE00003000D000220012A0BD0013820701A6852
:103BF0009168490706D52022596D0A435A6500236A
:103C00002370F8BD80232868194E6F684103DB02DA
:103C1000490B0340B74219D0906A01439162002BCF
:103C200008D08023134A1B0411680A200B43136039
:103C3000FFF78EFD2B689B0305D580230D4ADB0320
:103C400011680B43136000202070DAE7956A8D43FA
:103C50009562002B04D0074A074913680B40136094
:103C60008303F0D5034A054913680B40EAE7C046D1
:103C70000110000008270140FFFF7FFFFFFFBFFF8B
:103C800030B5FF2503242A000440E400A240890146
:103C90002940D243A140C3B200280ADBC0240B4B09
:103CA00080088000C018A40003591A401143015134
:103CB00030BD0F200340083B05489B089B001B18A4
:103CC000D86902401143D961F2E7C04600E100E043
:103CD00000ED00E0002805DB1F2318401E3B834059
:103CE000014A13607047C04600E100E08022431E95
:103CF0005204012093420DD2C021074A0748536065
:103D0000036A09061B021B0A0B43036200200723F8
:103D1000906013607047C04610E000E000ED00E0E6
:103D2000F8B504000120002C35D025681A4B142169
:103D3000E818FCF707FA194B800023640223A21D40
:103D40006064D3772E68164BA1681E40E36827692C
:103D50000B433B4367693B43A7693B43E7693B43ED
:103D6000276A3B4333432B608023DB0199420CD00D
:103D70001C2528400D3D85400A490B68AB430B606C
:103D800063680D6883402B430B6000200123E063D0
:103D90000534D377E077F8BDF8FFFDBF000002409F
:103DA0000F80FFFFA8000240F7B5451D0193EB7F90
:103DB00004000220012B29D00123A71DEB77FB7FF4
:103DC00000269C466046DBB201282AD10130F877F4
:103DD0002068E663676C05681C363E409D43B3402F
:103DE0000560256C6B60019B4360A368102B0ED1AE
:103DF0008260C160236B002B0CD00E23026813433A
:103E0000036001230268134303600020FEBD81604C
:103E1000C260EFE7042203689343036002680A2349
:103E2000EDE70220EE77F1E7F8B51C220427466C97
:103E3000016C32403E0096400D6803681C683542B4
:103E40000DD03C420BD01A68920602D41A68BA43CD
:103E50001A60036B4E60002B19D0984717E00227B9
:103E60003E009640354213D03C4211D01A6892066B
:103E700006D40A241A68A2431A600122831DDA7745
:103E80000022431D4E60DA77C36A9342E5D1F8BD44
:103E90000826370097403D42F9D03442F7D00E252E
:103EA0001C68AC431C6001231C009440821D4C60C4
:103EB000C363D3770022431DDA77436BE5E7000045
:103EC000284A802190694900030030B50B40084220
:103ED00005D0022324484469234343610B0080201A
:103EE00091698000014205D001211F4C034365699F
:103EF0002943616180209169C000014205D00821F9
:103F0000194C03436569294361618020916900016F
:103F1000014205D00421144C0343656929436161C2
:103F2000802091698001014205D010210E4C03438D
:103F30006569294361619169890305D520200A4C8F
:103F4000034361690143616180209169400201423C
:103F500005D04021044C03436569294361619361A5
:103F600030BDC04600200240AC0E002070B50400F9
:103F7000FFF7D6FB01260500184B9A69324221D182
:103F800002229969114200D09A619A69D20515D42A
:103F90009A69920512D49A6952050FD49A6912054A
:103FA0000CD49A69920409D499698022080092027B
:103FB0001040114202D19B69DB0308D5FFF780FF57
:103FC000012004E0621CD8D0002C01D1032070BD78
:103FD000FFF7A6FB401BA042CED9F7E70020024026
:103FE0000122084B0020596811420AD0EFF31081DA
:103FF00072B60548D8600548D86081F310885868C3
:104000001040704700200240EFCDAB890504030249
:104010000123034A002051680B4353607047C04698
:1040200000200240F8B5124F06003B7C0D00140042
:104030000220012B0CD001230E483B74FFF796FFA2
:10404000002803D17861022E03D12C6000233B7439
:10405000F8BD012E02D1A4B22C80F7E7002E03D0C8
:104060000448FFF783FFF1E7E4B22C70EEE7C046A7
:10407000AC0E002050C30000584AF0B58218541E00
:10408000A241002387B0053203910592039A12687A
:104090001400DC4001D107B0F0BD01210D00140077
:1040A0009D402C408C4602942A4200D194E0032487
:1040B000039A5E00526801922240B440E143541ECC
:1040C000049164452AD887680F400399CC68019908
:1040D000B4403C4384604468AC4325000C0961460D
:1040E0000C409C402C434460C56804990D400399E2
:1040F0008C68B4402C43C460022A11D107250F21DB
:104100001D40AD00A940DC08A4000419276A8F43B4
:1041100003990969A9400F43276201E0032AE3D10B
:10412000B2400468049921400A430260C022019908
:104130009202114250D00127294C0326626B1D00C8
:104140003A436263274A9C08A400A418A268354039
:1041500094460F22AD00AA4061469143A022D205A9
:104160009446002260450DD01F4A94463A006045AF
:1041700008D01E4F9218B84204D01D4F3200B842EA
:1041800000D0059AAA400A430299A2600D00194A7C
:10419000CC43166801993543C90301D43500254045
:1041A00015605668029D01993543890301D4350095
:1041B000254055609668029D01993543C90201D496
:1041C000350025409560D568029E01992E438902ED
:1041D00001D425402E00D660013357E700E4FFAF3D
:1041E0000010024000000140000400500008005090
:1041F000000C00500004014000690840431E984133
:10420000C0B27047002A01D0816170478162FCE72B
:1042100003689A69920701D500229A62012299697E
:10422000114202D199690A439A61704730B5039CE3
:104230001204006822431A43054B45688905640D42
:10424000890D1C43A5430A432A43426030BDC04642
:10425000FF63FF03F8B5036816009A6904000D00B8
:104260000020D20636D55A68920104D480225968BB
:10427000D2010A435A60202723689A693A4212D031
:1042800010222000DA61DF61FFF7C2FF22681249C5
:1042900053680B4053600423626C13436364230030
:1042A00041331F700FE06A1CE7D0FFF739FA801B1B
:1042B000854201D3002DDFD12022636C1343636458
:1042C000230041331A70220000230120423240347F
:1042D00013702370F8BDC04600E800FEF8B5040076
:1042E0000D001600022723689B693B4201D0002085
:1042F000F8BD320029002000FFF7ACFF002815D1DF
:104300006B1CF0D0FFF70CFA801BA84201D8002DDF
:10431000E9D12022636C13436364230041331A7094
:104320002200002342324034137023700120DFE763
:10433000F8B504000D0016002027042223689B69AD
:10434000134211D1320029002000FFF783FF00281B
:1043500019D123689A693A4217D004219A690A420E
:1043600004D0228D002A01D00020F8BDDF615A68F8
:104370000E490A405A6022000023413263641770DC
:104380004034537023700120EFE7FFF7C9F9801B19
:10439000A84201D8002DD0D12022636C134363645E
:1043A000230041331A7040340023EBE700E800FE9D
:1043B000F8B504000E0017001D0022689369334011
:1043C0009B1B59424B41BB4201D0002017E06B1CA4
:1043D000F4D0FFF7A5F9069BC01AA84201D8002D1A
:1043E000EBD12022636C012013436364230041332B
:1043F0001A70220000234232403413702370F8BD3B
:10440000F8B504000D001600202723689B693B4285
:1044100001D00020F8BD320029002000FFF71AFF6C
:10442000002813D1FFF77CF9801BA84201D8002D8A
:10443000EBD12022636C13436364230041331A7071
:104440002200002342324034137023700120E1E740
:1044500070B504000120002C3FD0250041352B7899
:10446000DAB2002B05D12300403320001A70FCF78C
:1044700005FE242301212B7023681D481A68A668B5
:104480008A431A6061681B4A0A401A619A680240AE
:104490009A60E268012A21D18021090231439960A2
:1044A0005A68154911435960DA6861690240DA6057
:1044B000226900200A43A16909020A43DA60216ADD
:1044C000E2690A431A60012219680A431A6020232C
:1044D00060642B7020634234207070BD8421090217
:1044E00031439960022ADBD1802212015A60D7E75A
:1044F000FF7FFFFFFFFFFFF000800002F0B587B0F5
:10450000059303004133049203931B7804000F00CA
:104510000220202B14D1230040331A78012A0FD017
:1045200001261E70FFF7FCF880210500009019237A
:10453000320020000902FFF73BFF002802D00120D3
:1045400007B0F0BD21232600039A42361370113BB9
:104550003370049B60646362059B60636385628D56
:104560002D4BFF2A20D9FF222285009380235B0454
:1045700039002000FFF75AFE638D2A0020000C99B5
:10458000002B19D1FFF73CFF0028D8D12021236848
:10459000224DD9615A682A405A6023004034413381
:1045A000197030702070CBE7628D92B22285D2B242
:1045B000009380239B04DBE7FFF790FE0028BED129
:1045C000636A22681978013391626362638D228D78
:1045D000013B9BB26385013A638D92B22285002B29
:1045E000CAD0002AC8D1802120000C9B0095FFF77B
:1045F000DFFE0028A3D1638DFF2B06D9FF2323857F
:104600008023FF2200905B04B2E7628D92B2228584
:10461000D2B20090CDE7C0460020008000E800FE46
:10462000F0B587B0059303004133049203931B78E0
:1046300004000F000220202B14D1230040331A78ED
:10464000012A0FD001261E70FFF76AF880210500AD
:1046500000901923320020000902FFF7A9FE00286C
:1046600002D0012007B0F0BD22232600039A423673
:104670001370123B3370049B60646362059B60633C
:104680006385628D2D4BFF2A20D9FF22228500935E
:1046900080235B0439002000FFF7C8FD638D2A00EA
:1046A00020000C99002B19D1FFF7AAFE0028D8D1C1
:1046B00020212368224DD9615A682A405A6023007C
:1046C00040344133197030702070CBE7628D92B264
:1046D0002285D2B2009380239B04DBE7FFF728FEFC
:1046E0000028BED12368626A5B6A1370636A228DF8
:1046F00001336362638D013A013B9BB26385638D35
:1047000092B22285002BC9D0002AC7D18021200077
:104710000C9B0095FFF74CFE0028A2D1638DFF2B68
:1047200006D9FF2323858023FF2200905B04B1E795
:10473000628D92B22285D2B20090CCE70024008034
:1047400000E800FEF0B51E00002389B007930300C7
:10475000059241331A7804000225202A5BD10268B1
:1047600097698022380012021040174253D122006C
:1047700040321778012F4ED0013D15702422890553
:104780001A708B0D60640493E368012B2BD13E4BB0
:10479000049A134322685360FEF7C2FF039001227C
:1047A00023689D699B696D091B09154013401D43D2
:1047B0001CD0236810279B691A003A403B422DD138
:1047C000039B2021009320003300FFF7F1FD002818
:1047D00021D1202322680500D361220040344132D8
:1047E0001370207017E0A0239B01D1E7731CD6D073
:1047F000FEF796FF039BC01AB04201D8002ECED11F
:104800002200202341321370626C0125134363643C
:10481000002340342370280009B0F0BD039B002220
:104820000093202133002000FFF7C2FD021EF2D1C9
:1048300023680598DF612027DF61079981420FD146
:1048400080215868C90101435960039B39000093D6
:1048500020003300FFF7ACFD0028DCD12368DF61C6
:10486000079B059A01330793079B934200D28BE77E
:104870002200202341321370626C40341343636082
:1048800000232370C7E7C04600200002F0B50400F3
:104890004134227803000F000220D6B2202A18D11A
:1048A0001D0040352A78012A13D0242222701B686B
:1048B000233A19680748914319601968014000209C
:1048C000196019683943196019680A431A6026701B
:1048D0002870F0BDFFEFFFFF0200F0B54132147801
:1048E0000300E5B20220202C17D11C0040342678AA
:1048F000012E12D0223010701B6823381E68074F1B
:1049000086431E601E6809023E40314319601968E3
:1049100008431860002015702070F0BDFFF0FFFF05
:104920000C221D4B70B5DC682240082A31D00C2ABD
:1049300009D0042A25D11868184BC006C0171840A2
:10494000174BC01870BDA2021648120F805C80225F
:104950002402D968A40F52020134114209D0124A2C
:1049600000230021FBF79AFC22000023FBF776FCD2
:10497000E8E71A6810231A4201D00C4AF0E7084A07
:10498000EEE780205B6800021B045B0F0133984058
:10499000D8E70548D6E7C0460010024000E548FFCA
:1049A0000024F400046D000800127A0000093D00A4
:1049B000F0B5050085B000285AD00C23BE4C026823
:1049C000E668E7681E4080235B0219001F40D2079B
:1049D00042D42B689B0700D58BE02B68DB0629D5DA
:1049E000002E00D0DCE023689B0502D5EB69002B8C
:1049F0003ED06268B1496B6A0A401A4362606168DE
:104A00002A6A0902090A12060A43626080225B0BC5
:104A1000013312029A401300E1680A06A849120FF6
:104A20008A5CD340A74A1360A74B1868FEF734FE90
:104A3000002834D12B681B0700D5E8E02B685B0702
:104A400000D50AE12B689B0600D58EE1AB6A002BEE
:104A500000D0BDE1002022E0082E03D00C2E09D1A9
:104A6000002F07D023689B03B3D56B68002BB0D110
:104A7000012014E06A688A4213D12268134323603C
:104A8000FEF74EFE00908022236892021342A0D1CE
:104A9000FEF746FE009BC01A6428F4D9032005B037
:104AA000F0BDA021C9028A4205D180222168D2022C
:104AB0000A432260E1E721688448014021602168BF
:104AC0000B400393039B824923680B402360002A19
:104AD000D6D1FEF725FE0090802223689202134271
:104AE00000D176E7FEF71CFE009BC01A6428F3D9BC
:104AF000D4E7EA68042E03D00C2E24D1002F22D153
:104B000023685B0701D5002AB2D061682B69714820
:104B10001B0201400B430921636023688B4313434D
:104B20002360FFF7FDFEE368654A1B061B0FD35C9D
:104B3000D840644B1860644B1868FEF7ADFD002840
:104B400000D14AE7ABE72368002A18D009218B433C
:104B500013432360FEF7E4FD070004222368134299
:104B600007D062682B695B491B020A4013436360EC
:104B700033E7FEF7D5FDC01B0228EED98EE70122F0
:104B800093432360FEF7CCFD070004222368134201
:104B900000D122E7FEF7C4FDC01B0228F5D97DE74E
:104BA000EB69002B20D0802322685B001343236035
:104BB000FEF7B6FD070080222368920013420DD055
:104BC00063683E4A13406A6A1343636062682B6AF3
:104BD00012021B06120A134363602BE7FEF7A0FDC7
:104BE000C01B0228E7D959E723683B4A13402360DA
:104BF000FEF796FD0700802223689200134200D141
:104C000018E7FEF78DFDC01B0228F4D946E76A6954
:104C10000123002A10D0226D13432365FEF780FD87
:104C200007000222236D134200D007E7FEF778FD4C
:104C3000C01B0228F5D931E7226D9A432265FEF7A1
:104C40006FFD07000222236D134200D1F6E6FEF746
:104C500067FDC01B0228F5D920E780230021A26B45
:104C60005B0500911A4204D1A26B1343A363012395
:104C700000938022194F52003B68134208D08022D3
:104C8000AB68520093422BD1226D134323654CE055
:104C900080223B68520013433B60FEF741FD0190C8
:104CA00080223B6852001342E9D1FEF739FD019B97
:104CB000C01A6428F4D9F1E600100240FF1FFFFF7C
:104CC000F46C00080800002040000020FFFFFEFFF9
:104CD000FFFFFBFFFFE0FFFFFFFEFFFF0070004054
:104CE000002B16D1236D6B4A13402365236D6A4A4E
:104CF00013402365FEF714FD07008022236D920008
:104D000013421AD0FEF70CFD644BC01B9842F4D935
:104D1000C4E6A021C9008B4218D18023216DDB009D
:104D20000B432365236D1A432265FEF7F9FC070048
:104D30008022236D9200134210D0009B012B00D0E3
:104D400080E6A36B564A1340A3637BE6236D514A6A
:104D500013402365236D504A134097E7FEF7E0FCAC
:104D60004E4BC01B9842E3D998E6A96901234D4AEE
:104D7000002918D0A1681943A160616B0B436363DC
:104D80008023116A9B010B431362FEF7C9FC0700E5
:104D90000222A368134200D058E6FEF7C1FCC01BF4
:104DA0000228F5D97AE6A1689943A160136A3E49C1
:104DB0000B401362FEF7B4FC07000222A368134203
:104DC00000D143E6FEF7ACFCC01B0228F5D965E62E
:104DD0000C2E43D0354A022B2ED123688027134056
:104DE0002360FEF79DFC0600BF0423683B421DD1F3
:104DF000296BEB6AE2680B432D4980260A40134376
:104E00006A6BB6041343E360802322685B04134398
:104E10002360FEF785FC05002368334200D019E6C5
:104E2000FEF77EFC401B0228F6D937E6FEF778FC39
:104E3000801B0228D9D931E62368802613402360DD
:104E4000FEF76EFC0500B6042368334200D101E68C
:104E5000FEF766FC401B0228F6D91FE61800012B5E
:104E600000D11CE68022E368E96A52021A408A42B5
:104E700000D0FDE5F022296B92031A408A4200D04F
:104E8000F6E5C022120413406A6B934200D1E1E5BB
:104E9000EEE5C046FFFEFFFFFFFBFFFF88130000AB
:104EA000FFFFFFEF00000140FFDFFFFFFFFFFFFEFE
:104EB000FFFF02FFF7B5041E019101D10120FEBDE5
:104EC00001255B4E019A33682B40934231D322680F
:104ED000930743D4D30749D401253368019A2B4063
:104EE000934209D93368AB433360FEF719FC0700DE
:104EF00033682B4200D08CE022684E4D530700D51A
:104F00008FE0130706D5E96823694B4ADB000A40A6
:104F10001343EB60FFF704FDEB68484A1B061B0FC9
:104F2000D35CD840464B1860464B1868FEF7B4FB7C
:104F3000C5E73368019AAB4313433360FEF7F0FBD8
:104F400007003368019A2B409342C0D0FEF7E8FB7C
:104F50003D4BC01B9842F4D90320B0E7F0203549FF
:104F6000CB688343A0680343CB60B3E7314D6268ED
:104F70002B68022A18D19B03A0D50321EB688B4331
:104F80001343EB60FEF7CCFB63680700022B18D1DC
:104F90000C22EB681340082B9ED0FEF7C1FB2A4B76
:104FA000C01B9842F4D9D7E7032A02D19B01E4D46D
:104FB00084E7012A02D15B07DFD47FE79B05DCD4BD
:104FC0007CE7032B0BD10C22EB681340934283D078
:104FD000FEF7A6FB1C4BC01B9842F4D9BCE7012B83
:104FE00011D00C22EB68134200D175E7FEF798FB55
:104FF000154BC01B9842F4D9AEE7FEF791FB124B5C
:10500000C01B9842A8D80C22EB681340042BF4D1A3
:1050100062E7FEF785FB0C4BC01B984200D867E7A0
:105020009AE7EB6809490B40E1680B43EB6068E7DE
:105030000020024000100240FFC7FFFFF46C000890
:10504000080000204000002088130000FFF8FFFF48
:105050000368F7B505009B063CD5802300215A4C18
:105060005B05A26B00911A4204D1A26B1343A363A8
:10507000012300938027554E7F0033683B4262D066
:105080006A68C023C0201600216880039B021E406E
:10509000024001408A4267D1226D110019401A4234
:1050A0006AD16968C0230A009B021A409A4207D15C
:1050B000236847480340C020800301400B4323601E
:1050C000236D1A43009B2265012B03D1A36B414A38
:1050D0001340A3632B68DA0706D503203A49CA6C4C
:1050E0008243A8680243CA649A0706D50C20364951
:1050F000CA6C8243E8680243CA645A0706D532493B
:105100003548CA6C024028690243CA641A0706D5AA
:105110002D493248CA6C024068690243CA645A0683
:1051200006D529492E48CA6C0240E8690243CA6480
:1051300000201B0617D5244A2A49D36C0B40A969C5
:105140000B43D3640FE033683B433360FEF7E8FA68
:10515000019033683B4293D1FEF7E2FA019BC01AFB
:105160006428F6D90320FEBD9E4295D12268012015
:10517000920300D490E7F6E7B14200D191E72B68A3
:105180009B0600D48DE78022216D206D120302431F
:105190002265226D144B15480B40024022652365A1
:1051A000CB0500D47DE7FEF7BBFA80270600BF00E1
:1051B000236D3B4200D074E7FEF7B2FA0C4B801B24
:1051C0009842F5D9CEE7C04600100240007000407A
:1051D000FFFFCFFFFFFFFFEFFFF3FFFFFFCFFFFF5B
:1051E000FFFFFFFBFFFFF3FFFFFFFCFFFFFFF7FFEA
:1051F00088130000F0B51D00170085B00E000400F4
:10520000FEF78EFAED192D1AFEF78AFA254B01905A
:105210001B685B011B0D6B4322680393936833404B
:105220009E4201D0002032E07B1CF7D0FEF778FAD6
:10523000019BC01AA8422CD3E02123685A688A43F4
:105240005A6082226168520091420CD18021A2688A
:1052500009028A4203D08021C9008A4203D1402139
:105260001A688A431A608021A26A89018A4206D19B
:1052700019680D480140196019680A431A60230033
:10528000012251331A70002303205034237005B0DB
:10529000F0BD039B5A1E93415B421D40039B013BA3
:1052A000BAE7C04608000020FFDFFFFF164B73B5CA
:1052B00004000D00186815491600FAF743FFFA2399
:1052C0009B00434301938223616880225B009942E3
:1052D0000DD133002A0080212000FFF78BFF00282A
:1052E0000FD020230320626D1343636576BD019BBD
:1052F000002B06D0019B013B019323689B6813425E
:10530000F5D10020F2E7C0460800002000366E010B
:10531000F8B504000120002C54D0636A002B52D150
:10532000822261685200914200D0E361002325008F
:10533000A36251352B78DAB2002B05D1230050330C
:1053400020001A70FBF7C8FE022040222870216856
:1053500066680B68A76893430B6082235B00334049
:10536000842636023E4033438026E76836013E40BD
:1053700033432669A2693040012603436069E76927
:1053800030400343802080001040034338203840E1
:1053900003438020276A120C384003438020A76A09
:1053A0008001384003430B600423606A1A400C33C9
:1053B000034000201A434A60CB69054A1340CB6181
:1053C00060652E70F8BD002323616361AEE7C046BF
:1053D000FFF7FFFFF8B506005036337804000225CA
:1053E000012B3ED001230700337051373B78DDB2EB
:1053F000012B4AD1002932D0002A30D002333B7031
:10540000002343658363C286436403648387C38741
:10541000802382860163026880681B02984208D15B
:10542000402013688343136080231068DB0103432B
:105430001360A06C164B0C320363164BC362164B01
:10544000436300238363E38E9BB2FEF7ADFC002829
:1054500009D01023626D1343636501233B70002361
:1054600033702800F8BD402223681968114202D128
:1054700019680A431A602022596800250A435A60B5
:10548000022259680A435A60E9E70225E7E7C04665
:10549000A1540008D1540008AD540008704770476B
:1054A00010B5806AFFF7FBFF10BD70470321806ACB
:1054B00010B5026853688B4353601023426D134349
:1054C00043650300012251331A70FFF7EEFF10BD50
:1054D00037B50500846AFEF723F92B6820251B6881
:1054E00002002B4227D1022023685968A943596042
:1054F00059688143596020006421FFF7D7FE0028D6
:1055000002D0636D1D436565A368002B06D101932E
:105510002368DA6801929B680193019B0023E3866C
:105520002300012251331A70636D002B03D0200039
:10553000FFF7BBFF37BD2000FFF7B0FFFAE7000021
:10554000802210B50368D205904205D0104CA042CD
:1055500002D0104CA0420FD17024A3434C682343C7
:10556000904205D00A4A904202D00A4A904203D1A2
:10557000094A1340CA681343802293430A691343BC
:1055800003608B68C3620B6883620123436110BDB3
:105590000008014000140140FFFCFFFF70B504004B
:1055A0000120002C1DD0250039352B78DAB2002BD4
:1055B00005D12300383320001A70FBF7D3FD0223F6
:1055C0002B702068211DFFF7BBFF22000123002064
:1055D0003E3213703D34043A13705370937023704D
:1055E0002B7070BD02000300012039321178814216
:1055F00019D1022111701B68DA680243DA60802237
:10560000D205934205D00B4A934202D00A4A9342F4
:105610000AD107219A6800200A40062A03D00122F5
:1056200019680A431A6070471A681043186000200E
:10563000F9E7C0460008014000140140F0B505003C
:10564000022238352C7803001000012C1DD01E00DA
:10565000012439362C7032701B684C489A6802401D
:105660009A600A68602A5FD032D8402A00D174E07C
:1056700014D8202A0CD009D810211000884307D054
:1056800020000123337000232B70F0BD302AF7D1A6
:105690007020996881430A43072132E0502AEFD1F4
:1056A0001F6A1A6A4868A243F024C9681A629A6994
:1056B000A24314000A010A218F4339002243014307
:1056C0009A61196270219A688A431100572218E082
:1056D000802700207F01BA42D3D0802080018242FF
:1056E00013D02000702ACCD19A6829484C68104009
:1056F0008A68C968224309020A4302439A607722F2
:1057000099680A4300209A60BBE79A6820484C6871
:1057100010408A68C968224309020A4302439A601A
:1057200080229968D201ECE74868CF6810211A6A94
:10573000184C8A431A6299691A6A2140A024A2432C
:1057400014003F03394399617021020122431A6218
:105750009A688A4311006722D3E71F6A1A6A486869
:10576000A243F024C9681A629A69A24314000A018C
:105770000A218F433900224301439A611962702143
:105780009A688A4311004722BBE7C0468800FFFFA2
:10579000FF00FFFFFF0FFFFF704770477047704724
:1057A0000222036810B51969040011420DD0D968AE
:1057B00011420AD0053A1A61043202769B699B07AE
:1057C0005ED0FFF7EAFF00232376042223681969DD
:1057D000114210D0D96811420DD0093A1A6107322E
:1057E00022769A69C0239B0020001A424ED0FFF710
:1057F000D4FF0023237608222368196911420ED0B2
:10580000D96811420BD0113A1A610D322276DB6948
:1058100020009B0740D0FFF7C0FF00232376102213
:1058200023681969114210D0D96811420DD0213A6C
:105830001A6119322276DA69C0239B0020001A42CD
:1058400030D0FFF7AAFF00232376012223681969CD
:10585000114207D0D968114204D0033A20001A61DE
:10586000FDF780FE402223681969114207D0D968EC
:10587000114204D0813A20001A61FFF790FF10BD59
:10588000FFF78AFF2000FFF789FF9CE7FFF784FFFF
:105890002000FFF783FFACE7FFF77EFF2000FFF754
:1058A0007DFFBAE7FFF778FF2000FFF777FFCAE731
:1058B00070B5040002223834257803001000012D51
:1058C0001DD01D00702639352A701B6858689A68EB
:1058D000B0430E68304358608020C005834205D035
:1058E0000748834202D00748834204D18020496898
:1058F00082430A439A60012300202B70207070BD00
:10590000000801400014014010B5034B0A000100DB
:10591000186800F05BF810BD44000020014B1868C7
:105920007047C0464400002070B500260C4D0D4C59
:10593000641BA410A64209D1002600F0C7FC0A4D42
:105940000A4C641BA410A64205D170BDB300EB58ED
:1059500098470136EEE7B300EB5898470136F2E777
:10596000007100080071000800710008047100084F
:1059700010B5034B0100186800F054F810BDC04684
:1059800044000020002310B59A4200D110BDCC5C29
:10599000C4540133F8E710B5884202D98B189842F5
:1059A00003D3002307E08B5C8354013AFBD210BD84
:1059B000CC5CC45401339A42FAD1F8E70300821850
:1059C000934200D1704719700133F9E770B5130C99
:1059D0000D0C1ED1002B0CD189B294B24C43210086
:1059E00000F08CF8051E1BD022000021FFF7E6FF17
:1059F00016E01D1C0B1C92B289B29CB25143ABB293
:105A000063430C0C1C19220C07D1240489B20C43EB
:105A1000E5E7002B01D1131CEDE70C230025036003
:105A2000280070BD70B50500002910D00C1F236838
:105A3000002B00DAE418280000F010F91D4A136862
:105A4000002B05D163601460280000F00FF970BDD1
:105A5000A34208D9216860188342F3D118685B68B3
:105A600041182160EEE71A005B68002B01D0A342C9
:105A7000F9D911685018A0420BD1206809185018A4
:105A800011608342E0D118685B684118116053606F
:105A9000DAE7A04202D90C232B60D5E72168601811
:105AA000834203D118685B684118216063605460C9
:105AB000CAE7C046C40E002070B50F4E0D00316815
:105AC0000400002902D100F08FF830602900200086
:105AD00000F08AF8431C0AD00323C51C9D43A8424A
